{"abi":[{"type":"function","name":"lastMessage","inputs":[],"outputs":[{"name":"","type":"string","internalType":"string"}],"stateMutability":"view"},{"type":"function","name":"messenger","inputs":[],"outputs":[{"name":"","type":"address","internalType":"contract ITeleporterMessenger"}],"stateMutability":"view"},{"type":"function","name":"receiveTeleporterMessage","inputs":[{"name":"","type":"bytes32","internalType":"bytes32"},{"name":"","type":"address","internalType":"address"},{"name":"message","type":"bytes","internalType":"bytes"}],"outputs":[],"stateMutability":"nonpayable"},{"type":"function","name":"sendMessage","inputs":[{"name":"destinationBlockchainID","type":"bytes32","internalType":"bytes32"},{"name":"destinationAddress","type":"address","internalType":"address"},{"name":"message","type":"string","internalType":"string"}],"outputs":[],"stateMutability":"nonpayable"}],"bytecode":{"object":"0x60a060405273253b2784c75e510dd0ff1da844684a1ac0aa5fcf73ffffffffffffffffffffffffffffffffffffffff1660809073ffffffffffffffffffffffffffffffffffffffff168152503480156055575f5ffd5b50608051610e6161007b5f395f818160c4015281816102c701526102eb0152610e615ff3fe608060405234801561000f575f5ffd5b506004361061004a575f3560e01c80632ed2e8e01461004e578063329707101461006a5780633cb747bf14610088578063c868efaa146100a6575b5f5ffd5b61006860048036038101906100639190610499565b6100c2565b005b61007261023a565b60405161007f919061057a565b60405180910390f35b6100906102c5565b60405161009d91906105f5565b60405180910390f35b6100c060048036038101906100bb9190610663565b6102e9565b005b7f000000000000000000000000000000000000000000000000000000000000000073ffffffffffffffffffffffffffffffffffffffff1663624488506040518060c001604052808781526020018673ffffffffffffffffffffffffffffffffffffffff16815260200160405180604001604052805f73ffffffffffffffffffffffffffffffffffffffff1681526020015f8152508152602001620186a081526020015f67ffffffffffffffff81111561017e5761017d6106d4565b5b6040519080825280602002602001820160405280156101ac5781602001602082028036833780820191505090505b50815260200185856040516020016101c592919061073b565b6040516020818303038152906040528152506040518263ffffffff1660e01b81526004016101f39190610947565b6020604051808303815f875af115801561020f573d5f5f3e3d5ffd5b505050506040513d601f19601f82011682018060405250810190610233919061097b565b5050505050565b5f8054610246906109d3565b80601f0160208091040260200160405190810160405280929190818152602001828054610272906109d3565b80156102bd5780601f10610294576101008083540402835291602001916102bd565b820191905f5260205f20905b8154815290600101906020018083116102a057829003601f168201915b505050505081565b7f000000000000000000000000000000000000000000000000000000000000000081565b7f000000000000000000000000000000000000000000000000000000000000000073ffffffffffffffffffffffffffffffffffffffff163373ffffffffffffffffffffffffffffffffffffffff1614610377576040517f08c379a000000000000000000000000000000000000000000000000000000000815260040161036e90610a73565b60405180910390fd5b81818101906103869190610b7e565b5f90816103939190610d5c565b5050505050565b5f604051905090565b5f5ffd5b5f5ffd5b5f819050919050565b6103bd816103ab565b81146103c7575f5ffd5b50565b5f813590506103d8816103b4565b92915050565b5f73ffffffffffffffffffffffffffffffffffffffff82169050919050565b5f610407826103de565b9050919050565b610417816103fd565b8114610421575f5ffd5b50565b5f813590506104328161040e565b92915050565b5f5ffd5b5f5ffd5b5f5ffd5b5f5f83601f84011261045957610458610438565b5b8235905067ffffffffffffffff8111156104765761047561043c565b5b60208301915083600182028301111561049257610491610440565b5b9250929050565b5f5f5f5f606085870312156104b1576104b06103a3565b5b5f6104be878288016103ca565b94505060206104cf87828801610424565b935050604085013567ffffffffffffffff8111156104f0576104ef6103a7565b5b6104fc87828801610444565b925092505092959194509250565b5f81519050919050565b5f82825260208201905092915050565b8281835e5f83830152505050565b5f601f19601f8301169050919050565b5f61054c8261050a565b6105568185610514565b9350610566818560208601610524565b61056f81610532565b840191505092915050565b5f6020820190508181035f8301526105928184610542565b905092915050565b5f819050919050565b5f6105bd6105b86105b3846103de565b61059a565b6103de565b9050919050565b5f6105ce826105a3565b9050919050565b5f6105df826105c4565b9050919050565b6105ef816105d5565b82525050565b5f6020820190506106085f8301846105e6565b92915050565b5f5f83601f84011261062357610622610438565b5b8235905067ffffffffffffffff8111156106405761063f61043c565b5b60208301915083600182028301111561065c5761065b610440565b5b9250929050565b5f5f5f5f6060858703121561067b5761067a6103a3565b5b5f610688878288016103ca565b945050602061069987828801610424565b935050604085013567ffffffffffffffff8111156106ba576106b96103a7565b5b6106c68782880161060e565b925092505092959194509250565b7f4e487b71000000000000000000000000000000000000000000000000000000005f52604160045260245ffd5b828183375f83830152505050565b5f61071a8385610514565b9350610727838584610701565b61073083610532565b840190509392505050565b5f6020820190508181035f83015261075481848661070f565b90509392505050565b610766816103ab565b82525050565b610775816103fd565b82525050565b5f819050919050565b61078d8161077b565b82525050565b604082015f8201516107a75f85018261076c565b5060208201516107ba6020850182610784565b50505050565b5f81519050919050565b5f82825260208201905092915050565b5f819050602082019050919050565b5f6107f4838361076c565b60208301905092915050565b5f602082019050919050565b5f610816826107c0565b61082081856107ca565b935061082b836107da565b805f5b8381101561085b57815161084288826107e9565b975061084d83610800565b92505060018101905061082e565b5085935050505092915050565b5f81519050919050565b5f82825260208201905092915050565b5f61088c82610868565b6108968185610872565b93506108a6818560208601610524565b6108af81610532565b840191505092915050565b5f60e083015f8301516108cf5f86018261075d565b5060208301516108e2602086018261076c565b5060408301516108f56040860182610793565b5060608301516109086080860182610784565b50608083015184820360a0860152610920828261080c565b91505060a083015184820360c086015261093a8282610882565b9150508091505092915050565b5f6020820190508181035f83015261095f81846108ba565b905092915050565b5f81519050610975816103b4565b92915050565b5f602082840312156109905761098f6103a3565b5b5f61099d84828501610967565b91505092915050565b7f4e487b71000000000000000000000000000000000000000000000000000000005f52602260045260245ffd5b5f60028204905060018216806109ea57607f821691505b6020821081036109fd576109fc6109a6565b5b50919050565b7f53616d706c6553656e64657252656365697665723a20756e617574686f72697a5f8201527f65642054656c65706f727465724d657373656e67657200000000000000000000602082015250565b5f610a5d603683610514565b9150610a6882610a03565b604082019050919050565b5f6020820190508181035f830152610a8a81610a51565b9050919050565b5f5ffd5b610a9e82610532565b810181811067ffffffffffffffff82111715610abd57610abc6106d4565b5b80604052505050565b5f610acf61039a565b9050610adb8282610a95565b919050565b5f67ffffffffffffffff821115610afa57610af96106d4565b5b610b0382610532565b9050602081019050919050565b5f610b22610b1d84610ae0565b610ac6565b905082815260208101848484011115610b3e57610b3d610a91565b5b610b49848285610701565b509392505050565b5f82601f830112610b6557610b64610438565b5b8135610b75848260208601610b10565b91505092915050565b5f60208284031215610b9357610b926103a3565b5b5f82013567ffffffffffffffff811115610bb057610baf6103a7565b5b610bbc84828501610b51565b91505092915050565b5f819050815f5260205f209050919050565b5f6020601f8301049050919050565b5f82821b905092915050565b5f60088302610c217fffffffffffffffffffffffffffffffffffffffffffffffffffffffffffffffff82610be6565b610c2b8683610be6565b95508019841693508086168417925050509392505050565b5f610c5d610c58610c538461077b565b61059a565b61077b565b9050919050565b5f819050919050565b610c7683610c43565b610c8a610c8282610c64565b848454610bf2565b825550505050565b5f5f905090565b610ca1610c92565b610cac818484610c6d565b505050565b5b81811015610ccf57610cc45f82610c99565b600181019050610cb2565b5050565b601f821115610d1457610ce581610bc5565b610cee84610bd7565b81016020851015610cfd578190505b610d11610d0985610bd7565b830182610cb1565b50505b505050565b5f82821c905092915050565b5f610d345f1984600802610d19565b1980831691505092915050565b5f610d4c8383610d25565b9150826002028217905092915050565b610d658261050a565b67ffffffffffffffff811115610d7e57610d7d6106d4565b5b610d8882546109d3565b610d93828285610cd3565b5f60209050601f831160018114610dc4575f8415610db2578287015190505b610dbc8582610d41565b865550610e23565b601f198416610dd286610bc5565b5f5b82811015610df957848901518255600182019150602085019450602081019050610dd4565b86831015610e165784890151610e12601f891682610d25565b8355505b6001600288020188555050505b50505050505056fea2646970667358221220d8138b4a09aacc133ff7cd6ceb10d47d9119bedeefdb7e2937f953248f6039a664736f6c634300081c0033","linkReferences":{}},"methodIdentifiers":{"lastMessage()":"32970710","messenger()":"3cb747bf","receiveTeleporterMessage(bytes32,address,bytes)":"c868efaa","sendMessage(bytes32,address,string)":"2ed2e8e0"},"id":0}