{"abi":[{"type":"function","name":"lastMessage","inputs":[],"outputs":[{"name":"","type":"string","internalType":"string"}],"stateMutability":"view"},{"type":"function","name":"messenger","inputs":[],"outputs":[{"name":"","type":"address","internalType":"contract ITeleporterMessenger"}],"stateMutability":"view"},{"type":"function","name":"receiveTeleporterMessage","inputs":[{"name":"","type":"bytes32","internalType":"bytes32"},{"name":"","type":"address","internalType":"address"},{"name":"message","type":"bytes","internalType":"bytes"}],"outputs":[],"stateMutability":"nonpayable"}],"bytecode":{"object":"0x60a060405273253b2784c75e510dd0ff1da844684a1ac0aa5fcf73ffffffffffffffffffffffffffffffffffffffff1660809073ffffffffffffffffffffffffffffffffffffffff168152503480156055575f80fd5b5060805161096b6100755f395f8181610128015261014c015261096b5ff3fe608060405234801561000f575f80fd5b506004361061003f575f3560e01c806332970710146100435780633cb747bf14610061578063c868efaa1461007f575b5f80fd5b61004b61009b565b604051610058919061026b565b60405180910390f35b610069610126565b6040516100769190610305565b60405180910390f35b610099600480360381019061009491906103fe565b61014a565b005b5f80546100a79061049c565b80601f01602080910402602001604051908101604052809291908181526020018280546100d39061049c565b801561011e5780601f106100f55761010080835404028352916020019161011e565b820191905f5260205f20905b81548152906001019060200180831161010157829003601f168201915b505050505081565b7f000000000000000000000000000000000000000000000000000000000000000081565b7f000000000000000000000000000000000000000000000000000000000000000073ffffffffffffffffffffffffffffffffffffffff163373ffffffffffffffffffffffffffffffffffffffff16146101d8576040517f08c379a00000000000000000000000000000000000000000000000000000000081526004016101cf9061053c565b60405180910390fd5b81818101906101e79190610682565b5f90816101f49190610866565b5050505050565b5f81519050919050565b5f82825260208201905092915050565b8281835e5f83830152505050565b5f601f19601f8301169050919050565b5f61023d826101fb565b6102478185610205565b9350610257818560208601610215565b61026081610223565b840191505092915050565b5f6020820190508181035f8301526102838184610233565b905092915050565b5f73ffffffffffffffffffffffffffffffffffffffff82169050919050565b5f819050919050565b5f6102cd6102c86102c38461028b565b6102aa565b61028b565b9050919050565b5f6102de826102b3565b9050919050565b5f6102ef826102d4565b9050919050565b6102ff816102e5565b82525050565b5f6020820190506103185f8301846102f6565b92915050565b5f604051905090565b5f80fd5b5f80fd5b5f819050919050565b6103418161032f565b811461034b575f80fd5b50565b5f8135905061035c81610338565b92915050565b5f61036c8261028b565b9050919050565b61037c81610362565b8114610386575f80fd5b50565b5f8135905061039781610373565b92915050565b5f80fd5b5f80fd5b5f80fd5b5f8083601f8401126103be576103bd61039d565b5b8235905067ffffffffffffffff8111156103db576103da6103a1565b5b6020830191508360018202830111156103f7576103f66103a5565b5b9250929050565b5f805f806060858703121561041657610415610327565b5b5f6104238782880161034e565b945050602061043487828801610389565b935050604085013567ffffffffffffffff8111156104555761045461032b565b5b610461878288016103a9565b925092505092959194509250565b7f4e487b71000000000000000000000000000000000000000000000000000000005f52602260045260245ffd5b5f60028204905060018216806104b357607f821691505b6020821081036104c6576104c561046f565b5b50919050565b7f52656365697665724f6e5375626e65743a20756e617574686f72697a656420545f8201527f656c65706f727465724d657373656e6765720000000000000000000000000000602082015250565b5f610526603283610205565b9150610531826104cc565b604082019050919050565b5f6020820190508181035f8301526105538161051a565b9050919050565b5f80fd5b7f4e487b71000000000000000000000000000000000000000000000000000000005f52604160045260245ffd5b61059482610223565b810181811067ffffffffffffffff821117156105b3576105b261055e565b5b80604052505050565b5f6105c561031e565b90506105d1828261058b565b919050565b5f67ffffffffffffffff8211156105f0576105ef61055e565b5b6105f982610223565b9050602081019050919050565b828183375f83830152505050565b5f610626610621846105d6565b6105bc565b9050828152602081018484840111156106425761064161055a565b5b61064d848285610606565b509392505050565b5f82601f8301126106695761066861039d565b5b8135610679848260208601610614565b91505092915050565b5f6020828403121561069757610696610327565b5b5f82013567ffffffffffffffff8111156106b4576106b361032b565b5b6106c084828501610655565b91505092915050565b5f819050815f5260205f209050919050565b5f6020601f8301049050919050565b5f82821b905092915050565b5f600883026107257fffffffffffffffffffffffffffffffffffffffffffffffffffffffffffffffff826106ea565b61072f86836106ea565b95508019841693508086168417925050509392505050565b5f819050919050565b5f61076a61076561076084610747565b6102aa565b610747565b9050919050565b5f819050919050565b61078383610750565b61079761078f82610771565b8484546106f6565b825550505050565b5f90565b6107ab61079f565b6107b681848461077a565b505050565b5b818110156107d9576107ce5f826107a3565b6001810190506107bc565b5050565b601f82111561081e576107ef816106c9565b6107f8846106db565b81016020851015610807578190505b61081b610813856106db565b8301826107bb565b50505b505050565b5f82821c905092915050565b5f61083e5f1984600802610823565b1980831691505092915050565b5f610856838361082f565b9150826002028217905092915050565b61086f826101fb565b67ffffffffffffffff8111156108885761088761055e565b5b610892825461049c565b61089d8282856107dd565b5f60209050601f8311600181146108ce575f84156108bc578287015190505b6108c6858261084b565b86555061092d565b601f1984166108dc866106c9565b5f5b82811015610903578489015182556001820191506020850194506020810190506108de565b86831015610920578489015161091c601f89168261082f565b8355505b6001600288020188555050505b50505050505056fea264697066735822122090845a8c302f4c8c6230d779a7e869a8cbec4517f12f26cd634fe0d1817ccda764736f6c63430008190033","linkReferences":{}},"methodIdentifiers":{"lastMessage()":"32970710","messenger()":"3cb747bf","receiveTeleporterMessage(bytes32,address,bytes)":"c868efaa"},"id":2}