{"abi":[{"type":"function","name":"messenger","inputs":[],"outputs":[{"name":"","type":"address","internalType":"contract ITeleporterMessenger"}],"stateMutability":"view"},{"type":"function","name":"receiveTeleporterMessage","inputs":[{"name":"sourceBlockchainID","type":"bytes32","internalType":"bytes32"},{"name":"originSenderAddress","type":"address","internalType":"address"},{"name":"message","type":"bytes","internalType":"bytes"}],"outputs":[],"stateMutability":"nonpayable"}],"bytecode":{"object":"0x60a060405273253b2784c75e510dd0ff1da844684a1ac0aa5fcf73ffffffffffffffffffffffffffffffffffffffff1660809073ffffffffffffffffffffffffffffffffffffffff168152503480156055575f80fd5b50608051610a4161007a5f395f8181607401528181609801526101570152610a415ff3fe608060405234801561000f575f80fd5b5060043610610034575f3560e01c80633cb747bf14610038578063c868efaa14610056575b5f80fd5b610040610072565b60405161004d9190610346565b60405180910390f35b610070600480360381019061006b919061043f565b610096565b005b7f000000000000000000000000000000000000000000000000000000000000000081565b7f000000000000000000000000000000000000000000000000000000000000000073ffffffffffffffffffffffffffffffffffffffff163373ffffffffffffffffffffffffffffffffffffffff1614610124576040517f08c379a000000000000000000000000000000000000000000000000000000000815260040161011b90610530565b60405180910390fd5b5f82828101906101349190610686565b6040516020016101449190610745565b60405160208183030381529060405290507f000000000000000000000000000000000000000000000000000000000000000073ffffffffffffffffffffffffffffffffffffffff1663624488506040518060c001604052808881526020018773ffffffffffffffffffffffffffffffffffffffff16815260200160405180604001604052805f73ffffffffffffffffffffffffffffffffffffffff1681526020015f8152508152602001620186a081526020015f67ffffffffffffffff81111561021157610210610562565b5b60405190808252806020026020018201604052801561023f5781602001602082028036833780820191505090505b5081526020018460405160200161025691906107a2565b6040516020818303038152906040528152506040518263ffffffff1660e01b815260040161028491906109ac565b6020604051808303815f875af11580156102a0573d5f803e3d5ffd5b505050506040513d601f19601f820116820180604052508101906102c491906109e0565b505050505050565b5f73ffffffffffffffffffffffffffffffffffffffff82169050919050565b5f819050919050565b5f61030e610309610304846102cc565b6102eb565b6102cc565b9050919050565b5f61031f826102f4565b9050919050565b5f61033082610315565b9050919050565b61034081610326565b82525050565b5f6020820190506103595f830184610337565b92915050565b5f604051905090565b5f80fd5b5f80fd5b5f819050919050565b61038281610370565b811461038c575f80fd5b50565b5f8135905061039d81610379565b92915050565b5f6103ad826102cc565b9050919050565b6103bd816103a3565b81146103c7575f80fd5b50565b5f813590506103d8816103b4565b92915050565b5f80fd5b5f80fd5b5f80fd5b5f8083601f8401126103ff576103fe6103de565b5b8235905067ffffffffffffffff81111561041c5761041b6103e2565b5b602083019150836001820283011115610438576104376103e6565b5b9250929050565b5f805f806060858703121561045757610456610368565b5b5f6104648782880161038f565b9450506020610475878288016103ca565b935050604085013567ffffffffffffffff8111156104965761049561036c565b5b6104a2878288016103ea565b925092505092959194509250565b5f82825260208201905092915050565b7f52656365697665724f6e5375626e65743a20756e617574686f72697a656420545f8201527f656c65706f727465724d657373656e6765720000000000000000000000000000602082015250565b5f61051a6032836104b0565b9150610525826104c0565b604082019050919050565b5f6020820190508181035f8301526105478161050e565b9050919050565b5f80fd5b5f601f19601f8301169050919050565b7f4e487b71000000000000000000000000000000000000000000000000000000005f52604160045260245ffd5b61059882610552565b810181811067ffffffffffffffff821117156105b7576105b6610562565b5b80604052505050565b5f6105c961035f565b90506105d5828261058f565b919050565b5f67ffffffffffffffff8211156105f4576105f3610562565b5b6105fd82610552565b9050602081019050919050565b828183375f83830152505050565b5f61062a610625846105da565b6105c0565b9050828152602081018484840111156106465761064561054e565b5b61065184828561060a565b509392505050565b5f82601f83011261066d5761066c6103de565b5b813561067d848260208601610618565b91505092915050565b5f6020828403121561069b5761069a610368565b5b5f82013567ffffffffffffffff8111156106b8576106b761036c565b5b6106c484828501610659565b91505092915050565b5f81519050919050565b5f81905092915050565b8281835e5f83830152505050565b5f6106f9826106cd565b61070381856106d7565b93506107138185602086016106e1565b80840191505092915050565b7f20576f726c642100000000000000000000000000000000000000000000000000815250565b5f61075082846106ef565b915061075b8261071f565b60078201915081905092915050565b5f610774826106cd565b61077e81856104b0565b935061078e8185602086016106e1565b61079781610552565b840191505092915050565b5f6020820190508181035f8301526107ba818461076a565b905092915050565b6107cb81610370565b82525050565b6107da816103a3565b82525050565b5f819050919050565b6107f2816107e0565b82525050565b604082015f82015161080c5f8501826107d1565b50602082015161081f60208501826107e9565b50505050565b5f81519050919050565b5f82825260208201905092915050565b5f819050602082019050919050565b5f61085983836107d1565b60208301905092915050565b5f602082019050919050565b5f61087b82610825565b610885818561082f565b93506108908361083f565b805f5b838110156108c05781516108a7888261084e565b97506108b283610865565b925050600181019050610893565b5085935050505092915050565b5f81519050919050565b5f82825260208201905092915050565b5f6108f1826108cd565b6108fb81856108d7565b935061090b8185602086016106e1565b61091481610552565b840191505092915050565b5f60e083015f8301516109345f8601826107c2565b50602083015161094760208601826107d1565b50604083015161095a60408601826107f8565b50606083015161096d60808601826107e9565b50608083015184820360a08601526109858282610871565b91505060a083015184820360c086015261099f82826108e7565b9150508091505092915050565b5f6020820190508181035f8301526109c4818461091f565b905092915050565b5f815190506109da81610379565b92915050565b5f602082840312156109f5576109f4610368565b5b5f610a02848285016109cc565b9150509291505056fea2646970667358221220049899a433e4955152962f55bb11af0eaa0d4915cb54b37a43bd2adafd91bbdc64736f6c63430008190033","linkReferences":{}},"methodIdentifiers":{"messenger()":"3cb747bf","receiveTeleporterMessage(bytes32,address,bytes)":"c868efaa"},"id":2}