{"abi":[{"type":"function","name":"messenger","inputs":[],"outputs":[{"name":"","type":"address","internalType":"contract ITeleporterMessenger"}],"stateMutability":"view"},{"type":"function","name":"sendMessage","inputs":[{"name":"destinationAddress","type":"address","internalType":"address"},{"name":"message","type":"string","internalType":"string"},{"name":"destinationBlockchainID","type":"bytes32","internalType":"bytes32"}],"outputs":[],"stateMutability":"nonpayable"}],"bytecode":{"object":"0x60a060405273253b2784c75e510dd0ff1da844684a1ac0aa5fcf73ffffffffffffffffffffffffffffffffffffffff1660809073ffffffffffffffffffffffffffffffffffffffff168152503480156055575f80fd5b5060805161071f6100735f395f8181607401526098015261071f5ff3fe608060405234801561000f575f80fd5b5060043610610034575f3560e01c80633cb747bf1461003857806364ee358814610056575b5f80fd5b610040610072565b60405161004d9190610288565b60405180910390f35b610070600480360381019061006b9190610378565b610096565b005b7f000000000000000000000000000000000000000000000000000000000000000081565b7f000000000000000000000000000000000000000000000000000000000000000073ffffffffffffffffffffffffffffffffffffffff1663624488506040518060c001604052808481526020018773ffffffffffffffffffffffffffffffffffffffff16815260200160405180604001604052805f73ffffffffffffffffffffffffffffffffffffffff1681526020015f8152508152602001620186a081526020015f67ffffffffffffffff811115610152576101516103e9565b5b6040519080825280602002602001820160405280156101805781602001602082028036833780820191505090505b5081526020018686604051602001610199929190610470565b6040516020818303038152906040528152506040518263ffffffff1660e01b81526004016101c7919061068a565b6020604051808303815f875af11580156101e3573d5f803e3d5ffd5b505050506040513d601f19601f8201168201806040525081019061020791906106be565b5050505050565b5f73ffffffffffffffffffffffffffffffffffffffff82169050919050565b5f819050919050565b5f61025061024b6102468461020e565b61022d565b61020e565b9050919050565b5f61026182610236565b9050919050565b5f61027282610257565b9050919050565b61028281610268565b82525050565b5f60208201905061029b5f830184610279565b92915050565b5f80fd5b5f80fd5b5f6102b38261020e565b9050919050565b6102c3816102a9565b81146102cd575f80fd5b50565b5f813590506102de816102ba565b92915050565b5f80fd5b5f80fd5b5f80fd5b5f8083601f840112610305576103046102e4565b5b8235905067ffffffffffffffff811115610322576103216102e8565b5b60208301915083600182028301111561033e5761033d6102ec565b5b9250929050565b5f819050919050565b61035781610345565b8114610361575f80fd5b50565b5f813590506103728161034e565b92915050565b5f805f80606085870312156103905761038f6102a1565b5b5f61039d878288016102d0565b945050602085013567ffffffffffffffff8111156103be576103bd6102a5565b5b6103ca878288016102f0565b935093505060406103dd87828801610364565b91505092959194509250565b7f4e487b71000000000000000000000000000000000000000000000000000000005f52604160045260245ffd5b5f82825260208201905092915050565b828183375f83830152505050565b5f601f19601f8301169050919050565b5f61044f8385610416565b935061045c838584610426565b61046583610434565b840190509392505050565b5f6020820190508181035f830152610489818486610444565b90509392505050565b61049b81610345565b82525050565b6104aa816102a9565b82525050565b5f819050919050565b6104c2816104b0565b82525050565b604082015f8201516104dc5f8501826104a1565b5060208201516104ef60208501826104b9565b50505050565b5f81519050919050565b5f82825260208201905092915050565b5f819050602082019050919050565b5f61052983836104a1565b60208301905092915050565b5f602082019050919050565b5f61054b826104f5565b61055581856104ff565b93506105608361050f565b805f5b83811015610590578151610577888261051e565b975061058283610535565b925050600181019050610563565b5085935050505092915050565b5f81519050919050565b5f82825260208201905092915050565b8281835e5f83830152505050565b5f6105cf8261059d565b6105d981856105a7565b93506105e98185602086016105b7565b6105f281610434565b840191505092915050565b5f60e083015f8301516106125f860182610492565b50602083015161062560208601826104a1565b50604083015161063860408601826104c8565b50606083015161064b60808601826104b9565b50608083015184820360a08601526106638282610541565b91505060a083015184820360c086015261067d82826105c5565b9150508091505092915050565b5f6020820190508181035f8301526106a281846105fd565b905092915050565b5f815190506106b88161034e565b92915050565b5f602082840312156106d3576106d26102a1565b5b5f6106e0848285016106aa565b9150509291505056fea26469706673582212209288242261f5a1eb08b04300623b2393841d978b2dfb64e2b29e3e34bfbdd5cf64736f6c63430008190033","linkReferences":{}},"methodIdentifiers":{"messenger()":"3cb747bf","sendMessage(address,string,bytes32)":"64ee3588"},"id":3}