{"abi":[{"type":"function","name":"messenger","inputs":[],"outputs":[{"name":"","type":"address","internalType":"contract ITeleporterMessenger"}],"stateMutability":"view"},{"type":"function","name":"receiveTeleporterMessage","inputs":[{"name":"","type":"bytes32","internalType":"bytes32"},{"name":"","type":"address","internalType":"address"},{"name":"message","type":"bytes","internalType":"bytes"}],"outputs":[],"stateMutability":"nonpayable"},{"type":"function","name":"roundtripMessage","inputs":[],"outputs":[{"name":"","type":"string","internalType":"string"}],"stateMutability":"view"},{"type":"function","name":"sendMessage","inputs":[{"name":"destinationAddress","type":"address","internalType":"address"},{"name":"destinationBlockchainID","type":"bytes32","internalType":"bytes32"},{"name":"message","type":"string","internalType":"string"}],"outputs":[],"stateMutability":"nonpayable"}],"bytecode":{"object":"0x60a060405273253b2784c75e510dd0ff1da844684a1ac0aa5fcf73ffffffffffffffffffffffffffffffffffffffff1660809073ffffffffffffffffffffffffffffffffffffffff168152503480156055575f80fd5b50608051610db361007a5f395f818160c40152818160e801526102e80152610db35ff3fe608060405234801561000f575f80fd5b506004361061004a575f3560e01c80633cb747bf1461004e57806352c155eb1461006c57806356974b1614610088578063c868efaa146100a6575b5f80fd5b6100566100c2565b6040516100639190610411565b60405180910390f35b610086600480360381019061008191906105e5565b6100e6565b005b61009061025b565b60405161009d91906106b1565b60405180910390f35b6100c060048036038101906100bb919061072e565b6102e6565b005b7f000000000000000000000000000000000000000000000000000000000000000081565b7f000000000000000000000000000000000000000000000000000000000000000073ffffffffffffffffffffffffffffffffffffffff1663624488506040518060c001604052808581526020018673ffffffffffffffffffffffffffffffffffffffff16815260200160405180604001604052805f73ffffffffffffffffffffffffffffffffffffffff1681526020015f815250815260200162030d4081526020015f67ffffffffffffffff8111156101a2576101a16104c1565b5b6040519080825280602002602001820160405280156101d05781602001602082028036833780820191505090505b508152602001846040516020016101e791906106b1565b6040516020818303038152906040528152506040518263ffffffff1660e01b81526004016102159190610989565b6020604051808303815f875af1158015610231573d5f803e3d5ffd5b505050506040513d601f19601f8201168201806040525081019061025591906109bd565b50505050565b5f805461026790610a15565b80601f016020809104026020016040519081016040528092919081815260200182805461029390610a15565b80156102de5780601f106102b5576101008083540402835291602001916102de565b820191905f5260205f20905b8154815290600101906020018083116102c157829003601f168201915b505050505081565b7f000000000000000000000000000000000000000000000000000000000000000073ffffffffffffffffffffffffffffffffffffffff163373ffffffffffffffffffffffffffffffffffffffff1614610374576040517f08c379a000000000000000000000000000000000000000000000000000000000815260040161036b90610ab5565b60405180910390fd5b81818101906103839190610ad3565b5f90816103909190610cae565b5050505050565b5f73ffffffffffffffffffffffffffffffffffffffff82169050919050565b5f819050919050565b5f6103d96103d46103cf84610397565b6103b6565b610397565b9050919050565b5f6103ea826103bf565b9050919050565b5f6103fb826103e0565b9050919050565b61040b816103f1565b82525050565b5f6020820190506104245f830184610402565b92915050565b5f604051905090565b5f80fd5b5f80fd5b5f61044582610397565b9050919050565b6104558161043b565b811461045f575f80fd5b50565b5f813590506104708161044c565b92915050565b5f819050919050565b61048881610476565b8114610492575f80fd5b50565b5f813590506104a38161047f565b92915050565b5f80fd5b5f80fd5b5f601f19601f8301169050919050565b7f4e487b71000000000000000000000000000000000000000000000000000000005f52604160045260245ffd5b6104f7826104b1565b810181811067ffffffffffffffff82111715610516576105156104c1565b5b80604052505050565b5f61052861042a565b905061053482826104ee565b919050565b5f67ffffffffffffffff821115610553576105526104c1565b5b61055c826104b1565b9050602081019050919050565b828183375f83830152505050565b5f61058961058484610539565b61051f565b9050828152602081018484840111156105a5576105a46104ad565b5b6105b0848285610569565b509392505050565b5f82601f8301126105cc576105cb6104a9565b5b81356105dc848260208601610577565b91505092915050565b5f805f606084860312156105fc576105fb610433565b5b5f61060986828701610462565b935050602061061a86828701610495565b925050604084013567ffffffffffffffff81111561063b5761063a610437565b5b610647868287016105b8565b9150509250925092565b5f81519050919050565b5f82825260208201905092915050565b8281835e5f83830152505050565b5f61068382610651565b61068d818561065b565b935061069d81856020860161066b565b6106a6816104b1565b840191505092915050565b5f6020820190508181035f8301526106c98184610679565b905092915050565b5f80fd5b5f80fd5b5f8083601f8401126106ee576106ed6104a9565b5b8235905067ffffffffffffffff81111561070b5761070a6106d1565b5b602083019150836001820283011115610727576107266106d5565b5b9250929050565b5f805f806060858703121561074657610745610433565b5b5f61075387828801610495565b945050602061076487828801610462565b935050604085013567ffffffffffffffff81111561078557610784610437565b5b610791878288016106d9565b925092505092959194509250565b6107a881610476565b82525050565b6107b78161043b565b82525050565b5f819050919050565b6107cf816107bd565b82525050565b604082015f8201516107e95f8501826107ae565b5060208201516107fc60208501826107c6565b50505050565b5f81519050919050565b5f82825260208201905092915050565b5f819050602082019050919050565b5f61083683836107ae565b60208301905092915050565b5f602082019050919050565b5f61085882610802565b610862818561080c565b935061086d8361081c565b805f5b8381101561089d578151610884888261082b565b975061088f83610842565b925050600181019050610870565b5085935050505092915050565b5f81519050919050565b5f82825260208201905092915050565b5f6108ce826108aa565b6108d881856108b4565b93506108e881856020860161066b565b6108f1816104b1565b840191505092915050565b5f60e083015f8301516109115f86018261079f565b50602083015161092460208601826107ae565b50604083015161093760408601826107d5565b50606083015161094a60808601826107c6565b50608083015184820360a0860152610962828261084e565b91505060a083015184820360c086015261097c82826108c4565b9150508091505092915050565b5f6020820190508181035f8301526109a181846108fc565b905092915050565b5f815190506109b78161047f565b92915050565b5f602082840312156109d2576109d1610433565b5b5f6109df848285016109a9565b91505092915050565b7f4e487b71000000000000000000000000000000000000000000000000000000005f52602260045260245ffd5b5f6002820490506001821680610a2c57607f821691505b602082108103610a3f57610a3e6109e8565b5b50919050565b7f53656e6465724f6e43436861696e3a20756e617574686f72697a65642054656c5f8201527f65706f727465724d657373656e67657200000000000000000000000000000000602082015250565b5f610a9f60308361065b565b9150610aaa82610a45565b604082019050919050565b5f6020820190508181035f830152610acc81610a93565b9050919050565b5f60208284031215610ae857610ae7610433565b5b5f82013567ffffffffffffffff811115610b0557610b04610437565b5b610b11848285016105b8565b91505092915050565b5f819050815f5260205f209050919050565b5f6020601f8301049050919050565b5f82821b905092915050565b5f60088302610b767fffffffffffffffffffffffffffffffffffffffffffffffffffffffffffffffff82610b3b565b610b808683610b3b565b95508019841693508086168417925050509392505050565b5f610bb2610bad610ba8846107bd565b6103b6565b6107bd565b9050919050565b5f819050919050565b610bcb83610b98565b610bdf610bd782610bb9565b848454610b47565b825550505050565b5f90565b610bf3610be7565b610bfe818484610bc2565b505050565b5b81811015610c2157610c165f82610beb565b600181019050610c04565b5050565b601f821115610c6657610c3781610b1a565b610c4084610b2c565b81016020851015610c4f578190505b610c63610c5b85610b2c565b830182610c03565b50505b505050565b5f82821c905092915050565b5f610c865f1984600802610c6b565b1980831691505092915050565b5f610c9e8383610c77565b9150826002028217905092915050565b610cb782610651565b67ffffffffffffffff811115610cd057610ccf6104c1565b5b610cda8254610a15565b610ce5828285610c25565b5f60209050601f831160018114610d16575f8415610d04578287015190505b610d0e8582610c93565b865550610d75565b601f198416610d2486610b1a565b5f5b82811015610d4b57848901518255600182019150602085019450602081019050610d26565b86831015610d685784890151610d64601f891682610c77565b8355505b6001600288020188555050505b50505050505056fea26469706673582212201fc4484793cea4c34ad2683a5cc237bc8ef08176a8b2fcfb876102172b64ac9364736f6c63430008190033","linkReferences":{}},"methodIdentifiers":{"messenger()":"3cb747bf","receiveTeleporterMessage(bytes32,address,bytes)":"c868efaa","roundtripMessage()":"56974b16","sendMessage(address,bytes32,string)":"52c155eb"},"id":3}