{
  "abi": [
    {
      "type": "constructor",
      "inputs": [
        {
          "name": "init",
          "type": "uint8",
          "internalType": "enum ICMInitializable"
        }
      ],
      "stateMutability": "nonpayable"
    },
    {
      "type": "function",
      "name": "BIPS_CONVERSION_FACTOR",
      "inputs": [],
      "outputs": [
        {
          "name": "",
          "type": "uint16",
          "internalType": "uint16"
        }
      ],
      "stateMutability": "view"
    },
    {
      "type": "function",
      "name": "MAXIMUM_DELEGATION_FEE_BIPS",
      "inputs": [],
      "outputs": [
        {
          "name": "",
          "type": "uint16",
          "internalType": "uint16"
        }
      ],
      "stateMutability": "view"
    },
    {
      "type": "function",
      "name": "MAXIMUM_STAKE_MULTIPLIER_LIMIT",
      "inputs": [],
      "outputs": [
        {
          "name": "",
          "type": "uint8",
          "internalType": "uint8"
        }
      ],
      "stateMutability": "view"
    },
    {
      "type": "function",
      "name": "NATIVE_MINTER",
      "inputs": [],
      "outputs": [
        {
          "name": "",
          "type": "address",
          "internalType": "contract INativeMinter"
        }
      ],
      "stateMutability": "view"
    },
    {
      "type": "function",
      "name": "P_CHAIN_BLOCKCHAIN_ID",
      "inputs": [],
      "outputs": [
        {
          "name": "",
          "type": "bytes32",
          "internalType": "bytes32"
        }
      ],
      "stateMutability": "view"
    },
    {
      "type": "function",
      "name": "STAKING_MANAGER_STORAGE_LOCATION",
      "inputs": [],
      "outputs": [
        {
          "name": "",
          "type": "bytes32",
          "internalType": "bytes32"
        }
      ],
      "stateMutability": "view"
    },
    {
      "type": "function",
      "name": "WARP_MESSENGER",
      "inputs": [],
      "outputs": [
        {
          "name": "",
          "type": "address",
          "internalType": "contract IWarpMessenger"
        }
      ],
      "stateMutability": "view"
    },
    {
      "type": "function",
      "name": "changeDelegatorRewardRecipient",
      "inputs": [
        {
          "name": "delegationID",
          "type": "bytes32",
          "internalType": "bytes32"
        },
        {
          "name": "rewardRecipient",
          "type": "address",
          "internalType": "address"
        }
      ],
      "outputs": [],
      "stateMutability": "nonpayable"
    },
    {
      "type": "function",
      "name": "changeValidatorRewardRecipient",
      "inputs": [
        {
          "name": "validationID",
          "type": "bytes32",
          "internalType": "bytes32"
        },
        {
          "name": "rewardRecipient",
          "type": "address",
          "internalType": "address"
        }
      ],
      "outputs": [],
      "stateMutability": "nonpayable"
    },
    {
      "type": "function",
      "name": "claimDelegationFees",
      "inputs": [
        {
          "name": "validationID",
          "type": "bytes32",
          "internalType": "bytes32"
        }
      ],
      "outputs": [],
      "stateMutability": "nonpayable"
    },
    {
      "type": "function",
      "name": "completeDelegatorRegistration",
      "inputs": [
        {
          "name": "delegationID",
          "type": "bytes32",
          "internalType": "bytes32"
        },
        {
          "name": "messageIndex",
          "type": "uint32",
          "internalType": "uint32"
        }
      ],
      "outputs": [],
      "stateMutability": "nonpayable"
    },
    {
      "type": "function",
      "name": "completeDelegatorRemoval",
      "inputs": [
        {
          "name": "delegationID",
          "type": "bytes32",
          "internalType": "bytes32"
        },
        {
          "name": "messageIndex",
          "type": "uint32",
          "internalType": "uint32"
        }
      ],
      "outputs": [],
      "stateMutability": "nonpayable"
    },
    {
      "type": "function",
      "name": "completeValidatorRegistration",
      "inputs": [
        {
          "name": "messageIndex",
          "type": "uint32",
          "internalType": "uint32"
        }
      ],
      "outputs": [
        {
          "name": "",
          "type": "bytes32",
          "internalType": "bytes32"
        }
      ],
      "stateMutability": "nonpayable"
    },
    {
      "type": "function",
      "name": "completeValidatorRemoval",
      "inputs": [
        {
          "name": "messageIndex",
          "type": "uint32",
          "internalType": "uint32"
        }
      ],
      "outputs": [
        {
          "name": "",
          "type": "bytes32",
          "internalType": "bytes32"
        }
      ],
      "stateMutability": "nonpayable"
    },
    {
      "type": "function",
      "name": "forceInitiateDelegatorRemoval",
      "inputs": [
        {
          "name": "delegationID",
          "type": "bytes32",
          "internalType": "bytes32"
        },
        {
          "name": "includeUptimeProof",
          "type": "bool",
          "internalType": "bool"
        },
        {
          "name": "messageIndex",
          "type": "uint32",
          "internalType": "uint32"
        }
      ],
      "outputs": [],
      "stateMutability": "nonpayable"
    },
    {
      "type": "function",
      "name": "forceInitiateDelegatorRemoval",
      "inputs": [
        {
          "name": "delegationID",
          "type": "bytes32",
          "internalType": "bytes32"
        },
        {
          "name": "includeUptimeProof",
          "type": "bool",
          "internalType": "bool"
        },
        {
          "name": "messageIndex",
          "type": "uint32",
          "internalType": "uint32"
        },
        {
          "name": "rewardRecipient",
          "type": "address",
          "internalType": "address"
        }
      ],
      "outputs": [],
      "stateMutability": "nonpayable"
    },
    {
      "type": "function",
      "name": "forceInitiateValidatorRemoval",
      "inputs": [
        {
          "name": "validationID",
          "type": "bytes32",
          "internalType": "bytes32"
        },
        {
          "name": "includeUptimeProof",
          "type": "bool",
          "internalType": "bool"
        },
        {
          "name": "messageIndex",
          "type": "uint32",
          "internalType": "uint32"
        }
      ],
      "outputs": [],
      "stateMutability": "nonpayable"
    },
    {
      "type": "function",
      "name": "forceInitiateValidatorRemoval",
      "inputs": [
        {
          "name": "validationID",
          "type": "bytes32",
          "internalType": "bytes32"
        },
        {
          "name": "includeUptimeProof",
          "type": "bool",
          "internalType": "bool"
        },
        {
          "name": "messageIndex",
          "type": "uint32",
          "internalType": "uint32"
        },
        {
          "name": "rewardRecipient",
          "type": "address",
          "internalType": "address"
        }
      ],
      "outputs": [],
      "stateMutability": "nonpayable"
    },
    {
      "type": "function",
      "name": "initialize",
      "inputs": [
        {
          "name": "settings",
          "type": "tuple",
          "internalType": "struct StakingManagerSettings",
          "components": [
            {
              "name": "manager",
              "type": "address",
              "internalType": "contract ValidatorManager"
            },
            {
              "name": "minimumStakeAmount",
              "type": "uint256",
              "internalType": "uint256"
            },
            {
              "name": "maximumStakeAmount",
              "type": "uint256",
              "internalType": "uint256"
            },
            {
              "name": "minimumStakeDuration",
              "type": "uint64",
              "internalType": "uint64"
            },
            {
              "name": "minimumDelegationFeeBips",
              "type": "uint16",
              "internalType": "uint16"
            },
            {
              "name": "maximumStakeMultiplier",
              "type": "uint8",
              "internalType": "uint8"
            },
            {
              "name": "weightToValueFactor",
              "type": "uint256",
              "internalType": "uint256"
            },
            {
              "name": "rewardCalculator",
              "type": "address",
              "internalType": "contract IRewardCalculator"
            },
            {
              "name": "uptimeBlockchainID",
              "type": "bytes32",
              "internalType": "bytes32"
            }
          ]
        }
      ],
      "outputs": [],
      "stateMutability": "nonpayable"
    },
    {
      "type": "function",
      "name": "initiateDelegatorRegistration",
      "inputs": [
        {
          "name": "validationID",
          "type": "bytes32",
          "internalType": "bytes32"
        }
      ],
      "outputs": [
        {
          "name": "",
          "type": "bytes32",
          "internalType": "bytes32"
        }
      ],
      "stateMutability": "payable"
    },
    {
      "type": "function",
      "name": "initiateDelegatorRemoval",
      "inputs": [
        {
          "name": "delegationID",
          "type": "bytes32",
          "internalType": "bytes32"
        },
        {
          "name": "includeUptimeProof",
          "type": "bool",
          "internalType": "bool"
        },
        {
          "name": "messageIndex",
          "type": "uint32",
          "internalType": "uint32"
        }
      ],
      "outputs": [],
      "stateMutability": "nonpayable"
    },
    {
      "type": "function",
      "name": "initiateDelegatorRemoval",
      "inputs": [
        {
          "name": "delegationID",
          "type": "bytes32",
          "internalType": "bytes32"
        },
        {
          "name": "includeUptimeProof",
          "type": "bool",
          "internalType": "bool"
        },
        {
          "name": "messageIndex",
          "type": "uint32",
          "internalType": "uint32"
        },
        {
          "name": "rewardRecipient",
          "type": "address",
          "internalType": "address"
        }
      ],
      "outputs": [],
      "stateMutability": "nonpayable"
    },
    {
      "type": "function",
      "name": "initiateValidatorRegistration",
      "inputs": [
        {
          "name": "nodeID",
          "type": "bytes",
          "internalType": "bytes"
        },
        {
          "name": "blsPublicKey",
          "type": "bytes",
          "internalType": "bytes"
        },
        {
          "name": "registrationExpiry",
          "type": "uint64",
          "internalType": "uint64"
        },
        {
          "name": "remainingBalanceOwner",
          "type": "tuple",
          "internalType": "struct PChainOwner",
          "components": [
            {
              "name": "threshold",
              "type": "uint32",
              "internalType": "uint32"
            },
            {
              "name": "addresses",
              "type": "address[]",
              "internalType": "address[]"
            }
          ]
        },
        {
          "name": "disableOwner",
          "type": "tuple",
          "internalType": "struct PChainOwner",
          "components": [
            {
              "name": "threshold",
              "type": "uint32",
              "internalType": "uint32"
            },
            {
              "name": "addresses",
              "type": "address[]",
              "internalType": "address[]"
            }
          ]
        },
        {
          "name": "delegationFeeBips",
          "type": "uint16",
          "internalType": "uint16"
        },
        {
          "name": "minStakeDuration",
          "type": "uint64",
          "internalType": "uint64"
        }
      ],
      "outputs": [
        {
          "name": "",
          "type": "bytes32",
          "internalType": "bytes32"
        }
      ],
      "stateMutability": "payable"
    },
    {
      "type": "function",
      "name": "initiateValidatorRemoval",
      "inputs": [
        {
          "name": "validationID",
          "type": "bytes32",
          "internalType": "bytes32"
        },
        {
          "name": "includeUptimeProof",
          "type": "bool",
          "internalType": "bool"
        },
        {
          "name": "messageIndex",
          "type": "uint32",
          "internalType": "uint32"
        }
      ],
      "outputs": [],
      "stateMutability": "nonpayable"
    },
    {
      "type": "function",
      "name": "initiateValidatorRemoval",
      "inputs": [
        {
          "name": "validationID",
          "type": "bytes32",
          "internalType": "bytes32"
        },
        {
          "name": "includeUptimeProof",
          "type": "bool",
          "internalType": "bool"
        },
        {
          "name": "messageIndex",
          "type": "uint32",
          "internalType": "uint32"
        },
        {
          "name": "rewardRecipient",
          "type": "address",
          "internalType": "address"
        }
      ],
      "outputs": [],
      "stateMutability": "nonpayable"
    },
    {
      "type": "function",
      "name": "resendUpdateDelegator",
      "inputs": [
        {
          "name": "delegationID",
          "type": "bytes32",
          "internalType": "bytes32"
        }
      ],
      "outputs": [],
      "stateMutability": "nonpayable"
    },
    {
      "type": "function",
      "name": "submitUptimeProof",
      "inputs": [
        {
          "name": "validationID",
          "type": "bytes32",
          "internalType": "bytes32"
        },
        {
          "name": "messageIndex",
          "type": "uint32",
          "internalType": "uint32"
        }
      ],
      "outputs": [],
      "stateMutability": "nonpayable"
    },
    {
      "type": "function",
      "name": "valueToWeight",
      "inputs": [
        {
          "name": "value",
          "type": "uint256",
          "internalType": "uint256"
        }
      ],
      "outputs": [
        {
          "name": "",
          "type": "uint64",
          "internalType": "uint64"
        }
      ],
      "stateMutability": "view"
    },
    {
      "type": "function",
      "name": "weightToValue",
      "inputs": [
        {
          "name": "weight",
          "type": "uint64",
          "internalType": "uint64"
        }
      ],
      "outputs": [
        {
          "name": "",
          "type": "uint256",
          "internalType": "uint256"
        }
      ],
      "stateMutability": "view"
    },
    {
      "type": "event",
      "name": "CompletedDelegatorRegistration",
      "inputs": [
        {
          "name": "delegationID",
          "type": "bytes32",
          "indexed": true,
          "internalType": "bytes32"
        },
        {
          "name": "validationID",
          "type": "bytes32",
          "indexed": true,
          "internalType": "bytes32"
        },
        {
          "name": "startTime",
          "type": "uint256",
          "indexed": false,
          "internalType": "uint256"
        }
      ],
      "anonymous": false
    },
    {
      "type": "event",
      "name": "CompletedDelegatorRemoval",
      "inputs": [
        {
          "name": "delegationID",
          "type": "bytes32",
          "indexed": true,
          "internalType": "bytes32"
        },
        {
          "name": "validationID",
          "type": "bytes32",
          "indexed": true,
          "internalType": "bytes32"
        },
        {
          "name": "rewards",
          "type": "uint256",
          "indexed": false,
          "internalType": "uint256"
        },
        {
          "name": "fees",
          "type": "uint256",
          "indexed": false,
          "internalType": "uint256"
        }
      ],
      "anonymous": false
    },
    {
      "type": "event",
      "name": "Initialized",
      "inputs": [
        {
          "name": "version",
          "type": "uint64",
          "indexed": false,
          "internalType": "uint64"
        }
      ],
      "anonymous": false
    },
    {
      "type": "event",
      "name": "InitiatedDelegatorRegistration",
      "inputs": [
        {
          "name": "delegationID",
          "type": "bytes32",
          "indexed": true,
          "internalType": "bytes32"
        },
        {
          "name": "validationID",
          "type": "bytes32",
          "indexed": true,
          "internalType": "bytes32"
        },
        {
          "name": "delegatorAddress",
          "type": "address",
          "indexed": true,
          "internalType": "address"
        },
        {
          "name": "nonce",
          "type": "uint64",
          "indexed": false,
          "internalType": "uint64"
        },
        {
          "name": "validatorWeight",
          "type": "uint64",
          "indexed": false,
          "internalType": "uint64"
        },
        {
          "name": "delegatorWeight",
          "type": "uint64",
          "indexed": false,
          "internalType": "uint64"
        },
        {
          "name": "setWeightMessageID",
          "type": "bytes32",
          "indexed": false,
          "internalType": "bytes32"
        }
      ],
      "anonymous": false
    },
    {
      "type": "event",
      "name": "InitiatedDelegatorRemoval",
      "inputs": [
        {
          "name": "delegationID",
          "type": "bytes32",
          "indexed": true,
          "internalType": "bytes32"
        },
        {
          "name": "validationID",
          "type": "bytes32",
          "indexed": true,
          "internalType": "bytes32"
        }
      ],
      "anonymous": false
    },
    {
      "type": "event",
      "name": "UptimeUpdated",
      "inputs": [
        {
          "name": "validationID",
          "type": "bytes32",
          "indexed": true,
          "internalType": "bytes32"
        },
        {
          "name": "uptime",
          "type": "uint64",
          "indexed": false,
          "internalType": "uint64"
        }
      ],
      "anonymous": false
    },
    {
      "type": "error",
      "name": "AddressInsufficientBalance",
      "inputs": [
        {
          "name": "account",
          "type": "address",
          "internalType": "address"
        }
      ]
    },
    {
      "type": "error",
      "name": "DelegatorIneligibleForRewards",
      "inputs": [
        {
          "name": "delegationID",
          "type": "bytes32",
          "internalType": "bytes32"
        }
      ]
    },
    {
      "type": "error",
      "name": "FailedInnerCall",
      "inputs": []
    },
    {
      "type": "error",
      "name": "InvalidDelegationFee",
      "inputs": [
        {
          "name": "delegationFeeBips",
          "type": "uint16",
          "internalType": "uint16"
        }
      ]
    },
    {
      "type": "error",
      "name": "InvalidDelegationID",
      "inputs": [
        {
          "name": "delegationID",
          "type": "bytes32",
          "internalType": "bytes32"
        }
      ]
    },
    {
      "type": "error",
      "name": "InvalidDelegatorStatus",
      "inputs": [
        {
          "name": "status",
          "type": "uint8",
          "internalType": "enum DelegatorStatus"
        }
      ]
    },
    {
      "type": "error",
      "name": "InvalidInitialization",
      "inputs": []
    },
    {
      "type": "error",
      "name": "InvalidMinStakeDuration",
      "inputs": [
        {
          "name": "minStakeDuration",
          "type": "uint64",
          "internalType": "uint64"
        }
      ]
    },
    {
      "type": "error",
      "name": "InvalidNonce",
      "inputs": [
        {
          "name": "nonce",
          "type": "uint64",
          "internalType": "uint64"
        }
      ]
    },
    {
      "type": "error",
      "name": "InvalidRewardRecipient",
      "inputs": [
        {
          "name": "rewardRecipient",
          "type": "address",
          "internalType": "address"
        }
      ]
    },
    {
      "type": "error",
      "name": "InvalidStakeAmount",
      "inputs": [
        {
          "name": "stakeAmount",
          "type": "uint256",
          "internalType": "uint256"
        }
      ]
    },
    {
      "type": "error",
      "name": "InvalidStakeMultiplier",
      "inputs": [
        {
          "name": "maximumStakeMultiplier",
          "type": "uint8",
          "internalType": "uint8"
        }
      ]
    },
    {
      "type": "error",
      "name": "InvalidUptimeBlockchainID",
      "inputs": [
        {
          "name": "uptimeBlockchainID",
          "type": "bytes32",
          "internalType": "bytes32"
        }
      ]
    },
    {
      "type": "error",
      "name": "InvalidValidatorStatus",
      "inputs": [
        {
          "name": "status",
          "type": "uint8",
          "internalType": "enum ValidatorStatus"
        }
      ]
    },
    {
      "type": "error",
      "name": "InvalidWarpMessage",
      "inputs": []
    },
    {
      "type": "error",
      "name": "InvalidWarpOriginSenderAddress",
      "inputs": [
        {
          "name": "senderAddress",
          "type": "address",
          "internalType": "address"
        }
      ]
    },
    {
      "type": "error",
      "name": "InvalidWarpSourceChainID",
      "inputs": [
        {
          "name": "sourceChainID",
          "type": "bytes32",
          "internalType": "bytes32"
        }
      ]
    },
    {
      "type": "error",
      "name": "MaxWeightExceeded",
      "inputs": [
        {
          "name": "newValidatorWeight",
          "type": "uint64",
          "internalType": "uint64"
        }
      ]
    },
    {
      "type": "error",
      "name": "MinStakeDurationNotPassed",
      "inputs": [
        {
          "name": "endTime",
          "type": "uint64",
          "internalType": "uint64"
        }
      ]
    },
    {
      "type": "error",
      "name": "NotInitializing",
      "inputs": []
    },
    {
      "type": "error",
      "name": "ReentrancyGuardReentrantCall",
      "inputs": []
    },
    {
      "type": "error",
      "name": "UnauthorizedOwner",
      "inputs": [
        {
          "name": "sender",
          "type": "address",
          "internalType": "address"
        }
      ]
    },
    {
      "type": "error",
      "name": "UnexpectedValidationID",
      "inputs": [
        {
          "name": "validationID",
          "type": "bytes32",
          "internalType": "bytes32"
        },
        {
          "name": "expectedValidationID",
          "type": "bytes32",
          "internalType": "bytes32"
        }
      ]
    },
    {
      "type": "error",
      "name": "ValidatorIneligibleForRewards",
      "inputs": [
        {
          "name": "validationID",
          "type": "bytes32",
          "internalType": "bytes32"
        }
      ]
    },
    {
      "type": "error",
      "name": "ValidatorNotPoS",
      "inputs": [
        {
          "name": "validationID",
          "type": "bytes32",
          "internalType": "bytes32"
        }
      ]
    },
    {
      "type": "error",
      "name": "ZeroWeightToValueFactor",
      "inputs": []
    }
  ],
  "bytecode": {
    "object": "0x608060405234801561000f575f80fd5b50604051613a22380380613a2283398101604081905261002e91610107565b60018160018111156100425761004261012c565b0361004f5761004f610055565b50610140565b7ff0c57e16840df040f15088dc2f81fe391c3923bec73e23a9662efc9c229c6a00805468010000000000000000900460ff16156100a55760405163f92ee8a960e01b815260040160405180910390fd5b80546001600160401b03908116146101045780546001600160401b0319166001600160401b0390811782556040519081527fc7f505b2f371ae2175ee4913f4499e1f2633a7b5936321eed1cdaeb6115181d29060200160405180910390a15b50565b5f60208284031215610117575f80fd5b815160028110610125575f80fd5b9392505050565b634e487b7160e01b5f52602160045260245ffd5b6138d58061014d5f395ff3fe6080604052600436106101ba575f3560e01c806362065856116100f2578063a3a65e4811610092578063b771b3bc11610062578063b771b3bc146104f2578063cacd97551461050c578063cc71bbba1461051f578063fb8b11dd1461053e575f80fd5b8063a3a65e4814610495578063a9778a7a1461034e578063aac80c39146104b4578063b2c1712e146104d3575f80fd5b80638af5499e116100cd5780638af5499e146104195780638ef34c981461043857806393e24598146104575780639681d94014610476575f80fd5b806362065856146103b4578063732214f8146103d35780637a63ad85146103e6575f80fd5b806327bf60cd1161015d578063329c3e1211610138578063329c3e121461031c57806335455ded1461034e5780634b396bcc1461037657806360ad778414610395575f80fd5b806327bf60cd146102a75780632aa56638146102c65780632e2194d8146102e5575f80fd5b806316679564116101985780631667956414610229578063245dafcb1461024857806325e1c77614610267578063264dc60314610286575f80fd5b80630d436317146101be57806313409645146101df578063151d30d1146101fe575b5f80fd5b3480156101c9575f80fd5b506101dd6101d8366004612f1a565b61055d565b005b3480156101ea575f80fd5b506101dd6101f9366004612f44565b61063f565b348015610209575f80fd5b50610212600a81565b60405160ff90911681526020015b60405180910390f35b348015610234575f80fd5b506101dd610243366004612f7b565b61097f565b348015610253575f80fd5b506101dd610262366004612fb6565b610991565b348015610272575f80fd5b506101dd610281366004612f44565b610c55565b6102996102943660046131e1565b610d33565b604051908152602001610220565b3480156102b2575f80fd5b506101dd6102c1366004612f7b565b610d6f565b3480156102d1575f80fd5b506101dd6102e0366004612f7b565b610d7b565b3480156102f0575f80fd5b506103046102ff366004612fb6565b610d8c565b6040516001600160401b039091168152602001610220565b348015610327575f80fd5b506103366001600160991b0181565b6040516001600160a01b039091168152602001610220565b348015610359575f80fd5b5061036361271081565b60405161ffff9091168152602001610220565b348015610381575f80fd5b506101dd6103903660046132b6565b610de0565b3480156103a0575f80fd5b506101dd6103af366004612f44565b610dec565b3480156103bf575f80fd5b506102996103ce366004613304565b61110e565b3480156103de575f80fd5b506102995f81565b3480156103f1575f80fd5b506102997fafe6c4731b852fc2be89a0896ae43d22d8b24989064d841b2a1586b4d39ab60081565b348015610424575f80fd5b506101dd6104333660046132b6565b61112e565b348015610443575f80fd5b506101dd61045236600461331f565b61113a565b348015610462575f80fd5b506101dd610471366004612fb6565b6111eb565b348015610481575f80fd5b5061029961049036600461334d565b6112e4565b3480156104a0575f80fd5b506102996104af36600461334d565b611494565b3480156104bf575f80fd5b506101dd6104ce3660046132b6565b61150c565b3480156104de575f80fd5b506101dd6104ed366004612f7b565b611518565b3480156104fd575f80fd5b506103366005600160991b0181565b61029961051a366004612fb6565b611524565b34801561052a575f80fd5b506101dd6105393660046132b6565b611550565b348015610549575f80fd5b506101dd61055836600461331f565b61155c565b7ff0c57e16840df040f15088dc2f81fe391c3923bec73e23a9662efc9c229c6a00805460029190600160401b900460ff16806105a6575080546001600160401b03808416911610155b156105c45760405163f92ee8a960e01b815260040160405180910390fd5b805468ffffffffffffffffff19166001600160401b03831617600160401b1781556105ee836115f3565b805468ff0000000000000000191681556040516001600160401b03831681527fc7f505b2f371ae2175ee4913f4499e1f2633a7b5936321eed1cdaeb6115181d29060200160405180910390a1505050565b610647611607565b5f61065061163e565b5f848152600882016020526040808220815160e0810190925280549394509192909190829060ff16600381111561068957610689613366565b600381111561069a5761069a613366565b8152815461010090046001600160a01b03166020820152600182015460408201526002909101546001600160401b038082166060840152600160401b820481166080840152600160801b8204811660a0840152600160c01b9091041660c090910152905060038151600381111561071357610713613366565b1461073d578051604051633b0d540d60e21b8152610734919060040161337a565b60405180910390fd5b81546040828101519051636af907fb60e11b815260048101919091525f916001600160a01b03169063d5f20ff6906024015f60405180830381865afa158015610788573d5f803e3d5ffd5b505050506040513d5f823e601f3d908101601f191682016040526107af9190810190613411565b9050600483546040808501519051636af907fb60e11b81526001600160a01b039092169163d5f20ff6916107e99160040190815260200190565b5f60405180830381865afa158015610803573d5f803e3d5ffd5b505050506040513d5f823e601f3d908101601f1916820160405261082a9190810190613411565b51600581111561083c5761083c613366565b1415801561086357508160c001516001600160401b031681608001516001600160401b0316105b1561095957825460405163338587c560e21b815263ffffffff861660048201525f9182916001600160a01b039091169063ce161f149060240160408051808303815f875af11580156108b7573d5f803e3d5ffd5b505050506040513d601f19601f820116820180604052508101906108db91906134f0565b91509150818460400151146109145781846040015160405163fee3144560e01b8152600401610734929190918252602082015260400190565b806001600160401b03168460c001516001600160401b0316111561095657604051632e19bc2d60e11b81526001600160401b0382166004820152602401610734565b50505b61096285611662565b50505061097b60015f805160206138a983398151915255565b5050565b61098b8383835f6118a6565b50505050565b5f61099a61163e565b5f838152600882016020526040808220815160e0810190925280549394509192909190829060ff1660038111156109d3576109d3613366565b60038111156109e4576109e4613366565b8152815461010090046001600160a01b0316602082015260018083015460408301526002909201546001600160401b038082166060840152600160401b820481166080840152600160801b8204811660a0840152600160c01b9091041660c09091015290915081516003811115610a5d57610a5d613366565b14158015610a7e5750600381516003811115610a7b57610a7b613366565b14155b15610a9f578051604051633b0d540d60e21b8152610734919060040161337a565b81546040828101519051636af907fb60e11b815260048101919091525f916001600160a01b03169063d5f20ff6906024015f60405180830381865afa158015610aea573d5f803e3d5ffd5b505050506040513d5f823e601f3d908101601f19168201604052610b119190810190613411565b905080606001516001600160401b03165f03610b43576040516339b894f960e21b815260048101859052602401610734565b604080830151606083015160a0840151925163854a893f60e01b81526005600160991b019363ee5b48eb9373__$fd0c147b4031eef6079b0498cbafa865f0$__9363854a893f93610bb193906004019283526001600160401b03918216602084015216604082015260600190565b5f60405180830381865af4158015610bcb573d5f803e3d5ffd5b505050506040513d5f823e601f3d908101601f19168201604052610bf29190810190613513565b6040518263ffffffff1660e01b8152600401610c0e919061356f565b6020604051808303815f875af1158015610c2a573d5f803e3d5ffd5b505050506040513d601f19601f82011682018060405250810190610c4e9190613581565b5050505050565b610c5e82611b9f565b610c7e576040516330efa98b60e01b815260048101839052602401610734565b5f610c8761163e565b54604051636af907fb60e11b8152600481018590526001600160a01b039091169063d5f20ff6906024015f60405180830381865afa158015610ccb573d5f803e3d5ffd5b505050506040513d5f823e601f3d908101601f19168201604052610cf29190810190613411565b5190506002816005811115610d0957610d09613366565b14610d29578060405163170cc93360e21b81526004016107349190613598565b61098b8383611bc8565b5f610d3c611607565b610d4c8888888888888834611e6b565b9050610d6460015f805160206138a983398151915255565b979650505050505050565b61098b8383835f612068565b610d878383835f61246e565b505050565b5f80610d9661163e565b60040154610da490846135c0565b9050801580610db957506001600160401b0381115b15610dda5760405163222d164360e21b815260048101849052602401610734565b92915050565b610c4e848484846118a6565b5f610df561163e565b5f848152600882016020526040808220815160e0810190925280549394509192909190829060ff166003811115610e2e57610e2e613366565b6003811115610e3f57610e3f613366565b8152815461010090046001600160a01b03908116602083015260018301546040808401919091526002909301546001600160401b038082166060850152600160401b820481166080850152600160801b8204811660a0850152600160c01b9091041660c0909201919091528282015185549251636af907fb60e11b815260048101829052939450925f929091169063d5f20ff6906024015f60405180830381865afa158015610ef0573d5f803e3d5ffd5b505050506040513d5f823e601f3d908101601f19168201604052610f179190810190613411565b9050600183516003811115610f2e57610f2e613366565b14610f4f578251604051633b0d540d60e21b8152610734919060040161337a565b600481516005811115610f6457610f64613366565b03610f7a57610f7286611662565b505050505050565b8260a001516001600160401b031681608001516001600160401b0316101561108257835460405163338587c560e21b815263ffffffff871660048201525f9182916001600160a01b039091169063ce161f149060240160408051808303815f875af1158015610feb573d5f803e3d5ffd5b505050506040513d601f19601f8201168201806040525081019061100f91906134f0565b9150915081841461103d5760405163fee3144560e01b81526004810183905260248101859052604401610734565b8460a001516001600160401b0316816001600160401b0316101561107f57604051632e19bc2d60e11b81526001600160401b0382166004820152602401610734565b50505b5f868152600885016020908152604091829020805460ff1916600290811782550180546001600160401b034216600160401b81026fffffffffffffffff000000000000000019909216919091179091559151918252839188917f3886b7389bccb22cac62838dee3f400cf8b22289295283e01a2c7093f93dd5aa910160405180910390a3505050505050565b5f61111761163e565b60040154610dda906001600160401b0384166135df565b61098b8484848461246e565b5f61114361163e565b90506001600160a01b0382166111775760405163caa903f960e01b81526001600160a01b0383166004820152602401610734565b5f8381526007820160205260409020546001600160a01b031633146111bd57335b604051636e2ccd7560e11b81526001600160a01b039091166004820152602401610734565b5f928352600c01602052604090912080546001600160a01b0319166001600160a01b03909216919091179055565b5f6111f461163e565b8054604051636af907fb60e11b8152600481018590529192505f916001600160a01b039091169063d5f20ff6906024015f60405180830381865afa15801561123e573d5f803e3d5ffd5b505050506040513d5f823e601f3d908101601f191682016040526112659190810190613411565b519050600481600581111561127c5761127c613366565b1461129c578060405163170cc93360e21b81526004016107349190613598565b5f8381526007830160205260409020546001600160a01b031633146112c15733611198565b5f838152600783016020526040902054610d87906001600160a01b03168461249a565b5f6112ed611607565b5f6112f661163e565b805460405163025a076560e61b815263ffffffff861660048201529192505f916001600160a01b0390911690639681d940906024016020604051808303815f875af1158015611347573d5f803e3d5ffd5b505050506040513d601f19601f8201168201806040525081019061136b9190613581565b8254604051636af907fb60e11b8152600481018390529192505f916001600160a01b039091169063d5f20ff6906024015f60405180830381865afa1580156113b5573d5f803e3d5ffd5b505050506040513d5f823e601f3d908101601f191682016040526113dc9190810190613411565b90506113e782611b9f565b6113f5575091506114799050565b5f828152600784016020908152604080832054600c870190925290912080546001600160a01b031981169091556001600160a01b039182169116806114375750805b60048351600581111561144c5761144c613366565b0361145b5761145b818561249a565b6114718261146c856040015161110e565b6124c4565b509193505050505b61148f60015f805160206138a983398151915255565b919050565b5f61149d61163e565b54604051631474cbc960e31b815263ffffffff841660048201526001600160a01b039091169063a3a65e48906024016020604051808303815f875af11580156114e8573d5f803e3d5ffd5b505050506040513d601f19601f82011682018060405250810190610dda9190613581565b610c4e84848484612068565b610d878383835f6124d7565b5f61152d611607565b611538823334612503565b905061148f60015f805160206138a983398151915255565b61098b848484846124d7565b6001600160a01b03811661158e5760405163caa903f960e01b81526001600160a01b0382166004820152602401610734565b5f61159761163e565b5f8481526008820160205260409020549091506001600160a01b036101009091041633146115c55733611198565b5f928352600a01602052604090912080546001600160a01b0319166001600160a01b03909216919091179055565b6115fb61281b565b61160481612866565b50565b5f805160206138a983398151915280546001190161163857604051633ee5aeb560e01b815260040160405180910390fd5b60029055565b7fafe6c4731b852fc2be89a0896ae43d22d8b24989064d841b2a1586b4d39ab60090565b5f61166b61163e565b5f838152600882016020526040808220815160e0810190925280549394509192909190829060ff1660038111156116a4576116a4613366565b60038111156116b5576116b5613366565b815281546001600160a01b03610100909104811660208084019190915260018401546040808501919091526002909401546001600160401b038082166060860152600160401b820481166080860152600160801b8204811660a0860152600160c01b9091041660c09093019290925283830151865484516304e0efb360e11b8152945195965090949116926309c1df669260048083019391928290030181865afa158015611765573d5f803e3d5ffd5b505050506040513d601f19601f8201168201806040525081019061178991906135f6565b82608001516117989190613611565b6001600160401b03164210156117cc5760405163fb6ce63f60e01b81526001600160401b0342166004820152602401610734565b5f848152600884016020908152604080832080546001600160a81b031916815560018101849055600201839055600a8601909152902080546001600160a01b031981169091556001600160a01b031680611827575060208201515b5f806118348388866128e1565b9150915061184d856020015161146c876060015161110e565b6040805183815260208101839052859189917f5ecc5b26a9265302cf871229b3d983e5ca57dbb1448966c6c58b2d3c68bc7f7e910160405180910390a350505050505050565b60015f805160206138a983398151915255565b5f806118b061163e565b8054604051635b73516560e11b8152600481018990529192506001600160a01b03169063b6e6a2ca906024015f604051808303815f87803b1580156118f3575f80fd5b505af1158015611905573d5f803e3d5ffd5b50508254604051636af907fb60e11b8152600481018a90525f93506001600160a01b03909116915063d5f20ff6906024015f60405180830381865afa158015611950573d5f803e3d5ffd5b505050506040513d5f823e601f3d908101601f191682016040526119779190810190613411565b905061198287611b9f565b61199157600192505050611b97565b5f8781526007830160205260409020546001600160a01b031633146119b65733611198565b5f87815260078301602052604090205460c08201516119e591600160b01b90046001600160401b031690613611565b6001600160401b03168160e001516001600160401b03161015611a2c5760e081015160405163fb6ce63f60e01b81526001600160401b039091166004820152602401610734565b5f8615611a4457611a3d8887611bc8565b9050611a62565b505f8781526007830160205260409020600101546001600160401b03165b600583015460408301515f916001600160a01b031690634f22429f90611a879061110e565b60c086015160e0808801516040519185901b6001600160e01b031916825260048201939093526001600160401b0391821660248201819052604482015291811660648301528516608482015260a401602060405180830381865afa158015611af1573d5f803e3d5ffd5b505050506040513d601f19601f82011682018060405250810190611b159190613581565b90506001600160a01b038616611b41575f8981526007850160205260409020546001600160a01b031695505b5f898152600b8501602052604081208054839290611b60908490613638565b90915550505f898152600c94909401602052604090932080546001600160a01b0319166001600160a01b0387161790555050151590505b949350505050565b5f80611ba961163e565b5f938452600701602052505060409020546001600160a01b0316151590565b6040516306f8253560e41b815263ffffffff821660048201525f90819081906005600160991b0190636f825350906024015f60405180830381865afa158015611c13573d5f803e3d5ffd5b505050506040513d5f823e601f3d908101601f19168201604052611c3a919081019061364b565b9150915080611c5c57604051636b2f19e960e01b815260040160405180910390fd5b5f611c6561163e565b6006810154845191925014611c93578251604051636ba589a560e01b81526004810191909152602401610734565b60208301516001600160a01b031615611ccf576020830151604051624de75d60e31b81526001600160a01b039091166004820152602401610734565b60208301516001600160a01b031615611d0b576020830151604051624de75d60e31b81526001600160a01b039091166004820152602401610734565b5f8073__$fd0c147b4031eef6079b0498cbafa865f0$__63088c246386604001516040518263ffffffff1660e01b8152600401611d48919061356f565b6040805180830381865af4158015611d62573d5f803e3d5ffd5b505050506040513d601f19601f82011682018060405250810190611d8691906134f0565b91509150818814611db45760405163fee3144560e01b81526004810183905260248101899052604401610734565b5f8881526007840160205260409020600101546001600160401b039081169082161115611e45575f888152600784016020908152604091829020600101805467ffffffffffffffff19166001600160401b038516908117909155915191825289917fec44148e8ff271f2d0bacef1142154abacb0abb3a29eb3eb50e2ca97e86d0435910160405180910390a2610d64565b50505f95865260070160205250506040909220600101546001600160401b031692915050565b5f80611e7561163e565b600381015490915061ffff600160401b90910481169086161080611e9e575061271061ffff8616115b15611ec257604051635f12e6c360e11b815261ffff86166004820152602401610734565b60038101546001600160401b039081169085161015611efe576040516202a06d60e11b81526001600160401b0385166004820152602401610734565b8060010154831080611f135750806002015483115b15611f345760405163222d164360e21b815260048101849052602401610734565b825f611f3f82610d8c565b90505f835f015f9054906101000a90046001600160a01b03166001600160a01b031663ed285ae18e8e8e8e8e886040518763ffffffff1660e01b8152600401611f8d96959493929190613757565b6020604051808303815f875af1158015611fa9573d5f803e3d5ffd5b505050506040513d601f19601f82011682018060405250810190611fcd9190613581565b5f818152600786016020908152604080832080546001600160401b039c909c16600160b01b0267ffffffffffffffff60b01b1961ffff9e909e16600160a01b02336001600160b01b0319909e168e17179d909d169c909c178c556001909b01805467ffffffffffffffff19169055600c9096019095529790932080546001600160a01b03191690961790955550939998505050505050505050565b5f8061207261163e565b5f878152600882016020526040808220815160e0810190925280549394509192909190829060ff1660038111156120ab576120ab613366565b60038111156120bc576120bc613366565b8152815461010090046001600160a01b03908116602083015260018301546040808401919091526002909301546001600160401b038082166060850152600160401b820481166080850152600160801b8204811660a0850152600160c01b9091041660c0909201919091528282015185549251636af907fb60e11b815260048101829052939450925f929091169063d5f20ff6906024015f60405180830381865afa15801561216d573d5f803e3d5ffd5b505050506040513d5f823e601f3d908101601f191682016040526121949190810190613411565b90506002835160038111156121ab576121ab613366565b146121cc578251604051633b0d540d60e21b8152610734919060040161337a565b60208301516001600160a01b03163314612268575f8281526007850160205260409020546001600160a01b031633146122055733611198565b5f82815260078501602052604090205460c082015161223491600160b01b90046001600160401b031690613611565b6001600160401b03164210156122685760405163fb6ce63f60e01b81526001600160401b0342166004820152602401610734565b60028151600581111561227d5761227d613366565b03612416576003840154608084015161229f916001600160401b031690613611565b6001600160401b03164210156122d35760405163fb6ce63f60e01b81526001600160401b0342166004820152602401610734565b87156122e5576122e38288611bc8565b505b5f8981526008850160205260409020805460ff191660031790558354606084015160a08301516001600160a01b0390921691636610966991859161232991906137ca565b6040516001600160e01b031960e085901b16815260048101929092526001600160401b0316602482015260440160408051808303815f875af1158015612371573d5f803e3d5ffd5b505050506040513d601f19601f8201168201806040525081019061239591906137ea565b505f8a8152600886016020526040812060020180546001600160401b03909316600160c01b026001600160c01b03909316929092179091556123d884888c61298e565b9050828a7f5abe543af12bb7f76f6fa9daaa9d95d181c5e90566df58d3c012216b6245eeaf60405160405180910390a315159450611b979350505050565b60048151600581111561242b5761242b613366565b036124525761243b83878b61298e565b5061244589611662565b6001945050505050611b97565b805160405163170cc93360e21b81526107349190600401613598565b61247a84848484612068565b61098b57604051631036cf9160e11b815260048101859052602401610734565b5f6124a361163e565b5f838152600b820160205260408120805491905590915061098b8482612be8565b61097b6001600160a01b03831682612c46565b6124e3848484846118a6565b61098b57604051635bff683f60e11b815260048101859052602401610734565b5f8061250d61163e565b90505f61251984610d8c565b8254604051636af907fb60e11b8152600481018990529192505f916001600160a01b039091169063d5f20ff6906024015f60405180830381865afa158015612563573d5f803e3d5ffd5b505050506040513d5f823e601f3d908101601f1916820160405261258a9190810190613411565b905061259587611b9f565b6125b5576040516330efa98b60e01b815260048101889052602401610734565b6002815160058111156125ca576125ca613366565b146125eb57805160405163170cc93360e21b81526107349190600401613598565b5f828260a001516125fc9190613611565b905083600301600a9054906101000a90046001600160401b031682604001516126259190613816565b6001600160401b0316816001600160401b0316111561266257604051636d51fe0560e11b81526001600160401b0382166004820152602401610734565b8354604051636610966960e01b8152600481018a90526001600160401b03831660248201525f9182916001600160a01b039091169063661096699060440160408051808303815f875af11580156126bb573d5f803e3d5ffd5b505050506040513d601f19601f820116820180604052508101906126df91906137ea565b915091505f8a8360405160200161270d92919091825260c01b6001600160c01b031916602082015260280190565b60408051601f1981840301815291815281516020928301205f81815260088b019093529120805491925060019160ff1916828002179055505f8181526008880160209081526040918290208054610100600160a81b0319166101006001600160a01b038f16908102919091178255600182018f9055600290910180546001600160401b038b81166001600160c01b03199092168217600160801b8a8316908102919091176001600160c01b031690935585519283528916938201939093529283019190915260608201849052908c9083907fdf91f7709a30fda3fc5fc5dc97cb5d5b05e67e193dccaaef3cb332d23fda83d19060800160405180910390a496505050505050505b9392505050565b7ff0c57e16840df040f15088dc2f81fe391c3923bec73e23a9662efc9c229c6a0054600160401b900460ff1661286457604051631afcd79f60e31b815260040160405180910390fd5b565b61286e61281b565b612876612cd9565b6116046128866020830183613841565b602083013560408401356128a06080860160608701613304565b6128b060a087016080880161385c565b6128c060c0880160a08901613875565b60c08801356128d66101008a0160e08b01613841565b896101000135612ce9565b5f805f6128ec61163e565b5f86815260098201602052604081208054908290559192509081908015612980575f8781526007850160205260409020546127109061293690600160a01b900461ffff16836135df565b61294091906135c0565b91508184600b015f8981526020019081526020015f205f8282546129649190613638565b9091555061297490508282613895565b92506129808984612be8565b509097909650945050505050565b5f8061299861163e565b80546040808801519051636af907fb60e11b81529293505f926001600160a01b039092169163d5f20ff6916129d39160040190815260200190565b5f60405180830381865afa1580156129ed573d5f803e3d5ffd5b505050506040513d5f823e601f3d908101601f19168201604052612a149190810190613411565b90505f600382516005811115612a2c57612a2c613366565b1480612a4a5750600482516005811115612a4857612a48613366565b145b15612a5a575060e0810151612a97565b600282516005811115612a6f57612a6f613366565b03612a7b575042612a97565b815160405163170cc93360e21b81526107349190600401613598565b86608001516001600160401b0316816001600160401b031611612abf575f9350505050612814565b600583015460608801515f916001600160a01b031690634f22429f90612ae49061110e565b60c086015160808c01516040808e01515f90815260078b0160205281902060010154905160e086901b6001600160e01b031916815260048101949094526001600160401b0392831660248501529082166044840152818716606484015216608482015260a401602060405180830381865afa158015612b65573d5f803e3d5ffd5b505050506040513d601f19601f82011682018060405250810190612b899190613581565b90506001600160a01b038716612ba157876020015196505b5f8681526009850160209081526040808320849055600a90960190529390932080546001600160a01b0388166001600160a01b031990911617905550909150509392505050565b6040516327ad555d60e11b81526001600160a01b0383166004820152602481018290526001600160991b0190634f5aaaba906044015f604051808303815f87803b158015612c34575f80fd5b505af1158015610f72573d5f803e3d5ffd5b80471015612c695760405163cd78605960e01b8152306004820152602401610734565b5f826001600160a01b0316826040515f6040518083038185875af1925050503d805f8114612cb2576040519150601f19603f3d011682016040523d82523d5f602084013e612cb7565b606091505b5050905080610d8757604051630a12f52160e11b815260040160405180910390fd5b612ce161281b565b612864612f12565b612cf161281b565b5f612cfa61163e565b905061ffff86161580612d12575061271061ffff8716115b15612d3657604051635f12e6c360e11b815261ffff87166004820152602401610734565b87891115612d5a5760405163222d164360e21b8152600481018a9052602401610734565b60ff85161580612d6d5750600a60ff8616115b15612d905760405163170db35960e31b815260ff86166004820152602401610734565b896001600160a01b03166309c1df666040518163ffffffff1660e01b8152600401602060405180830381865afa158015612dcc573d5f803e3d5ffd5b505050506040513d601f19601f82011682018060405250810190612df091906135f6565b6001600160401b0316876001600160401b03161015612e2c576040516202a06d60e11b81526001600160401b0388166004820152602401610734565b835f03612e4c5760405163a733007160e01b815260040160405180910390fd5b81612e6d57604051632f6bd1db60e01b815260048101839052602401610734565b80546001600160a01b039a8b166001600160a01b031991821617825560018201999099556002810197909755600387018054600160501b60ff9096169590950267ffffffffffffffff60501b1961ffff909716600160401b0269ffffffffffffffffffff199096166001600160401b03909816979097179490941794909416949094179091556004840155600583018054929095169190931617909255600690910155565b61189361281b565b5f6101208284031215612f2b575f80fd5b50919050565b803563ffffffff8116811461148f575f80fd5b5f8060408385031215612f55575f80fd5b82359150612f6560208401612f31565b90509250929050565b8015158114611604575f80fd5b5f805f60608486031215612f8d575f80fd5b833592506020840135612f9f81612f6e565b9150612fad60408501612f31565b90509250925092565b5f60208284031215612fc6575f80fd5b5035919050565b634e487b7160e01b5f52604160045260245ffd5b604080519081016001600160401b038111828210171561300357613003612fcd565b60405290565b60405161010081016001600160401b038111828210171561300357613003612fcd565b604051601f8201601f191681016001600160401b038111828210171561305457613054612fcd565b604052919050565b5f6001600160401b0382111561307457613074612fcd565b50601f01601f191660200190565b5f82601f830112613091575f80fd5b81356130a461309f8261305c565b61302c565b8181528460208386010111156130b8575f80fd5b816020850160208301375f918101602001919091529392505050565b6001600160401b0381168114611604575f80fd5b803561148f816130d4565b6001600160a01b0381168114611604575f80fd5b5f60408284031215613117575f80fd5b61311f612fe1565b905061312a82612f31565b81526020808301356001600160401b0380821115613146575f80fd5b818501915085601f830112613159575f80fd5b81358181111561316b5761316b612fcd565b8060051b915061317c84830161302c565b8181529183018401918481019088841115613195575f80fd5b938501935b838510156131bf57843592506131af836130f3565b828252938501939085019061319a565b808688015250505050505092915050565b803561ffff8116811461148f575f80fd5b5f805f805f805f60e0888a0312156131f7575f80fd5b87356001600160401b038082111561320d575f80fd5b6132198b838c01613082565b985060208a013591508082111561322e575f80fd5b61323a8b838c01613082565b975061324860408b016130e8565b965060608a013591508082111561325d575f80fd5b6132698b838c01613107565b955060808a013591508082111561327e575f80fd5b5061328b8a828b01613107565b93505061329a60a089016131d0565b91506132a860c089016130e8565b905092959891949750929550565b5f805f80608085870312156132c9575f80fd5b8435935060208501356132db81612f6e565b92506132e960408601612f31565b915060608501356132f9816130f3565b939692955090935050565b5f60208284031215613314575f80fd5b8135612814816130d4565b5f8060408385031215613330575f80fd5b823591506020830135613342816130f3565b809150509250929050565b5f6020828403121561335d575f80fd5b61281482612f31565b634e487b7160e01b5f52602160045260245ffd5b602081016004831061338e5761338e613366565b91905290565b80516006811061148f575f80fd5b5f5b838110156133bc5781810151838201526020016133a4565b50505f910152565b5f82601f8301126133d3575f80fd5b81516133e161309f8261305c565b8181528460208386010111156133f5575f80fd5b611b978260208301602087016133a2565b805161148f816130d4565b5f60208284031215613421575f80fd5b81516001600160401b0380821115613437575f80fd5b90830190610100828603121561344b575f80fd5b613453613009565b61345c83613394565b815260208301518281111561346f575f80fd5b61347b878286016133c4565b60208301525061348d60408401613406565b604082015261349e60608401613406565b60608201526134af60808401613406565b60808201526134c060a08401613406565b60a08201526134d160c08401613406565b60c08201526134e260e08401613406565b60e082015295945050505050565b5f8060408385031215613501575f80fd5b825191506020830151613342816130d4565b5f60208284031215613523575f80fd5b81516001600160401b03811115613538575f80fd5b611b97848285016133c4565b5f815180845261355b8160208601602086016133a2565b601f01601f19169290920160200192915050565b602081525f6128146020830184613544565b5f60208284031215613591575f80fd5b5051919050565b602081016006831061338e5761338e613366565b634e487b7160e01b5f52601160045260245ffd5b5f826135da57634e487b7160e01b5f52601260045260245ffd5b500490565b8082028115828204841417610dda57610dda6135ac565b5f60208284031215613606575f80fd5b8151612814816130d4565b6001600160401b03818116838216019080821115613631576136316135ac565b5092915050565b80820180821115610dda57610dda6135ac565b5f806040838503121561365c575f80fd5b82516001600160401b0380821115613672575f80fd5b9084019060608287031215613685575f80fd5b6040516060810181811083821117156136a0576136a0612fcd565b6040528251815260208301516136b5816130f3565b60208201526040830151828111156136cb575f80fd5b6136d7888286016133c4565b604083015250809450505050602083015161334281612f6e565b5f6040830163ffffffff8351168452602080840151604060208701528281518085526060880191506020830194505f92505b8083101561374c5784516001600160a01b03168252938301936001929092019190830190613723565b509695505050505050565b60c081525f61376960c0830189613544565b828103602084015261377b8189613544565b90506001600160401b038088166040850152838203606085015261379f82886136f1565b915083820360808501526137b382876136f1565b925080851660a08501525050979650505050505050565b6001600160401b03828116828216039080821115613631576136316135ac565b5f80604083850312156137fb575f80fd5b8251613806816130d4565b6020939093015192949293505050565b6001600160401b03818116838216028082169190828114613839576138396135ac565b505092915050565b5f60208284031215613851575f80fd5b8135612814816130f3565b5f6020828403121561386c575f80fd5b612814826131d0565b5f60208284031215613885575f80fd5b813560ff81168114612814575f80fd5b81810381811115610dda57610dda6135ac56fe9b779b17422d0df92223018b32b4d1fa46e071723d6817e2486d003becc55f00a164736f6c6343000819000a",
    "linkReferences": {
      "contracts/validator-manager/ValidatorMessages.sol": {
        "ValidatorMessages": [
          {
            "start": 3261,
            "length": 20
          },
          {
            "start": 7772,
            "length": 20
          }
        ]
      }
    }
  },
  "methodIdentifiers": {
    "BIPS_CONVERSION_FACTOR()": "a9778a7a",
    "MAXIMUM_DELEGATION_FEE_BIPS()": "35455ded",
    "MAXIMUM_STAKE_MULTIPLIER_LIMIT()": "151d30d1",
    "NATIVE_MINTER()": "329c3e12",
    "P_CHAIN_BLOCKCHAIN_ID()": "732214f8",
    "STAKING_MANAGER_STORAGE_LOCATION()": "7a63ad85",
    "WARP_MESSENGER()": "b771b3bc",
    "changeDelegatorRewardRecipient(bytes32,address)": "fb8b11dd",
    "changeValidatorRewardRecipient(bytes32,address)": "8ef34c98",
    "claimDelegationFees(bytes32)": "93e24598",
    "completeDelegatorRegistration(bytes32,uint32)": "60ad7784",
    "completeDelegatorRemoval(bytes32,uint32)": "13409645",
    "completeValidatorRegistration(uint32)": "a3a65e48",
    "completeValidatorRemoval(uint32)": "9681d940",
    "forceInitiateDelegatorRemoval(bytes32,bool,uint32)": "27bf60cd",
    "forceInitiateDelegatorRemoval(bytes32,bool,uint32,address)": "aac80c39",
    "forceInitiateValidatorRemoval(bytes32,bool,uint32)": "16679564",
    "forceInitiateValidatorRemoval(bytes32,bool,uint32,address)": "4b396bcc",
    "initialize((address,uint256,uint256,uint64,uint16,uint8,uint256,address,bytes32))": "0d436317",
    "initiateDelegatorRegistration(bytes32)": "cacd9755",
    "initiateDelegatorRemoval(bytes32,bool,uint32)": "2aa56638",
    "initiateDelegatorRemoval(bytes32,bool,uint32,address)": "8af5499e",
    "initiateValidatorRegistration(bytes,bytes,uint64,(uint32,address[]),(uint32,address[]),uint16,uint64)": "264dc603",
    "initiateValidatorRemoval(bytes32,bool,uint32)": "b2c1712e",
    "initiateValidatorRemoval(bytes32,bool,uint32,address)": "cc71bbba",
    "resendUpdateDelegator(bytes32)": "245dafcb",
    "submitUptimeProof(bytes32,uint32)": "25e1c776",
    "valueToWeight(uint256)": "2e2194d8",
    "weightToValue(uint64)": "62065856"
  },
  "id": 94
}