{
  "abi": [
    {
      "type": "constructor",
      "inputs": [
        {
          "name": "init",
          "type": "uint8",
          "internalType": "enum ICMInitializable"
        }
      ],
      "stateMutability": "nonpayable"
    },
    {
      "type": "function",
      "name": "ADDRESS_LENGTH",
      "inputs": [],
      "outputs": [
        {
          "name": "",
          "type": "uint32",
          "internalType": "uint32"
        }
      ],
      "stateMutability": "view"
    },
    {
      "type": "function",
      "name": "BLS_PUBLIC_KEY_LENGTH",
      "inputs": [],
      "outputs": [
        {
          "name": "",
          "type": "uint8",
          "internalType": "uint8"
        }
      ],
      "stateMutability": "view"
    },
    {
      "type": "function",
      "name": "MAXIMUM_CHURN_PERCENTAGE_LIMIT",
      "inputs": [],
      "outputs": [
        {
          "name": "",
          "type": "uint8",
          "internalType": "uint8"
        }
      ],
      "stateMutability": "view"
    },
    {
      "type": "function",
      "name": "MAXIMUM_REGISTRATION_EXPIRY_LENGTH",
      "inputs": [],
      "outputs": [
        {
          "name": "",
          "type": "uint64",
          "internalType": "uint64"
        }
      ],
      "stateMutability": "view"
    },
    {
      "type": "function",
      "name": "NODE_ID_LENGTH",
      "inputs": [],
      "outputs": [
        {
          "name": "",
          "type": "uint32",
          "internalType": "uint32"
        }
      ],
      "stateMutability": "view"
    },
    {
      "type": "function",
      "name": "P_CHAIN_BLOCKCHAIN_ID",
      "inputs": [],
      "outputs": [
        {
          "name": "",
          "type": "bytes32",
          "internalType": "bytes32"
        }
      ],
      "stateMutability": "view"
    },
    {
      "type": "function",
      "name": "VALIDATOR_MANAGER_STORAGE_LOCATION",
      "inputs": [],
      "outputs": [
        {
          "name": "",
          "type": "bytes32",
          "internalType": "bytes32"
        }
      ],
      "stateMutability": "view"
    },
    {
      "type": "function",
      "name": "WARP_MESSENGER",
      "inputs": [],
      "outputs": [
        {
          "name": "",
          "type": "address",
          "internalType": "contract IWarpMessenger"
        }
      ],
      "stateMutability": "view"
    },
    {
      "type": "function",
      "name": "completeValidatorRegistration",
      "inputs": [
        {
          "name": "messageIndex",
          "type": "uint32",
          "internalType": "uint32"
        }
      ],
      "outputs": [
        {
          "name": "",
          "type": "bytes32",
          "internalType": "bytes32"
        }
      ],
      "stateMutability": "nonpayable"
    },
    {
      "type": "function",
      "name": "completeValidatorRemoval",
      "inputs": [
        {
          "name": "messageIndex",
          "type": "uint32",
          "internalType": "uint32"
        }
      ],
      "outputs": [
        {
          "name": "",
          "type": "bytes32",
          "internalType": "bytes32"
        }
      ],
      "stateMutability": "nonpayable"
    },
    {
      "type": "function",
      "name": "completeValidatorWeightUpdate",
      "inputs": [
        {
          "name": "messageIndex",
          "type": "uint32",
          "internalType": "uint32"
        }
      ],
      "outputs": [
        {
          "name": "",
          "type": "bytes32",
          "internalType": "bytes32"
        },
        {
          "name": "",
          "type": "uint64",
          "internalType": "uint64"
        }
      ],
      "stateMutability": "nonpayable"
    },
    {
      "type": "function",
      "name": "getChurnPeriodSeconds",
      "inputs": [],
      "outputs": [
        {
          "name": "",
          "type": "uint64",
          "internalType": "uint64"
        }
      ],
      "stateMutability": "view"
    },
    {
      "type": "function",
      "name": "getValidator",
      "inputs": [
        {
          "name": "validationID",
          "type": "bytes32",
          "internalType": "bytes32"
        }
      ],
      "outputs": [
        {
          "name": "",
          "type": "tuple",
          "internalType": "struct Validator",
          "components": [
            {
              "name": "status",
              "type": "uint8",
              "internalType": "enum ValidatorStatus"
            },
            {
              "name": "nodeID",
              "type": "bytes",
              "internalType": "bytes"
            },
            {
              "name": "startingWeight",
              "type": "uint64",
              "internalType": "uint64"
            },
            {
              "name": "sentNonce",
              "type": "uint64",
              "internalType": "uint64"
            },
            {
              "name": "receivedNonce",
              "type": "uint64",
              "internalType": "uint64"
            },
            {
              "name": "weight",
              "type": "uint64",
              "internalType": "uint64"
            },
            {
              "name": "startTime",
              "type": "uint64",
              "internalType": "uint64"
            },
            {
              "name": "endTime",
              "type": "uint64",
              "internalType": "uint64"
            }
          ]
        }
      ],
      "stateMutability": "view"
    },
    {
      "type": "function",
      "name": "initialize",
      "inputs": [
        {
          "name": "settings",
          "type": "tuple",
          "internalType": "struct ValidatorManagerSettings",
          "components": [
            {
              "name": "admin",
              "type": "address",
              "internalType": "address"
            },
            {
              "name": "subnetID",
              "type": "bytes32",
              "internalType": "bytes32"
            },
            {
              "name": "churnPeriodSeconds",
              "type": "uint64",
              "internalType": "uint64"
            },
            {
              "name": "maximumChurnPercentage",
              "type": "uint8",
              "internalType": "uint8"
            }
          ]
        }
      ],
      "outputs": [],
      "stateMutability": "nonpayable"
    },
    {
      "type": "function",
      "name": "initializeValidatorSet",
      "inputs": [
        {
          "name": "conversionData",
          "type": "tuple",
          "internalType": "struct ConversionData",
          "components": [
            {
              "name": "subnetID",
              "type": "bytes32",
              "internalType": "bytes32"
            },
            {
              "name": "validatorManagerBlockchainID",
              "type": "bytes32",
              "internalType": "bytes32"
            },
            {
              "name": "validatorManagerAddress",
              "type": "address",
              "internalType": "address"
            },
            {
              "name": "initialValidators",
              "type": "tuple[]",
              "internalType": "struct InitialValidator[]",
              "components": [
                {
                  "name": "nodeID",
                  "type": "bytes",
                  "internalType": "bytes"
                },
                {
                  "name": "blsPublicKey",
                  "type": "bytes",
                  "internalType": "bytes"
                },
                {
                  "name": "weight",
                  "type": "uint64",
                  "internalType": "uint64"
                }
              ]
            }
          ]
        },
        {
          "name": "messageIndex",
          "type": "uint32",
          "internalType": "uint32"
        }
      ],
      "outputs": [],
      "stateMutability": "nonpayable"
    },
    {
      "type": "function",
      "name": "initiateValidatorRegistration",
      "inputs": [
        {
          "name": "nodeID",
          "type": "bytes",
          "internalType": "bytes"
        },
        {
          "name": "blsPublicKey",
          "type": "bytes",
          "internalType": "bytes"
        },
        {
          "name": "registrationExpiry",
          "type": "uint64",
          "internalType": "uint64"
        },
        {
          "name": "remainingBalanceOwner",
          "type": "tuple",
          "internalType": "struct PChainOwner",
          "components": [
            {
              "name": "threshold",
              "type": "uint32",
              "internalType": "uint32"
            },
            {
              "name": "addresses",
              "type": "address[]",
              "internalType": "address[]"
            }
          ]
        },
        {
          "name": "disableOwner",
          "type": "tuple",
          "internalType": "struct PChainOwner",
          "components": [
            {
              "name": "threshold",
              "type": "uint32",
              "internalType": "uint32"
            },
            {
              "name": "addresses",
              "type": "address[]",
              "internalType": "address[]"
            }
          ]
        },
        {
          "name": "weight",
          "type": "uint64",
          "internalType": "uint64"
        }
      ],
      "outputs": [
        {
          "name": "",
          "type": "bytes32",
          "internalType": "bytes32"
        }
      ],
      "stateMutability": "nonpayable"
    },
    {
      "type": "function",
      "name": "initiateValidatorRemoval",
      "inputs": [
        {
          "name": "validationID",
          "type": "bytes32",
          "internalType": "bytes32"
        }
      ],
      "outputs": [],
      "stateMutability": "nonpayable"
    },
    {
      "type": "function",
      "name": "initiateValidatorWeightUpdate",
      "inputs": [
        {
          "name": "validationID",
          "type": "bytes32",
          "internalType": "bytes32"
        },
        {
          "name": "newWeight",
          "type": "uint64",
          "internalType": "uint64"
        }
      ],
      "outputs": [
        {
          "name": "",
          "type": "uint64",
          "internalType": "uint64"
        },
        {
          "name": "",
          "type": "bytes32",
          "internalType": "bytes32"
        }
      ],
      "stateMutability": "nonpayable"
    },
    {
      "type": "function",
      "name": "l1TotalWeight",
      "inputs": [],
      "outputs": [
        {
          "name": "",
          "type": "uint64",
          "internalType": "uint64"
        }
      ],
      "stateMutability": "view"
    },
    {
      "type": "function",
      "name": "owner",
      "inputs": [],
      "outputs": [
        {
          "name": "",
          "type": "address",
          "internalType": "address"
        }
      ],
      "stateMutability": "view"
    },
    {
      "type": "function",
      "name": "registeredValidators",
      "inputs": [
        {
          "name": "nodeID",
          "type": "bytes",
          "internalType": "bytes"
        }
      ],
      "outputs": [
        {
          "name": "",
          "type": "bytes32",
          "internalType": "bytes32"
        }
      ],
      "stateMutability": "view"
    },
    {
      "type": "function",
      "name": "renounceOwnership",
      "inputs": [],
      "outputs": [],
      "stateMutability": "nonpayable"
    },
    {
      "type": "function",
      "name": "resendEndValidatorMessage",
      "inputs": [
        {
          "name": "validationID",
          "type": "bytes32",
          "internalType": "bytes32"
        }
      ],
      "outputs": [],
      "stateMutability": "nonpayable"
    },
    {
      "type": "function",
      "name": "resendRegisterValidatorMessage",
      "inputs": [
        {
          "name": "validationID",
          "type": "bytes32",
          "internalType": "bytes32"
        }
      ],
      "outputs": [],
      "stateMutability": "nonpayable"
    },
    {
      "type": "function",
      "name": "subnetID",
      "inputs": [],
      "outputs": [
        {
          "name": "",
          "type": "bytes32",
          "internalType": "bytes32"
        }
      ],
      "stateMutability": "view"
    },
    {
      "type": "function",
      "name": "transferOwnership",
      "inputs": [
        {
          "name": "newOwner",
          "type": "address",
          "internalType": "address"
        }
      ],
      "outputs": [],
      "stateMutability": "nonpayable"
    },
    {
      "type": "event",
      "name": "CompletedValidatorRegistration",
      "inputs": [
        {
          "name": "validationID",
          "type": "bytes32",
          "indexed": true,
          "internalType": "bytes32"
        },
        {
          "name": "weight",
          "type": "uint64",
          "indexed": false,
          "internalType": "uint64"
        }
      ],
      "anonymous": false
    },
    {
      "type": "event",
      "name": "CompletedValidatorRemoval",
      "inputs": [
        {
          "name": "validationID",
          "type": "bytes32",
          "indexed": true,
          "internalType": "bytes32"
        }
      ],
      "anonymous": false
    },
    {
      "type": "event",
      "name": "CompletedValidatorWeightUpdate",
      "inputs": [
        {
          "name": "validationID",
          "type": "bytes32",
          "indexed": true,
          "internalType": "bytes32"
        },
        {
          "name": "nonce",
          "type": "uint64",
          "indexed": false,
          "internalType": "uint64"
        },
        {
          "name": "weight",
          "type": "uint64",
          "indexed": false,
          "internalType": "uint64"
        }
      ],
      "anonymous": false
    },
    {
      "type": "event",
      "name": "Initialized",
      "inputs": [
        {
          "name": "version",
          "type": "uint64",
          "indexed": false,
          "internalType": "uint64"
        }
      ],
      "anonymous": false
    },
    {
      "type": "event",
      "name": "InitiatedValidatorRegistration",
      "inputs": [
        {
          "name": "validationID",
          "type": "bytes32",
          "indexed": true,
          "internalType": "bytes32"
        },
        {
          "name": "nodeID",
          "type": "bytes20",
          "indexed": true,
          "internalType": "bytes20"
        },
        {
          "name": "registrationMessageID",
          "type": "bytes32",
          "indexed": false,
          "internalType": "bytes32"
        },
        {
          "name": "registrationExpiry",
          "type": "uint64",
          "indexed": false,
          "internalType": "uint64"
        },
        {
          "name": "weight",
          "type": "uint64",
          "indexed": false,
          "internalType": "uint64"
        }
      ],
      "anonymous": false
    },
    {
      "type": "event",
      "name": "InitiatedValidatorRemoval",
      "inputs": [
        {
          "name": "validationID",
          "type": "bytes32",
          "indexed": true,
          "internalType": "bytes32"
        },
        {
          "name": "validatorWeightMessageID",
          "type": "bytes32",
          "indexed": false,
          "internalType": "bytes32"
        },
        {
          "name": "weight",
          "type": "uint64",
          "indexed": false,
          "internalType": "uint64"
        },
        {
          "name": "endTime",
          "type": "uint64",
          "indexed": false,
          "internalType": "uint64"
        }
      ],
      "anonymous": false
    },
    {
      "type": "event",
      "name": "InitiatedValidatorWeightUpdate",
      "inputs": [
        {
          "name": "validationID",
          "type": "bytes32",
          "indexed": true,
          "internalType": "bytes32"
        },
        {
          "name": "nonce",
          "type": "uint64",
          "indexed": false,
          "internalType": "uint64"
        },
        {
          "name": "weightUpdateMessageID",
          "type": "bytes32",
          "indexed": false,
          "internalType": "bytes32"
        },
        {
          "name": "weight",
          "type": "uint64",
          "indexed": false,
          "internalType": "uint64"
        }
      ],
      "anonymous": false
    },
    {
      "type": "event",
      "name": "OwnershipTransferred",
      "inputs": [
        {
          "name": "previousOwner",
          "type": "address",
          "indexed": true,
          "internalType": "address"
        },
        {
          "name": "newOwner",
          "type": "address",
          "indexed": true,
          "internalType": "address"
        }
      ],
      "anonymous": false
    },
    {
      "type": "event",
      "name": "RegisteredInitialValidator",
      "inputs": [
        {
          "name": "validationID",
          "type": "bytes32",
          "indexed": true,
          "internalType": "bytes32"
        },
        {
          "name": "nodeID",
          "type": "bytes20",
          "indexed": true,
          "internalType": "bytes20"
        },
        {
          "name": "weight",
          "type": "uint64",
          "indexed": false,
          "internalType": "uint64"
        }
      ],
      "anonymous": false
    },
    {
      "type": "error",
      "name": "InvalidBLSKeyLength",
      "inputs": [
        {
          "name": "length",
          "type": "uint256",
          "internalType": "uint256"
        }
      ]
    },
    {
      "type": "error",
      "name": "InvalidConversionID",
      "inputs": [
        {
          "name": "encodedConversionID",
          "type": "bytes32",
          "internalType": "bytes32"
        },
        {
          "name": "expectedConversionID",
          "type": "bytes32",
          "internalType": "bytes32"
        }
      ]
    },
    {
      "type": "error",
      "name": "InvalidInitialization",
      "inputs": []
    },
    {
      "type": "error",
      "name": "InvalidInitializationStatus",
      "inputs": []
    },
    {
      "type": "error",
      "name": "InvalidMaximumChurnPercentage",
      "inputs": [
        {
          "name": "maximumChurnPercentage",
          "type": "uint8",
          "internalType": "uint8"
        }
      ]
    },
    {
      "type": "error",
      "name": "InvalidNodeID",
      "inputs": [
        {
          "name": "nodeID",
          "type": "bytes",
          "internalType": "bytes"
        }
      ]
    },
    {
      "type": "error",
      "name": "InvalidNonce",
      "inputs": [
        {
          "name": "nonce",
          "type": "uint64",
          "internalType": "uint64"
        }
      ]
    },
    {
      "type": "error",
      "name": "InvalidPChainOwnerThreshold",
      "inputs": [
        {
          "name": "threshold",
          "type": "uint256",
          "internalType": "uint256"
        },
        {
          "name": "addressesLength",
          "type": "uint256",
          "internalType": "uint256"
        }
      ]
    },
    {
      "type": "error",
      "name": "InvalidRegistrationExpiry",
      "inputs": [
        {
          "name": "registrationExpiry",
          "type": "uint64",
          "internalType": "uint64"
        }
      ]
    },
    {
      "type": "error",
      "name": "InvalidTotalWeight",
      "inputs": [
        {
          "name": "weight",
          "type": "uint64",
          "internalType": "uint64"
        }
      ]
    },
    {
      "type": "error",
      "name": "InvalidValidationID",
      "inputs": [
        {
          "name": "validationID",
          "type": "bytes32",
          "internalType": "bytes32"
        }
      ]
    },
    {
      "type": "error",
      "name": "InvalidValidatorManagerAddress",
      "inputs": [
        {
          "name": "validatorManagerAddress",
          "type": "address",
          "internalType": "address"
        }
      ]
    },
    {
      "type": "error",
      "name": "InvalidValidatorManagerBlockchainID",
      "inputs": [
        {
          "name": "blockchainID",
          "type": "bytes32",
          "internalType": "bytes32"
        }
      ]
    },
    {
      "type": "error",
      "name": "InvalidValidatorStatus",
      "inputs": [
        {
          "name": "status",
          "type": "uint8",
          "internalType": "enum ValidatorStatus"
        }
      ]
    },
    {
      "type": "error",
      "name": "InvalidWarpMessage",
      "inputs": []
    },
    {
      "type": "error",
      "name": "InvalidWarpOriginSenderAddress",
      "inputs": [
        {
          "name": "senderAddress",
          "type": "address",
          "internalType": "address"
        }
      ]
    },
    {
      "type": "error",
      "name": "InvalidWarpSourceChainID",
      "inputs": [
        {
          "name": "sourceChainID",
          "type": "bytes32",
          "internalType": "bytes32"
        }
      ]
    },
    {
      "type": "error",
      "name": "MaxChurnRateExceeded",
      "inputs": [
        {
          "name": "churnAmount",
          "type": "uint64",
          "internalType": "uint64"
        }
      ]
    },
    {
      "type": "error",
      "name": "NodeAlreadyRegistered",
      "inputs": [
        {
          "name": "nodeID",
          "type": "bytes",
          "internalType": "bytes"
        }
      ]
    },
    {
      "type": "error",
      "name": "NotInitializing",
      "inputs": []
    },
    {
      "type": "error",
      "name": "OwnableInvalidOwner",
      "inputs": [
        {
          "name": "owner",
          "type": "address",
          "internalType": "address"
        }
      ]
    },
    {
      "type": "error",
      "name": "OwnableUnauthorizedAccount",
      "inputs": [
        {
          "name": "account",
          "type": "address",
          "internalType": "address"
        }
      ]
    },
    {
      "type": "error",
      "name": "PChainOwnerAddressesNotSorted",
      "inputs": []
    },
    {
      "type": "error",
      "name": "UnauthorizedCaller",
      "inputs": [
        {
          "name": "caller",
          "type": "address",
          "internalType": "address"
        }
      ]
    },
    {
      "type": "error",
      "name": "UnexpectedRegistrationStatus",
      "inputs": [
        {
          "name": "validRegistration",
          "type": "bool",
          "internalType": "bool"
        }
      ]
    }
  ],
  "bytecode": {
    "object": "0x608060405234801561000f575f80fd5b5060405161382138038061382183398101604081905261002e91610107565b60018160018111156100425761004261012c565b0361004f5761004f610055565b50610140565b7ff0c57e16840df040f15088dc2f81fe391c3923bec73e23a9662efc9c229c6a00805468010000000000000000900460ff16156100a55760405163f92ee8a960e01b815260040160405180910390fd5b80546001600160401b03908116146101045780546001600160401b0319166001600160401b0390811782556040519081527fc7f505b2f371ae2175ee4913f4499e1f2633a7b5936321eed1cdaeb6115181d29060200160405180910390a15b50565b5f60208284031215610117575f80fd5b815160028110610125575f80fd5b9392505050565b634e487b7160e01b5f52602160045260245ffd5b6136d48061014d5f395ff3fe608060405234801561000f575f80fd5b5060043610610187575f3560e01c8063a3a65e48116100d9578063c974d1b611610093578063df93d8de1161006e578063df93d8de1461039e578063ed285ae1146103a8578063f2fde38b146103bb578063fd7ac5e7146103ce575f80fd5b8063c974d1b614610346578063ce161f141461034e578063d5f20ff61461037e575f80fd5b8063a3a65e48146102d0578063b6e6a2ca146102e3578063b771b3bc146102f6578063bb0b193814610304578063bc5fbfec1461030c578063bee0a03f14610333575f80fd5b80636610966911610144578063736c87be1161011f578063736c87be1461024c5780638280a25a1461025f5780638da5cb5b146102795780639681d940146102bd575f80fd5b8063661096691461020b578063715018a61461023d578063732214f814610245575f80fd5b80630322ed981461018b57806309c1df66146101a057806320d91b7a146101c55780635dc1f535146101d857806360305d62146101ee57806363e2ca97146101ee575b5f80fd5b61019e610199366004612893565b6103e1565b005b6101a8610674565b6040516001600160401b0390911681526020015b60405180910390f35b61019e6101d33660046128d3565b61068f565b6101e0610c48565b6040519081526020016101bc565b6101f6601481565b60405163ffffffff90911681526020016101bc565b61021e61021936600461293c565b610c57565b604080516001600160401b0390931683526020830191909152016101bc565b61019e610c77565b6101e05f81565b61019e61025a36600461296a565b610c8a565b610267603081565b60405160ff90911681526020016101bc565b7f9016d09d72d40fdae2fd8ceac6b6234c7706214fd39c1cd1e609a0528c199300546001600160a01b03165b6040516001600160a01b0390911681526020016101bc565b6101e06102cb36600461298b565b610d96565b6101e06102de36600461298b565b61114a565b61019e6102f1366004612893565b611341565b6102a56005600160991b0181565b6101a8611355565b6101e07fe92546d698950ddd38910d2e15ed1d923cd0a7b3dde9e2a6a3f380565559cb0081565b61019e610341366004612893565b611377565b610267601481565b61036161035c36600461298b565b611498565b604080519283526001600160401b039091166020830152016101bc565b61039161038c366004612893565b611623565b6040516101bc9190612a25565b6101a86202a30081565b6101e06103b6366004612cbe565b6117aa565b61019e6103c9366004612d82565b6117cc565b6101e06103dc366004612d9d565b611806565b5f6103ea61183f565b5f838152600580830160205260408083208151610100810190925280549495509293909291839160ff1690811115610424576104246129a4565b6005811115610435576104356129a4565b815260200160018201805461044990612e08565b80601f016020809104026020016040519081016040528092919081815260200182805461047590612e08565b80156104c05780601f10610497576101008083540402835291602001916104c0565b820191905f5260205f20905b8154815290600101906020018083116104a357829003601f168201915b505050918352505060028201546001600160401b038082166020840152600160401b80830482166040850152600160801b830482166060850152600160c01b9092048116608084015260039384015480821660a0850152919091041660c09091015290915081516005811115610538576105386129a4565b14610574575f8381526005830160205260409081902054905163170cc93360e21b815261056b9160ff1690600401612e3a565b60405180910390fd5b606081015160405163854a893f60e01b8152600481018590526001600160401b0390911660248201525f60448201526005600160991b019063ee5b48eb9073__$fd0c147b4031eef6079b0498cbafa865f0$__9063854a893f906064015f60405180830381865af41580156105eb573d5f803e3d5ffd5b505050506040513d5f823e601f3d908101601f191682016040526106129190810190612e92565b6040518263ffffffff1660e01b815260040161062e9190612ec3565b6020604051808303815f875af115801561064a573d5f803e3d5ffd5b505050506040513d601f19601f8201168201806040525081019061066e9190612ed5565b50505050565b5f61067d61183f565b600101546001600160401b0316919050565b5f61069861183f565b600781015490915060ff16156106c157604051637fab81e560e01b815260040160405180910390fd5b6005600160991b016001600160a01b0316634213cf786040518163ffffffff1660e01b8152600401602060405180830381865afa158015610704573d5f803e3d5ffd5b505050506040513d601f19601f820116820180604052508101906107289190612ed5565b836020013514610751576040516372b0a7e760e11b81526020840135600482015260240161056b565b306107626060850160408601612d82565b6001600160a01b0316146107a5576107806060840160408501612d82565b604051632f88120d60e21b81526001600160a01b03909116600482015260240161056b565b5f6107b36060850185612eec565b905090505f805b828163ffffffff161015610a39575f6107d66060880188612eec565b8363ffffffff168181106107ec576107ec612f31565b90506020028101906107fe9190612f45565b61080790612f63565b80516040519192505f91600688019161081f91612fde565b9081526020016040518091039020541461084f57805160405163a41f772f60e01b815261056b9190600401612ec3565b805151601414610875578051604051633e08a12560e11b815261056b9190600401612ec3565b5f6002885f0135846040516020016108a492919091825260e01b6001600160e01b031916602082015260240190565b60408051601f19818403018152908290526108be91612fde565b602060405180830381855afa1580156108d9573d5f803e3d5ffd5b5050506040513d601f19601f820116820180604052508101906108fc9190612ed5565b90508086600601835f01516040516109149190612fde565b90815260408051918290036020908101909220929092555f8381526005890190915220805460ff191660021781558251600190910190610954908261303a565b50604082810180515f84815260058a016020529290922060028101805492516001600160401b0394851667ffffffffffffffff60801b90941693909317600160c01b858516021790556003018054429093166001600160801b0319909316929092179091556109c39085613109565b8251602001519094506bffffffffffffffffffffffff1916817f9d9c026e2cadfec89cccc2cd72705360eca1beba24774f3363f4bb33faabc7d78460400151604051610a1e91906001600160401b0391909116815260200190565b60405180910390a3505080610a3290613129565b90506107ba565b506003830180546fffffffffffffffff00000000000000001916600160401b6001600160401b0384168102919091179091556001840154606491610a81910460ff168361314b565b6001600160401b03161015610ab457604051633e1a785160e01b81526001600160401b038216600482015260240161056b565b5f73__$fd0c147b4031eef6079b0498cbafa865f0$__634d847884610ad887611863565b604001516040518263ffffffff1660e01b8152600401610af89190612ec3565b602060405180830381865af4158015610b13573d5f803e3d5ffd5b505050506040513d601f19601f82011682018060405250810190610b379190612ed5565b90505f73__$fd0c147b4031eef6079b0498cbafa865f0$__6387418b8e886040518263ffffffff1660e01b8152600401610b7191906132a1565b5f60405180830381865af4158015610b8b573d5f803e3d5ffd5b505050506040513d5f823e601f3d908101601f19168201604052610bb29190810190612e92565b90505f600282604051610bc59190612fde565b602060405180830381855afa158015610be0573d5f803e3d5ffd5b5050506040513d601f19601f82011682018060405250810190610c039190612ed5565b9050828114610c2f5760405163baaea89d60e01b8152600481018290526024810184905260440161056b565b5050506007909201805460ff1916600117905550505050565b5f610c5161183f565b54919050565b5f80610c61611979565b610c6b84846119d4565b915091505b9250929050565b610c7f611979565b610c885f611b9c565b565b7ff0c57e16840df040f15088dc2f81fe391c3923bec73e23a9662efc9c229c6a008054600160401b810460ff1615906001600160401b03165f81158015610cce5750825b90505f826001600160401b03166001148015610ce95750303b155b905081158015610cf7575080155b15610d155760405163f92ee8a960e01b815260040160405180910390fd5b845467ffffffffffffffff191660011785558315610d3f57845460ff60401b1916600160401b1785555b610d4886611c0c565b8315610d8e57845460ff60401b19168555604051600181527fc7f505b2f371ae2175ee4913f4499e1f2633a7b5936321eed1cdaeb6115181d29060200160405180910390a15b505050505050565b5f610d9f611979565b5f610da861183f565b90505f8073__$fd0c147b4031eef6079b0498cbafa865f0$__63021de88f610dcf87611863565b604001516040518263ffffffff1660e01b8152600401610def9190612ec3565b6040805180830381865af4158015610e09573d5f803e3d5ffd5b505050506040513d601f19601f82011682018060405250810190610e2d9190613344565b915091508015610e5457604051632d07135360e01b8152811515600482015260240161056b565b5f8281526005808501602052604080832081516101008101909252805491929091839160ff90911690811115610e8c57610e8c6129a4565b6005811115610e9d57610e9d6129a4565b8152602001600182018054610eb190612e08565b80601f0160208091040260200160405190810160405280929190818152602001828054610edd90612e08565b8015610f285780601f10610eff57610100808354040283529160200191610f28565b820191905f5260205f20905b815481529060010190602001808311610f0b57829003601f168201915b505050918352505060028201546001600160401b038082166020840152600160401b80830482166040850152600160801b830482166060850152600160c01b9092048116608084015260039384015480821660a0850152919091041660c09091015290915081516005811115610fa057610fa06129a4565b14158015610fc15750600181516005811115610fbe57610fbe6129a4565b14155b15610fe257805160405163170cc93360e21b815261056b9190600401612e3a565b600381516005811115610ff757610ff76129a4565b03611005576004815261100a565b600581525b8360060181602001516040516110209190612fde565b90815260408051602092819003830190205f90819055858152600587810190935220825181548493839160ff1916906001908490811115611063576110636129a4565b02179055506020820151600182019061107c908261303a565b506040828101516002830180546060860151608087015160a08801516001600160401b039586166001600160801b031994851617600160401b9387168402176001600160801b0316600160801b928716929092026001600160c01b031691909117600160c01b918616919091021790925560c08601516003909501805460e09097015195841696909116959095179390911602919091179091555183907fafaccef7080649a725bc30a35359a257a4a27225be352875c80bdf6b5f04080c905f90a25090925050505b919050565b5f611153611979565b5f61115c61183f565b90505f8073__$fd0c147b4031eef6079b0498cbafa865f0$__63021de88f61118387611863565b604001516040518263ffffffff1660e01b81526004016111a39190612ec3565b6040805180830381865af41580156111bd573d5f803e3d5ffd5b505050506040513d601f19601f820116820180604052508101906111e19190613344565b915091508061120757604051632d07135360e01b8152811515600482015260240161056b565b5f8281526004840160205260409020805461122190612e08565b90505f036112455760405163089938b360e11b81526004810183905260240161056b565b60015f838152600580860160205260409091205460ff169081111561126c5761126c6129a4565b1461129f575f8281526005840160205260409081902054905163170cc93360e21b815261056b9160ff1690600401612e3a565b5f82815260048401602052604081206112b791612849565b5f828152600584016020908152604091829020805460ff1916600290811782556003820180546001600160401b0342811667ffffffffffffffff19909216919091179091559101549251600160c01b90930416825283917f967ae87813a3b5f201dd9bcba778d457176eafe6f41facee1c718091d3952d06910160405180910390a2509392505050565b611349611979565b61135281611c32565b50565b5f61135e61183f565b60030154600160401b90046001600160401b0316919050565b5f61138061183f565b5f838152600482016020526040902080549192509061139e90612e08565b90505f036113c25760405163089938b360e11b81526004810183905260240161056b565b60015f838152600580840160205260409091205460ff16908111156113e9576113e96129a4565b1461141c575f8281526005820160205260409081902054905163170cc93360e21b815261056b9160ff1690600401612e3a565b5f8281526004808301602052604091829020915163ee5b48eb60e01b81526005600160991b019263ee5b48eb926114539201613365565b6020604051808303815f875af115801561146f573d5f803e3d5ffd5b505050506040513d601f19601f820116820180604052508101906114939190612ed5565b505050565b5f806114a2611979565b5f6114ac84611863565b90505f805f73__$fd0c147b4031eef6079b0498cbafa865f0$__6350782b0f85604001516040518263ffffffff1660e01b81526004016114ec9190612ec3565b606060405180830381865af4158015611507573d5f803e3d5ffd5b505050506040513d601f19601f8201168201806040525081019061152b91906133ef565b9250925092505f61153a61183f565b5f8581526005820160205260409020600201549091506001600160401b03808516600160401b90920416101561158e57604051632e19bc2d60e11b81526001600160401b038416600482015260240161056b565b5f8481526005820160205260409081902060020180546001600160401b038616600160801b0267ffffffffffffffff60801b199091161790555184907fc917996591802ecedcfced71321d4bb5320f7dfbacf5477dffe1dbf8b8839ff99061160e90869086906001600160401b0392831681529116602082015260400190565b60405180910390a25091945092505050915091565b60408051610100810182525f8082526060602083018190529282018190529181018290526080810182905260a0810182905260c0810182905260e081018290529061166c61183f565b5f84815260058083016020526040918290208251610100810190935280549394509192839160ff909116908111156116a6576116a66129a4565b60058111156116b7576116b76129a4565b81526020016001820180546116cb90612e08565b80601f01602080910402602001604051908101604052809291908181526020018280546116f790612e08565b80156117425780601f1061171957610100808354040283529160200191611742565b820191905f5260205f20905b81548152906001019060200180831161172557829003601f168201915b505050918352505060028201546001600160401b038082166020840152600160401b80830482166040850152600160801b830482166060850152600160c01b9092048116608084015260039093015480841660a08401520490911660c0909101529392505050565b5f6117b3611979565b6117c1878787878787611f1d565b979650505050505050565b6117d4611979565b6001600160a01b0381166117fd57604051631e4fbdf760e01b81525f600482015260240161056b565b61135281611b9c565b5f8061181061183f565b905080600601848460405161182692919061342f565b9081526020016040518091039020549150505b92915050565b7fe92546d698950ddd38910d2e15ed1d923cd0a7b3dde9e2a6a3f380565559cb0090565b60408051606080820183525f8083526020830152918101919091526040516306f8253560e41b815263ffffffff831660048201525f9081906005600160991b0190636f825350906024015f60405180830381865afa1580156118c7573d5f803e3d5ffd5b505050506040513d5f823e601f3d908101601f191682016040526118ee919081019061343e565b915091508061191057604051636b2f19e960e01b815260040160405180910390fd5b815115611936578151604051636ba589a560e01b8152600481019190915260240161056b565b60208201516001600160a01b031615611972576020820151604051624de75d60e31b81526001600160a01b03909116600482015260240161056b565b5092915050565b336119ab7f9016d09d72d40fdae2fd8ceac6b6234c7706214fd39c1cd1e609a0528c199300546001600160a01b031690565b6001600160a01b031614610c885760405163118cdaa760e01b815233600482015260240161056b565b5f805f6119df61183f565b5f868152600582016020526040902060020154909150600160c01b90046001600160401b0316611a0f8582612307565b5f611a1987612574565b5f88815260058501602052604080822060020180546001600160c01b0316600160c01b6001600160401b038c811691820292909217909255915163854a893f60e01b8152600481018c905291841660248301526044820152919250906005600160991b019063ee5b48eb9073__$fd0c147b4031eef6079b0498cbafa865f0$__9063854a893f906064015f60405180830381865af4158015611abd573d5f803e3d5ffd5b505050506040513d5f823e601f3d908101601f19168201604052611ae49190810190612e92565b6040518263ffffffff1660e01b8152600401611b009190612ec3565b6020604051808303815f875af1158015611b1c573d5f803e3d5ffd5b505050506040513d601f19601f82011682018060405250810190611b409190612ed5565b604080516001600160401b038581168252602082018490528a1681830152905191925089917f6e350dd49b060d87f297206fd309234ed43156d890ced0f139ecf704310481d39181900360600190a29097909650945050505050565b7f9016d09d72d40fdae2fd8ceac6b6234c7706214fd39c1cd1e609a0528c19930080546001600160a01b031981166001600160a01b03848116918217845560405192169182907f8be0079c531659141344cd1fd0a4f28419497f9722a3daafe3b4186f6b6457e0905f90a3505050565b611c146125dd565b611c29611c246020830183612d82565b612626565b61135281612637565b5f611c3b61183f565b5f838152600580830160205260408083208151610100810190925280549495509293909291839160ff1690811115611c7557611c756129a4565b6005811115611c8657611c866129a4565b8152602001600182018054611c9a90612e08565b80601f0160208091040260200160405190810160405280929190818152602001828054611cc690612e08565b8015611d115780601f10611ce857610100808354040283529160200191611d11565b820191905f5260205f20905b815481529060010190602001808311611cf457829003601f168201915b50505091835250506002828101546001600160401b038082166020850152600160401b80830482166040860152600160801b830482166060860152600160c01b9092048116608085015260039094015480851660a08501520490921660c09091015290915081516005811115611d8957611d896129a4565b14611dbc575f8381526005830160205260409081902054905163170cc93360e21b815261056b9160ff1690600401612e3a565b60038152426001600160401b031660e08201525f83815260058381016020526040909120825181548493839160ff1916906001908490811115611e0157611e016129a4565b021790555060208201516001820190611e1a908261303a565b5060408201516002820180546060850151608086015160a08701516001600160401b039586166001600160801b031994851617600160401b9387168402176001600160801b0316600160801b928716929092026001600160c01b031691909117600160c01b918616919091021790925560c08501516003909401805460e090960151948416959091169490941792909116021790555f611eba84826119d4565b915050837fbae388a94e7f18411fe57098f12f418b8e1a8273e0532a90188a3a059b897273828460a0015142604051611f0f939291909283526001600160401b03918216602084015216604082015260600190565b60405180910390a250505050565b5f611f2661183f565b6007015460ff16611f4a57604051637fab81e560e01b815260040160405180910390fd5b5f611f5361183f565b905042866001600160401b0316111580611f825750611f756202a300426134cb565b866001600160401b031610155b15611fab57604051635879da1360e11b81526001600160401b038716600482015260240161056b565b60038101546001600160401b0390611fce90600160401b900482168583166134cb565b1115611ff857604051633e1a785160e01b81526001600160401b038416600482015260240161056b565b6120018561271e565b61200a8461271e565b86516030146120315786516040516326475b2f60e11b815260040161056b91815260200190565b87516014146120555787604051633e08a12560e11b815260040161056b9190612ec3565b5f801b816006018960405161206a9190612fde565b90815260200160405180910390205414612099578760405163a41f772f60e01b815260040161056b9190612ec3565b6120a3835f612307565b5f8073__$fd0c147b4031eef6079b0498cbafa865f0$__63eb97ce516040518060e00160405280865f015481526020018d81526020018c81526020018b6001600160401b031681526020018a8152602001898152602001886001600160401b03168152506040518263ffffffff1660e01b81526004016121239190613544565b5f60405180830381865af415801561213d573d5f803e3d5ffd5b505050506040513d5f823e601f3d908101601f1916820160405261216491908101906135fb565b5f82815260048601602052604090209193509150612182828261303a565b5081836006018b6040516121969190612fde565b9081526040519081900360200181209190915563ee5b48eb60e01b81525f906005600160991b019063ee5b48eb906121d2908590600401612ec3565b6020604051808303815f875af11580156121ee573d5f803e3d5ffd5b505050506040513d601f19601f820116820180604052508101906122129190612ed5565b5f8481526005860160205260409020805460ff1916600190811782559192500161223c8c8261303a565b505f8381526005850160205260409020600281018054600160c01b6001600160401b038a1690810267ffffffffffffffff60801b9092161717905560030180546001600160801b03191690556122938b6020015190565b6bffffffffffffffffffffffff1916837f5881be437bdcb008bfa5f20e32d3e335ccf8ab90ef2818852a251625260af35d838c8a6040516122f0939291909283526001600160401b03918216602084015216604082015260600190565b60405180910390a350909998505050505050505050565b5f61231061183f565b90505f826001600160401b0316846001600160401b0316111561233e57612337838561363e565b905061234b565b612348848461363e565b90505b60408051608081018252600284015480825260038501546001600160401b038082166020850152600160401b8204811694840194909452600160801b90049092166060820152429115806123b85750600184015481516123b4916001600160401b0316906134cb565b8210155b156123e0576001600160401b03808416606083015282825260408201511660208201526123ff565b82816060018181516123f29190613109565b6001600160401b03169052505b606081015161240f90606461314b565b602082015160018601546001600160401b03929092169161243a9190600160401b900460ff1661314b565b6001600160401b0316101561247357606081015160405163dfae880160e01b81526001600160401b03909116600482015260240161056b565b85816040018181516124859190613109565b6001600160401b03169052506040810180518691906124a590839061363e565b6001600160401b0316905250600184015460408201516064916124d391600160401b90910460ff169061314b565b6001600160401b0316101561250c576040808201519051633e1a785160e01b81526001600160401b03909116600482015260240161056b565b8051600285015560208101516003909401805460408301516060909301516001600160401b03908116600160801b0267ffffffffffffffff60801b19948216600160401b026001600160801b0319909316919097161717919091169390931790925550505050565b5f8061257e61183f565b5f84815260058201602052604090206002018054919250906008906125b290600160401b90046001600160401b031661365e565b91906101000a8154816001600160401b0302191690836001600160401b031602179055915050919050565b7ff0c57e16840df040f15088dc2f81fe391c3923bec73e23a9662efc9c229c6a0054600160401b900460ff16610c8857604051631afcd79f60e31b815260040160405180910390fd5b61262e6125dd565b61135281612841565b61263f6125dd565b5f61264861183f565b60208301358155905060146126636080840160608501613679565b60ff161180612682575061267d6080830160608401613679565b60ff16155b156126b6576126976080830160608401613679565b604051634a59bbff60e11b815260ff909116600482015260240161056b565b6126c66080830160608401613679565b60018201805460ff92909216600160401b0260ff60401b199092169190911790556126f76060830160408401613699565b600191909101805467ffffffffffffffff19166001600160401b0390921691909117905550565b805163ffffffff16158015612737575060208101515115155b1561276b57805160208201515160405163c08a0f1d60e01b815263ffffffff9092166004830152602482015260440161056b565b602081015151815163ffffffff1611156127ae57805160208201515160405163c08a0f1d60e01b815263ffffffff9092166004830152602482015260440161056b565b60015b81602001515181101561283d5760208201516127ce6001836136b4565b815181106127de576127de612f31565b60200260200101516001600160a01b03168260200151828151811061280557612805612f31565b60200260200101516001600160a01b0316101561283557604051630dbc8d5f60e31b815260040160405180910390fd5b6001016127b1565b5050565b6117d46125dd565b50805461285590612e08565b5f825580601f10612864575050565b601f0160209004905f5260205f209081019061135291905b8082111561288f575f815560010161287c565b5090565b5f602082840312156128a3575f80fd5b5035919050565b5f608082840312156128ba575f80fd5b50919050565b803563ffffffff81168114611145575f80fd5b5f80604083850312156128e4575f80fd5b82356001600160401b038111156128f9575f80fd5b612905858286016128aa565b925050612914602084016128c0565b90509250929050565b6001600160401b0381168114611352575f80fd5b80356111458161291d565b5f806040838503121561294d575f80fd5b82359150602083013561295f8161291d565b809150509250929050565b5f6080828403121561297a575f80fd5b61298483836128aa565b9392505050565b5f6020828403121561299b575f80fd5b612984826128c0565b634e487b7160e01b5f52602160045260245ffd5b600681106129d457634e487b7160e01b5f52602160045260245ffd5b9052565b5f5b838110156129f25781810151838201526020016129da565b50505f910152565b5f8151808452612a118160208601602086016129d8565b601f01601f19169290920160200192915050565b60208152612a376020820183516129b8565b5f6020830151610100806040850152612a546101208501836129fa565b915060408501516001600160401b03808216606087015280606088015116608087015250506080850151612a9360a08601826001600160401b03169052565b5060a08501516001600160401b03811660c08601525060c08501516001600160401b03811660e08601525060e08501516001600160401b038116858301525090949350505050565b634e487b7160e01b5f52604160045260245ffd5b604080519081016001600160401b0381118282101715612b1157612b11612adb565b60405290565b604051606081016001600160401b0381118282101715612b1157612b11612adb565b604051601f8201601f191681016001600160401b0381118282101715612b6157612b61612adb565b604052919050565b5f6001600160401b03821115612b8157612b81612adb565b50601f01601f191660200190565b5f82601f830112612b9e575f80fd5b8135612bb1612bac82612b69565b612b39565b818152846020838601011115612bc5575f80fd5b816020850160208301375f918101602001919091529392505050565b6001600160a01b0381168114611352575f80fd5b5f60408284031215612c05575f80fd5b612c0d612aef565b9050612c18826128c0565b81526020808301356001600160401b0380821115612c34575f80fd5b818501915085601f830112612c47575f80fd5b813581811115612c5957612c59612adb565b8060051b9150612c6a848301612b39565b8181529183018401918481019088841115612c83575f80fd5b938501935b83851015612cad5784359250612c9d83612be1565b8282529385019390850190612c88565b808688015250505050505092915050565b5f805f805f8060c08789031215612cd3575f80fd5b86356001600160401b0380821115612ce9575f80fd5b612cf58a838b01612b8f565b97506020890135915080821115612d0a575f80fd5b612d168a838b01612b8f565b9650612d2460408a01612931565b95506060890135915080821115612d39575f80fd5b612d458a838b01612bf5565b94506080890135915080821115612d5a575f80fd5b50612d6789828a01612bf5565b925050612d7660a08801612931565b90509295509295509295565b5f60208284031215612d92575f80fd5b813561298481612be1565b5f8060208385031215612dae575f80fd5b82356001600160401b0380821115612dc4575f80fd5b818501915085601f830112612dd7575f80fd5b813581811115612de5575f80fd5b866020828501011115612df6575f80fd5b60209290920196919550909350505050565b600181811c90821680612e1c57607f821691505b6020821081036128ba57634e487b7160e01b5f52602260045260245ffd5b6020810161183982846129b8565b5f82601f830112612e57575f80fd5b8151612e65612bac82612b69565b818152846020838601011115612e79575f80fd5b612e8a8260208301602087016129d8565b949350505050565b5f60208284031215612ea2575f80fd5b81516001600160401b03811115612eb7575f80fd5b612e8a84828501612e48565b602081525f61298460208301846129fa565b5f60208284031215612ee5575f80fd5b5051919050565b5f808335601e19843603018112612f01575f80fd5b8301803591506001600160401b03821115612f1a575f80fd5b6020019150600581901b3603821315610c70575f80fd5b634e487b7160e01b5f52603260045260245ffd5b5f8235605e19833603018112612f59575f80fd5b9190910192915050565b5f60608236031215612f73575f80fd5b612f7b612b17565b82356001600160401b0380821115612f91575f80fd5b612f9d36838701612b8f565b83526020850135915080821115612fb2575f80fd5b50612fbf36828601612b8f565b6020830152506040830135612fd38161291d565b604082015292915050565b5f8251612f598184602087016129d8565b601f82111561149357805f5260205f20601f840160051c810160208510156130145750805b601f840160051c820191505b81811015613033575f8155600101613020565b5050505050565b81516001600160401b0381111561305357613053612adb565b613067816130618454612e08565b84612fef565b602080601f83116001811461309a575f84156130835750858301515b5f19600386901b1c1916600185901b178555610d8e565b5f85815260208120601f198616915b828110156130c8578886015182559484019460019091019084016130a9565b50858210156130e557878501515f19600388901b60f8161c191681555b5050505050600190811b01905550565b634e487b7160e01b5f52601160045260245ffd5b6001600160401b03818116838216019080821115611972576119726130f5565b5f63ffffffff808316818103613141576131416130f5565b6001019392505050565b6001600160401b0381811683821602808216919082811461316e5761316e6130f5565b505092915050565b5f808335601e1984360301811261318b575f80fd5b83016020810192503590506001600160401b038111156131a9575f80fd5b803603821315610c70575f80fd5b81835281816020850137505f828201602090810191909152601f909101601f19169091010190565b5f8383855260208086019550808560051b830101845f5b8781101561329457848303601f19018952813536889003605e1901811261321b575f80fd5b870160606132298280613176565b82875261323983880182846131b7565b9250505061324986830183613176565b8683038888015261325b8382846131b7565b9250505060408083013592506132708361291d565b6001600160401b0392909216949091019390935297830197908301906001016131f6565b5090979650505050505050565b6020815281356020820152602082013560408201525f60408301356132c581612be1565b6001600160a01b031660608381019190915283013536849003601e190181126132ec575f80fd5b83016020810190356001600160401b03811115613307575f80fd5b8060051b3603821315613318575f80fd5b60808085015261332c60a0850182846131df565b95945050505050565b80518015158114611145575f80fd5b5f8060408385031215613355575f80fd5b8251915061291460208401613335565b5f60208083525f845461337781612e08565b806020870152604060018084165f811461339857600181146133b4576133e1565b60ff19851660408a0152604084151560051b8a010195506133e1565b895f5260205f205f5b858110156133d85781548b82018601529083019088016133bd565b8a016040019650505b509398975050505050505050565b5f805f60608486031215613401575f80fd5b8351925060208401516134138161291d565b60408501519092506134248161291d565b809150509250925092565b818382375f9101908152919050565b5f806040838503121561344f575f80fd5b82516001600160401b0380821115613465575f80fd5b9084019060608287031215613478575f80fd5b613480612b17565b82518152602083015161349281612be1565b60208201526040830151828111156134a8575f80fd5b6134b488828601612e48565b604083015250935061291491505060208401613335565b80820180821115611839576118396130f5565b5f6040830163ffffffff8351168452602080840151604060208701528281518085526060880191506020830194505f92505b808310156135395784516001600160a01b03168252938301936001929092019190830190613510565b509695505050505050565b60208152815160208201525f602083015160e0604084015261356a6101008401826129fa565b90506040840151601f198085840301606086015261358883836129fa565b92506001600160401b03606087015116608086015260808601519150808584030160a08601526135b883836134de565b925060a08601519150808584030160c0860152506135d682826134de565b91505060c08401516135f360e08501826001600160401b03169052565b509392505050565b5f806040838503121561360c575f80fd5b8251915060208301516001600160401b03811115613628575f80fd5b61363485828601612e48565b9150509250929050565b6001600160401b03828116828216039080821115611972576119726130f5565b5f6001600160401b03808316818103613141576131416130f5565b5f60208284031215613689575f80fd5b813560ff81168114612984575f80fd5b5f602082840312156136a9575f80fd5b81356129848161291d565b81810381811115611839576118396130f556fea164736f6c6343000819000a",
    "linkReferences": {
      "contracts/validator-manager/ValidatorMessages.sol": {
        "ValidatorMessages": [
          {
            "start": 1793,
            "length": 20
          },
          {
            "start": 3076,
            "length": 20
          },
          {
            "start": 3209,
            "length": 20
          },
          {
            "start": 3835,
            "length": 20
          },
          {
            "start": 4783,
            "length": 20
          },
          {
            "start": 5632,
            "length": 20
          },
          {
            "start": 7123,
            "length": 20
          },
          {
            "start": 8692,
            "length": 20
          }
        ]
      }
    }
  },
  "methodIdentifiers": {
    "ADDRESS_LENGTH()": "60305d62",
    "BLS_PUBLIC_KEY_LENGTH()": "8280a25a",
    "MAXIMUM_CHURN_PERCENTAGE_LIMIT()": "c974d1b6",
    "MAXIMUM_REGISTRATION_EXPIRY_LENGTH()": "df93d8de",
    "NODE_ID_LENGTH()": "63e2ca97",
    "P_CHAIN_BLOCKCHAIN_ID()": "732214f8",
    "VALIDATOR_MANAGER_STORAGE_LOCATION()": "bc5fbfec",
    "WARP_MESSENGER()": "b771b3bc",
    "completeValidatorRegistration(uint32)": "a3a65e48",
    "completeValidatorRemoval(uint32)": "9681d940",
    "completeValidatorWeightUpdate(uint32)": "ce161f14",
    "getChurnPeriodSeconds()": "09c1df66",
    "getValidator(bytes32)": "d5f20ff6",
    "initialize((address,bytes32,uint64,uint8))": "736c87be",
    "initializeValidatorSet((bytes32,bytes32,address,(bytes,bytes,uint64)[]),uint32)": "20d91b7a",
    "initiateValidatorRegistration(bytes,bytes,uint64,(uint32,address[]),(uint32,address[]),uint64)": "ed285ae1",
    "initiateValidatorRemoval(bytes32)": "b6e6a2ca",
    "initiateValidatorWeightUpdate(bytes32,uint64)": "66109669",
    "l1TotalWeight()": "bb0b1938",
    "owner()": "8da5cb5b",
    "registeredValidators(bytes)": "fd7ac5e7",
    "renounceOwnership()": "715018a6",
    "resendEndValidatorMessage(bytes32)": "0322ed98",
    "resendRegisterValidatorMessage(bytes32)": "bee0a03f",
    "subnetID()": "5dc1f535",
    "transferOwnership(address)": "f2fde38b"
  },
  "id": 96
}