{
  "abi": [
    {
      "type": "constructor",
      "inputs": [
        {
          "name": "init",
          "type": "uint8",
          "internalType": "enum ICMInitializable"
        }
      ],
      "stateMutability": "nonpayable"
    },
    {
      "type": "function",
      "name": "ADDRESS_LENGTH",
      "inputs": [],
      "outputs": [
        {
          "name": "",
          "type": "uint32",
          "internalType": "uint32"
        }
      ],
      "stateMutability": "view"
    },
    {
      "type": "function",
      "name": "BLS_PUBLIC_KEY_LENGTH",
      "inputs": [],
      "outputs": [
        {
          "name": "",
          "type": "uint8",
          "internalType": "uint8"
        }
      ],
      "stateMutability": "view"
    },
    {
      "type": "function",
      "name": "MAXIMUM_CHURN_PERCENTAGE_LIMIT",
      "inputs": [],
      "outputs": [
        {
          "name": "",
          "type": "uint8",
          "internalType": "uint8"
        }
      ],
      "stateMutability": "view"
    },
    {
      "type": "function",
      "name": "MAXIMUM_REGISTRATION_EXPIRY_LENGTH",
      "inputs": [],
      "outputs": [
        {
          "name": "",
          "type": "uint64",
          "internalType": "uint64"
        }
      ],
      "stateMutability": "view"
    },
    {
      "type": "function",
      "name": "P_CHAIN_BLOCKCHAIN_ID",
      "inputs": [],
      "outputs": [
        {
          "name": "",
          "type": "bytes32",
          "internalType": "bytes32"
        }
      ],
      "stateMutability": "view"
    },
    {
      "type": "function",
      "name": "VALIDATOR_MANAGER_STORAGE_LOCATION",
      "inputs": [],
      "outputs": [
        {
          "name": "",
          "type": "bytes32",
          "internalType": "bytes32"
        }
      ],
      "stateMutability": "view"
    },
    {
      "type": "function",
      "name": "WARP_MESSENGER",
      "inputs": [],
      "outputs": [
        {
          "name": "",
          "type": "address",
          "internalType": "contract IWarpMessenger"
        }
      ],
      "stateMutability": "view"
    },
    {
      "type": "function",
      "name": "completeEndValidation",
      "inputs": [
        {
          "name": "messageIndex",
          "type": "uint32",
          "internalType": "uint32"
        }
      ],
      "outputs": [],
      "stateMutability": "nonpayable"
    },
    {
      "type": "function",
      "name": "completeValidatorRegistration",
      "inputs": [
        {
          "name": "messageIndex",
          "type": "uint32",
          "internalType": "uint32"
        }
      ],
      "outputs": [],
      "stateMutability": "nonpayable"
    },
    {
      "type": "function",
      "name": "getValidator",
      "inputs": [
        {
          "name": "validationID",
          "type": "bytes32",
          "internalType": "bytes32"
        }
      ],
      "outputs": [
        {
          "name": "",
          "type": "tuple",
          "internalType": "struct Validator",
          "components": [
            {
              "name": "status",
              "type": "uint8",
              "internalType": "enum ValidatorStatus"
            },
            {
              "name": "nodeID",
              "type": "bytes",
              "internalType": "bytes"
            },
            {
              "name": "startingWeight",
              "type": "uint64",
              "internalType": "uint64"
            },
            {
              "name": "messageNonce",
              "type": "uint64",
              "internalType": "uint64"
            },
            {
              "name": "weight",
              "type": "uint64",
              "internalType": "uint64"
            },
            {
              "name": "startedAt",
              "type": "uint64",
              "internalType": "uint64"
            },
            {
              "name": "endedAt",
              "type": "uint64",
              "internalType": "uint64"
            }
          ]
        }
      ],
      "stateMutability": "view"
    },
    {
      "type": "function",
      "name": "initialize",
      "inputs": [
        {
          "name": "settings",
          "type": "tuple",
          "internalType": "struct ValidatorManagerSettings",
          "components": [
            {
              "name": "l1ID",
              "type": "bytes32",
              "internalType": "bytes32"
            },
            {
              "name": "churnPeriodSeconds",
              "type": "uint64",
              "internalType": "uint64"
            },
            {
              "name": "maximumChurnPercentage",
              "type": "uint8",
              "internalType": "uint8"
            }
          ]
        },
        {
          "name": "initialOwner",
          "type": "address",
          "internalType": "address"
        }
      ],
      "outputs": [],
      "stateMutability": "nonpayable"
    },
    {
      "type": "function",
      "name": "initializeEndValidation",
      "inputs": [
        {
          "name": "validationID",
          "type": "bytes32",
          "internalType": "bytes32"
        }
      ],
      "outputs": [],
      "stateMutability": "nonpayable"
    },
    {
      "type": "function",
      "name": "initializeValidatorRegistration",
      "inputs": [
        {
          "name": "registrationInput",
          "type": "tuple",
          "internalType": "struct ValidatorRegistrationInput",
          "components": [
            {
              "name": "nodeID",
              "type": "bytes",
              "internalType": "bytes"
            },
            {
              "name": "blsPublicKey",
              "type": "bytes",
              "internalType": "bytes"
            },
            {
              "name": "registrationExpiry",
              "type": "uint64",
              "internalType": "uint64"
            },
            {
              "name": "remainingBalanceOwner",
              "type": "tuple",
              "internalType": "struct PChainOwner",
              "components": [
                {
                  "name": "threshold",
                  "type": "uint32",
                  "internalType": "uint32"
                },
                {
                  "name": "addresses",
                  "type": "address[]",
                  "internalType": "address[]"
                }
              ]
            },
            {
              "name": "disableOwner",
              "type": "tuple",
              "internalType": "struct PChainOwner",
              "components": [
                {
                  "name": "threshold",
                  "type": "uint32",
                  "internalType": "uint32"
                },
                {
                  "name": "addresses",
                  "type": "address[]",
                  "internalType": "address[]"
                }
              ]
            }
          ]
        },
        {
          "name": "weight",
          "type": "uint64",
          "internalType": "uint64"
        }
      ],
      "outputs": [
        {
          "name": "validationID",
          "type": "bytes32",
          "internalType": "bytes32"
        }
      ],
      "stateMutability": "nonpayable"
    },
    {
      "type": "function",
      "name": "initializeValidatorSet",
      "inputs": [
        {
          "name": "conversionData",
          "type": "tuple",
          "internalType": "struct ConversionData",
          "components": [
            {
              "name": "l1ID",
              "type": "bytes32",
              "internalType": "bytes32"
            },
            {
              "name": "validatorManagerBlockchainID",
              "type": "bytes32",
              "internalType": "bytes32"
            },
            {
              "name": "validatorManagerAddress",
              "type": "address",
              "internalType": "address"
            },
            {
              "name": "initialValidators",
              "type": "tuple[]",
              "internalType": "struct InitialValidator[]",
              "components": [
                {
                  "name": "nodeID",
                  "type": "bytes",
                  "internalType": "bytes"
                },
                {
                  "name": "blsPublicKey",
                  "type": "bytes",
                  "internalType": "bytes"
                },
                {
                  "name": "weight",
                  "type": "uint64",
                  "internalType": "uint64"
                }
              ]
            }
          ]
        },
        {
          "name": "messageIndex",
          "type": "uint32",
          "internalType": "uint32"
        }
      ],
      "outputs": [],
      "stateMutability": "nonpayable"
    },
    {
      "type": "function",
      "name": "owner",
      "inputs": [],
      "outputs": [
        {
          "name": "",
          "type": "address",
          "internalType": "address"
        }
      ],
      "stateMutability": "view"
    },
    {
      "type": "function",
      "name": "registeredValidators",
      "inputs": [
        {
          "name": "nodeID",
          "type": "bytes",
          "internalType": "bytes"
        }
      ],
      "outputs": [
        {
          "name": "",
          "type": "bytes32",
          "internalType": "bytes32"
        }
      ],
      "stateMutability": "view"
    },
    {
      "type": "function",
      "name": "renounceOwnership",
      "inputs": [],
      "outputs": [],
      "stateMutability": "nonpayable"
    },
    {
      "type": "function",
      "name": "resendEndValidatorMessage",
      "inputs": [
        {
          "name": "validationID",
          "type": "bytes32",
          "internalType": "bytes32"
        }
      ],
      "outputs": [],
      "stateMutability": "nonpayable"
    },
    {
      "type": "function",
      "name": "resendRegisterValidatorMessage",
      "inputs": [
        {
          "name": "validationID",
          "type": "bytes32",
          "internalType": "bytes32"
        }
      ],
      "outputs": [],
      "stateMutability": "nonpayable"
    },
    {
      "type": "function",
      "name": "transferOwnership",
      "inputs": [
        {
          "name": "newOwner",
          "type": "address",
          "internalType": "address"
        }
      ],
      "outputs": [],
      "stateMutability": "nonpayable"
    },
    {
      "type": "event",
      "name": "InitialValidatorCreated",
      "inputs": [
        {
          "name": "validationID",
          "type": "bytes32",
          "indexed": true,
          "internalType": "bytes32"
        },
        {
          "name": "nodeID",
          "type": "bytes",
          "indexed": true,
          "internalType": "bytes"
        },
        {
          "name": "weight",
          "type": "uint64",
          "indexed": false,
          "internalType": "uint64"
        }
      ],
      "anonymous": false
    },
    {
      "type": "event",
      "name": "Initialized",
      "inputs": [
        {
          "name": "version",
          "type": "uint64",
          "indexed": false,
          "internalType": "uint64"
        }
      ],
      "anonymous": false
    },
    {
      "type": "event",
      "name": "OwnershipTransferred",
      "inputs": [
        {
          "name": "previousOwner",
          "type": "address",
          "indexed": true,
          "internalType": "address"
        },
        {
          "name": "newOwner",
          "type": "address",
          "indexed": true,
          "internalType": "address"
        }
      ],
      "anonymous": false
    },
    {
      "type": "event",
      "name": "ValidationPeriodCreated",
      "inputs": [
        {
          "name": "validationID",
          "type": "bytes32",
          "indexed": true,
          "internalType": "bytes32"
        },
        {
          "name": "nodeID",
          "type": "bytes",
          "indexed": true,
          "internalType": "bytes"
        },
        {
          "name": "registerValidationMessageID",
          "type": "bytes32",
          "indexed": true,
          "internalType": "bytes32"
        },
        {
          "name": "weight",
          "type": "uint64",
          "indexed": false,
          "internalType": "uint64"
        },
        {
          "name": "registrationExpiry",
          "type": "uint64",
          "indexed": false,
          "internalType": "uint64"
        }
      ],
      "anonymous": false
    },
    {
      "type": "event",
      "name": "ValidationPeriodEnded",
      "inputs": [
        {
          "name": "validationID",
          "type": "bytes32",
          "indexed": true,
          "internalType": "bytes32"
        },
        {
          "name": "status",
          "type": "uint8",
          "indexed": true,
          "internalType": "enum ValidatorStatus"
        }
      ],
      "anonymous": false
    },
    {
      "type": "event",
      "name": "ValidationPeriodRegistered",
      "inputs": [
        {
          "name": "validationID",
          "type": "bytes32",
          "indexed": true,
          "internalType": "bytes32"
        },
        {
          "name": "weight",
          "type": "uint64",
          "indexed": false,
          "internalType": "uint64"
        },
        {
          "name": "timestamp",
          "type": "uint256",
          "indexed": false,
          "internalType": "uint256"
        }
      ],
      "anonymous": false
    },
    {
      "type": "event",
      "name": "ValidatorRemovalInitialized",
      "inputs": [
        {
          "name": "validationID",
          "type": "bytes32",
          "indexed": true,
          "internalType": "bytes32"
        },
        {
          "name": "setWeightMessageID",
          "type": "bytes32",
          "indexed": true,
          "internalType": "bytes32"
        },
        {
          "name": "weight",
          "type": "uint64",
          "indexed": false,
          "internalType": "uint64"
        },
        {
          "name": "endTime",
          "type": "uint256",
          "indexed": false,
          "internalType": "uint256"
        }
      ],
      "anonymous": false
    },
    {
      "type": "event",
      "name": "ValidatorWeightUpdate",
      "inputs": [
        {
          "name": "validationID",
          "type": "bytes32",
          "indexed": true,
          "internalType": "bytes32"
        },
        {
          "name": "nonce",
          "type": "uint64",
          "indexed": true,
          "internalType": "uint64"
        },
        {
          "name": "weight",
          "type": "uint64",
          "indexed": false,
          "internalType": "uint64"
        },
        {
          "name": "setWeightMessageID",
          "type": "bytes32",
          "indexed": false,
          "internalType": "bytes32"
        }
      ],
      "anonymous": false
    },
    {
      "type": "error",
      "name": "InvalidBLSKeyLength",
      "inputs": [
        {
          "name": "length",
          "type": "uint256",
          "internalType": "uint256"
        }
      ]
    },
    {
      "type": "error",
      "name": "InvalidConversionID",
      "inputs": [
        {
          "name": "encodedConversionID",
          "type": "bytes32",
          "internalType": "bytes32"
        },
        {
          "name": "expectedConversionID",
          "type": "bytes32",
          "internalType": "bytes32"
        }
      ]
    },
    {
      "type": "error",
      "name": "InvalidInitialization",
      "inputs": []
    },
    {
      "type": "error",
      "name": "InvalidInitializationStatus",
      "inputs": []
    },
    {
      "type": "error",
      "name": "InvalidMaximumChurnPercentage",
      "inputs": [
        {
          "name": "maximumChurnPercentage",
          "type": "uint8",
          "internalType": "uint8"
        }
      ]
    },
    {
      "type": "error",
      "name": "InvalidNodeID",
      "inputs": [
        {
          "name": "nodeID",
          "type": "bytes",
          "internalType": "bytes"
        }
      ]
    },
    {
      "type": "error",
      "name": "InvalidPChainOwnerThreshold",
      "inputs": [
        {
          "name": "threshold",
          "type": "uint256",
          "internalType": "uint256"
        },
        {
          "name": "addressesLength",
          "type": "uint256",
          "internalType": "uint256"
        }
      ]
    },
    {
      "type": "error",
      "name": "InvalidRegistrationExpiry",
      "inputs": [
        {
          "name": "registrationExpiry",
          "type": "uint64",
          "internalType": "uint64"
        }
      ]
    },
    {
      "type": "error",
      "name": "InvalidTotalWeight",
      "inputs": [
        {
          "name": "weight",
          "type": "uint64",
          "internalType": "uint64"
        }
      ]
    },
    {
      "type": "error",
      "name": "InvalidValidationID",
      "inputs": [
        {
          "name": "validationID",
          "type": "bytes32",
          "internalType": "bytes32"
        }
      ]
    },
    {
      "type": "error",
      "name": "InvalidValidatorManagerAddress",
      "inputs": [
        {
          "name": "validatorManagerAddress",
          "type": "address",
          "internalType": "address"
        }
      ]
    },
    {
      "type": "error",
      "name": "InvalidValidatorManagerBlockchainID",
      "inputs": [
        {
          "name": "blockchainID",
          "type": "bytes32",
          "internalType": "bytes32"
        }
      ]
    },
    {
      "type": "error",
      "name": "InvalidValidatorStatus",
      "inputs": [
        {
          "name": "status",
          "type": "uint8",
          "internalType": "enum ValidatorStatus"
        }
      ]
    },
    {
      "type": "error",
      "name": "InvalidWarpMessage",
      "inputs": []
    },
    {
      "type": "error",
      "name": "InvalidWarpOriginSenderAddress",
      "inputs": [
        {
          "name": "senderAddress",
          "type": "address",
          "internalType": "address"
        }
      ]
    },
    {
      "type": "error",
      "name": "InvalidWarpSourceChainID",
      "inputs": [
        {
          "name": "sourceChainID",
          "type": "bytes32",
          "internalType": "bytes32"
        }
      ]
    },
    {
      "type": "error",
      "name": "MaxChurnRateExceeded",
      "inputs": [
        {
          "name": "churnAmount",
          "type": "uint64",
          "internalType": "uint64"
        }
      ]
    },
    {
      "type": "error",
      "name": "NodeAlreadyRegistered",
      "inputs": [
        {
          "name": "nodeID",
          "type": "bytes",
          "internalType": "bytes"
        }
      ]
    },
    {
      "type": "error",
      "name": "NotInitializing",
      "inputs": []
    },
    {
      "type": "error",
      "name": "OwnableInvalidOwner",
      "inputs": [
        {
          "name": "owner",
          "type": "address",
          "internalType": "address"
        }
      ]
    },
    {
      "type": "error",
      "name": "OwnableUnauthorizedAccount",
      "inputs": [
        {
          "name": "account",
          "type": "address",
          "internalType": "address"
        }
      ]
    },
    {
      "type": "error",
      "name": "PChainOwnerAddressesNotSorted",
      "inputs": []
    },
    {
      "type": "error",
      "name": "UnexpectedRegistrationStatus",
      "inputs": [
        {
          "name": "validRegistration",
          "type": "bool",
          "internalType": "bool"
        }
      ]
    }
  ],
  "bytecode": {
    "object": "0x608060405234801561000f575f80fd5b506040516137ad3803806137ad83398101604081905261002e91610107565b60018160018111156100425761004261012c565b0361004f5761004f610055565b50610140565b7ff0c57e16840df040f15088dc2f81fe391c3923bec73e23a9662efc9c229c6a00805468010000000000000000900460ff16156100a55760405163f92ee8a960e01b815260040160405180910390fd5b80546001600160401b03908116146101045780546001600160401b0319166001600160401b0390811782556040519081527fc7f505b2f371ae2175ee4913f4499e1f2633a7b5936321eed1cdaeb6115181d29060200160405180910390a15b50565b5f60208284031215610117575f80fd5b815160028110610125575f80fd5b9392505050565b634e487b7160e01b5f52602160045260245ffd5b6136608061014d5f395ff3fe608060405234801561000f575f80fd5b5060043610610127575f3560e01c8063a3a65e48116100a9578063d588c18f1161006e578063d588c18f14610279578063d5f20ff61461028c578063df93d8de146102ac578063f2fde38b146102ce578063fd7ac5e7146102e1575f80fd5b8063a3a65e4814610229578063b771b3bc1461023c578063bc5fbfec1461024a578063bee0a03f1461025e578063c974d1b614610271575f80fd5b8063732214f8116100ef578063732214f8146101905780638280a25a146101a55780638da5cb5b146101bf57806397fb70d4146102035780639ba96b8614610216575f80fd5b80630322ed981461012b57806320d91b7a14610140578063467ef06f1461015357806360305d6214610166578063715018a614610188575b5f80fd5b61013e6101393660046127d8565b6102f4565b005b61013e61014e366004612807565b610584565b61013e610161366004612855565b610b3f565b61016e601481565b60405163ffffffff90911681526020015b60405180910390f35b61013e610b4d565b6101975f81565b60405190815260200161017f565b6101ad603081565b60405160ff909116815260200161017f565b7f9016d09d72d40fdae2fd8ceac6b6234c7706214fd39c1cd1e609a0528c199300546001600160a01b03165b6040516001600160a01b03909116815260200161017f565b61013e6102113660046127d8565b610b60565b610197610224366004612884565b610b75565b61013e610237366004612855565b610b91565b6101eb6005600160991b0181565b6101975f8051602061361483398151915281565b61013e61026c3660046127d8565b610d87565b6101ad601481565b61013e6102873660046128dd565b610ec3565b61029f61029a3660046127d8565b610fd1565b60405161017f919061299a565b6102b66202a30081565b6040516001600160401b03909116815260200161017f565b61013e6102dc366004612a1a565b611120565b6101976102ef366004612a3c565b61115d565b5f8181525f805160206136348339815191526020526040808220815160e0810190925280545f8051602061361483398151915293929190829060ff16600581111561034157610341612919565b600581111561035257610352612919565b815260200160018201805461036690612aa7565b80601f016020809104026020016040519081016040528092919081815260200182805461039290612aa7565b80156103dd5780601f106103b4576101008083540402835291602001916103dd565b820191905f5260205f20905b8154815290600101906020018083116103c057829003601f168201915b505050918352505060028201546001600160401b038082166020840152600160401b820481166040840152600160801b820481166060840152600160c01b909104811660808301526003928301541660a0909101529091508151600581111561044857610448612919565b14610484575f8381526005830160205260409081902054905163170cc93360e21b815261047b9160ff1690600401612adf565b60405180910390fd5b606081015160405163854a893f60e01b8152600481018590526001600160401b0390911660248201525f60448201526005600160991b019063ee5b48eb9073__$fd0c147b4031eef6079b0498cbafa865f0$__9063854a893f906064015f60405180830381865af41580156104fb573d5f803e3d5ffd5b505050506040513d5f823e601f3d908101601f191682016040526105229190810190612bf0565b6040518263ffffffff1660e01b815260040161053e9190612c21565b6020604051808303815f875af115801561055a573d5f803e3d5ffd5b505050506040513d601f19601f8201168201806040525081019061057e9190612c33565b50505050565b7fe92546d698950ddd38910d2e15ed1d923cd0a7b3dde9e2a6a3f380565559cb07545f805160206136148339815191529060ff16156105d657604051637fab81e560e01b815260040160405180910390fd5b6005600160991b016001600160a01b0316634213cf786040518163ffffffff1660e01b8152600401602060405180830381865afa158015610619573d5f803e3d5ffd5b505050506040513d601f19601f8201168201806040525081019061063d9190612c33565b836020013514610666576040516372b0a7e760e11b81526020840135600482015260240161047b565b306106776060850160408601612a1a565b6001600160a01b0316146106ba576106956060840160408501612a1a565b604051632f88120d60e21b81526001600160a01b03909116600482015260240161047b565b5f6106c86060850185612c4a565b905090505f805b828163ffffffff161015610930575f6106eb6060880188612c4a565b8363ffffffff1681811061070157610701612c8f565b90506020028101906107139190612ca3565b61071c90612d0e565b80516040519192505f91600688019161073491612d87565b9081526020016040518091039020541461076457805160405163a41f772f60e01b815261047b9190600401612c21565b5f6002885f01358460405160200161079392919091825260e01b6001600160e01b031916602082015260240190565b60408051601f19818403018152908290526107ad91612d87565b602060405180830381855afa1580156107c8573d5f803e3d5ffd5b5050506040513d601f19601f820116820180604052508101906107eb9190612c33565b90508086600601835f01516040516108039190612d87565b90815260408051918290036020908101909220929092555f8381526005890190915220805460ff1916600217815582516001909101906108439082612de3565b50604082810180515f84815260058a016020529290922060028101805492516001600160401b039485166001600160c01b031990941693909317600160801b85851602176001600160c01b0316600160c01b429590951694909402939093179092556003909101805467ffffffffffffffff191690556108c39085612eb6565b82516040519195506108d491612d87565b60408051918290038220908401516001600160401b031682529082907ffe3e5983f71c8253fb0b678f2bc587aa8574d8f1aab9cf82b983777f5998392c9060200160405180910390a350508061092990612ed6565b90506106cf565b506003830180546fffffffffffffffff00000000000000001916600160401b6001600160401b0384168102919091179091556001840154606491610978910460ff1683612ef8565b6001600160401b031610156109ab57604051633e1a785160e01b81526001600160401b038216600482015260240161047b565b5f73__$fd0c147b4031eef6079b0498cbafa865f0$__634d8478846109cf876111b8565b604001516040518263ffffffff1660e01b81526004016109ef9190612c21565b602060405180830381865af4158015610a0a573d5f803e3d5ffd5b505050506040513d601f19601f82011682018060405250810190610a2e9190612c33565b90505f73__$fd0c147b4031eef6079b0498cbafa865f0$__6387418b8e886040518263ffffffff1660e01b8152600401610a689190613046565b5f60405180830381865af4158015610a82573d5f803e3d5ffd5b505050506040513d5f823e601f3d908101601f19168201604052610aa99190810190612bf0565b90505f600282604051610abc9190612d87565b602060405180830381855afa158015610ad7573d5f803e3d5ffd5b5050506040513d601f19601f82011682018060405250810190610afa9190612c33565b9050828114610b265760405163baaea89d60e01b8152600481018290526024810184905260440161047b565b5050506007909201805460ff1916600117905550505050565b610b48816112ce565b505050565b610b55611686565b610b5e5f6116e1565b565b610b68611686565b610b7181611751565b5050565b5f610b7e611686565b610b888383611a36565b90505b92915050565b5f805160206136148339815191525f8073__$fd0c147b4031eef6079b0498cbafa865f0$__63021de88f610bc4866111b8565b604001516040518263ffffffff1660e01b8152600401610be49190612c21565b6040805180830381865af4158015610bfe573d5f803e3d5ffd5b505050506040513d601f19601f82011682018060405250810190610c2291906130e9565b9150915080610c4857604051632d07135360e01b8152811515600482015260240161047b565b5f82815260048401602052604090208054610c6290612aa7565b90505f03610c865760405163089938b360e11b81526004810183905260240161047b565b60015f838152600580860160205260409091205460ff1690811115610cad57610cad612919565b14610ce0575f8281526005840160205260409081902054905163170cc93360e21b815261047b9160ff1690600401612adf565b5f8281526004840160205260408120610cf89161274c565b5f828152600584016020908152604091829020805460ff1916600290811782550180546001600160401b0342818116600160c01b026001600160c01b0390931692909217928390558451600160801b9093041682529181019190915283917f8629ec2bfd8d3b792ba269096bb679e08f20ba2caec0785ef663cf94788e349b910160405180910390a250505050565b5f8181527fe92546d698950ddd38910d2e15ed1d923cd0a7b3dde9e2a6a3f380565559cb046020526040902080545f805160206136148339815191529190610dce90612aa7565b90505f03610df25760405163089938b360e11b81526004810183905260240161047b565b60015f838152600580840160205260409091205460ff1690811115610e1957610e19612919565b14610e4c575f8281526005820160205260409081902054905163170cc93360e21b815261047b9160ff1690600401612adf565b5f8281526004808301602052604091829020915163ee5b48eb60e01b81526005600160991b019263ee5b48eb92610e83920161310a565b6020604051808303815f875af1158015610e9f573d5f803e3d5ffd5b505050506040513d601f19601f82011682018060405250810190610b489190612c33565b7ff0c57e16840df040f15088dc2f81fe391c3923bec73e23a9662efc9c229c6a008054600160401b810460ff1615906001600160401b03165f81158015610f075750825b90505f826001600160401b03166001148015610f225750303b155b905081158015610f30575080155b15610f4e5760405163f92ee8a960e01b815260040160405180910390fd5b845467ffffffffffffffff191660011785558315610f7857845460ff60401b1916600160401b1785555b610f828787611fa8565b8315610fc857845460ff60401b19168555604051600181527fc7f505b2f371ae2175ee4913f4499e1f2633a7b5936321eed1cdaeb6115181d29060200160405180910390a15b50505050505050565b610fd9612783565b5f8281525f80516020613634833981519152602052604090819020815160e0810190925280545f80516020613614833981519152929190829060ff16600581111561102657611026612919565b600581111561103757611037612919565b815260200160018201805461104b90612aa7565b80601f016020809104026020016040519081016040528092919081815260200182805461107790612aa7565b80156110c25780601f10611099576101008083540402835291602001916110c2565b820191905f5260205f20905b8154815290600101906020018083116110a557829003601f168201915b505050918352505060028201546001600160401b038082166020840152600160401b820481166040840152600160801b820481166060840152600160c01b9091048116608083015260039092015490911660a0909101529392505050565b611128611686565b6001600160a01b03811661115157604051631e4fbdf760e01b81525f600482015260240161047b565b61115a816116e1565b50565b6040515f905f80516020613614833981519152907fe92546d698950ddd38910d2e15ed1d923cd0a7b3dde9e2a6a3f380565559cb06906111a09086908690613194565b90815260200160405180910390205491505092915050565b60408051606080820183525f8083526020830152918101919091526040516306f8253560e41b815263ffffffff831660048201525f9081906005600160991b0190636f825350906024015f60405180830381865afa15801561121c573d5f803e3d5ffd5b505050506040513d5f823e601f3d908101601f1916820160405261124391908101906131a3565b915091508061126557604051636b2f19e960e01b815260040160405180910390fd5b81511561128b578151604051636ba589a560e01b8152600481019190915260240161047b565b60208201516001600160a01b0316156112c7576020820151604051624de75d60e31b81526001600160a01b03909116600482015260240161047b565b5092915050565b5f6112d7612783565b5f805160206136148339815191525f8073__$fd0c147b4031eef6079b0498cbafa865f0$__63021de88f61130a886111b8565b604001516040518263ffffffff1660e01b815260040161132a9190612c21565b6040805180830381865af4158015611344573d5f803e3d5ffd5b505050506040513d601f19601f8201168201806040525081019061136891906130e9565b91509150801561138f57604051632d07135360e01b8152811515600482015260240161047b565b5f82815260058085016020526040808320815160e08101909252805491929091839160ff909116908111156113c6576113c6612919565b60058111156113d7576113d7612919565b81526020016001820180546113eb90612aa7565b80601f016020809104026020016040519081016040528092919081815260200182805461141790612aa7565b80156114625780601f1061143957610100808354040283529160200191611462565b820191905f5260205f20905b81548152906001019060200180831161144557829003601f168201915b505050918352505060028201546001600160401b038082166020840152600160401b820481166040840152600160801b820481166060840152600160c01b909104811660808301526003928301541660a090910152909150815160058111156114cd576114cd612919565b141580156114ee57506001815160058111156114eb576114eb612919565b14155b1561150f57805160405163170cc93360e21b815261047b9190600401612adf565b60038151600581111561152457611524612919565b036115325760048152611537565b600581525b83600601816020015160405161154d9190612d87565b90815260408051602092819003830190205f90819055858152600587810190935220825181548493839160ff191690600190849081111561159057611590612919565b0217905550602082015160018201906115a99082612de3565b5060408201516002820180546060850151608086015160a08701516001600160401b039586166001600160801b031990941693909317600160401b92861692909202919091176001600160801b0316600160801b918516919091026001600160c01b031617600160c01b9184169190910217905560c0909201516003909101805467ffffffffffffffff1916919092161790558051600581111561164f5761164f612919565b60405184907f1c08e59656f1a18dc2da76826cdc52805c43e897a17c50faefb8ab3c1526cc16905f90a39196919550909350505050565b336116b87f9016d09d72d40fdae2fd8ceac6b6234c7706214fd39c1cd1e609a0528c199300546001600160a01b031690565b6001600160a01b031614610b5e5760405163118cdaa760e01b815233600482015260240161047b565b7f9016d09d72d40fdae2fd8ceac6b6234c7706214fd39c1cd1e609a0528c19930080546001600160a01b031981166001600160a01b03848116918217845560405192169182907f8be0079c531659141344cd1fd0a4f28419497f9722a3daafe3b4186f6b6457e0905f90a3505050565b611759612783565b5f8281525f805160206136348339815191526020526040808220815160e0810190925280545f8051602061361483398151915293929190829060ff1660058111156117a6576117a6612919565b60058111156117b7576117b7612919565b81526020016001820180546117cb90612aa7565b80601f01602080910402602001604051908101604052809291908181526020018280546117f790612aa7565b80156118425780601f1061181957610100808354040283529160200191611842565b820191905f5260205f20905b81548152906001019060200180831161182557829003601f168201915b50505091835250506002828101546001600160401b038082166020850152600160401b820481166040850152600160801b820481166060850152600160c01b9091048116608084015260039093015490921660a090910152909150815160058111156118b0576118b0612919565b146118e3575f8481526005830160205260409081902054905163170cc93360e21b815261047b9160ff1690600401612adf565b60038152426001600160401b031660c08201525f84815260058381016020526040909120825181548493839160ff191690600190849081111561192857611928612919565b0217905550602082015160018201906119419082612de3565b5060408201516002820180546060850151608086015160a08701516001600160401b039586166001600160801b031990941693909317600160401b92861692909202919091176001600160801b0316600160801b918516919091026001600160c01b031617600160c01b9184169190910217905560c0909201516003909101805467ffffffffffffffff1916919092161790555f6119df8582611fc2565b6080840151604080516001600160401b03909216825242602083015291935083925087917ffbfc4c00cddda774e9bce93712e29d12887b46526858a1afb0937cce8c30fa42910160405180910390a3509392505050565b7fe92546d698950ddd38910d2e15ed1d923cd0a7b3dde9e2a6a3f380565559cb07545f9060ff16611a7a57604051637fab81e560e01b815260040160405180910390fd5b5f8051602061361483398151915242611a996060860160408701613230565b6001600160401b0316111580611ad35750611ab76202a30042613249565b611ac76060860160408701613230565b6001600160401b031610155b15611b0d57611ae86060850160408601613230565b604051635879da1360e11b81526001600160401b03909116600482015260240161047b565b60038101546001600160401b0390611b3090600160401b90048216858316613249565b1115611b5a57604051633e1a785160e01b81526001600160401b038416600482015260240161047b565b611b6f611b6a606086018661325c565b612199565b611b7f611b6a608086018661325c565b6030611b8e6020860186613270565b905014611bc057611ba26020850185613270565b6040516326475b2f60e11b815261047b925060040190815260200190565b611bca8480613270565b90505f03611bf757611bdc8480613270565b604051633e08a12560e11b815260040161047b9291906132b2565b5f60068201611c068680613270565b604051611c14929190613194565b90815260200160405180910390205414611c4d57611c328480613270565b60405163a41f772f60e01b815260040161047b9291906132b2565b611c57835f612302565b6040805160e08101909152815481525f90819073__$fd0c147b4031eef6079b0498cbafa865f0$__9063eb97ce519060208101611c948a80613270565b8080601f0160208091040260200160405190810160405280939291908181526020018383808284375f92019190915250505090825250602090810190611cdc908b018b613270565b8080601f0160208091040260200160405190810160405280939291908181526020018383808284375f92019190915250505090825250602001611d2560608b0160408c01613230565b6001600160401b03168152602001611d4060608b018b61325c565b611d49906132c5565b8152602001611d5b60808b018b61325c565b611d64906132c5565b8152602001886001600160401b03168152506040518263ffffffff1660e01b8152600401611d9291906133f2565b5f60405180830381865af4158015611dac573d5f803e3d5ffd5b505050506040513d5f823e601f3d908101601f19168201604052611dd391908101906134a9565b5f82815260048601602052604090209193509150611df18282612de3565b508160068401611e018880613270565b604051611e0f929190613194565b9081526040519081900360200181209190915563ee5b48eb60e01b81525f906005600160991b019063ee5b48eb90611e4b908590600401612c21565b6020604051808303815f875af1158015611e67573d5f803e3d5ffd5b505050506040513d601f19601f82011682018060405250810190611e8b9190612c33565b5f8481526005860160205260409020805460ff191660011790559050611eb18780613270565b5f858152600587016020526040902060010191611ecf9190836134ec565b505f83815260058501602052604090206002810180546001600160c01b0319166001600160401b038916908117600160801b91909102176001600160c01b03169055600301805467ffffffffffffffff1916905580611f2e8880613270565b604051611f3c929190613194565b6040518091039020847fd8a184af94a03e121609cc5f803a446236793e920c7945abc6ba355c8a30cb49898b6040016020810190611f7a9190613230565b604080516001600160401b0393841681529290911660208301520160405180910390a4509095945050505050565b611fb061256c565b611fb9826125b5565b610b71816125ce565b5f8281525f80516020613634833981519152602052604081206002015481905f8051602061361483398151915290600160801b90046001600160401b031661200a8582612302565b5f612014876125df565b5f888152600585016020526040808220600201805467ffffffffffffffff60801b1916600160801b6001600160401b038c811691820292909217909255915163854a893f60e01b8152600481018c905291841660248301526044820152919250906005600160991b019063ee5b48eb9073__$fd0c147b4031eef6079b0498cbafa865f0$__9063854a893f906064015f60405180830381865af41580156120bd573d5f803e3d5ffd5b505050506040513d5f823e601f3d908101601f191682016040526120e49190810190612bf0565b6040518263ffffffff1660e01b81526004016121009190612c21565b6020604051808303815f875af115801561211c573d5f803e3d5ffd5b505050506040513d601f19601f820116820180604052508101906121409190612c33565b604080516001600160401b038a811682526020820184905282519394508516928b927f07de5ff35a674a8005e661f3333c907ca6333462808762d19dc7b3abb1a8c1df928290030190a3909450925050505b9250929050565b6121a66020820182612855565b63ffffffff161580156121c657506121c16020820182612c4a565b151590505b1561220d576121d86020820182612855565b6121e56020830183612c4a565b60405163c08a0f1d60e01b815263ffffffff909316600484015260248301525060440161047b565b61221a6020820182612c4a565b90506122296020830183612855565b63ffffffff161115612242576121d86020820182612855565b60015b6122526020830183612c4a565b9050811015610b71576122686020830183612c4a565b6122736001846135a5565b81811061228257612282612c8f565b90506020020160208101906122979190612a1a565b6001600160a01b03166122ad6020840184612c4a565b838181106122bd576122bd612c8f565b90506020020160208101906122d29190612a1a565b6001600160a01b031610156122fa57604051630dbc8d5f60e31b815260040160405180910390fd5b600101612245565b5f805160206136148339815191525f6001600160401b0380841690851611156123365761232f83856135b8565b9050612343565b61234084846135b8565b90505b60408051608081018252600284015480825260038501546001600160401b038082166020850152600160401b8204811694840194909452600160801b90049092166060820152429115806123b05750600184015481516123ac916001600160401b031690613249565b8210155b156123d8576001600160401b03808416606083015282825260408201511660208201526123f7565b82816060018181516123ea9190612eb6565b6001600160401b03169052505b6060810151612407906064612ef8565b602082015160018601546001600160401b0392909216916124329190600160401b900460ff16612ef8565b6001600160401b0316101561246b57606081015160405163dfae880160e01b81526001600160401b03909116600482015260240161047b565b858160400181815161247d9190612eb6565b6001600160401b031690525060408101805186919061249d9083906135b8565b6001600160401b0316905250600184015460408201516064916124cb91600160401b90910460ff1690612ef8565b6001600160401b03161015612504576040808201519051633e1a785160e01b81526001600160401b03909116600482015260240161047b565b8051600285015560208101516003909401805460408301516060909301516001600160401b03908116600160801b0267ffffffffffffffff60801b19948216600160401b026001600160801b0319909316919097161717919091169390931790925550505050565b7ff0c57e16840df040f15088dc2f81fe391c3923bec73e23a9662efc9c229c6a0054600160401b900460ff16610b5e57604051631afcd79f60e31b815260040160405180910390fd5b6125bd61256c565b6125c5612654565b61115a8161265c565b6125d661256c565b61115a81612744565b5f8181525f805160206136348339815191526020526040812060020180545f80516020613614833981519152919060089061262990600160401b90046001600160401b03166135d8565b91906101000a8154816001600160401b0302191690836001600160401b031602179055915050919050565b610b5e61256c565b61266461256c565b80355f80516020613614833981519152908155601461268960608401604085016135f3565b60ff1611806126a857506126a360608301604084016135f3565b60ff16155b156126dc576126bd60608301604084016135f3565b604051634a59bbff60e11b815260ff909116600482015260240161047b565b6126ec60608301604084016135f3565b60018201805460ff92909216600160401b0260ff60401b1990921691909117905561271d6040830160208401613230565b600191909101805467ffffffffffffffff19166001600160401b0390921691909117905550565b61112861256c565b50805461275890612aa7565b5f825580601f10612767575050565b601f0160209004905f5260205f209081019061115a91906127c0565b6040805160e08101909152805f81526060602082018190525f604083018190529082018190526080820181905260a0820181905260c09091015290565b5b808211156127d4575f81556001016127c1565b5090565b5f602082840312156127e8575f80fd5b5035919050565b803563ffffffff81168114612802575f80fd5b919050565b5f8060408385031215612818575f80fd5b82356001600160401b0381111561282d575f80fd5b83016080818603121561283e575f80fd5b915061284c602084016127ef565b90509250929050565b5f60208284031215612865575f80fd5b610b88826127ef565b80356001600160401b0381168114612802575f80fd5b5f8060408385031215612895575f80fd5b82356001600160401b038111156128aa575f80fd5b830160a081860312156128bb575f80fd5b915061284c6020840161286e565b6001600160a01b038116811461115a575f80fd5b5f8082840360808112156128ef575f80fd5b60608112156128fc575f80fd5b50829150606083013561290e816128c9565b809150509250929050565b634e487b7160e01b5f52602160045260245ffd5b6006811061294957634e487b7160e01b5f52602160045260245ffd5b9052565b5f5b8381101561296757818101518382015260200161294f565b50505f910152565b5f815180845261298681602086016020860161294d565b601f01601f19169290920160200192915050565b602081526129ac60208201835161292d565b5f602083015160e060408401526129c761010084018261296f565b905060408401516001600160401b0380821660608601528060608701511660808601528060808701511660a08601528060a08701511660c08601528060c08701511660e086015250508091505092915050565b5f60208284031215612a2a575f80fd5b8135612a35816128c9565b9392505050565b5f8060208385031215612a4d575f80fd5b82356001600160401b0380821115612a63575f80fd5b818501915085601f830112612a76575f80fd5b813581811115612a84575f80fd5b866020828501011115612a95575f80fd5b60209290920196919550909350505050565b600181811c90821680612abb57607f821691505b602082108103612ad957634e487b7160e01b5f52602260045260245ffd5b50919050565b60208101610b8b828461292d565b634e487b7160e01b5f52604160045260245ffd5b604051606081016001600160401b0381118282101715612b2357612b23612aed565b60405290565b604080519081016001600160401b0381118282101715612b2357612b23612aed565b604051601f8201601f191681016001600160401b0381118282101715612b7357612b73612aed565b604052919050565b5f6001600160401b03821115612b9357612b93612aed565b50601f01601f191660200190565b5f82601f830112612bb0575f80fd5b8151612bc3612bbe82612b7b565b612b4b565b818152846020838601011115612bd7575f80fd5b612be882602083016020870161294d565b949350505050565b5f60208284031215612c00575f80fd5b81516001600160401b03811115612c15575f80fd5b612be884828501612ba1565b602081525f610b88602083018461296f565b5f60208284031215612c43575f80fd5b5051919050565b5f808335601e19843603018112612c5f575f80fd5b8301803591506001600160401b03821115612c78575f80fd5b6020019150600581901b3603821315612192575f80fd5b634e487b7160e01b5f52603260045260245ffd5b5f8235605e19833603018112612cb7575f80fd5b9190910192915050565b5f82601f830112612cd0575f80fd5b8135612cde612bbe82612b7b565b818152846020838601011115612cf2575f80fd5b816020850160208301375f918101602001919091529392505050565b5f60608236031215612d1e575f80fd5b612d26612b01565b82356001600160401b0380821115612d3c575f80fd5b612d4836838701612cc1565b83526020850135915080821115612d5d575f80fd5b50612d6a36828601612cc1565b602083015250612d7c6040840161286e565b604082015292915050565b5f8251612cb781846020870161294d565b601f821115610b4857805f5260205f20601f840160051c81016020851015612dbd5750805b601f840160051c820191505b81811015612ddc575f8155600101612dc9565b5050505050565b81516001600160401b03811115612dfc57612dfc612aed565b612e1081612e0a8454612aa7565b84612d98565b602080601f831160018114612e43575f8415612e2c5750858301515b5f19600386901b1c1916600185901b178555612e9a565b5f85815260208120601f198616915b82811015612e7157888601518255948401946001909101908401612e52565b5085821015612e8e57878501515f19600388901b60f8161c191681555b505060018460011b0185555b505050505050565b634e487b7160e01b5f52601160045260245ffd5b6001600160401b038181168382160190808211156112c7576112c7612ea2565b5f63ffffffff808316818103612eee57612eee612ea2565b6001019392505050565b6001600160401b03818116838216028082169190828114612f1b57612f1b612ea2565b505092915050565b5f808335601e19843603018112612f38575f80fd5b83016020810192503590506001600160401b03811115612f56575f80fd5b803603821315612192575f80fd5b81835281816020850137505f828201602090810191909152601f909101601f19169091010190565b5f8383855260208086019550808560051b830101845f5b8781101561303957848303601f19018952813536889003605e19018112612fc8575f80fd5b87016060612fd68280612f23565b828752612fe68388018284612f64565b92505050612ff686830183612f23565b86830388880152613008838284612f64565b9250505060406001600160401b0361302182850161286e565b16950194909452509783019790830190600101612fa3565b5090979650505050505050565b6020815281356020820152602082013560408201525f604083013561306a816128c9565b6001600160a01b031660608381019190915283013536849003601e19018112613091575f80fd5b83016020810190356001600160401b038111156130ac575f80fd5b8060051b36038213156130bd575f80fd5b6080808501526130d160a085018284612f8c565b95945050505050565b80518015158114612802575f80fd5b5f80604083850312156130fa575f80fd5b8251915061284c602084016130da565b5f60208083525f845461311c81612aa7565b806020870152604060018084165f811461313d576001811461315957613186565b60ff19851660408a0152604084151560051b8a01019550613186565b895f5260205f205f5b8581101561317d5781548b8201860152908301908801613162565b8a016040019650505b509398975050505050505050565b818382375f9101908152919050565b5f80604083850312156131b4575f80fd5b82516001600160401b03808211156131ca575f80fd5b90840190606082870312156131dd575f80fd5b6131e5612b01565b8251815260208301516131f7816128c9565b602082015260408301518281111561320d575f80fd5b61321988828601612ba1565b604083015250935061284c915050602084016130da565b5f60208284031215613240575f80fd5b610b888261286e565b80820180821115610b8b57610b8b612ea2565b5f8235603e19833603018112612cb7575f80fd5b5f808335601e19843603018112613285575f80fd5b8301803591506001600160401b0382111561329e575f80fd5b602001915036819003821315612192575f80fd5b602081525f612be8602083018486612f64565b5f604082360312156132d5575f80fd5b6132dd612b29565b6132e6836127ef565b81526020808401356001600160401b0380821115613302575f80fd5b9085019036601f830112613314575f80fd5b81358181111561332657613326612aed565b8060051b9150613337848301612b4b565b8181529183018401918481019036841115613350575f80fd5b938501935b8385101561337a578435925061336a836128c9565b8282529385019390850190613355565b94860194909452509295945050505050565b5f6040830163ffffffff8351168452602080840151604060208701528281518085526060880191506020830194505f92505b808310156133e75784516001600160a01b031682529383019360019290920191908301906133be565b509695505050505050565b60208152815160208201525f602083015160e0604084015261341861010084018261296f565b90506040840151601f1980858403016060860152613436838361296f565b92506001600160401b03606087015116608086015260808601519150808584030160a0860152613466838361338c565b925060a08601519150808584030160c086015250613484828261338c565b91505060c08401516134a160e08501826001600160401b03169052565b509392505050565b5f80604083850312156134ba575f80fd5b8251915060208301516001600160401b038111156134d6575f80fd5b6134e285828601612ba1565b9150509250929050565b6001600160401b0383111561350357613503612aed565b613517836135118354612aa7565b83612d98565b5f601f841160018114613548575f85156135315750838201355b5f19600387901b1c1916600186901b178355612ddc565b5f83815260208120601f198716915b828110156135775786850135825560209485019460019092019101613557565b5086821015613593575f1960f88860031b161c19848701351681555b505060018560011b0183555050505050565b81810381811115610b8b57610b8b612ea2565b6001600160401b038281168282160390808211156112c7576112c7612ea2565b5f6001600160401b03808316818103612eee57612eee612ea2565b5f60208284031215613603575f80fd5b813560ff81168114612a35575f80fdfee92546d698950ddd38910d2e15ed1d923cd0a7b3dde9e2a6a3f380565559cb00e92546d698950ddd38910d2e15ed1d923cd0a7b3dde9e2a6a3f380565559cb05a164736f6c6343000819000a",
    "linkReferences": {
      "contracts/validator-manager/ValidatorMessages.sol": {
        "ValidatorMessages": [
          {
            "start": 1553,
            "length": 20
          },
          {
            "start": 2811,
            "length": 20
          },
          {
            "start": 2944,
            "length": 20
          },
          {
            "start": 3312,
            "length": 20
          },
          {
            "start": 5174,
            "length": 20
          },
          {
            "start": 7609,
            "length": 20
          },
          {
            "start": 8659,
            "length": 20
          }
        ]
      }
    }
  },
  "methodIdentifiers": {
    "ADDRESS_LENGTH()": "60305d62",
    "BLS_PUBLIC_KEY_LENGTH()": "8280a25a",
    "MAXIMUM_CHURN_PERCENTAGE_LIMIT()": "c974d1b6",
    "MAXIMUM_REGISTRATION_EXPIRY_LENGTH()": "df93d8de",
    "P_CHAIN_BLOCKCHAIN_ID()": "732214f8",
    "VALIDATOR_MANAGER_STORAGE_LOCATION()": "bc5fbfec",
    "WARP_MESSENGER()": "b771b3bc",
    "completeEndValidation(uint32)": "467ef06f",
    "completeValidatorRegistration(uint32)": "a3a65e48",
    "getValidator(bytes32)": "d5f20ff6",
    "initialize((bytes32,uint64,uint8),address)": "d588c18f",
    "initializeEndValidation(bytes32)": "97fb70d4",
    "initializeValidatorRegistration((bytes,bytes,uint64,(uint32,address[]),(uint32,address[])),uint64)": "9ba96b86",
    "initializeValidatorSet((bytes32,bytes32,address,(bytes,bytes,uint64)[]),uint32)": "20d91b7a",
    "owner()": "8da5cb5b",
    "registeredValidators(bytes)": "fd7ac5e7",
    "renounceOwnership()": "715018a6",
    "resendEndValidatorMessage(bytes32)": "0322ed98",
    "resendRegisterValidatorMessage(bytes32)": "bee0a03f",
    "transferOwnership(address)": "f2fde38b"
  },
  "id": 94
}