{
  "_format": "hh-sol-artifact-1",
  "contractName": "EC",
  "sourceName": "contracts/EC.sol",
  "abi": [
    {
      "inputs": [
        {
          "internalType": "uint256",
          "name": "x0",
          "type": "uint256"
        },
        {
          "internalType": "uint256",
          "name": "y0",
          "type": "uint256"
        },
        {
          "internalType": "uint256",
          "name": "x1",
          "type": "uint256"
        },
        {
          "internalType": "uint256",
          "name": "y1",
          "type": "uint256"
        }
      ],
      "name": "add",
      "outputs": [
        {
          "internalType": "uint256",
          "name": "",
          "type": "uint256"
        },
        {
          "internalType": "uint256",
          "name": "",
          "type": "uint256"
        }
      ],
      "stateMutability": "pure",
      "type": "function"
    },
    {
      "inputs": [
        {
          "internalType": "uint256",
          "name": "x1",
          "type": "uint256"
        },
        {
          "internalType": "uint256",
          "name": "y1",
          "type": "uint256"
        },
        {
          "internalType": "uint256",
          "name": "x2",
          "type": "uint256"
        },
        {
          "internalType": "uint256",
          "name": "y2",
          "type": "uint256"
        }
      ],
      "name": "addAndReturnProjectivePoint",
      "outputs": [
        {
          "internalType": "uint256[3]",
          "name": "P",
          "type": "uint256[3]"
        }
      ],
      "stateMutability": "pure",
      "type": "function"
    },
    {
      "inputs": [
        {
          "internalType": "uint256",
          "name": "x0",
          "type": "uint256"
        },
        {
          "internalType": "uint256",
          "name": "y0",
          "type": "uint256"
        },
        {
          "internalType": "uint256",
          "name": "z0",
          "type": "uint256"
        },
        {
          "internalType": "uint256",
          "name": "x1",
          "type": "uint256"
        },
        {
          "internalType": "uint256",
          "name": "y1",
          "type": "uint256"
        },
        {
          "internalType": "uint256",
          "name": "z1",
          "type": "uint256"
        }
      ],
      "name": "addProj",
      "outputs": [
        {
          "internalType": "uint256",
          "name": "x2",
          "type": "uint256"
        },
        {
          "internalType": "uint256",
          "name": "y2",
          "type": "uint256"
        },
        {
          "internalType": "uint256",
          "name": "z2",
          "type": "uint256"
        }
      ],
      "stateMutability": "pure",
      "type": "function"
    },
    {
      "inputs": [
        {
          "internalType": "uint256[]",
          "name": "data",
          "type": "uint256[]"
        },
        {
          "internalType": "uint256",
          "name": "inBits",
          "type": "uint256"
        },
        {
          "internalType": "uint256",
          "name": "outBits",
          "type": "uint256"
        }
      ],
      "name": "convert",
      "outputs": [
        {
          "internalType": "uint256[]",
          "name": "",
          "type": "uint256[]"
        }
      ],
      "stateMutability": "view",
      "type": "function"
    },
    {
      "inputs": [
        {
          "internalType": "bytes",
          "name": "prefix",
          "type": "bytes"
        },
        {
          "internalType": "uint256[]",
          "name": "hrp",
          "type": "uint256[]"
        },
        {
          "internalType": "uint256[]",
          "name": "data",
          "type": "uint256[]"
        }
      ],
      "name": "encode",
      "outputs": [
        {
          "internalType": "string",
          "name": "",
          "type": "string"
        }
      ],
      "stateMutability": "view",
      "type": "function"
    },
    {
      "inputs": [
        {
          "internalType": "uint256",
          "name": "x",
          "type": "uint256"
        },
        {
          "internalType": "uint256",
          "name": "y",
          "type": "uint256"
        }
      ],
      "name": "isOnCurve",
      "outputs": [
        {
          "internalType": "bool",
          "name": "",
          "type": "bool"
        }
      ],
      "stateMutability": "pure",
      "type": "function"
    },
    {
      "inputs": [
        {
          "internalType": "uint256",
          "name": "x0",
          "type": "uint256"
        },
        {
          "internalType": "uint256",
          "name": "y0",
          "type": "uint256"
        }
      ],
      "name": "isZeroCurve",
      "outputs": [
        {
          "internalType": "bool",
          "name": "isZero",
          "type": "bool"
        }
      ],
      "stateMutability": "pure",
      "type": "function"
    },
    {
      "inputs": [
        {
          "internalType": "uint256",
          "name": "scalar",
          "type": "uint256"
        }
      ],
      "name": "multipleGeneratorByScalar",
      "outputs": [
        {
          "internalType": "uint256",
          "name": "",
          "type": "uint256"
        },
        {
          "internalType": "uint256",
          "name": "",
          "type": "uint256"
        }
      ],
      "stateMutability": "pure",
      "type": "function"
    },
    {
      "inputs": [
        {
          "internalType": "uint256",
          "name": "x0",
          "type": "uint256"
        },
        {
          "internalType": "uint256",
          "name": "y0",
          "type": "uint256"
        },
        {
          "internalType": "uint256",
          "name": "exp",
          "type": "uint256"
        }
      ],
      "name": "multiplyPowerBase2",
      "outputs": [
        {
          "internalType": "uint256",
          "name": "",
          "type": "uint256"
        },
        {
          "internalType": "uint256",
          "name": "",
          "type": "uint256"
        }
      ],
      "stateMutability": "pure",
      "type": "function"
    },
    {
      "inputs": [
        {
          "internalType": "uint256",
          "name": "x0",
          "type": "uint256"
        },
        {
          "internalType": "uint256",
          "name": "y0",
          "type": "uint256"
        },
        {
          "internalType": "uint256",
          "name": "scalar",
          "type": "uint256"
        }
      ],
      "name": "multiplyScalar",
      "outputs": [
        {
          "internalType": "uint256",
          "name": "x1",
          "type": "uint256"
        },
        {
          "internalType": "uint256",
          "name": "y1",
          "type": "uint256"
        }
      ],
      "stateMutability": "pure",
      "type": "function"
    },
    {
      "inputs": [
        {
          "internalType": "uint256[]",
          "name": "hrp",
          "type": "uint256[]"
        }
      ],
      "name": "prefixCheck",
      "outputs": [
        {
          "internalType": "uint256",
          "name": "",
          "type": "uint256"
        }
      ],
      "stateMutability": "view",
      "type": "function"
    },
    {
      "inputs": [
        {
          "internalType": "bytes32",
          "name": "messageHash",
          "type": "bytes32"
        },
        {
          "internalType": "uint256[2]",
          "name": "rs",
          "type": "uint256[2]"
        },
        {
          "internalType": "uint256[2]",
          "name": "publicKey",
          "type": "uint256[2]"
        },
        {
          "internalType": "bytes",
          "name": "pubk",
          "type": "bytes"
        },
        {
          "internalType": "string",
          "name": "xchain",
          "type": "string"
        },
        {
          "internalType": "string",
          "name": "prefix",
          "type": "string"
        },
        {
          "internalType": "uint256[]",
          "name": "hrp",
          "type": "uint256[]"
        }
      ],
      "name": "recoverAddress",
      "outputs": [
        {
          "internalType": "string",
          "name": "",
          "type": "string"
        }
      ],
      "stateMutability": "view",
      "type": "function"
    },
    {
      "inputs": [
        {
          "internalType": "uint256",
          "name": "x0",
          "type": "uint256"
        },
        {
          "internalType": "uint256",
          "name": "y0",
          "type": "uint256"
        },
        {
          "internalType": "uint256",
          "name": "z0",
          "type": "uint256"
        }
      ],
      "name": "toAffinePoint",
      "outputs": [
        {
          "internalType": "uint256",
          "name": "x1",
          "type": "uint256"
        },
        {
          "internalType": "uint256",
          "name": "y1",
          "type": "uint256"
        }
      ],
      "stateMutability": "pure",
      "type": "function"
    },
    {
      "inputs": [
        {
          "internalType": "uint256",
          "name": "x0",
          "type": "uint256"
        },
        {
          "internalType": "uint256",
          "name": "y0",
          "type": "uint256"
        }
      ],
      "name": "toProjectivePoint",
      "outputs": [
        {
          "internalType": "uint256[3]",
          "name": "P",
          "type": "uint256[3]"
        }
      ],
      "stateMutability": "pure",
      "type": "function"
    },
    {
      "inputs": [
        {
          "internalType": "uint256",
          "name": "x0",
          "type": "uint256"
        },
        {
          "internalType": "uint256",
          "name": "y0",
          "type": "uint256"
        }
      ],
      "name": "twice",
      "outputs": [
        {
          "internalType": "uint256",
          "name": "",
          "type": "uint256"
        },
        {
          "internalType": "uint256",
          "name": "",
          "type": "uint256"
        }
      ],
      "stateMutability": "pure",
      "type": "function"
    },
    {
      "inputs": [
        {
          "internalType": "uint256",
          "name": "x0",
          "type": "uint256"
        },
        {
          "internalType": "uint256",
          "name": "y0",
          "type": "uint256"
        },
        {
          "internalType": "uint256",
          "name": "z0",
          "type": "uint256"
        }
      ],
      "name": "twiceProj",
      "outputs": [
        {
          "internalType": "uint256",
          "name": "x1",
          "type": "uint256"
        },
        {
          "internalType": "uint256",
          "name": "y1",
          "type": "uint256"
        },
        {
          "internalType": "uint256",
          "name": "z1",
          "type": "uint256"
        }
      ],
      "stateMutability": "pure",
      "type": "function"
    },
    {
      "inputs": [
        {
          "internalType": "bytes32",
          "name": "messageHash",
          "type": "bytes32"
        },
        {
          "internalType": "uint256[2]",
          "name": "rs",
          "type": "uint256[2]"
        },
        {
          "internalType": "uint256[2]",
          "name": "publicKey",
          "type": "uint256[2]"
        }
      ],
      "name": "validateSignature",
      "outputs": [
        {
          "internalType": "bool",
          "name": "",
          "type": "bool"
        }
      ],
      "stateMutability": "view",
      "type": "function"
    },
    {
      "inputs": [],
      "name": "zeroAffine",
      "outputs": [
        {
          "internalType": "uint256",
          "name": "x",
          "type": "uint256"
        },
        {
          "internalType": "uint256",
          "name": "y",
          "type": "uint256"
        }
      ],
      "stateMutability": "pure",
      "type": "function"
    },
    {
      "inputs": [],
      "name": "zeroProj",
      "outputs": [
        {
          "internalType": "uint256",
          "name": "x",
          "type": "uint256"
        },
        {
          "internalType": "uint256",
          "name": "y",
          "type": "uint256"
        },
        {
          "internalType": "uint256",
          "name": "z",
          "type": "uint256"
        }
      ],
      "stateMutability": "pure",
      "type": "function"
    }
  ],
  "bytecode": "0x608060405234801561001057600080fd5b50612db5806100206000396000f3fe608060405234801561001057600080fd5b50600436106101215760003560e01c8063675ca043116100ad578063c30cfa2d11610071578063c30cfa2d14610aaa578063c80edca414610af8578063e022d77c14610b5c578063ed9aa42814610bc3578063f214aba014610e1f57610121565b8063675ca043146108cf578063713eca281461092c57806372fb4a14146109b45780637ec8da8d14610a1157806384dfba4614610a8557610121565b806314c67060116100f457806314c67060146102d657806321ed510e1461030257806324edbee6146104235780632b6ded48146104ef578063322b24aa1461087257610121565b806304e960d71461012657806309d3ef31146101ec5780630afb4ddc1461023f5780630b0dbcfa14610288575b600080fd5b6101d4600480360360a081101561013c57600080fd5b810190808035906020019092919080604001906002806020026040519081016040528092919082600260200280828437600081840152601f19601f820116905080830192505050505050919291929080604001906002806020026040519081016040528092919082600260200280828437600081840152601f19601f8201169050808301925050505050509192919290505050610ea1565b60405180821515815260200191505060405180910390f35b6102226004803603604081101561020257600080fd5b8101908080359060200190929190803590602001909291905050506111fa565b604051808381526020018281526020019250505060405180910390f35b61026b6004803603602081101561025557600080fd5b810190808035906020019092919050505061122e565b604051808381526020018281526020019250505060405180910390f35b6102be6004803603604081101561029e57600080fd5b810190808035906020019092919080359060200190929190505050611285565b60405180821515815260200191505060405180910390f35b6102de611427565b60405180848152602001838152602001828152602001935050505060405180910390f35b6103cc6004803603606081101561031857600080fd5b810190808035906020019064010000000081111561033557600080fd5b82018360208201111561034757600080fd5b8035906020019184602083028401116401000000008311171561036957600080fd5b919080806020026020016040519081016040528093929190818152602001838360200280828437600081840152601f19601f820116905080830192505050505050509192919290803590602001909291908035906020019092919050505061143c565b6040518080602001828103825283818151815260200191508051906020019060200280838360005b8381101561040f5780820151818401526020810190506103f4565b505050509050019250505060405180910390f35b6104d96004803603602081101561043957600080fd5b810190808035906020019064010000000081111561045657600080fd5b82018360208201111561046857600080fd5b8035906020019184602083028401116401000000008311171561048a57600080fd5b919080806020026020016040519081016040528093929190818152602001838360200280828437600081840152601f19601f820116905080830192505050505050509192919290505050611517565b6040518082815260200191505060405180910390f35b6107f7600480360361012081101561050657600080fd5b810190808035906020019092919080604001906002806020026040519081016040528092919082600260200280828437600081840152601f19601f820116905080830192505050505050919291929080604001906002806020026040519081016040528092919082600260200280828437600081840152601f19601f8201169050808301925050505050509192919290803590602001906401000000008111156105af57600080fd5b8201836020820111156105c157600080fd5b803590602001918460018302840111640100000000831117156105e357600080fd5b91908080601f016020809104026020016040519081016040528093929190818152602001838380828437600081840152601f19601f8201169050808301925050505050505091929192908035906020019064010000000081111561064657600080fd5b82018360208201111561065857600080fd5b8035906020019184600183028401116401000000008311171561067a57600080fd5b91908080601f016020809104026020016040519081016040528093929190818152602001838380828437600081840152601f19601f820116905080830192505050505050509192919290803590602001906401000000008111156106dd57600080fd5b8201836020820111156106ef57600080fd5b8035906020019184600183028401116401000000008311171561071157600080fd5b91908080601f016020809104026020016040519081016040528093929190818152602001838380828437600081840152601f19601f8201169050808301925050505050505091929192908035906020019064010000000081111561077457600080fd5b82018360208201111561078657600080fd5b803590602001918460208302840111640100000000831117156107a857600080fd5b919080806020026020016040519081016040528093929190818152602001838360200280828437600081840152601f19601f8201169050808301925050505050505091929192905050506115b4565b6040518080602001828103825283818151815260200191508051906020019080838360005b8381101561083757808201518184015260208101905061081c565b50505050905090810190601f1680156108645780820380516001836020036101000a031916815260200191505b509250505060405180910390f35b6108b26004803603606081101561088857600080fd5b81019080803590602001909291908035906020019092919080359060200190929190505050611a2c565b604051808381526020018281526020019250505060405180910390f35b61090f600480360360608110156108e557600080fd5b81019080803590602001909291908035906020019092919080359060200190929190505050611a89565b604051808381526020018281526020019250505060405180910390f35b6109766004803603608081101561094257600080fd5b8101908080359060200190929190803590602001909291908035906020019092919080359060200190929190505050611b1d565b6040518082600360200280838360005b838110156109a1578082015181840152602081019050610986565b5050505090500191505060405180910390f35b6109f4600480360360608110156109ca57600080fd5b81019080803590602001909291908035906020019092919080359060200190929190505050611b52565b604051808381526020018281526020019250505060405180910390f35b610a4760048036036040811015610a2757600080fd5b810190808035906020019092919080359060200190929190505050611c54565b6040518082600360200280838360005b83811015610a72578082015181840152602081019050610a57565b5050505090500191505060405180910390f35b610a8d611d49565b604051808381526020018281526020019250505060405180910390f35b610ae060048036036040811015610ac057600080fd5b810190808035906020019092919080359060200190929190505050611d57565b60405180821515815260200191505060405180910390f35b610b3860048036036060811015610b0e57600080fd5b81019080803590602001909291908035906020019092919080359060200190929190505050611d81565b60405180848152602001838152602001828152602001935050505060405180910390f35b610ba660048036036080811015610b7257600080fd5b810190808035906020019092919080359060200190929190803590602001909291908035906020019092919050505061220a565b604051808381526020018281526020019250505060405180910390f35b610da460048036036060811015610bd957600080fd5b8101908080359060200190640100000000811115610bf657600080fd5b820183602082011115610c0857600080fd5b80359060200191846001830284011164010000000083111715610c2a57600080fd5b91908080601f016020809104026020016040519081016040528093929190818152602001838380828437600081840152601f19601f82011690508083019250505050505050919291929080359060200190640100000000811115610c8d57600080fd5b820183602082011115610c9f57600080fd5b80359060200191846020830284011164010000000083111715610cc157600080fd5b919080806020026020016040519081016040528093929190818152602001838360200280828437600081840152601f19601f82011690508083019250505050505050919291929080359060200190640100000000811115610d2157600080fd5b820183602082011115610d3357600080fd5b80359060200191846020830284011164010000000083111715610d5557600080fd5b919080806020026020016040519081016040528093929190818152602001838360200280828437600081840152601f19601f820116905080830192505050505050509192919290505050612244565b6040518080602001828103825283818151815260200191508051906020019080838360005b83811015610de4578082015181840152602081019050610dc9565b50505050905090810190601f168015610e115780820380516001836020036101000a031916815260200191505b509250505060405180910390f35b610e7d600480360360c0811015610e3557600080fd5b810190808035906020019092919080359060200190929190803590602001909291908035906020019092919080359060200190929190803590602001909291905050506126af565b60405180848152602001838152602001828152602001935050505060405180910390f35b60008083600060028110610eb157fe5b60200201511480610ef357507ffffffffffffffffffffffffffffffffebaaedce6af48a03bbfd25e8cd036414183600060028110610eeb57fe5b602002015110155b80610f0f5750600083600160028110610f0857fe5b6020020151145b80610f4a57507f7fffffffffffffffffffffffffffffff5d576e7357a4501ddfe92f46681b20a083600160028110610f4357fe5b6020020151115b15610f5857600090506111f3565b610f8482600060028110610f6857fe5b602002015183600160028110610f7a57fe5b6020020151611285565b610f9157600090506111f3565b6000806000806000610fd488600160028110610fa957fe5b60200201517ffffffffffffffffffffffffffffffffebaaedce6af48a03bbfd25e8cd0364141612845565b905061104e7f79be667ef9dcbbac55a06295ce870b07029bfcdb2dce28d959f2815b16f817987f483ada7726a3c4655da4fbfc0e1108a8fd17b448a68554199c47d08ffb10d4b87ffffffffffffffffffffffffffffffffebaaedce6af48a03bbfd25e8cd03641418061104357fe5b848d60001c09611b52565b80945081965050506110be8760006002811061106657fe5b60200201518860016002811061107857fe5b60200201517ffffffffffffffffffffffffffffffffebaaedce6af48a03bbfd25e8cd0364141806110a557fe5b848c6000600281106110b357fe5b602002015109611b52565b80935081955050506110ce612d04565b6110da86858786611b1d565b90506000816002600381106110eb57fe5b6020020151141561110557600096505050505050506111f3565b60006111428260026003811061111757fe5b60200201517ffffffffffffffffffffffffffffffffffffffffffffffffffffffffefffffc2f612845565b90507ffffffffffffffffffffffffffffffffffffffffffffffffffffffffefffffc2f8061116c57fe5b7ffffffffffffffffffffffffffffffffffffffffffffffffffffffffefffffc2f8061119457fe5b828309836000600381106111a457fe5b6020020151099050896000600281106111b957fe5b60200201517ffffffffffffffffffffffffffffffffebaaedce6af48a03bbfd25e8cd036414182816111e757fe5b06149750505050505050505b9392505050565b600080600061120b85856001611d81565b809350819650829750505050611222858583611a89565b92509250509250929050565b60008061127c7f79be667ef9dcbbac55a06295ce870b07029bfcdb2dce28d959f2815b16f817987f483ada7726a3c4655da4fbfc0e1108a8fd17b448a68554199c47d08ffb10d4b885611b52565b91509150915091565b600082600014806112b557507ffffffffffffffffffffffffffffffffffffffffffffffffffffffffefffffc2f83145b806112c05750816000145b806112ea57507ffffffffffffffffffffffffffffffffffffffffffffffffffffffffefffffc2f82145b156112f85760009050611421565b60007ffffffffffffffffffffffffffffffffffffffffffffffffffffffffefffffc2f8061132257fe5b838409905060007ffffffffffffffffffffffffffffffffffffffffffffffffffffffffefffffc2f8061135157fe5b857ffffffffffffffffffffffffffffffffffffffffffffffffffffffffefffffc2f8061137a57fe5b878809099050600080146113e1577ffffffffffffffffffffffffffffffffffffffffffffffffffffffffefffffc2f806113b057fe5b7ffffffffffffffffffffffffffffffffffffffffffffffffffffffffefffffc2f806113d857fe5b60008709820890505b6000600714611419577ffffffffffffffffffffffffffffffffffffffffffffffffffffffffefffffc2f8061141257fe5b6007820890505b808214925050505b92915050565b60008060008060016000925092509250909192565b606060008060006001856001901b0390506060602067ffffffffffffffff8111801561146757600080fd5b506040519080825280602002602001820160405280156114965781602001602082028036833780820191505090505b5090506000805b8951811015611507578981815181106114b257fe5b60200260200101518987901b17955088850194505b8785106114fc578785039450838587901c168383815181106114e557fe5b6020026020010181815250506001820191506114c7565b80600101905061149d565b5081955050505050509392505050565b6000806001905060008060005b855181101561155f5785818151811061153957fe5b60200260200101519250600583901c611551856128f5565b189350806001019050611524565b50611569836128f5565b925060005b85518110156115a85785818151811061158357fe5b60200260200101519150601f821661159a856128f5565b18935080600101905061156e565b50829350505050919050565b60606000606060006002886040516020018082805190602001908083835b602083106115f557805182526020820191506020810190506020830392506115d2565b6001836020036101000a0380198251168184511680821785525050505050509050019150506040516020818303038152906040526040518082805190602001908083835b6020831061165c5780518252602082019150602081019050602083039250611639565b6001836020036101000a038019825116818451168082178552505050505050905001915050602060405180830381855afa15801561169e573d6000803e3d6000fd5b5050506040513d60208110156116b357600080fd5b810190808051906020019092919050505090506000600382604051602001808281526020019150506040516020818303038152906040526040518082805190602001908083835b6020831061171d57805182526020820191506020810190506020830392506116fa565b6001836020036101000a038019825116818451168082178552505050505050905001915050602060405180830381855afa15801561175f573d6000803e3d6000fd5b5050506040515160601b90506060601467ffffffffffffffff8111801561178557600080fd5b506040519080825280602002602001820160405280156117b45781602001602082028036833780820191505090505b50905060005b60148110156117fe578281601481106117cf57fe5b1a60f81b60f81c60ff168282815181106117e557fe5b60200260200101818152505080806001019150506117ba565b506060889050606061181d828a611818866008600561143c565b612244565b90508a6040516020018082805190602001908083835b602083106118565780518252602082019150602081019050602083039250611833565b6001836020036101000a03801982511681845116808217855250505050505090500191505060405160208183030381529060405280519060200120816040516020018082805190602001908083835b602083106118c857805182526020820191506020810190506020830392506118a5565b6001836020036101000a03801982511681845116808217855250505050505090500191505060405160208183030381529060405280519060200120141561199e576119148f8f8f610ea1565b9650600115158715151415611960576040518060400160405280601381526020017f5369676e617475726520766572696669656421000000000000000000000000008152509550611999565b6040518060400160405280601e81526020017f5369676e617475726520766572696669636174696f6e206661696c656421000081525095505b611a17565b806040516020018080612d276059913960590182805190602001908083835b602083106119e057805182526020820191506020810190506020830392506119bd565b6001836020036101000a03801982511681845116808217855250505050505090500191505060405160208183030381529060405295505b85975050505050505050979650505050505050565b6000806000859050600085905060006001905060005b86811015611a6e57611a55848484611d81565b8094508195508296505050508080600101915050611a42565b50611a7a838383611a89565b94509450505050935093915050565b6000806000611ab8847ffffffffffffffffffffffffffffffffffffffffffffffffffffffffefffffc2f612845565b90507ffffffffffffffffffffffffffffffffffffffffffffffffffffffffefffffc2f80611ae257fe5b81870992507ffffffffffffffffffffffffffffffffffffffffffffffffffffffffefffffc2f80611b0f57fe5b818609915050935093915050565b611b25612d04565b600080611b348787878761220a565b8092508193505050611b468282611c54565b92505050949350505050565b6000806000831415611b6f57611b66611d49565b91509150611c4c565b6001831415611b8357848491509150611c4c565b6002831415611b9f57611b9685856111fa565b91509150611c4c565b60008590506000859050600060019050600060019050889550879450600060028881611bc757fe5b061415611bd657600094508495505b600187901c96505b6000871115611c3857611bf2848484611d81565b809450819550829650505050600160028881611c0a57fe5b061415611c2c57611c1f8484848989866126af565b8093508197508298505050505b600187901c9650611bde565b611c43868683611a89565b95509550505050505b935093915050565b611c5c612d04565b7ffffffffffffffffffffffffffffffffffffffffffffffffffffffffefffffc2f80611c8457fe5b600160000881600260038110611c9657fe5b6020020181815250507ffffffffffffffffffffffffffffffffffffffffffffffffffffffffefffffc2f80611cc757fe5b81600260038110611cd457fe5b6020020151840981600060038110611ce857fe5b6020020181815250507ffffffffffffffffffffffffffffffffffffffffffffffffffffffffefffffc2f80611d1957fe5b81600260038110611d2657fe5b6020020151830981600160038110611d3a57fe5b60200201818152505092915050565b600080600080915091509091565b60008083148015611d685750600082145b15611d765760019050611d7b565b600090505b92915050565b6000806000806000806000611d968a8a611d57565b15611db257611da3611427565b96509650965050505050612201565b7ffffffffffffffffffffffffffffffffffffffffffffffffffffffffefffffc2f80611dda57fe5b888a0992507ffffffffffffffffffffffffffffffffffffffffffffffffffffffffefffffc2f80611e0757fe5b6002840992507ffffffffffffffffffffffffffffffffffffffffffffffffffffffffefffffc2f80611e3557fe5b8a840991507ffffffffffffffffffffffffffffffffffffffffffffffffffffffffefffffc2f80611e6257fe5b89830991507ffffffffffffffffffffffffffffffffffffffffffffffffffffffffefffffc2f80611e8f57fe5b6002830991507ffffffffffffffffffffffffffffffffffffffffffffffffffffffffefffffc2f80611ebd57fe5b8a8b0999507ffffffffffffffffffffffffffffffffffffffffffffffffffffffffefffffc2f80611eea57fe5b60038b0993507ffffffffffffffffffffffffffffffffffffffffffffffffffffffffefffffc2f80611f1857fe5b88890997507ffffffffffffffffffffffffffffffffffffffffffffffffffffffffefffffc2f80611f4557fe5b6000890997507ffffffffffffffffffffffffffffffffffffffffffffffffffffffffefffffc2f80611f7357fe5b88850893507ffffffffffffffffffffffffffffffffffffffffffffffffffffffffefffffc2f80611fa057fe5b84850990507ffffffffffffffffffffffffffffffffffffffffffffffffffffffffefffffc2f80611fcd57fe5b8260020999507ffffffffffffffffffffffffffffffffffffffffffffffffffffffffefffffc2f80611ffb57fe5b8a7ffffffffffffffffffffffffffffffffffffffffffffffffffffffffefffffc2f03820890507ffffffffffffffffffffffffffffffffffffffffffffffffffffffffefffffc2f8061204a57fe5b817ffffffffffffffffffffffffffffffffffffffffffffffffffffffffefffffc2f03830899507ffffffffffffffffffffffffffffffffffffffffffffffffffffffffefffffc2f8061209957fe5b8a850999507ffffffffffffffffffffffffffffffffffffffffffffffffffffffffefffffc2f806120c657fe5b838a0998507ffffffffffffffffffffffffffffffffffffffffffffffffffffffffefffffc2f806120f357fe5b898a0998507ffffffffffffffffffffffffffffffffffffffffffffffffffffffffefffffc2f8061212057fe5b8960020998507ffffffffffffffffffffffffffffffffffffffffffffffffffffffffefffffc2f8061214e57fe5b897ffffffffffffffffffffffffffffffffffffffffffffffffffffffffefffffc2f038b0895507ffffffffffffffffffffffffffffffffffffffffffffffffffffffffefffffc2f8061219d57fe5b81840996507ffffffffffffffffffffffffffffffffffffffffffffffffffffffffefffffc2f806121ca57fe5b83840994507ffffffffffffffffffffffffffffffffffffffffffffffffffffffffefffffc2f806121f757fe5b8386099450505050505b93509350939050565b600080600061221f87876001888860016126af565b809350819850829950505050612236878783611a89565b925092505094509492505050565b6060600061225184611517565b905060606040518060400160405280600181526020017f31000000000000000000000000000000000000000000000000000000000000008152509050606086826040516020018083805190602001908083835b602083106122c757805182526020820191506020810190506020830392506122a4565b6001836020036101000a03801982511681845116808217855250505050505090500182805190602001908083835b6020831061231857805182526020820191506020810190506020830392506122f5565b6001836020036101000a03801982511681845116808217855250505050505090500192505050604051602081830303815290604052905060005b855181101561246e57600086828151811061236957fe5b602002602001015190508061237d866128f5565b189450826040518060400160405280602081526020017f71707a7279397838676632747664773073336a6e35346b686365366d7561376c81525082815181106123c257fe5b602001015160f81c60f81b6040516020018083805190602001908083835b6020831061240357805182526020820191506020810190506020830392506123e0565b6001836020036101000a038019825116818451168082178552505050505050905001827effffffffffffffffffffffffffffffffffffffffffffffffffffffffffffff1916815260010192505050604051602081830303815290604052925050806001019050612352565b5060005b600681101561249157612484846128f5565b9350806001019050612472565b5060018318925060005b60068110156125a3576000601f6005836005030286901c169050826040518060400160405280602081526020017f71707a7279397838676632747664773073336a6e35346b686365366d7561376c81525082815181106124f757fe5b602001015160f81c60f81b6040516020018083805190602001908083835b602083106125385780518252602082019150602081019050602083039250612515565b6001836020036101000a038019825116818451168082178552505050505050905001827effffffffffffffffffffffffffffffffffffffffffffffffffffffffffffff191681526001019250505060405160208183030381529060405292505080600101905061249b565b5060606040518060400160405280600281526020017f582d0000000000000000000000000000000000000000000000000000000000008152509050606081836040516020018083805190602001908083835b6020831061261857805182526020820191506020810190506020830392506125f5565b6001836020036101000a03801982511681845116808217855250505050505090500182805190602001908083835b602083106126695780518252602082019150602081019050602083039250612646565b6001836020036101000a03801982511681845116808217855250505050505090500192505050604051602081830303815290604052905080955050505050509392505050565b60008060008060008060006126c48d8d611d57565b156126db5789898996509650965050505050612839565b6126e58a8a611d57565b156126fc578c8c8c96509650965050505050612839565b7ffffffffffffffffffffffffffffffffffffffffffffffffffffffffefffffc2f8061272457fe5b888d0993507ffffffffffffffffffffffffffffffffffffffffffffffffffffffffefffffc2f8061275157fe5b8b8a0992507ffffffffffffffffffffffffffffffffffffffffffffffffffffffffefffffc2f8061277e57fe5b888e0991507ffffffffffffffffffffffffffffffffffffffffffffffffffffffffefffffc2f806127ab57fe5b8b8b099050808214156127f157828414156127da576127cb8d8d8d611d81565b96509650965050505050612839565b6127e2611427565b96509650965050505050612839565b6128287ffffffffffffffffffffffffffffffffffffffffffffffffffffffffefffffc2f8061281c57fe5b898d098383868861296e565b809750819850829950505050505050505b96509650969350505050565b60008083148061285457508183145b8061285f5750600082145b1561286d57600090506128ef565b818311156128825781838161287e57fe5b0692505b600080600190506000849050600086905060005b600082146128cb578183816128a757fe5b04905083848202860383848402860380955081965082975083985050505050612896565b60008512156128e657846000038703955050505050506128ef565b84955050505050505b92915050565b600080601983901c9050632a1462b36001600483901c1660000316633d4233dd6001600384901c1660000316631ea119fa6001600285901c16600003166326508e6d60018086901c1660000316633b6a57b26001600087901c166000031660056301ffffff8916901b1818181818905080915050919050565b6000806000806000806000807ffffffffffffffffffffffffffffffffffffffffffffffffffffffffefffffc2f806129a257fe5b8a7ffffffffffffffffffffffffffffffffffffffffffffffffffffffffefffffc2f038a0890507ffffffffffffffffffffffffffffffffffffffffffffffffffffffffefffffc2f806129f157fe5b8b7ffffffffffffffffffffffffffffffffffffffffffffffffffffffffefffffc2f038d0894507ffffffffffffffffffffffffffffffffffffffffffffffffffffffffefffffc2f80612a4057fe5b85860993507ffffffffffffffffffffffffffffffffffffffffffffffffffffffffefffffc2f80612a6d57fe5b81820991507ffffffffffffffffffffffffffffffffffffffffffffffffffffffffefffffc2f80612a9a57fe5b8d830991507ffffffffffffffffffffffffffffffffffffffffffffffffffffffffefffffc2f80612ac757fe5b8c8c089a507ffffffffffffffffffffffffffffffffffffffffffffffffffffffffefffffc2f80612af457fe5b848c099a507ffffffffffffffffffffffffffffffffffffffffffffffffffffffffefffffc2f80612b2157fe5b8b7ffffffffffffffffffffffffffffffffffffffffffffffffffffffffefffffc2f03830891507ffffffffffffffffffffffffffffffffffffffffffffffffffffffffefffffc2f80612b7057fe5b82860997507ffffffffffffffffffffffffffffffffffffffffffffffffffffffffefffffc2f80612b9d57fe5b85850992507ffffffffffffffffffffffffffffffffffffffffffffffffffffffffefffffc2f80612bca57fe5b848d099b507ffffffffffffffffffffffffffffffffffffffffffffffffffffffffefffffc2f80612bf757fe5b827ffffffffffffffffffffffffffffffffffffffffffffffffffffffffefffffc2f038d089b507ffffffffffffffffffffffffffffffffffffffffffffffffffffffffefffffc2f80612c4657fe5b8c820990507ffffffffffffffffffffffffffffffffffffffffffffffffffffffffefffffc2f80612c7357fe5b838a0998507ffffffffffffffffffffffffffffffffffffffffffffffffffffffffefffffc2f80612ca057fe5b897ffffffffffffffffffffffffffffffffffffffffffffffffffffffffefffffc2f03820896507ffffffffffffffffffffffffffffffffffffffffffffffffffffffffefffffc2f80612cef57fe5b8d840995505050505050955095509592505050565b604051806060016040528060039060208202803683378082019150509050509056fe4661696c65643a2041646472657373657320646f206e6f74206d617463682e204164647265737320666f722074686973207369676e61747572652f6d65737361676520636f6d62696e6174696f6e2073686f756c6420626520a2646970667358221220444b7210b2c1a782bcb2c58883790413ed391fd343c0bb94e90e530acd6d833a64736f6c63430007000033",
  "linkReferences": {},
  "deployedLinkReferences": {}
}