{
  "abi": [
    {
      "type": "constructor",
      "inputs": [
        {
          "name": "init",
          "type": "uint8",
          "internalType": "enum ICMInitializable"
        }
      ],
      "stateMutability": "nonpayable"
    },
    {
      "type": "function",
      "name": "ADDRESS_LENGTH",
      "inputs": [],
      "outputs": [
        {
          "name": "",
          "type": "uint32",
          "internalType": "uint32"
        }
      ],
      "stateMutability": "view"
    },
    {
      "type": "function",
      "name": "BIPS_CONVERSION_FACTOR",
      "inputs": [],
      "outputs": [
        {
          "name": "",
          "type": "uint16",
          "internalType": "uint16"
        }
      ],
      "stateMutability": "view"
    },
    {
      "type": "function",
      "name": "BLS_PUBLIC_KEY_LENGTH",
      "inputs": [],
      "outputs": [
        {
          "name": "",
          "type": "uint8",
          "internalType": "uint8"
        }
      ],
      "stateMutability": "view"
    },
    {
      "type": "function",
      "name": "MAXIMUM_CHURN_PERCENTAGE_LIMIT",
      "inputs": [],
      "outputs": [
        {
          "name": "",
          "type": "uint8",
          "internalType": "uint8"
        }
      ],
      "stateMutability": "view"
    },
    {
      "type": "function",
      "name": "MAXIMUM_DELEGATION_FEE_BIPS",
      "inputs": [],
      "outputs": [
        {
          "name": "",
          "type": "uint16",
          "internalType": "uint16"
        }
      ],
      "stateMutability": "view"
    },
    {
      "type": "function",
      "name": "MAXIMUM_REGISTRATION_EXPIRY_LENGTH",
      "inputs": [],
      "outputs": [
        {
          "name": "",
          "type": "uint64",
          "internalType": "uint64"
        }
      ],
      "stateMutability": "view"
    },
    {
      "type": "function",
      "name": "MAXIMUM_STAKE_MULTIPLIER_LIMIT",
      "inputs": [],
      "outputs": [
        {
          "name": "",
          "type": "uint8",
          "internalType": "uint8"
        }
      ],
      "stateMutability": "view"
    },
    {
      "type": "function",
      "name": "NATIVE_MINTER",
      "inputs": [],
      "outputs": [
        {
          "name": "",
          "type": "address",
          "internalType": "contract INativeMinter"
        }
      ],
      "stateMutability": "view"
    },
    {
      "type": "function",
      "name": "POS_VALIDATOR_MANAGER_STORAGE_LOCATION",
      "inputs": [],
      "outputs": [
        {
          "name": "",
          "type": "bytes32",
          "internalType": "bytes32"
        }
      ],
      "stateMutability": "view"
    },
    {
      "type": "function",
      "name": "P_CHAIN_BLOCKCHAIN_ID",
      "inputs": [],
      "outputs": [
        {
          "name": "",
          "type": "bytes32",
          "internalType": "bytes32"
        }
      ],
      "stateMutability": "view"
    },
    {
      "type": "function",
      "name": "VALIDATOR_MANAGER_STORAGE_LOCATION",
      "inputs": [],
      "outputs": [
        {
          "name": "",
          "type": "bytes32",
          "internalType": "bytes32"
        }
      ],
      "stateMutability": "view"
    },
    {
      "type": "function",
      "name": "WARP_MESSENGER",
      "inputs": [],
      "outputs": [
        {
          "name": "",
          "type": "address",
          "internalType": "contract IWarpMessenger"
        }
      ],
      "stateMutability": "view"
    },
    {
      "type": "function",
      "name": "changeDelegatorRewardRecipient",
      "inputs": [
        {
          "name": "delegationID",
          "type": "bytes32",
          "internalType": "bytes32"
        },
        {
          "name": "rewardRecipient",
          "type": "address",
          "internalType": "address"
        }
      ],
      "outputs": [],
      "stateMutability": "nonpayable"
    },
    {
      "type": "function",
      "name": "changeValidatorRewardRecipient",
      "inputs": [
        {
          "name": "validationID",
          "type": "bytes32",
          "internalType": "bytes32"
        },
        {
          "name": "rewardRecipient",
          "type": "address",
          "internalType": "address"
        }
      ],
      "outputs": [],
      "stateMutability": "nonpayable"
    },
    {
      "type": "function",
      "name": "claimDelegationFees",
      "inputs": [
        {
          "name": "validationID",
          "type": "bytes32",
          "internalType": "bytes32"
        }
      ],
      "outputs": [],
      "stateMutability": "nonpayable"
    },
    {
      "type": "function",
      "name": "completeDelegatorRegistration",
      "inputs": [
        {
          "name": "delegationID",
          "type": "bytes32",
          "internalType": "bytes32"
        },
        {
          "name": "messageIndex",
          "type": "uint32",
          "internalType": "uint32"
        }
      ],
      "outputs": [],
      "stateMutability": "nonpayable"
    },
    {
      "type": "function",
      "name": "completeEndDelegation",
      "inputs": [
        {
          "name": "delegationID",
          "type": "bytes32",
          "internalType": "bytes32"
        },
        {
          "name": "messageIndex",
          "type": "uint32",
          "internalType": "uint32"
        }
      ],
      "outputs": [],
      "stateMutability": "nonpayable"
    },
    {
      "type": "function",
      "name": "completeEndValidation",
      "inputs": [
        {
          "name": "messageIndex",
          "type": "uint32",
          "internalType": "uint32"
        }
      ],
      "outputs": [],
      "stateMutability": "nonpayable"
    },
    {
      "type": "function",
      "name": "completeValidatorRegistration",
      "inputs": [
        {
          "name": "messageIndex",
          "type": "uint32",
          "internalType": "uint32"
        }
      ],
      "outputs": [],
      "stateMutability": "nonpayable"
    },
    {
      "type": "function",
      "name": "forceInitializeEndDelegation",
      "inputs": [
        {
          "name": "delegationID",
          "type": "bytes32",
          "internalType": "bytes32"
        },
        {
          "name": "includeUptimeProof",
          "type": "bool",
          "internalType": "bool"
        },
        {
          "name": "messageIndex",
          "type": "uint32",
          "internalType": "uint32"
        }
      ],
      "outputs": [],
      "stateMutability": "nonpayable"
    },
    {
      "type": "function",
      "name": "forceInitializeEndDelegation",
      "inputs": [
        {
          "name": "delegationID",
          "type": "bytes32",
          "internalType": "bytes32"
        },
        {
          "name": "includeUptimeProof",
          "type": "bool",
          "internalType": "bool"
        },
        {
          "name": "messageIndex",
          "type": "uint32",
          "internalType": "uint32"
        },
        {
          "name": "rewardRecipient",
          "type": "address",
          "internalType": "address"
        }
      ],
      "outputs": [],
      "stateMutability": "nonpayable"
    },
    {
      "type": "function",
      "name": "forceInitializeEndValidation",
      "inputs": [
        {
          "name": "validationID",
          "type": "bytes32",
          "internalType": "bytes32"
        },
        {
          "name": "includeUptimeProof",
          "type": "bool",
          "internalType": "bool"
        },
        {
          "name": "messageIndex",
          "type": "uint32",
          "internalType": "uint32"
        }
      ],
      "outputs": [],
      "stateMutability": "nonpayable"
    },
    {
      "type": "function",
      "name": "forceInitializeEndValidation",
      "inputs": [
        {
          "name": "validationID",
          "type": "bytes32",
          "internalType": "bytes32"
        },
        {
          "name": "includeUptimeProof",
          "type": "bool",
          "internalType": "bool"
        },
        {
          "name": "messageIndex",
          "type": "uint32",
          "internalType": "uint32"
        },
        {
          "name": "rewardRecipient",
          "type": "address",
          "internalType": "address"
        }
      ],
      "outputs": [],
      "stateMutability": "nonpayable"
    },
    {
      "type": "function",
      "name": "getValidator",
      "inputs": [
        {
          "name": "validationID",
          "type": "bytes32",
          "internalType": "bytes32"
        }
      ],
      "outputs": [
        {
          "name": "",
          "type": "tuple",
          "internalType": "struct Validator",
          "components": [
            {
              "name": "status",
              "type": "uint8",
              "internalType": "enum ValidatorStatus"
            },
            {
              "name": "nodeID",
              "type": "bytes",
              "internalType": "bytes"
            },
            {
              "name": "startingWeight",
              "type": "uint64",
              "internalType": "uint64"
            },
            {
              "name": "messageNonce",
              "type": "uint64",
              "internalType": "uint64"
            },
            {
              "name": "weight",
              "type": "uint64",
              "internalType": "uint64"
            },
            {
              "name": "startedAt",
              "type": "uint64",
              "internalType": "uint64"
            },
            {
              "name": "endedAt",
              "type": "uint64",
              "internalType": "uint64"
            }
          ]
        }
      ],
      "stateMutability": "view"
    },
    {
      "type": "function",
      "name": "initialize",
      "inputs": [
        {
          "name": "settings",
          "type": "tuple",
          "internalType": "struct PoSValidatorManagerSettings",
          "components": [
            {
              "name": "baseSettings",
              "type": "tuple",
              "internalType": "struct ValidatorManagerSettings",
              "components": [
                {
                  "name": "subnetID",
                  "type": "bytes32",
                  "internalType": "bytes32"
                },
                {
                  "name": "churnPeriodSeconds",
                  "type": "uint64",
                  "internalType": "uint64"
                },
                {
                  "name": "maximumChurnPercentage",
                  "type": "uint8",
                  "internalType": "uint8"
                }
              ]
            },
            {
              "name": "minimumStakeAmount",
              "type": "uint256",
              "internalType": "uint256"
            },
            {
              "name": "maximumStakeAmount",
              "type": "uint256",
              "internalType": "uint256"
            },
            {
              "name": "minimumStakeDuration",
              "type": "uint64",
              "internalType": "uint64"
            },
            {
              "name": "minimumDelegationFeeBips",
              "type": "uint16",
              "internalType": "uint16"
            },
            {
              "name": "maximumStakeMultiplier",
              "type": "uint8",
              "internalType": "uint8"
            },
            {
              "name": "weightToValueFactor",
              "type": "uint256",
              "internalType": "uint256"
            },
            {
              "name": "rewardCalculator",
              "type": "address",
              "internalType": "contract IRewardCalculator"
            },
            {
              "name": "uptimeBlockchainID",
              "type": "bytes32",
              "internalType": "bytes32"
            }
          ]
        }
      ],
      "outputs": [],
      "stateMutability": "nonpayable"
    },
    {
      "type": "function",
      "name": "initializeDelegatorRegistration",
      "inputs": [
        {
          "name": "validationID",
          "type": "bytes32",
          "internalType": "bytes32"
        }
      ],
      "outputs": [
        {
          "name": "",
          "type": "bytes32",
          "internalType": "bytes32"
        }
      ],
      "stateMutability": "payable"
    },
    {
      "type": "function",
      "name": "initializeEndDelegation",
      "inputs": [
        {
          "name": "delegationID",
          "type": "bytes32",
          "internalType": "bytes32"
        },
        {
          "name": "includeUptimeProof",
          "type": "bool",
          "internalType": "bool"
        },
        {
          "name": "messageIndex",
          "type": "uint32",
          "internalType": "uint32"
        }
      ],
      "outputs": [],
      "stateMutability": "nonpayable"
    },
    {
      "type": "function",
      "name": "initializeEndDelegation",
      "inputs": [
        {
          "name": "delegationID",
          "type": "bytes32",
          "internalType": "bytes32"
        },
        {
          "name": "includeUptimeProof",
          "type": "bool",
          "internalType": "bool"
        },
        {
          "name": "messageIndex",
          "type": "uint32",
          "internalType": "uint32"
        },
        {
          "name": "rewardRecipient",
          "type": "address",
          "internalType": "address"
        }
      ],
      "outputs": [],
      "stateMutability": "nonpayable"
    },
    {
      "type": "function",
      "name": "initializeEndValidation",
      "inputs": [
        {
          "name": "validationID",
          "type": "bytes32",
          "internalType": "bytes32"
        },
        {
          "name": "includeUptimeProof",
          "type": "bool",
          "internalType": "bool"
        },
        {
          "name": "messageIndex",
          "type": "uint32",
          "internalType": "uint32"
        },
        {
          "name": "rewardRecipient",
          "type": "address",
          "internalType": "address"
        }
      ],
      "outputs": [],
      "stateMutability": "nonpayable"
    },
    {
      "type": "function",
      "name": "initializeEndValidation",
      "inputs": [
        {
          "name": "validationID",
          "type": "bytes32",
          "internalType": "bytes32"
        },
        {
          "name": "includeUptimeProof",
          "type": "bool",
          "internalType": "bool"
        },
        {
          "name": "messageIndex",
          "type": "uint32",
          "internalType": "uint32"
        }
      ],
      "outputs": [],
      "stateMutability": "nonpayable"
    },
    {
      "type": "function",
      "name": "initializeValidatorRegistration",
      "inputs": [
        {
          "name": "registrationInput",
          "type": "tuple",
          "internalType": "struct ValidatorRegistrationInput",
          "components": [
            {
              "name": "nodeID",
              "type": "bytes",
              "internalType": "bytes"
            },
            {
              "name": "blsPublicKey",
              "type": "bytes",
              "internalType": "bytes"
            },
            {
              "name": "registrationExpiry",
              "type": "uint64",
              "internalType": "uint64"
            },
            {
              "name": "remainingBalanceOwner",
              "type": "tuple",
              "internalType": "struct PChainOwner",
              "components": [
                {
                  "name": "threshold",
                  "type": "uint32",
                  "internalType": "uint32"
                },
                {
                  "name": "addresses",
                  "type": "address[]",
                  "internalType": "address[]"
                }
              ]
            },
            {
              "name": "disableOwner",
              "type": "tuple",
              "internalType": "struct PChainOwner",
              "components": [
                {
                  "name": "threshold",
                  "type": "uint32",
                  "internalType": "uint32"
                },
                {
                  "name": "addresses",
                  "type": "address[]",
                  "internalType": "address[]"
                }
              ]
            }
          ]
        },
        {
          "name": "delegationFeeBips",
          "type": "uint16",
          "internalType": "uint16"
        },
        {
          "name": "minStakeDuration",
          "type": "uint64",
          "internalType": "uint64"
        }
      ],
      "outputs": [
        {
          "name": "",
          "type": "bytes32",
          "internalType": "bytes32"
        }
      ],
      "stateMutability": "payable"
    },
    {
      "type": "function",
      "name": "initializeValidatorSet",
      "inputs": [
        {
          "name": "conversionData",
          "type": "tuple",
          "internalType": "struct ConversionData",
          "components": [
            {
              "name": "subnetID",
              "type": "bytes32",
              "internalType": "bytes32"
            },
            {
              "name": "validatorManagerBlockchainID",
              "type": "bytes32",
              "internalType": "bytes32"
            },
            {
              "name": "validatorManagerAddress",
              "type": "address",
              "internalType": "address"
            },
            {
              "name": "initialValidators",
              "type": "tuple[]",
              "internalType": "struct InitialValidator[]",
              "components": [
                {
                  "name": "nodeID",
                  "type": "bytes",
                  "internalType": "bytes"
                },
                {
                  "name": "blsPublicKey",
                  "type": "bytes",
                  "internalType": "bytes"
                },
                {
                  "name": "weight",
                  "type": "uint64",
                  "internalType": "uint64"
                }
              ]
            }
          ]
        },
        {
          "name": "messageIndex",
          "type": "uint32",
          "internalType": "uint32"
        }
      ],
      "outputs": [],
      "stateMutability": "nonpayable"
    },
    {
      "type": "function",
      "name": "registeredValidators",
      "inputs": [
        {
          "name": "nodeID",
          "type": "bytes",
          "internalType": "bytes"
        }
      ],
      "outputs": [
        {
          "name": "",
          "type": "bytes32",
          "internalType": "bytes32"
        }
      ],
      "stateMutability": "view"
    },
    {
      "type": "function",
      "name": "resendEndValidatorMessage",
      "inputs": [
        {
          "name": "validationID",
          "type": "bytes32",
          "internalType": "bytes32"
        }
      ],
      "outputs": [],
      "stateMutability": "nonpayable"
    },
    {
      "type": "function",
      "name": "resendRegisterValidatorMessage",
      "inputs": [
        {
          "name": "validationID",
          "type": "bytes32",
          "internalType": "bytes32"
        }
      ],
      "outputs": [],
      "stateMutability": "nonpayable"
    },
    {
      "type": "function",
      "name": "resendUpdateDelegation",
      "inputs": [
        {
          "name": "delegationID",
          "type": "bytes32",
          "internalType": "bytes32"
        }
      ],
      "outputs": [],
      "stateMutability": "nonpayable"
    },
    {
      "type": "function",
      "name": "submitUptimeProof",
      "inputs": [
        {
          "name": "validationID",
          "type": "bytes32",
          "internalType": "bytes32"
        },
        {
          "name": "messageIndex",
          "type": "uint32",
          "internalType": "uint32"
        }
      ],
      "outputs": [],
      "stateMutability": "nonpayable"
    },
    {
      "type": "function",
      "name": "valueToWeight",
      "inputs": [
        {
          "name": "value",
          "type": "uint256",
          "internalType": "uint256"
        }
      ],
      "outputs": [
        {
          "name": "",
          "type": "uint64",
          "internalType": "uint64"
        }
      ],
      "stateMutability": "view"
    },
    {
      "type": "function",
      "name": "weightToValue",
      "inputs": [
        {
          "name": "weight",
          "type": "uint64",
          "internalType": "uint64"
        }
      ],
      "outputs": [
        {
          "name": "",
          "type": "uint256",
          "internalType": "uint256"
        }
      ],
      "stateMutability": "view"
    },
    {
      "type": "event",
      "name": "DelegationEnded",
      "inputs": [
        {
          "name": "delegationID",
          "type": "bytes32",
          "indexed": true,
          "internalType": "bytes32"
        },
        {
          "name": "validationID",
          "type": "bytes32",
          "indexed": true,
          "internalType": "bytes32"
        },
        {
          "name": "rewards",
          "type": "uint256",
          "indexed": false,
          "internalType": "uint256"
        },
        {
          "name": "fees",
          "type": "uint256",
          "indexed": false,
          "internalType": "uint256"
        }
      ],
      "anonymous": false
    },
    {
      "type": "event",
      "name": "DelegatorAdded",
      "inputs": [
        {
          "name": "delegationID",
          "type": "bytes32",
          "indexed": true,
          "internalType": "bytes32"
        },
        {
          "name": "validationID",
          "type": "bytes32",
          "indexed": true,
          "internalType": "bytes32"
        },
        {
          "name": "delegatorAddress",
          "type": "address",
          "indexed": true,
          "internalType": "address"
        },
        {
          "name": "nonce",
          "type": "uint64",
          "indexed": false,
          "internalType": "uint64"
        },
        {
          "name": "validatorWeight",
          "type": "uint64",
          "indexed": false,
          "internalType": "uint64"
        },
        {
          "name": "delegatorWeight",
          "type": "uint64",
          "indexed": false,
          "internalType": "uint64"
        },
        {
          "name": "setWeightMessageID",
          "type": "bytes32",
          "indexed": false,
          "internalType": "bytes32"
        }
      ],
      "anonymous": false
    },
    {
      "type": "event",
      "name": "DelegatorRegistered",
      "inputs": [
        {
          "name": "delegationID",
          "type": "bytes32",
          "indexed": true,
          "internalType": "bytes32"
        },
        {
          "name": "validationID",
          "type": "bytes32",
          "indexed": true,
          "internalType": "bytes32"
        },
        {
          "name": "startTime",
          "type": "uint256",
          "indexed": false,
          "internalType": "uint256"
        }
      ],
      "anonymous": false
    },
    {
      "type": "event",
      "name": "DelegatorRemovalInitialized",
      "inputs": [
        {
          "name": "delegationID",
          "type": "bytes32",
          "indexed": true,
          "internalType": "bytes32"
        },
        {
          "name": "validationID",
          "type": "bytes32",
          "indexed": true,
          "internalType": "bytes32"
        }
      ],
      "anonymous": false
    },
    {
      "type": "event",
      "name": "InitialValidatorCreated",
      "inputs": [
        {
          "name": "validationID",
          "type": "bytes32",
          "indexed": true,
          "internalType": "bytes32"
        },
        {
          "name": "weight",
          "type": "uint64",
          "indexed": false,
          "internalType": "uint64"
        },
        {
          "name": "nodeID",
          "type": "bytes",
          "indexed": false,
          "internalType": "bytes"
        }
      ],
      "anonymous": false
    },
    {
      "type": "event",
      "name": "Initialized",
      "inputs": [
        {
          "name": "version",
          "type": "uint64",
          "indexed": false,
          "internalType": "uint64"
        }
      ],
      "anonymous": false
    },
    {
      "type": "event",
      "name": "UptimeUpdated",
      "inputs": [
        {
          "name": "validationID",
          "type": "bytes32",
          "indexed": true,
          "internalType": "bytes32"
        },
        {
          "name": "uptime",
          "type": "uint64",
          "indexed": false,
          "internalType": "uint64"
        }
      ],
      "anonymous": false
    },
    {
      "type": "event",
      "name": "ValidationPeriodCreated",
      "inputs": [
        {
          "name": "validationID",
          "type": "bytes32",
          "indexed": true,
          "internalType": "bytes32"
        },
        {
          "name": "registerValidationMessageID",
          "type": "bytes32",
          "indexed": true,
          "internalType": "bytes32"
        },
        {
          "name": "weight",
          "type": "uint64",
          "indexed": false,
          "internalType": "uint64"
        },
        {
          "name": "nodeID",
          "type": "bytes",
          "indexed": false,
          "internalType": "bytes"
        },
        {
          "name": "registrationExpiry",
          "type": "uint64",
          "indexed": false,
          "internalType": "uint64"
        }
      ],
      "anonymous": false
    },
    {
      "type": "event",
      "name": "ValidationPeriodEnded",
      "inputs": [
        {
          "name": "validationID",
          "type": "bytes32",
          "indexed": true,
          "internalType": "bytes32"
        },
        {
          "name": "status",
          "type": "uint8",
          "indexed": true,
          "internalType": "enum ValidatorStatus"
        }
      ],
      "anonymous": false
    },
    {
      "type": "event",
      "name": "ValidationPeriodRegistered",
      "inputs": [
        {
          "name": "validationID",
          "type": "bytes32",
          "indexed": true,
          "internalType": "bytes32"
        },
        {
          "name": "weight",
          "type": "uint64",
          "indexed": false,
          "internalType": "uint64"
        },
        {
          "name": "timestamp",
          "type": "uint256",
          "indexed": false,
          "internalType": "uint256"
        }
      ],
      "anonymous": false
    },
    {
      "type": "event",
      "name": "ValidatorRemovalInitialized",
      "inputs": [
        {
          "name": "validationID",
          "type": "bytes32",
          "indexed": true,
          "internalType": "bytes32"
        },
        {
          "name": "setWeightMessageID",
          "type": "bytes32",
          "indexed": true,
          "internalType": "bytes32"
        },
        {
          "name": "weight",
          "type": "uint64",
          "indexed": false,
          "internalType": "uint64"
        },
        {
          "name": "endTime",
          "type": "uint256",
          "indexed": false,
          "internalType": "uint256"
        }
      ],
      "anonymous": false
    },
    {
      "type": "event",
      "name": "ValidatorWeightUpdate",
      "inputs": [
        {
          "name": "validationID",
          "type": "bytes32",
          "indexed": true,
          "internalType": "bytes32"
        },
        {
          "name": "nonce",
          "type": "uint64",
          "indexed": true,
          "internalType": "uint64"
        },
        {
          "name": "weight",
          "type": "uint64",
          "indexed": false,
          "internalType": "uint64"
        },
        {
          "name": "setWeightMessageID",
          "type": "bytes32",
          "indexed": false,
          "internalType": "bytes32"
        }
      ],
      "anonymous": false
    },
    {
      "type": "error",
      "name": "AddressInsufficientBalance",
      "inputs": [
        {
          "name": "account",
          "type": "address",
          "internalType": "address"
        }
      ]
    },
    {
      "type": "error",
      "name": "DelegatorIneligibleForRewards",
      "inputs": [
        {
          "name": "delegationID",
          "type": "bytes32",
          "internalType": "bytes32"
        }
      ]
    },
    {
      "type": "error",
      "name": "FailedInnerCall",
      "inputs": []
    },
    {
      "type": "error",
      "name": "InvalidBLSKeyLength",
      "inputs": [
        {
          "name": "length",
          "type": "uint256",
          "internalType": "uint256"
        }
      ]
    },
    {
      "type": "error",
      "name": "InvalidConversionID",
      "inputs": [
        {
          "name": "encodedConversionID",
          "type": "bytes32",
          "internalType": "bytes32"
        },
        {
          "name": "expectedConversionID",
          "type": "bytes32",
          "internalType": "bytes32"
        }
      ]
    },
    {
      "type": "error",
      "name": "InvalidDelegationFee",
      "inputs": [
        {
          "name": "delegationFeeBips",
          "type": "uint16",
          "internalType": "uint16"
        }
      ]
    },
    {
      "type": "error",
      "name": "InvalidDelegationID",
      "inputs": [
        {
          "name": "delegationID",
          "type": "bytes32",
          "internalType": "bytes32"
        }
      ]
    },
    {
      "type": "error",
      "name": "InvalidDelegatorStatus",
      "inputs": [
        {
          "name": "status",
          "type": "uint8",
          "internalType": "enum DelegatorStatus"
        }
      ]
    },
    {
      "type": "error",
      "name": "InvalidInitialization",
      "inputs": []
    },
    {
      "type": "error",
      "name": "InvalidInitializationStatus",
      "inputs": []
    },
    {
      "type": "error",
      "name": "InvalidMaximumChurnPercentage",
      "inputs": [
        {
          "name": "maximumChurnPercentage",
          "type": "uint8",
          "internalType": "uint8"
        }
      ]
    },
    {
      "type": "error",
      "name": "InvalidMinStakeDuration",
      "inputs": [
        {
          "name": "minStakeDuration",
          "type": "uint64",
          "internalType": "uint64"
        }
      ]
    },
    {
      "type": "error",
      "name": "InvalidNodeID",
      "inputs": [
        {
          "name": "nodeID",
          "type": "bytes",
          "internalType": "bytes"
        }
      ]
    },
    {
      "type": "error",
      "name": "InvalidNonce",
      "inputs": [
        {
          "name": "nonce",
          "type": "uint64",
          "internalType": "uint64"
        }
      ]
    },
    {
      "type": "error",
      "name": "InvalidPChainOwnerThreshold",
      "inputs": [
        {
          "name": "threshold",
          "type": "uint256",
          "internalType": "uint256"
        },
        {
          "name": "addressesLength",
          "type": "uint256",
          "internalType": "uint256"
        }
      ]
    },
    {
      "type": "error",
      "name": "InvalidRegistrationExpiry",
      "inputs": [
        {
          "name": "registrationExpiry",
          "type": "uint64",
          "internalType": "uint64"
        }
      ]
    },
    {
      "type": "error",
      "name": "InvalidRewardRecipient",
      "inputs": [
        {
          "name": "rewardRecipient",
          "type": "address",
          "internalType": "address"
        }
      ]
    },
    {
      "type": "error",
      "name": "InvalidStakeAmount",
      "inputs": [
        {
          "name": "stakeAmount",
          "type": "uint256",
          "internalType": "uint256"
        }
      ]
    },
    {
      "type": "error",
      "name": "InvalidStakeMultiplier",
      "inputs": [
        {
          "name": "maximumStakeMultiplier",
          "type": "uint8",
          "internalType": "uint8"
        }
      ]
    },
    {
      "type": "error",
      "name": "InvalidTotalWeight",
      "inputs": [
        {
          "name": "weight",
          "type": "uint64",
          "internalType": "uint64"
        }
      ]
    },
    {
      "type": "error",
      "name": "InvalidUptimeBlockchainID",
      "inputs": [
        {
          "name": "uptimeBlockchainID",
          "type": "bytes32",
          "internalType": "bytes32"
        }
      ]
    },
    {
      "type": "error",
      "name": "InvalidValidationID",
      "inputs": [
        {
          "name": "validationID",
          "type": "bytes32",
          "internalType": "bytes32"
        }
      ]
    },
    {
      "type": "error",
      "name": "InvalidValidatorManagerAddress",
      "inputs": [
        {
          "name": "validatorManagerAddress",
          "type": "address",
          "internalType": "address"
        }
      ]
    },
    {
      "type": "error",
      "name": "InvalidValidatorManagerBlockchainID",
      "inputs": [
        {
          "name": "blockchainID",
          "type": "bytes32",
          "internalType": "bytes32"
        }
      ]
    },
    {
      "type": "error",
      "name": "InvalidValidatorStatus",
      "inputs": [
        {
          "name": "status",
          "type": "uint8",
          "internalType": "enum ValidatorStatus"
        }
      ]
    },
    {
      "type": "error",
      "name": "InvalidWarpMessage",
      "inputs": []
    },
    {
      "type": "error",
      "name": "InvalidWarpOriginSenderAddress",
      "inputs": [
        {
          "name": "senderAddress",
          "type": "address",
          "internalType": "address"
        }
      ]
    },
    {
      "type": "error",
      "name": "InvalidWarpSourceChainID",
      "inputs": [
        {
          "name": "sourceChainID",
          "type": "bytes32",
          "internalType": "bytes32"
        }
      ]
    },
    {
      "type": "error",
      "name": "MaxChurnRateExceeded",
      "inputs": [
        {
          "name": "churnAmount",
          "type": "uint64",
          "internalType": "uint64"
        }
      ]
    },
    {
      "type": "error",
      "name": "MaxWeightExceeded",
      "inputs": [
        {
          "name": "newValidatorWeight",
          "type": "uint64",
          "internalType": "uint64"
        }
      ]
    },
    {
      "type": "error",
      "name": "MinStakeDurationNotPassed",
      "inputs": [
        {
          "name": "endTime",
          "type": "uint64",
          "internalType": "uint64"
        }
      ]
    },
    {
      "type": "error",
      "name": "NodeAlreadyRegistered",
      "inputs": [
        {
          "name": "nodeID",
          "type": "bytes",
          "internalType": "bytes"
        }
      ]
    },
    {
      "type": "error",
      "name": "NotInitializing",
      "inputs": []
    },
    {
      "type": "error",
      "name": "PChainOwnerAddressesNotSorted",
      "inputs": []
    },
    {
      "type": "error",
      "name": "ReentrancyGuardReentrantCall",
      "inputs": []
    },
    {
      "type": "error",
      "name": "UnauthorizedOwner",
      "inputs": [
        {
          "name": "sender",
          "type": "address",
          "internalType": "address"
        }
      ]
    },
    {
      "type": "error",
      "name": "UnexpectedRegistrationStatus",
      "inputs": [
        {
          "name": "validRegistration",
          "type": "bool",
          "internalType": "bool"
        }
      ]
    },
    {
      "type": "error",
      "name": "ValidatorIneligibleForRewards",
      "inputs": [
        {
          "name": "validationID",
          "type": "bytes32",
          "internalType": "bytes32"
        }
      ]
    },
    {
      "type": "error",
      "name": "ValidatorNotPoS",
      "inputs": [
        {
          "name": "validationID",
          "type": "bytes32",
          "internalType": "bytes32"
        }
      ]
    },
    {
      "type": "error",
      "name": "ZeroWeightToValueFactor",
      "inputs": []
    }
  ],
  "bytecode": {
    "object": "0x608060405234801561000f575f80fd5b50604051615c6e380380615c6e83398101604081905261002e91610107565b60018160018111156100425761004261012c565b0361004f5761004f610055565b50610140565b7ff0c57e16840df040f15088dc2f81fe391c3923bec73e23a9662efc9c229c6a00805468010000000000000000900460ff16156100a55760405163f92ee8a960e01b815260040160405180910390fd5b80546001600160401b03908116146101045780546001600160401b0319166001600160401b0390811782556040519081527fc7f505b2f371ae2175ee4913f4499e1f2633a7b5936321eed1cdaeb6115181d29060200160405180910390a15b50565b5f60208284031215610117575f80fd5b815160028110610125575f80fd5b9392505050565b634e487b7160e01b5f52602160045260245ffd5b615b218061014d5f395ff3fe608060405260043610610228575f3560e01c80637d8d2f7711610129578063b771b3bc116100a8578063c974d1b61161006d578063c974d1b614610666578063d5f20ff61461067a578063df93d8de146106a6578063fb8b11dd146106bc578063fd7ac5e7146106db575f80fd5b8063b771b3bc146105db578063ba3a4b97146105f5578063bc5fbfec14610614578063bee0a03f14610634578063c599e24f14610653575f80fd5b80639ae06447116100ee5780639ae0644714610557578063a3a65e4814610576578063a9778a7a1461037c578063af2f5feb14610595578063afb98096146105a8575f80fd5b80637d8d2f77146104c757806380dd672f146104e65780638280a25a146105055780638ef34c981461051957806393e2459814610538575f80fd5b806335455ded116101b557806360305d621161017a57806360305d621461042057806360ad7784146104495780636206585614610468578063732214f81461049557806376f78621146104a8575f80fd5b806335455ded1461037c57806337b9be8f146103a45780633a1cfff6146103c3578063467ef06f146103e25780635dd6a6cb14610401575f80fd5b80631ec44724116101fb5780631ec44724146102b657806320d91b7a146102d557806325e1c776146102f45780632e2194d814610313578063329c3e121461034a575f80fd5b80630118acc41461022c5780630322ed981461024d5780630ba512d11461026c578063151d30d11461028b575b5f80fd5b348015610237575f80fd5b5061024b610246366004614ac4565b6106fa565b005b348015610258575f80fd5b5061024b610267366004614aff565b61070b565b348015610277575f80fd5b5061024b610286366004614b16565b61099b565b348015610296575f80fd5b5061029f600a81565b60405160ff90911681526020015b60405180910390f35b3480156102c1575f80fd5b5061024b6102d0366004614ac4565b610a78565b3480156102e0575f80fd5b5061024b6102ef366004614b2d565b610a84565b3480156102ff575f80fd5b5061024b61030e366004614b7b565b611023565b34801561031e575f80fd5b5061033261032d366004614aff565b611097565b6040516001600160401b0390911681526020016102ad565b348015610355575f80fd5b506103646001600160991b0181565b6040516001600160a01b0390911681526020016102ad565b348015610387575f80fd5b5061039161271081565b60405161ffff90911681526020016102ad565b3480156103af575f80fd5b5061024b6103be366004614bb0565b6110eb565b3480156103ce575f80fd5b5061024b6103dd366004614ac4565b6110fe565b3480156103ed575f80fd5b5061024b6103fc366004614bfe565b61110a565b34801561040c575f80fd5b5061024b61041b366004614bb0565b6111dc565b34801561042b575f80fd5b50610434601481565b60405163ffffffff90911681526020016102ad565b348015610454575f80fd5b5061024b610463366004614b7b565b6111e8565b348015610473575f80fd5b50610487610482366004614c2b565b6114b0565b6040519081526020016102ad565b3480156104a0575f80fd5b506104875f81565b3480156104b3575f80fd5b5061024b6104c2366004614ac4565b6114d0565b3480156104d2575f80fd5b5061024b6104e1366004614bb0565b6114dc565b3480156104f1575f80fd5b5061024b610500366004614b7b565b6114e8565b348015610510575f80fd5b5061029f603081565b348015610524575f80fd5b5061024b610533366004614c46565b611722565b348015610543575f80fd5b5061024b610552366004614aff565b6117d3565b348015610562575f80fd5b5061024b610571366004614bb0565b611867565b348015610581575f80fd5b5061024b610590366004614bfe565b611873565b6104876105a3366004614c85565b611a69565b3480156105b3575f80fd5b506104877f4317713f7ecbdddd4bc99e95d903adedaa883b2e7c2551610bd13e2c7e473d0081565b3480156105e6575f80fd5b506103646005600160991b0181565b348015610600575f80fd5b5061024b61060f366004614aff565b611a9d565b34801561061f575f80fd5b506104875f80516020615ab583398151915281565b34801561063f575f80fd5b5061024b61064e366004614aff565b611cf6565b610487610661366004614aff565b611e32565b348015610671575f80fd5b5061029f601481565b348015610685575f80fd5b50610699610694366004614aff565b611e63565b6040516102ad9190614d5b565b3480156106b1575f80fd5b506103326202a30081565b3480156106c7575f80fd5b5061024b6106d6366004614c46565b611fb2565b3480156106e6575f80fd5b506104876106f5366004614ddb565b612049565b6107068383835f6120a4565b505050565b5f8181525f80516020615ad58339815191526020526040808220815160e0810190925280545f80516020615ab583398151915293929190829060ff16600581111561075857610758614ce6565b600581111561076957610769614ce6565b815260200160018201805461077d90614e46565b80601f01602080910402602001604051908101604052809291908181526020018280546107a990614e46565b80156107f45780601f106107cb576101008083540402835291602001916107f4565b820191905f5260205f20905b8154815290600101906020018083116107d757829003601f168201915b505050918352505060028201546001600160401b038082166020840152600160401b820481166040840152600160801b820481166060840152600160c01b909104811660808301526003928301541660a0909101529091508151600581111561085f5761085f614ce6565b1461089b575f8381526005830160205260409081902054905163170cc93360e21b81526108929160ff1690600401614e78565b60405180910390fd5b606081015160405163854a893f60e01b8152600481018590526001600160401b0390911660248201525f60448201526005600160991b019063ee5b48eb9073__$fd0c147b4031eef6079b0498cbafa865f0$__9063854a893f906064015f60405180830381865af4158015610912573d5f803e3d5ffd5b505050506040513d5f823e601f3d908101601f191682016040526109399190810190614f81565b6040518263ffffffff1660e01b81526004016109559190614fb2565b6020604051808303815f875af1158015610971573d5f803e3d5ffd5b505050506040513d601f19601f820116820180604052508101906109959190614fc4565b50505050565b7ff0c57e16840df040f15088dc2f81fe391c3923bec73e23a9662efc9c229c6a00805460029190600160401b900460ff16806109e4575080546001600160401b03808416911610155b15610a025760405163f92ee8a960e01b815260040160405180910390fd5b805468ffffffffffffffffff19166001600160401b03831617600160401b178155610a2c836120d0565b805460ff60401b191681556040516001600160401b03831681527fc7f505b2f371ae2175ee4913f4499e1f2633a7b5936321eed1cdaeb6115181d29060200160405180910390a1505050565b6109958383835f6120e1565b7fe92546d698950ddd38910d2e15ed1d923cd0a7b3dde9e2a6a3f380565559cb07545f80516020615ab58339815191529060ff1615610ad657604051637fab81e560e01b815260040160405180910390fd5b6005600160991b016001600160a01b0316634213cf786040518163ffffffff1660e01b8152600401602060405180830381865afa158015610b19573d5f803e3d5ffd5b505050506040513d601f19601f82011682018060405250810190610b3d9190614fc4565b836020013514610b66576040516372b0a7e760e11b815260208401356004820152602401610892565b30610b776060850160408601614fdb565b6001600160a01b031614610bba57610b956060840160408501614fdb565b604051632f88120d60e21b81526001600160a01b039091166004820152602401610892565b5f610bc86060850185614ff6565b905090505f805b828163ffffffff161015610e19575f610beb6060880188614ff6565b8363ffffffff16818110610c0157610c0161503b565b9050602002810190610c13919061504f565b610c1c906150ba565b80516040519192505f916006880191610c3491615135565b90815260200160405180910390205414610c6457805160405163a41f772f60e01b81526108929190600401614fb2565b5f6002885f013584604051602001610c9392919091825260e01b6001600160e01b031916602082015260240190565b60408051601f1981840301815290829052610cad91615135565b602060405180830381855afa158015610cc8573d5f803e3d5ffd5b5050506040513d601f19601f82011682018060405250810190610ceb9190614fc4565b90508086600601835f0151604051610d039190615135565b90815260408051918290036020908101909220929092555f8381526005890190915220805460ff191660021781558251600190910190610d43908261518a565b50604082810180515f84815260058a016020529290922060028101805492516001600160401b039485166001600160c01b031990941693909317600160801b85851602176001600160c01b0316600160c01b429590951694909402939093179092556003909101805467ffffffffffffffff19169055610dc39085615259565b9350807fd80a750132c7a4fb67e226bdfecab0d8609bbb4e48cdad62cee218f25b758fff8360400151845f0151604051610dfe929190615279565b60405180910390a2505080610e129061529a565b9050610bcf565b5060038301805467ffffffffffffffff60401b1916600160401b6001600160401b0384168102919091179091556001840154606491610e5c910460ff16836152bc565b6001600160401b03161015610e8f57604051633e1a785160e01b81526001600160401b0382166004820152602401610892565b5f73__$fd0c147b4031eef6079b0498cbafa865f0$__634d847884610eb387612416565b604001516040518263ffffffff1660e01b8152600401610ed39190614fb2565b602060405180830381865af4158015610eee573d5f803e3d5ffd5b505050506040513d601f19601f82011682018060405250810190610f129190614fc4565b90505f73__$fd0c147b4031eef6079b0498cbafa865f0$__6387418b8e886040518263ffffffff1660e01b8152600401610f4c9190615412565b5f60405180830381865af4158015610f66573d5f803e3d5ffd5b505050506040513d5f823e601f3d908101601f19168201604052610f8d9190810190614f81565b90505f600282604051610fa09190615135565b602060405180830381855afa158015610fbb573d5f803e3d5ffd5b5050506040513d601f19601f82011682018060405250810190610fde9190614fc4565b905082811461100a5760405163baaea89d60e01b81526004810182905260248101849052604401610892565b5050506007909201805460ff1916600117905550505050565b61102c8261252c565b61104c576040516330efa98b60e01b815260048101839052602401610892565b5f61105683611e63565b519050600281600581111561106d5761106d614ce6565b1461108d578060405163170cc93360e21b81526004016108929190614e78565b6109958383612555565b5f806110a16127f4565b600301546110af90846154a6565b90508015806110c457506001600160401b0381115b156110e55760405163222d164360e21b815260048101849052602401610892565b92915050565b6110f7848484846120e1565b5050505050565b6109958383835f612818565b611112612a55565b5f61111b6127f4565b90505f8061112884612a8c565b915091506111358261252c565b611141575050506111c3565b5f828152600684016020908152604080832054600b870190925290912080546001600160a01b031981169091556001600160a01b039182169116806111835750805b60048351600581111561119857611198614ce6565b036111a7576111a78185612e44565b6111bd826111b885604001516114b0565b612e6e565b50505050505b6111d960015f80516020615af583398151915255565b50565b61099584848484612e94565b5f6111f16127f4565b5f848152600782016020526040808220815160e0810190925280549394509192909190829060ff16600381111561122a5761122a614ce6565b600381111561123b5761123b614ce6565b8152815461010090046001600160a01b0316602082015260018201546040808301919091526002909201546001600160401b038082166060840152600160401b820481166080840152600160801b8204811660a0840152600160c01b9091041660c0909101528101519091505f6112b182611e63565b90506001835160038111156112c8576112c8614ce6565b146112e9578251604051633b0d540d60e21b815261089291906004016154c5565b6004815160058111156112fe576112fe614ce6565b036113145761130c86612ec0565b505050505050565b5f8073__$fd0c147b4031eef6079b0498cbafa865f0$__6350782b0f61133989612416565b604001516040518263ffffffff1660e01b81526004016113599190614fb2565b606060405180830381865af4158015611374573d5f803e3d5ffd5b505050506040513d601f19601f8201168201806040525081019061139891906154df565b50915091508184146113c557846040015160405163089938b360e11b815260040161089291815260200190565b806001600160401b031683606001516001600160401b031610806113fe5750806001600160401b03168560a001516001600160401b0316115b1561142757604051632e19bc2d60e11b81526001600160401b0382166004820152602401610892565b5f888152600787016020908152604091829020805460ff1916600290811782550180546001600160401b034216600160401b810267ffffffffffffffff60401b1990921691909117909155915191825285918a917f047059b465069b8b751836b41f9f1d83daff583d2238cc7fbb461437ec23a4f6910160405180910390a35050505050505050565b5f6114b96127f4565b600301546110e5906001600160401b038416615514565b6107068383835f612e94565b6110f784848484612818565b6114f0612a55565b5f6114f96127f4565b5f848152600782016020526040808220815160e0810190925280549394509192909190829060ff16600381111561153257611532614ce6565b600381111561154357611543614ce6565b8152815461010090046001600160a01b03166020820152600182015460408201526002909101546001600160401b038082166060840152600160401b820481166080840152600160801b8204811660a0840152600160c01b9091041660c09091015290506003815160038111156115bc576115bc614ce6565b146115dd578051604051633b0d540d60e21b815261089291906004016154c5565b60046115ec8260400151611e63565b5160058111156115fe576115fe614ce6565b146116fd575f61160d84612416565b90505f8073__$fd0c147b4031eef6079b0498cbafa865f0$__6350782b0f84604001516040518263ffffffff1660e01b815260040161164c9190614fb2565b606060405180830381865af4158015611667573d5f803e3d5ffd5b505050506040513d601f19601f8201168201806040525081019061168b91906154df565b5091509150818460400151146116b75760405163089938b360e11b815260048101839052602401610892565b806001600160401b03168460c001516001600160401b031611156116f957604051632e19bc2d60e11b81526001600160401b0382166004820152602401610892565b5050505b61170684612ec0565b505061171e60015f80516020615af583398151915255565b5050565b5f61172b6127f4565b90506001600160a01b03821661175f5760405163caa903f960e01b81526001600160a01b0383166004820152602401610892565b5f8381526006820160205260409020546001600160a01b031633146117a557335b604051636e2ccd7560e11b81526001600160a01b039091166004820152602401610892565b5f928352600b01602052604090912080546001600160a01b0319166001600160a01b03909216919091179055565b5f6117dc6127f4565b90505f6117e883611e63565b51905060048160058111156117ff576117ff614ce6565b1461181f578060405163170cc93360e21b81526004016108929190614e78565b5f8381526006830160205260409020546001600160a01b031633146118445733611780565b5f838152600683016020526040902054610706906001600160a01b031684612e44565b610995848484846120a4565b5f80516020615ab58339815191525f8073__$fd0c147b4031eef6079b0498cbafa865f0$__63021de88f6118a686612416565b604001516040518263ffffffff1660e01b81526004016118c69190614fb2565b6040805180830381865af41580156118e0573d5f803e3d5ffd5b505050506040513d601f19601f82011682018060405250810190611904919061552b565b915091508061192a57604051632d07135360e01b81528115156004820152602401610892565b5f8281526004840160205260409020805461194490614e46565b90505f036119685760405163089938b360e11b815260048101839052602401610892565b60015f838152600580860160205260409091205460ff169081111561198f5761198f614ce6565b146119c2575f8281526005840160205260409081902054905163170cc93360e21b81526108929160ff1690600401614e78565b5f82815260048401602052604081206119da91614a18565b5f828152600584016020908152604091829020805460ff1916600290811782550180546001600160401b0342818116600160c01b026001600160c01b0390931692909217928390558451600160801b9093041682529181019190915283917f8629ec2bfd8d3b792ba269096bb679e08f20ba2caec0785ef663cf94788e349b910160405180910390a250505050565b5f611a72612a55565b611a7e848484346130ba565b9050611a9660015f80516020615af583398151915255565b9392505050565b5f611aa66127f4565b5f838152600782016020526040808220815160e0810190925280549394509192909190829060ff166003811115611adf57611adf614ce6565b6003811115611af057611af0614ce6565b8152815461010090046001600160a01b0316602082015260018083015460408301526002909201546001600160401b038082166060840152600160401b820481166080840152600160801b8204811660a0840152600160c01b9091041660c09091015290915081516003811115611b6957611b69614ce6565b14158015611b8a5750600381516003811115611b8757611b87614ce6565b14155b15611bab578051604051633b0d540d60e21b815261089291906004016154c5565b5f611bb98260400151611e63565b905080606001516001600160401b03165f03611beb576040516339b894f960e21b815260048101859052602401610892565b60408083015160608301516080840151925163854a893f60e01b81526005600160991b019363ee5b48eb9373__$fd0c147b4031eef6079b0498cbafa865f0$__9363854a893f93611c5993906004019283526001600160401b03918216602084015216604082015260600190565b5f60405180830381865af4158015611c73573d5f803e3d5ffd5b505050506040513d5f823e601f3d908101601f19168201604052611c9a9190810190614f81565b6040518263ffffffff1660e01b8152600401611cb69190614fb2565b6020604051808303815f875af1158015611cd2573d5f803e3d5ffd5b505050506040513d601f19601f820116820180604052508101906110f79190614fc4565b5f8181527fe92546d698950ddd38910d2e15ed1d923cd0a7b3dde9e2a6a3f380565559cb046020526040902080545f80516020615ab58339815191529190611d3d90614e46565b90505f03611d615760405163089938b360e11b815260048101839052602401610892565b60015f838152600580840160205260409091205460ff1690811115611d8857611d88614ce6565b14611dbb575f8281526005820160205260409081902054905163170cc93360e21b81526108929160ff1690600401614e78565b5f8281526004808301602052604091829020915163ee5b48eb60e01b81526005600160991b019263ee5b48eb92611df2920161554e565b6020604051808303815f875af1158015611e0e573d5f803e3d5ffd5b505050506040513d601f19601f820116820180604052508101906107069190614fc4565b5f611e3b612a55565b611e4682333461322f565b9050611e5e60015f80516020615af583398151915255565b919050565b611e6b614a4f565b5f8281525f80516020615ad5833981519152602052604090819020815160e0810190925280545f80516020615ab5833981519152929190829060ff166005811115611eb857611eb8614ce6565b6005811115611ec957611ec9614ce6565b8152602001600182018054611edd90614e46565b80601f0160208091040260200160405190810160405280929190818152602001828054611f0990614e46565b8015611f545780601f10611f2b57610100808354040283529160200191611f54565b820191905f5260205f20905b815481529060010190602001808311611f3757829003601f168201915b505050918352505060028201546001600160401b038082166020840152600160401b820481166040840152600160801b820481166060840152600160c01b9091048116608083015260039092015490911660a0909101529392505050565b6001600160a01b038116611fe45760405163caa903f960e01b81526001600160a01b0382166004820152602401610892565b5f611fed6127f4565b5f8481526007820160205260409020549091506001600160a01b0361010090910416331461201b5733611780565b5f928352600901602052604090912080546001600160a01b0319166001600160a01b03909216919091179055565b6040515f905f80516020615ab5833981519152907fe92546d698950ddd38910d2e15ed1d923cd0a7b3dde9e2a6a3f380565559cb069061208c90869086906155d8565b90815260200160405180910390205491505092915050565b6120b0848484846120e1565b61099557604051631036cf9160e11b815260048101859052602401610892565b6120d861346f565b6111d9816134ba565b5f806120eb6127f4565b5f878152600782016020526040808220815160e0810190925280549394509192909190829060ff16600381111561212457612124614ce6565b600381111561213557612135614ce6565b8152815461010090046001600160a01b0316602082015260018201546040808301919091526002909201546001600160401b038082166060840152600160401b820481166080840152600160801b8204811660a0840152600160c01b9091041660c0909101528101519091505f6121ab82611e63565b90506002835160038111156121c2576121c2614ce6565b146121e3578251604051633b0d540d60e21b815261089291906004016154c5565b60208301516001600160a01b0316331461227f575f8281526006850160205260409020546001600160a01b0316331461221c5733611780565b5f82815260068501602052604090205460a082015161224b91600160b01b90046001600160401b031690615259565b6001600160401b031642101561227f5760405163fb6ce63f60e01b81526001600160401b0342166004820152602401610892565b60028151600581111561229457612294614ce6565b036123b657600284015460808401516122b6916001600160401b031690615259565b6001600160401b03164210156122ea5760405163fb6ce63f60e01b81526001600160401b0342166004820152602401610892565b87156122fc576122fa8288612555565b505b5f8981526007850160205260409020805460ff191660031790556060830151608082015161233591849161233091906155e7565b613534565b505f8a8152600786016020526040812060020180546001600160401b03909316600160c01b026001600160c01b039093169290921790915561237884888c61370b565b9050828a7f366d336c0ab380dc799f095a6f82a26326585c52909cc698b09ba4540709ed5760405160405180910390a31515945061240e9350505050565b6004815160058111156123cb576123cb614ce6565b036123f2576123db83878b61370b565b506123e589612ec0565b600194505050505061240e565b805160405163170cc93360e21b81526108929190600401614e78565b949350505050565b60408051606080820183525f8083526020830152918101919091526040516306f8253560e41b815263ffffffff831660048201525f9081906005600160991b0190636f825350906024015f60405180830381865afa15801561247a573d5f803e3d5ffd5b505050506040513d5f823e601f3d908101601f191682016040526124a19190810190615607565b91509150806124c357604051636b2f19e960e01b815260040160405180910390fd5b8151156124e9578151604051636ba589a560e01b81526004810191909152602401610892565b60208201516001600160a01b031615612525576020820151604051624de75d60e31b81526001600160a01b039091166004820152602401610892565b5092915050565b5f806125366127f4565b5f938452600601602052505060409020546001600160a01b0316151590565b6040516306f8253560e41b815263ffffffff821660048201525f90819081906005600160991b0190636f825350906024015f60405180830381865afa1580156125a0573d5f803e3d5ffd5b505050506040513d5f823e601f3d908101601f191682016040526125c79190810190615607565b91509150806125e957604051636b2f19e960e01b815260040160405180910390fd5b5f6125f26127f4565b6005810154845191925014612620578251604051636ba589a560e01b81526004810191909152602401610892565b60208301516001600160a01b03161561265c576020830151604051624de75d60e31b81526001600160a01b039091166004820152602401610892565b60208301516001600160a01b031615612698576020830151604051624de75d60e31b81526001600160a01b039091166004820152602401610892565b5f8073__$fd0c147b4031eef6079b0498cbafa865f0$__63088c246386604001516040518263ffffffff1660e01b81526004016126d59190614fb2565b6040805180830381865af41580156126ef573d5f803e3d5ffd5b505050506040513d601f19601f820116820180604052508101906127139190615697565b9150915081881461273a5760405163089938b360e11b815260048101899052602401610892565b5f8881526006840160205260409020600101546001600160401b0390811690821611156127cb575f888152600684016020908152604091829020600101805467ffffffffffffffff19166001600160401b038516908117909155915191825289917fec44148e8ff271f2d0bacef1142154abacb0abb3a29eb3eb50e2ca97e86d0435910160405180910390a26127e9565b505f8781526006830160205260409020600101546001600160401b03165b979650505050505050565b7f4317713f7ecbdddd4bc99e95d903adedaa883b2e7c2551610bd13e2c7e473d0090565b5f806128226127f4565b90505f61282e876138f9565b90506128398761252c565b6128485760019250505061240e565b5f8781526006830160205260409020546001600160a01b0316331461286d5733611780565b5f87815260068301602052604090205460a082015161289c91600160b01b90046001600160401b031690615259565b6001600160401b03168160c001516001600160401b031610156128e35760c081015160405163fb6ce63f60e01b81526001600160401b039091166004820152602401610892565b5f86156128fb576128f48887612555565b9050612919565b505f8781526006830160205260409020600101546001600160401b03165b600483015460408301515f916001600160a01b031690634f22429f9061293e906114b0565b60a086015160c087015160405160e085901b6001600160e01b031916815260048101939093526001600160401b03918216602484018190526044840152811660648301528516608482015260a401602060405180830381865afa1580156129a7573d5f803e3d5ffd5b505050506040513d601f19601f820116820180604052508101906129cb9190614fc4565b90506001600160a01b0386166129f7575f8981526006850160205260409020546001600160a01b031695505b5f898152600a8501602052604081208054839290612a169084906156ba565b90915550505f898152600b909401602052604090932080546001600160a01b0387166001600160a01b0319909116179055505015159050949350505050565b5f80516020615af5833981519152805460011901612a8657604051633ee5aeb560e01b815260040160405180910390fd5b60029055565b5f612a95614a4f565b5f80516020615ab58339815191525f8073__$fd0c147b4031eef6079b0498cbafa865f0$__63021de88f612ac888612416565b604001516040518263ffffffff1660e01b8152600401612ae89190614fb2565b6040805180830381865af4158015612b02573d5f803e3d5ffd5b505050506040513d601f19601f82011682018060405250810190612b26919061552b565b915091508015612b4d57604051632d07135360e01b81528115156004820152602401610892565b5f82815260058085016020526040808320815160e08101909252805491929091839160ff90911690811115612b8457612b84614ce6565b6005811115612b9557612b95614ce6565b8152602001600182018054612ba990614e46565b80601f0160208091040260200160405190810160405280929190818152602001828054612bd590614e46565b8015612c205780601f10612bf757610100808354040283529160200191612c20565b820191905f5260205f20905b815481529060010190602001808311612c0357829003601f168201915b505050918352505060028201546001600160401b038082166020840152600160401b820481166040840152600160801b820481166060840152600160c01b909104811660808301526003928301541660a09091015290915081516005811115612c8b57612c8b614ce6565b14158015612cac5750600181516005811115612ca957612ca9614ce6565b14155b15612ccd57805160405163170cc93360e21b81526108929190600401614e78565b600381516005811115612ce257612ce2614ce6565b03612cf05760048152612cf5565b600581525b836006018160200151604051612d0b9190615135565b90815260408051602092819003830190205f90819055858152600587810190935220825181548493839160ff1916906001908490811115612d4e57612d4e614ce6565b021790555060208201516001820190612d67908261518a565b5060408201516002820180546060850151608086015160a08701516001600160401b039586166001600160801b031990941693909317600160401b92861692909202919091176001600160801b0316600160801b918516919091026001600160c01b031617600160c01b9184169190910217905560c0909201516003909101805467ffffffffffffffff19169190921617905580516005811115612e0d57612e0d614ce6565b60405184907f1c08e59656f1a18dc2da76826cdc52805c43e897a17c50faefb8ab3c1526cc16905f90a39196919550909350505050565b5f612e4d6127f4565b5f838152600a82016020526040812080549190559091506109958482613bde565b61171e6001600160a01b03831682613c3c565b60015f80516020615af583398151915255565b612ea084848484612818565b61099557604051635bff683f60e11b815260048101859052602401610892565b5f612ec96127f4565b5f838152600782016020526040808220815160e0810190925280549394509192909190829060ff166003811115612f0257612f02614ce6565b6003811115612f1357612f13614ce6565b8152815461010090046001600160a01b0316602082015260018201546040808301919091526002909201546001600160401b038082166060840152600160401b820481166080840152600160801b8204811660a0840152600160c01b9091041660c090910152810151909150612fb07fe92546d698950ddd38910d2e15ed1d923cd0a7b3dde9e2a6a3f380565559cb01546001600160401b031690565b8260800151612fbf9190615259565b6001600160401b0316421015612ff35760405163fb6ce63f60e01b81526001600160401b0342166004820152602401610892565b5f848152600784016020908152604080832080546001600160a81b03191681556001810184905560020183905560098601909152902080546001600160a01b031981169091556001600160a01b03168061304e575060208201515b5f8061305b838886613ccf565b9150915061307485602001516111b887606001516114b0565b6040805183815260208101839052859189917f8ececf510070c320d9a55323ffabe350e294ae505fc0c509dc5736da6f5cc993910160405180910390a350505050505050565b5f806130c46127f4565b600281015490915061ffff600160401b909104811690861610806130ed575061271061ffff8616115b1561311157604051635f12e6c360e11b815261ffff86166004820152602401610892565b60028101546001600160401b03908116908516101561314d576040516202a06d60e11b81526001600160401b0385166004820152602401610892565b805483108061315f5750806001015483115b156131805760405163222d164360e21b815260048101849052602401610892565b825f61318b82611097565b90505f6131988983613d7c565b5f818152600686016020908152604080832080546001600160401b039c909c16600160b01b0267ffffffffffffffff60b01b1961ffff9e909e16600160a01b02336001600160b01b0319909e168e17179d909d169c909c178c556001909b01805467ffffffffffffffff19169055600b9096019095529790932080546001600160a01b031916909617909555509395945050505050565b5f806132396127f4565b90505f61324584611097565b90505f61325187611e63565b905061325c8761252c565b61327c576040516330efa98b60e01b815260048101889052602401610892565b60028151600581111561329157613291614ce6565b146132b257805160405163170cc93360e21b81526108929190600401614e78565b5f8282608001516132c39190615259565b905083600201600a9054906101000a90046001600160401b031682604001516132ec91906152bc565b6001600160401b0316816001600160401b0316111561332957604051636d51fe0560e11b81526001600160401b0382166004820152602401610892565b5f806133358a84613534565b915091505f8a8360405160200161336392919091825260c01b6001600160c01b031916602082015260280190565b60408051601f1981840301815291815281516020928301205f81815260078b019093529120805491925060019160ff1916828002179055505f8181526007880160209081526040918290208054610100600160a81b0319166101006001600160a01b038f16908102919091178255600182018f9055600290910180546001600160401b038b81166001600160c01b03199092168217600160801b8a8316908102919091176001600160c01b031690935585519283528916938201939093529283019190915260608201849052908c9083907fb0024b263bc3a0b728a6edea50a69efa841189f8d32ee8af9d1c2b1a1a2234269060800160405180910390a49a9950505050505050505050565b7ff0c57e16840df040f15088dc2f81fe391c3923bec73e23a9662efc9c229c6a0054600160401b900460ff166134b857604051631afcd79f60e31b815260040160405180910390fd5b565b6134c261346f565b6134cb816142ca565b6134d36142e3565b6111d9606082013560808301356134f060c0850160a08601614c2b565b61350060e0860160c087016156cd565b613511610100870160e088016156e6565b61010087013561352961014089016101208a01614fdb565b8861014001356142f3565b5f8281525f80516020615ad5833981519152602052604081206002015481905f80516020615ab583398151915290600160801b90046001600160401b031661357c85826144d8565b5f61358687614742565b5f888152600585016020526040808220600201805467ffffffffffffffff60801b1916600160801b6001600160401b038c811691820292909217909255915163854a893f60e01b8152600481018c905291841660248301526044820152919250906005600160991b019063ee5b48eb9073__$fd0c147b4031eef6079b0498cbafa865f0$__9063854a893f906064015f60405180830381865af415801561362f573d5f803e3d5ffd5b505050506040513d5f823e601f3d908101601f191682016040526136569190810190614f81565b6040518263ffffffff1660e01b81526004016136729190614fb2565b6020604051808303815f875af115801561368e573d5f803e3d5ffd5b505050506040513d601f19601f820116820180604052508101906136b29190614fc4565b604080516001600160401b038a811682526020820184905282519394508516928b927f07de5ff35a674a8005e661f3333c907ca6333462808762d19dc7b3abb1a8c1df928290030190a3909450925050505b9250929050565b5f806137156127f4565b90505f6137258660400151611e63565b90505f60038251600581111561373d5761373d614ce6565b148061375b575060048251600581111561375957613759614ce6565b145b1561376b575060c08101516137a8565b60028251600581111561378057613780614ce6565b0361378c5750426137a8565b815160405163170cc93360e21b81526108929190600401614e78565b86608001516001600160401b0316816001600160401b0316116137d0575f9350505050611a96565b600483015460608801515f916001600160a01b031690634f22429f906137f5906114b0565b60a086015160808c01516040808e01515f90815260068b0160205281902060010154905160e086901b6001600160e01b031916815260048101949094526001600160401b0392831660248501529082166044840152818716606484015216608482015260a401602060405180830381865afa158015613876573d5f803e3d5ffd5b505050506040513d601f19601f8201168201806040525081019061389a9190614fc4565b90506001600160a01b0387166138b257876020015196505b5f8681526008850160209081526040808320849055600990960190529390932080546001600160a01b0388166001600160a01b031990911617905550909150509392505050565b613901614a4f565b5f8281525f80516020615ad58339815191526020526040808220815160e0810190925280545f80516020615ab583398151915293929190829060ff16600581111561394e5761394e614ce6565b600581111561395f5761395f614ce6565b815260200160018201805461397390614e46565b80601f016020809104026020016040519081016040528092919081815260200182805461399f90614e46565b80156139ea5780601f106139c1576101008083540402835291602001916139ea565b820191905f5260205f20905b8154815290600101906020018083116139cd57829003601f168201915b50505091835250506002828101546001600160401b038082166020850152600160401b820481166040850152600160801b820481166060850152600160c01b9091048116608084015260039093015490921660a09091015290915081516005811115613a5857613a58614ce6565b14613a8b575f8481526005830160205260409081902054905163170cc93360e21b81526108929160ff1690600401614e78565b60038152426001600160401b031660c08201525f84815260058381016020526040909120825181548493839160ff1916906001908490811115613ad057613ad0614ce6565b021790555060208201516001820190613ae9908261518a565b5060408201516002820180546060850151608086015160a08701516001600160401b039586166001600160801b031990941693909317600160401b92861692909202919091176001600160801b0316600160801b918516919091026001600160c01b031617600160c01b9184169190910217905560c0909201516003909101805467ffffffffffffffff1916919092161790555f613b878582613534565b6080840151604080516001600160401b03909216825242602083015291935083925087917ffbfc4c00cddda774e9bce93712e29d12887b46526858a1afb0937cce8c30fa42910160405180910390a3509392505050565b6040516327ad555d60e11b81526001600160a01b0383166004820152602481018290526001600160991b0190634f5aaaba906044015f604051808303815f87803b158015613c2a575f80fd5b505af115801561130c573d5f803e3d5ffd5b80471015613c5f5760405163cd78605960e01b8152306004820152602401610892565b5f826001600160a01b0316826040515f6040518083038185875af1925050503d805f8114613ca8576040519150601f19603f3d011682016040523d82523d5f602084013e613cad565b606091505b505090508061070657604051630a12f52160e11b815260040160405180910390fd5b5f805f613cda6127f4565b5f86815260088201602052604081208054908290559192509081908015613d6e575f87815260068501602052604090205461271090613d2490600160a01b900461ffff1683615514565b613d2e91906154a6565b91508184600a015f8981526020019081526020015f205f828254613d5291906156ba565b90915550613d6290508282615706565b9250613d6e8984613bde565b509097909650945050505050565b7fe92546d698950ddd38910d2e15ed1d923cd0a7b3dde9e2a6a3f380565559cb07545f9060ff16613dc057604051637fab81e560e01b815260040160405180910390fd5b5f80516020615ab583398151915242613ddf6060860160408701614c2b565b6001600160401b0316111580613e195750613dfd6202a300426156ba565b613e0d6060860160408701614c2b565b6001600160401b031610155b15613e5357613e2e6060850160408601614c2b565b604051635879da1360e11b81526001600160401b039091166004820152602401610892565b60038101546001600160401b0390613e7690600160401b900482168583166156ba565b1115613ea057604051633e1a785160e01b81526001600160401b0384166004820152602401610892565b613eb5613eb06060860186615719565b6147b7565b613ec5613eb06080860186615719565b6030613ed4602086018661572d565b905014613f0657613ee8602085018561572d565b6040516326475b2f60e11b8152610892925060040190815260200190565b613f10848061572d565b90505f03613f3d57613f22848061572d565b604051633e08a12560e11b815260040161089292919061576f565b5f60068201613f4c868061572d565b604051613f5a9291906155d8565b90815260200160405180910390205414613f9357613f78848061572d565b60405163a41f772f60e01b815260040161089292919061576f565b613f9d835f6144d8565b6040805160e08101909152815481525f90819073__$fd0c147b4031eef6079b0498cbafa865f0$__9063eb97ce519060208101613fda8a8061572d565b8080601f0160208091040260200160405190810160405280939291908181526020018383808284375f92019190915250505090825250602090810190614022908b018b61572d565b8080601f0160208091040260200160405190810160405280939291908181526020018383808284375f9201919091525050509082525060200161406b60608b0160408c01614c2b565b6001600160401b0316815260200161408660608b018b615719565b61408f90615782565b81526020016140a160808b018b615719565b6140aa90615782565b8152602001886001600160401b03168152506040518263ffffffff1660e01b81526004016140d891906158af565b5f60405180830381865af41580156140f2573d5f803e3d5ffd5b505050506040513d5f823e601f3d908101601f191682016040526141199190810190615966565b5f82815260048601602052604090209193509150614137828261518a565b508160068401614147888061572d565b6040516141559291906155d8565b9081526040519081900360200181209190915563ee5b48eb60e01b81525f906005600160991b019063ee5b48eb90614191908590600401614fb2565b6020604051808303815f875af11580156141ad573d5f803e3d5ffd5b505050506040513d601f19601f820116820180604052508101906141d19190614fc4565b5f8481526005860160205260409020805460ff1916600117905590506141f7878061572d565b5f8581526005870160205260409020600101916142159190836159a9565b505f83815260058501602052604090206002810180546001600160c01b0319166001600160401b038916908117600160801b91909102176001600160c01b03169055600301805467ffffffffffffffff1916905580837fe093cab27f3fc60439e008f3a2073310d3ac9ac9b7d59e53a06b2588f7498bd6886142978b8061572d565b6142a760608e0160408f01614c2b565b6040516142b79493929190615a62565b60405180910390a3509095945050505050565b6142d261346f565b6142da614920565b6111d981614928565b6142eb61346f565b6134b8614a10565b6142fb61346f565b5f6143046127f4565b905061ffff8616158061431c575061271061ffff8716115b1561434057604051635f12e6c360e11b815261ffff87166004820152602401610892565b878911156143645760405163222d164360e21b8152600481018a9052602401610892565b60ff851615806143775750600a60ff8616115b1561439a5760405163170db35960e31b815260ff86166004820152602401610892565b7fe92546d698950ddd38910d2e15ed1d923cd0a7b3dde9e2a6a3f380565559cb01546001600160401b03166001600160401b0316876001600160401b03161015614401576040516202a06d60e11b81526001600160401b0388166004820152602401610892565b835f036144215760405163a733007160e01b815260040160405180910390fd5b8161444257604051632f6bd1db60e01b815260048101839052602401610892565b97885560018801969096556002870180546001600160401b039690961669ffffffffffffffffffff1990961695909517600160401b61ffff95909516949094029390931767ffffffffffffffff60501b191660ff92909216600160501b029190911790925560038401919091556004830180546001600160a01b0319166001600160a01b03909216919091179055600590910155565b5f80516020615ab58339815191525f6001600160401b03808416908516111561450c5761450583856155e7565b9050614519565b61451684846155e7565b90505b60408051608081018252600284015480825260038501546001600160401b038082166020850152600160401b8204811694840194909452600160801b9004909216606082015242911580614586575060018401548151614582916001600160401b0316906156ba565b8210155b156145ae576001600160401b03808416606083015282825260408201511660208201526145cd565b82816060018181516145c09190615259565b6001600160401b03169052505b60608101516145dd9060646152bc565b602082015160018601546001600160401b0392909216916146089190600160401b900460ff166152bc565b6001600160401b0316101561464157606081015160405163dfae880160e01b81526001600160401b039091166004820152602401610892565b85816040018181516146539190615259565b6001600160401b03169052506040810180518691906146739083906155e7565b6001600160401b0316905250600184015460408201516064916146a191600160401b90910460ff16906152bc565b6001600160401b031610156146da576040808201519051633e1a785160e01b81526001600160401b039091166004820152602401610892565b8051600285015560208101516003909401805460408301516060909301516001600160401b03908116600160801b0267ffffffffffffffff60801b19948216600160401b026001600160801b0319909316919097161717919091169390931790925550505050565b5f8181525f80516020615ad58339815191526020526040812060020180545f80516020615ab5833981519152919060089061478c90600160401b90046001600160401b0316615a99565b91906101000a8154816001600160401b0302191690836001600160401b031602179055915050919050565b6147c46020820182614bfe565b63ffffffff161580156147e457506147df6020820182614ff6565b151590505b1561482b576147f66020820182614bfe565b6148036020830183614ff6565b60405163c08a0f1d60e01b815263ffffffff9093166004840152602483015250604401610892565b6148386020820182614ff6565b90506148476020830183614bfe565b63ffffffff161115614860576147f66020820182614bfe565b60015b6148706020830183614ff6565b905081101561171e576148866020830183614ff6565b614891600184615706565b8181106148a0576148a061503b565b90506020020160208101906148b59190614fdb565b6001600160a01b03166148cb6020840184614ff6565b838181106148db576148db61503b565b90506020020160208101906148f09190614fdb565b6001600160a01b0316101561491857604051630dbc8d5f60e31b815260040160405180910390fd5b600101614863565b6134b861346f565b61493061346f565b80355f80516020615ab5833981519152908155601461495560608401604085016156e6565b60ff161180614974575061496f60608301604084016156e6565b60ff16155b156149a85761498960608301604084016156e6565b604051634a59bbff60e11b815260ff9091166004820152602401610892565b6149b860608301604084016156e6565b60018201805460ff92909216600160401b0260ff60401b199092169190911790556149e96040830160208401614c2b565b600191909101805467ffffffffffffffff19166001600160401b0390921691909117905550565b612e8161346f565b508054614a2490614e46565b5f825580601f10614a33575050565b601f0160209004905f5260205f20908101906111d99190614a8c565b6040805160e08101909152805f81526060602082018190525f604083018190529082018190526080820181905260a0820181905260c09091015290565b5b80821115614aa0575f8155600101614a8d565b5090565b80151581146111d9575f80fd5b803563ffffffff81168114611e5e575f80fd5b5f805f60608486031215614ad6575f80fd5b833592506020840135614ae881614aa4565b9150614af660408501614ab1565b90509250925092565b5f60208284031215614b0f575f80fd5b5035919050565b5f6101608284031215614b27575f80fd5b50919050565b5f8060408385031215614b3e575f80fd5b82356001600160401b03811115614b53575f80fd5b830160808186031215614b64575f80fd5b9150614b7260208401614ab1565b90509250929050565b5f8060408385031215614b8c575f80fd5b82359150614b7260208401614ab1565b6001600160a01b03811681146111d9575f80fd5b5f805f8060808587031215614bc3575f80fd5b843593506020850135614bd581614aa4565b9250614be360408601614ab1565b91506060850135614bf381614b9c565b939692955090935050565b5f60208284031215614c0e575f80fd5b611a9682614ab1565b6001600160401b03811681146111d9575f80fd5b5f60208284031215614c3b575f80fd5b8135611a9681614c17565b5f8060408385031215614c57575f80fd5b823591506020830135614c6981614b9c565b809150509250929050565b803561ffff81168114611e5e575f80fd5b5f805f60608486031215614c97575f80fd5b83356001600160401b03811115614cac575f80fd5b840160a08187031215614cbd575f80fd5b9250614ccb60208501614c74565b91506040840135614cdb81614c17565b809150509250925092565b634e487b7160e01b5f52602160045260245ffd5b60068110614d0a57614d0a614ce6565b9052565b5f5b83811015614d28578181015183820152602001614d10565b50505f910152565b5f8151808452614d47816020860160208601614d0e565b601f01601f19169290920160200192915050565b60208152614d6d602082018351614cfa565b5f602083015160e06040840152614d88610100840182614d30565b905060408401516001600160401b0380821660608601528060608701511660808601528060808701511660a08601528060a08701511660c08601528060c08701511660e086015250508091505092915050565b5f8060208385031215614dec575f80fd5b82356001600160401b0380821115614e02575f80fd5b818501915085601f830112614e15575f80fd5b813581811115614e23575f80fd5b866020828501011115614e34575f80fd5b60209290920196919550909350505050565b600181811c90821680614e5a57607f821691505b602082108103614b2757634e487b7160e01b5f52602260045260245ffd5b602081016110e58284614cfa565b634e487b7160e01b5f52604160045260245ffd5b604051606081016001600160401b0381118282101715614ebc57614ebc614e86565b60405290565b604080519081016001600160401b0381118282101715614ebc57614ebc614e86565b604051601f8201601f191681016001600160401b0381118282101715614f0c57614f0c614e86565b604052919050565b5f6001600160401b03821115614f2c57614f2c614e86565b50601f01601f191660200190565b5f82601f830112614f49575f80fd5b8151614f5c614f5782614f14565b614ee4565b818152846020838601011115614f70575f80fd5b61240e826020830160208701614d0e565b5f60208284031215614f91575f80fd5b81516001600160401b03811115614fa6575f80fd5b61240e84828501614f3a565b602081525f611a966020830184614d30565b5f60208284031215614fd4575f80fd5b5051919050565b5f60208284031215614feb575f80fd5b8135611a9681614b9c565b5f808335601e1984360301811261500b575f80fd5b8301803591506001600160401b03821115615024575f80fd5b6020019150600581901b3603821315613704575f80fd5b634e487b7160e01b5f52603260045260245ffd5b5f8235605e19833603018112615063575f80fd5b9190910192915050565b5f82601f83011261507c575f80fd5b813561508a614f5782614f14565b81815284602083860101111561509e575f80fd5b816020850160208301375f918101602001919091529392505050565b5f606082360312156150ca575f80fd5b6150d2614e9a565b82356001600160401b03808211156150e8575f80fd5b6150f43683870161506d565b83526020850135915080821115615109575f80fd5b506151163682860161506d565b602083015250604083013561512a81614c17565b604082015292915050565b5f8251615063818460208701614d0e565b601f82111561070657805f5260205f20601f840160051c8101602085101561516b5750805b601f840160051c820191505b818110156110f7575f8155600101615177565b81516001600160401b038111156151a3576151a3614e86565b6151b7816151b18454614e46565b84615146565b602080601f8311600181146151ea575f84156151d35750858301515b5f19600386901b1c1916600185901b17855561130c565b5f85815260208120601f198616915b82811015615218578886015182559484019460019091019084016151f9565b508582101561523557878501515f19600388901b60f8161c191681555b5050505050600190811b01905550565b634e487b7160e01b5f52601160045260245ffd5b6001600160401b0381811683821601908082111561252557612525615245565b6001600160401b0383168152604060208201525f61240e6040830184614d30565b5f63ffffffff8083168181036152b2576152b2615245565b6001019392505050565b6001600160401b038181168382160280821691908281146152df576152df615245565b505092915050565b5f808335601e198436030181126152fc575f80fd5b83016020810192503590506001600160401b0381111561531a575f80fd5b803603821315613704575f80fd5b81835281816020850137505f828201602090810191909152601f909101601f19169091010190565b5f8383855260208086019550808560051b830101845f5b8781101561540557848303601f19018952813536889003605e1901811261538c575f80fd5b8701606061539a82806152e7565b8287526153aa8388018284615328565b925050506153ba868301836152e7565b868303888801526153cc838284615328565b9250505060408083013592506153e183614c17565b6001600160401b039290921694909101939093529783019790830190600101615367565b5090979650505050505050565b6020815281356020820152602082013560408201525f604083013561543681614b9c565b6001600160a01b031660608381019190915283013536849003601e1901811261545d575f80fd5b83016020810190356001600160401b03811115615478575f80fd5b8060051b3603821315615489575f80fd5b60808085015261549d60a085018284615350565b95945050505050565b5f826154c057634e487b7160e01b5f52601260045260245ffd5b500490565b60208101600483106154d9576154d9614ce6565b91905290565b5f805f606084860312156154f1575f80fd5b83519250602084015161550381614c17565b6040850151909250614cdb81614c17565b80820281158282048414176110e5576110e5615245565b5f806040838503121561553c575f80fd5b825191506020830151614c6981614aa4565b5f60208083525f845461556081614e46565b806020870152604060018084165f8114615581576001811461559d576155ca565b60ff19851660408a0152604084151560051b8a010195506155ca565b895f5260205f205f5b858110156155c15781548b82018601529083019088016155a6565b8a016040019650505b509398975050505050505050565b818382375f9101908152919050565b6001600160401b0382811682821603908082111561252557612525615245565b5f8060408385031215615618575f80fd5b82516001600160401b038082111561562e575f80fd5b9084019060608287031215615641575f80fd5b615649614e9a565b82518152602083015161565b81614b9c565b6020820152604083015182811115615671575f80fd5b61567d88828601614f3a565b6040830152508094505050506020830151614c6981614aa4565b5f80604083850312156156a8575f80fd5b825191506020830151614c6981614c17565b808201808211156110e5576110e5615245565b5f602082840312156156dd575f80fd5b611a9682614c74565b5f602082840312156156f6575f80fd5b813560ff81168114611a96575f80fd5b818103818111156110e5576110e5615245565b5f8235603e19833603018112615063575f80fd5b5f808335601e19843603018112615742575f80fd5b8301803591506001600160401b0382111561575b575f80fd5b602001915036819003821315613704575f80fd5b602081525f61240e602083018486615328565b5f60408236031215615792575f80fd5b61579a614ec2565b6157a383614ab1565b81526020808401356001600160401b03808211156157bf575f80fd5b9085019036601f8301126157d1575f80fd5b8135818111156157e3576157e3614e86565b8060051b91506157f4848301614ee4565b818152918301840191848101903684111561580d575f80fd5b938501935b83851015615837578435925061582783614b9c565b8282529385019390850190615812565b94860194909452509295945050505050565b5f6040830163ffffffff8351168452602080840151604060208701528281518085526060880191506020830194505f92505b808310156158a45784516001600160a01b0316825293830193600192909201919083019061587b565b509695505050505050565b60208152815160208201525f602083015160e060408401526158d5610100840182614d30565b90506040840151601f19808584030160608601526158f38383614d30565b92506001600160401b03606087015116608086015260808601519150808584030160a08601526159238383615849565b925060a08601519150808584030160c0860152506159418282615849565b91505060c084015161595e60e08501826001600160401b03169052565b509392505050565b5f8060408385031215615977575f80fd5b8251915060208301516001600160401b03811115615993575f80fd5b61599f85828601614f3a565b9150509250929050565b6001600160401b038311156159c0576159c0614e86565b6159d4836159ce8354614e46565b83615146565b5f601f841160018114615a05575f85156159ee5750838201355b5f19600387901b1c1916600186901b1783556110f7565b5f83815260208120601f198716915b82811015615a345786850135825560209485019460019092019101615a14565b5086821015615a50575f1960f88860031b161c19848701351681555b505060018560011b0183555050505050565b5f6001600160401b03808716835260606020840152615a85606084018688615328565b915080841660408401525095945050505050565b5f6001600160401b038083168181036152b2576152b261524556fee92546d698950ddd38910d2e15ed1d923cd0a7b3dde9e2a6a3f380565559cb00e92546d698950ddd38910d2e15ed1d923cd0a7b3dde9e2a6a3f380565559cb059b779b17422d0df92223018b32b4d1fa46e071723d6817e2486d003becc55f00a164736f6c6343000819000a",
    "linkReferences": {
      "contracts/validator-manager/ValidatorMessages.sol": {
        "ValidatorMessages": [
          {
            "start": 2600,
            "length": 20
          },
          {
            "start": 4063,
            "length": 20
          },
          {
            "start": 4196,
            "length": 20
          },
          {
            "start": 5221,
            "length": 20
          },
          {
            "start": 5984,
            "length": 20
          },
          {
            "start": 6610,
            "length": 20
          },
          {
            "start": 7525,
            "length": 20
          },
          {
            "start": 10217,
            "length": 20
          },
          {
            "start": 11252,
            "length": 20
          },
          {
            "start": 14149,
            "length": 20
          },
          {
            "start": 16639,
            "length": 20
          }
        ]
      }
    }
  },
  "methodIdentifiers": {
    "ADDRESS_LENGTH()": "60305d62",
    "BIPS_CONVERSION_FACTOR()": "a9778a7a",
    "BLS_PUBLIC_KEY_LENGTH()": "8280a25a",
    "MAXIMUM_CHURN_PERCENTAGE_LIMIT()": "c974d1b6",
    "MAXIMUM_DELEGATION_FEE_BIPS()": "35455ded",
    "MAXIMUM_REGISTRATION_EXPIRY_LENGTH()": "df93d8de",
    "MAXIMUM_STAKE_MULTIPLIER_LIMIT()": "151d30d1",
    "NATIVE_MINTER()": "329c3e12",
    "POS_VALIDATOR_MANAGER_STORAGE_LOCATION()": "afb98096",
    "P_CHAIN_BLOCKCHAIN_ID()": "732214f8",
    "VALIDATOR_MANAGER_STORAGE_LOCATION()": "bc5fbfec",
    "WARP_MESSENGER()": "b771b3bc",
    "changeDelegatorRewardRecipient(bytes32,address)": "fb8b11dd",
    "changeValidatorRewardRecipient(bytes32,address)": "8ef34c98",
    "claimDelegationFees(bytes32)": "93e24598",
    "completeDelegatorRegistration(bytes32,uint32)": "60ad7784",
    "completeEndDelegation(bytes32,uint32)": "80dd672f",
    "completeEndValidation(uint32)": "467ef06f",
    "completeValidatorRegistration(uint32)": "a3a65e48",
    "forceInitializeEndDelegation(bytes32,bool,uint32)": "1ec44724",
    "forceInitializeEndDelegation(bytes32,bool,uint32,address)": "37b9be8f",
    "forceInitializeEndValidation(bytes32,bool,uint32)": "3a1cfff6",
    "forceInitializeEndValidation(bytes32,bool,uint32,address)": "7d8d2f77",
    "getValidator(bytes32)": "d5f20ff6",
    "initialize(((bytes32,uint64,uint8),uint256,uint256,uint64,uint16,uint8,uint256,address,bytes32))": "0ba512d1",
    "initializeDelegatorRegistration(bytes32)": "c599e24f",
    "initializeEndDelegation(bytes32,bool,uint32)": "0118acc4",
    "initializeEndDelegation(bytes32,bool,uint32,address)": "9ae06447",
    "initializeEndValidation(bytes32,bool,uint32)": "76f78621",
    "initializeEndValidation(bytes32,bool,uint32,address)": "5dd6a6cb",
    "initializeValidatorRegistration((bytes,bytes,uint64,(uint32,address[]),(uint32,address[])),uint16,uint64)": "af2f5feb",
    "initializeValidatorSet((bytes32,bytes32,address,(bytes,bytes,uint64)[]),uint32)": "20d91b7a",
    "registeredValidators(bytes)": "fd7ac5e7",
    "resendEndValidatorMessage(bytes32)": "0322ed98",
    "resendRegisterValidatorMessage(bytes32)": "bee0a03f",
    "resendUpdateDelegation(bytes32)": "ba3a4b97",
    "submitUptimeProof(bytes32,uint32)": "25e1c776",
    "valueToWeight(uint256)": "2e2194d8",
    "weightToValue(uint64)": "62065856"
  },
  "id": 93
}