{
  "abi": [
    {
      "type": "constructor",
      "inputs": [
        {
          "name": "init",
          "type": "uint8",
          "internalType": "enum ICMInitializable"
        }
      ],
      "stateMutability": "nonpayable"
    },
    {
      "type": "function",
      "name": "ADDRESS_LENGTH",
      "inputs": [],
      "outputs": [
        {
          "name": "",
          "type": "uint32",
          "internalType": "uint32"
        }
      ],
      "stateMutability": "view"
    },
    {
      "type": "function",
      "name": "BLS_PUBLIC_KEY_LENGTH",
      "inputs": [],
      "outputs": [
        {
          "name": "",
          "type": "uint8",
          "internalType": "uint8"
        }
      ],
      "stateMutability": "view"
    },
    {
      "type": "function",
      "name": "MAXIMUM_CHURN_PERCENTAGE_LIMIT",
      "inputs": [],
      "outputs": [
        {
          "name": "",
          "type": "uint8",
          "internalType": "uint8"
        }
      ],
      "stateMutability": "view"
    },
    {
      "type": "function",
      "name": "MAXIMUM_REGISTRATION_EXPIRY_LENGTH",
      "inputs": [],
      "outputs": [
        {
          "name": "",
          "type": "uint64",
          "internalType": "uint64"
        }
      ],
      "stateMutability": "view"
    },
    {
      "type": "function",
      "name": "P_CHAIN_BLOCKCHAIN_ID",
      "inputs": [],
      "outputs": [
        {
          "name": "",
          "type": "bytes32",
          "internalType": "bytes32"
        }
      ],
      "stateMutability": "view"
    },
    {
      "type": "function",
      "name": "VALIDATOR_MANAGER_STORAGE_LOCATION",
      "inputs": [],
      "outputs": [
        {
          "name": "",
          "type": "bytes32",
          "internalType": "bytes32"
        }
      ],
      "stateMutability": "view"
    },
    {
      "type": "function",
      "name": "WARP_MESSENGER",
      "inputs": [],
      "outputs": [
        {
          "name": "",
          "type": "address",
          "internalType": "contract IWarpMessenger"
        }
      ],
      "stateMutability": "view"
    },
    {
      "type": "function",
      "name": "completeEndValidation",
      "inputs": [
        {
          "name": "messageIndex",
          "type": "uint32",
          "internalType": "uint32"
        }
      ],
      "outputs": [],
      "stateMutability": "nonpayable"
    },
    {
      "type": "function",
      "name": "completeValidatorRegistration",
      "inputs": [
        {
          "name": "messageIndex",
          "type": "uint32",
          "internalType": "uint32"
        }
      ],
      "outputs": [],
      "stateMutability": "nonpayable"
    },
    {
      "type": "function",
      "name": "getValidator",
      "inputs": [
        {
          "name": "validationID",
          "type": "bytes32",
          "internalType": "bytes32"
        }
      ],
      "outputs": [
        {
          "name": "",
          "type": "tuple",
          "internalType": "struct Validator",
          "components": [
            {
              "name": "status",
              "type": "uint8",
              "internalType": "enum ValidatorStatus"
            },
            {
              "name": "nodeID",
              "type": "bytes",
              "internalType": "bytes"
            },
            {
              "name": "startingWeight",
              "type": "uint64",
              "internalType": "uint64"
            },
            {
              "name": "messageNonce",
              "type": "uint64",
              "internalType": "uint64"
            },
            {
              "name": "weight",
              "type": "uint64",
              "internalType": "uint64"
            },
            {
              "name": "startedAt",
              "type": "uint64",
              "internalType": "uint64"
            },
            {
              "name": "endedAt",
              "type": "uint64",
              "internalType": "uint64"
            }
          ]
        }
      ],
      "stateMutability": "view"
    },
    {
      "type": "function",
      "name": "initialize",
      "inputs": [
        {
          "name": "settings",
          "type": "tuple",
          "internalType": "struct ValidatorManagerSettings",
          "components": [
            {
              "name": "subnetID",
              "type": "bytes32",
              "internalType": "bytes32"
            },
            {
              "name": "churnPeriodSeconds",
              "type": "uint64",
              "internalType": "uint64"
            },
            {
              "name": "maximumChurnPercentage",
              "type": "uint8",
              "internalType": "uint8"
            }
          ]
        },
        {
          "name": "initialOwner",
          "type": "address",
          "internalType": "address"
        }
      ],
      "outputs": [],
      "stateMutability": "nonpayable"
    },
    {
      "type": "function",
      "name": "initializeEndValidation",
      "inputs": [
        {
          "name": "validationID",
          "type": "bytes32",
          "internalType": "bytes32"
        }
      ],
      "outputs": [],
      "stateMutability": "nonpayable"
    },
    {
      "type": "function",
      "name": "initializeValidatorRegistration",
      "inputs": [
        {
          "name": "registrationInput",
          "type": "tuple",
          "internalType": "struct ValidatorRegistrationInput",
          "components": [
            {
              "name": "nodeID",
              "type": "bytes",
              "internalType": "bytes"
            },
            {
              "name": "blsPublicKey",
              "type": "bytes",
              "internalType": "bytes"
            },
            {
              "name": "registrationExpiry",
              "type": "uint64",
              "internalType": "uint64"
            },
            {
              "name": "remainingBalanceOwner",
              "type": "tuple",
              "internalType": "struct PChainOwner",
              "components": [
                {
                  "name": "threshold",
                  "type": "uint32",
                  "internalType": "uint32"
                },
                {
                  "name": "addresses",
                  "type": "address[]",
                  "internalType": "address[]"
                }
              ]
            },
            {
              "name": "disableOwner",
              "type": "tuple",
              "internalType": "struct PChainOwner",
              "components": [
                {
                  "name": "threshold",
                  "type": "uint32",
                  "internalType": "uint32"
                },
                {
                  "name": "addresses",
                  "type": "address[]",
                  "internalType": "address[]"
                }
              ]
            }
          ]
        },
        {
          "name": "weight",
          "type": "uint64",
          "internalType": "uint64"
        }
      ],
      "outputs": [
        {
          "name": "validationID",
          "type": "bytes32",
          "internalType": "bytes32"
        }
      ],
      "stateMutability": "nonpayable"
    },
    {
      "type": "function",
      "name": "initializeValidatorSet",
      "inputs": [
        {
          "name": "conversionData",
          "type": "tuple",
          "internalType": "struct ConversionData",
          "components": [
            {
              "name": "subnetID",
              "type": "bytes32",
              "internalType": "bytes32"
            },
            {
              "name": "validatorManagerBlockchainID",
              "type": "bytes32",
              "internalType": "bytes32"
            },
            {
              "name": "validatorManagerAddress",
              "type": "address",
              "internalType": "address"
            },
            {
              "name": "initialValidators",
              "type": "tuple[]",
              "internalType": "struct InitialValidator[]",
              "components": [
                {
                  "name": "nodeID",
                  "type": "bytes",
                  "internalType": "bytes"
                },
                {
                  "name": "blsPublicKey",
                  "type": "bytes",
                  "internalType": "bytes"
                },
                {
                  "name": "weight",
                  "type": "uint64",
                  "internalType": "uint64"
                }
              ]
            }
          ]
        },
        {
          "name": "messageIndex",
          "type": "uint32",
          "internalType": "uint32"
        }
      ],
      "outputs": [],
      "stateMutability": "nonpayable"
    },
    {
      "type": "function",
      "name": "owner",
      "inputs": [],
      "outputs": [
        {
          "name": "",
          "type": "address",
          "internalType": "address"
        }
      ],
      "stateMutability": "view"
    },
    {
      "type": "function",
      "name": "registeredValidators",
      "inputs": [
        {
          "name": "nodeID",
          "type": "bytes",
          "internalType": "bytes"
        }
      ],
      "outputs": [
        {
          "name": "",
          "type": "bytes32",
          "internalType": "bytes32"
        }
      ],
      "stateMutability": "view"
    },
    {
      "type": "function",
      "name": "renounceOwnership",
      "inputs": [],
      "outputs": [],
      "stateMutability": "nonpayable"
    },
    {
      "type": "function",
      "name": "resendEndValidatorMessage",
      "inputs": [
        {
          "name": "validationID",
          "type": "bytes32",
          "internalType": "bytes32"
        }
      ],
      "outputs": [],
      "stateMutability": "nonpayable"
    },
    {
      "type": "function",
      "name": "resendRegisterValidatorMessage",
      "inputs": [
        {
          "name": "validationID",
          "type": "bytes32",
          "internalType": "bytes32"
        }
      ],
      "outputs": [],
      "stateMutability": "nonpayable"
    },
    {
      "type": "function",
      "name": "transferOwnership",
      "inputs": [
        {
          "name": "newOwner",
          "type": "address",
          "internalType": "address"
        }
      ],
      "outputs": [],
      "stateMutability": "nonpayable"
    },
    {
      "type": "event",
      "name": "InitialValidatorCreated",
      "inputs": [
        {
          "name": "validationID",
          "type": "bytes32",
          "indexed": true,
          "internalType": "bytes32"
        },
        {
          "name": "weight",
          "type": "uint64",
          "indexed": false,
          "internalType": "uint64"
        },
        {
          "name": "nodeID",
          "type": "bytes",
          "indexed": false,
          "internalType": "bytes"
        }
      ],
      "anonymous": false
    },
    {
      "type": "event",
      "name": "Initialized",
      "inputs": [
        {
          "name": "version",
          "type": "uint64",
          "indexed": false,
          "internalType": "uint64"
        }
      ],
      "anonymous": false
    },
    {
      "type": "event",
      "name": "OwnershipTransferred",
      "inputs": [
        {
          "name": "previousOwner",
          "type": "address",
          "indexed": true,
          "internalType": "address"
        },
        {
          "name": "newOwner",
          "type": "address",
          "indexed": true,
          "internalType": "address"
        }
      ],
      "anonymous": false
    },
    {
      "type": "event",
      "name": "ValidationPeriodCreated",
      "inputs": [
        {
          "name": "validationID",
          "type": "bytes32",
          "indexed": true,
          "internalType": "bytes32"
        },
        {
          "name": "registerValidationMessageID",
          "type": "bytes32",
          "indexed": true,
          "internalType": "bytes32"
        },
        {
          "name": "weight",
          "type": "uint64",
          "indexed": false,
          "internalType": "uint64"
        },
        {
          "name": "nodeID",
          "type": "bytes",
          "indexed": false,
          "internalType": "bytes"
        },
        {
          "name": "registrationExpiry",
          "type": "uint64",
          "indexed": false,
          "internalType": "uint64"
        }
      ],
      "anonymous": false
    },
    {
      "type": "event",
      "name": "ValidationPeriodEnded",
      "inputs": [
        {
          "name": "validationID",
          "type": "bytes32",
          "indexed": true,
          "internalType": "bytes32"
        },
        {
          "name": "status",
          "type": "uint8",
          "indexed": true,
          "internalType": "enum ValidatorStatus"
        }
      ],
      "anonymous": false
    },
    {
      "type": "event",
      "name": "ValidationPeriodRegistered",
      "inputs": [
        {
          "name": "validationID",
          "type": "bytes32",
          "indexed": true,
          "internalType": "bytes32"
        },
        {
          "name": "weight",
          "type": "uint64",
          "indexed": false,
          "internalType": "uint64"
        },
        {
          "name": "timestamp",
          "type": "uint256",
          "indexed": false,
          "internalType": "uint256"
        }
      ],
      "anonymous": false
    },
    {
      "type": "event",
      "name": "ValidatorRemovalInitialized",
      "inputs": [
        {
          "name": "validationID",
          "type": "bytes32",
          "indexed": true,
          "internalType": "bytes32"
        },
        {
          "name": "setWeightMessageID",
          "type": "bytes32",
          "indexed": true,
          "internalType": "bytes32"
        },
        {
          "name": "weight",
          "type": "uint64",
          "indexed": false,
          "internalType": "uint64"
        },
        {
          "name": "endTime",
          "type": "uint256",
          "indexed": false,
          "internalType": "uint256"
        }
      ],
      "anonymous": false
    },
    {
      "type": "event",
      "name": "ValidatorWeightUpdate",
      "inputs": [
        {
          "name": "validationID",
          "type": "bytes32",
          "indexed": true,
          "internalType": "bytes32"
        },
        {
          "name": "nonce",
          "type": "uint64",
          "indexed": true,
          "internalType": "uint64"
        },
        {
          "name": "weight",
          "type": "uint64",
          "indexed": false,
          "internalType": "uint64"
        },
        {
          "name": "setWeightMessageID",
          "type": "bytes32",
          "indexed": false,
          "internalType": "bytes32"
        }
      ],
      "anonymous": false
    },
    {
      "type": "error",
      "name": "InvalidBLSKeyLength",
      "inputs": [
        {
          "name": "length",
          "type": "uint256",
          "internalType": "uint256"
        }
      ]
    },
    {
      "type": "error",
      "name": "InvalidConversionID",
      "inputs": [
        {
          "name": "encodedConversionID",
          "type": "bytes32",
          "internalType": "bytes32"
        },
        {
          "name": "expectedConversionID",
          "type": "bytes32",
          "internalType": "bytes32"
        }
      ]
    },
    {
      "type": "error",
      "name": "InvalidInitialization",
      "inputs": []
    },
    {
      "type": "error",
      "name": "InvalidInitializationStatus",
      "inputs": []
    },
    {
      "type": "error",
      "name": "InvalidMaximumChurnPercentage",
      "inputs": [
        {
          "name": "maximumChurnPercentage",
          "type": "uint8",
          "internalType": "uint8"
        }
      ]
    },
    {
      "type": "error",
      "name": "InvalidNodeID",
      "inputs": [
        {
          "name": "nodeID",
          "type": "bytes",
          "internalType": "bytes"
        }
      ]
    },
    {
      "type": "error",
      "name": "InvalidPChainOwnerThreshold",
      "inputs": [
        {
          "name": "threshold",
          "type": "uint256",
          "internalType": "uint256"
        },
        {
          "name": "addressesLength",
          "type": "uint256",
          "internalType": "uint256"
        }
      ]
    },
    {
      "type": "error",
      "name": "InvalidRegistrationExpiry",
      "inputs": [
        {
          "name": "registrationExpiry",
          "type": "uint64",
          "internalType": "uint64"
        }
      ]
    },
    {
      "type": "error",
      "name": "InvalidTotalWeight",
      "inputs": [
        {
          "name": "weight",
          "type": "uint64",
          "internalType": "uint64"
        }
      ]
    },
    {
      "type": "error",
      "name": "InvalidValidationID",
      "inputs": [
        {
          "name": "validationID",
          "type": "bytes32",
          "internalType": "bytes32"
        }
      ]
    },
    {
      "type": "error",
      "name": "InvalidValidatorManagerAddress",
      "inputs": [
        {
          "name": "validatorManagerAddress",
          "type": "address",
          "internalType": "address"
        }
      ]
    },
    {
      "type": "error",
      "name": "InvalidValidatorManagerBlockchainID",
      "inputs": [
        {
          "name": "blockchainID",
          "type": "bytes32",
          "internalType": "bytes32"
        }
      ]
    },
    {
      "type": "error",
      "name": "InvalidValidatorStatus",
      "inputs": [
        {
          "name": "status",
          "type": "uint8",
          "internalType": "enum ValidatorStatus"
        }
      ]
    },
    {
      "type": "error",
      "name": "InvalidWarpMessage",
      "inputs": []
    },
    {
      "type": "error",
      "name": "InvalidWarpOriginSenderAddress",
      "inputs": [
        {
          "name": "senderAddress",
          "type": "address",
          "internalType": "address"
        }
      ]
    },
    {
      "type": "error",
      "name": "InvalidWarpSourceChainID",
      "inputs": [
        {
          "name": "sourceChainID",
          "type": "bytes32",
          "internalType": "bytes32"
        }
      ]
    },
    {
      "type": "error",
      "name": "MaxChurnRateExceeded",
      "inputs": [
        {
          "name": "churnAmount",
          "type": "uint64",
          "internalType": "uint64"
        }
      ]
    },
    {
      "type": "error",
      "name": "NodeAlreadyRegistered",
      "inputs": [
        {
          "name": "nodeID",
          "type": "bytes",
          "internalType": "bytes"
        }
      ]
    },
    {
      "type": "error",
      "name": "NotInitializing",
      "inputs": []
    },
    {
      "type": "error",
      "name": "OwnableInvalidOwner",
      "inputs": [
        {
          "name": "owner",
          "type": "address",
          "internalType": "address"
        }
      ]
    },
    {
      "type": "error",
      "name": "OwnableUnauthorizedAccount",
      "inputs": [
        {
          "name": "account",
          "type": "address",
          "internalType": "address"
        }
      ]
    },
    {
      "type": "error",
      "name": "PChainOwnerAddressesNotSorted",
      "inputs": []
    },
    {
      "type": "error",
      "name": "UnexpectedRegistrationStatus",
      "inputs": [
        {
          "name": "validRegistration",
          "type": "bool",
          "internalType": "bool"
        }
      ]
    }
  ],
  "bytecode": {
    "object": "0x608060405234801561000f575f80fd5b506040516137ca3803806137ca83398101604081905261002e91610107565b60018160018111156100425761004261012c565b0361004f5761004f610055565b50610140565b7ff0c57e16840df040f15088dc2f81fe391c3923bec73e23a9662efc9c229c6a00805468010000000000000000900460ff16156100a55760405163f92ee8a960e01b815260040160405180910390fd5b80546001600160401b03908116146101045780546001600160401b0319166001600160401b0390811782556040519081527fc7f505b2f371ae2175ee4913f4499e1f2633a7b5936321eed1cdaeb6115181d29060200160405180910390a15b50565b5f60208284031215610117575f80fd5b815160028110610125575f80fd5b9392505050565b634e487b7160e01b5f52602160045260245ffd5b61367d8061014d5f395ff3fe608060405234801561000f575f80fd5b5060043610610127575f3560e01c8063a3a65e48116100a9578063d588c18f1161006e578063d588c18f14610279578063d5f20ff61461028c578063df93d8de146102ac578063f2fde38b146102ce578063fd7ac5e7146102e1575f80fd5b8063a3a65e4814610229578063b771b3bc1461023c578063bc5fbfec1461024a578063bee0a03f1461025e578063c974d1b614610271575f80fd5b8063732214f8116100ef578063732214f8146101905780638280a25a146101a55780638da5cb5b146101bf57806397fb70d4146102035780639ba96b8614610216575f80fd5b80630322ed981461012b57806320d91b7a14610140578063467ef06f1461015357806360305d6214610166578063715018a614610188575b5f80fd5b61013e61013936600461279d565b6102f4565b005b61013e61014e3660046127cc565b610584565b61013e61016136600461281a565b610b28565b61016e601481565b60405163ffffffff90911681526020015b60405180910390f35b61013e610b36565b6101975f81565b60405190815260200161017f565b6101ad603081565b60405160ff909116815260200161017f565b7f9016d09d72d40fdae2fd8ceac6b6234c7706214fd39c1cd1e609a0528c199300546001600160a01b03165b6040516001600160a01b03909116815260200161017f565b61013e61021136600461279d565b610b49565b610197610224366004612849565b610b5e565b61013e61023736600461281a565b610b7a565b6101eb6005600160991b0181565b6101975f8051602061363183398151915281565b61013e61026c36600461279d565b610d70565b6101ad601481565b61013e6102873660046128a2565b610eac565b61029f61029a36600461279d565b610fba565b60405161017f919061295f565b6102b66202a30081565b6040516001600160401b03909116815260200161017f565b61013e6102dc3660046129df565b611109565b6101976102ef366004612a01565b611146565b5f8181525f805160206136518339815191526020526040808220815160e0810190925280545f8051602061363183398151915293929190829060ff166005811115610341576103416128de565b6005811115610352576103526128de565b815260200160018201805461036690612a6c565b80601f016020809104026020016040519081016040528092919081815260200182805461039290612a6c565b80156103dd5780601f106103b4576101008083540402835291602001916103dd565b820191905f5260205f20905b8154815290600101906020018083116103c057829003601f168201915b505050918352505060028201546001600160401b038082166020840152600160401b820481166040840152600160801b820481166060840152600160c01b909104811660808301526003928301541660a09091015290915081516005811115610448576104486128de565b14610484575f8381526005830160205260409081902054905163170cc93360e21b815261047b9160ff1690600401612aa4565b60405180910390fd5b606081015160405163854a893f60e01b8152600481018590526001600160401b0390911660248201525f60448201526005600160991b019063ee5b48eb9073__$fd0c147b4031eef6079b0498cbafa865f0$__9063854a893f906064015f60405180830381865af41580156104fb573d5f803e3d5ffd5b505050506040513d5f823e601f3d908101601f191682016040526105229190810190612bb5565b6040518263ffffffff1660e01b815260040161053e9190612be6565b6020604051808303815f875af115801561055a573d5f803e3d5ffd5b505050506040513d601f19601f8201168201806040525081019061057e9190612bf8565b50505050565b7fe92546d698950ddd38910d2e15ed1d923cd0a7b3dde9e2a6a3f380565559cb07545f805160206136318339815191529060ff16156105d657604051637fab81e560e01b815260040160405180910390fd5b6005600160991b016001600160a01b0316634213cf786040518163ffffffff1660e01b8152600401602060405180830381865afa158015610619573d5f803e3d5ffd5b505050506040513d601f19601f8201168201806040525081019061063d9190612bf8565b836020013514610666576040516372b0a7e760e11b81526020840135600482015260240161047b565b3061067760608501604086016129df565b6001600160a01b0316146106ba5761069560608401604085016129df565b604051632f88120d60e21b81526001600160a01b03909116600482015260240161047b565b5f6106c86060850185612c0f565b905090505f805b828163ffffffff161015610919575f6106eb6060880188612c0f565b8363ffffffff1681811061070157610701612c54565b90506020028101906107139190612c68565b61071c90612cd3565b80516040519192505f91600688019161073491612d4c565b9081526020016040518091039020541461076457805160405163a41f772f60e01b815261047b9190600401612be6565b5f6002885f01358460405160200161079392919091825260e01b6001600160e01b031916602082015260240190565b60408051601f19818403018152908290526107ad91612d4c565b602060405180830381855afa1580156107c8573d5f803e3d5ffd5b5050506040513d601f19601f820116820180604052508101906107eb9190612bf8565b90508086600601835f01516040516108039190612d4c565b90815260408051918290036020908101909220929092555f8381526005890190915220805460ff1916600217815582516001909101906108439082612da8565b50604082810180515f84815260058a016020529290922060028101805492516001600160401b039485166001600160c01b031990941693909317600160801b85851602176001600160c01b0316600160c01b429590951694909402939093179092556003909101805467ffffffffffffffff191690556108c39085612e7b565b9350807fd80a750132c7a4fb67e226bdfecab0d8609bbb4e48cdad62cee218f25b758fff8360400151845f01516040516108fe929190612e9b565b60405180910390a250508061091290612ebc565b90506106cf565b506003830180546fffffffffffffffff00000000000000001916600160401b6001600160401b0384168102919091179091556001840154606491610961910460ff1683612ede565b6001600160401b0316101561099457604051633e1a785160e01b81526001600160401b038216600482015260240161047b565b5f73__$fd0c147b4031eef6079b0498cbafa865f0$__634d8478846109b8876111a1565b604001516040518263ffffffff1660e01b81526004016109d89190612be6565b602060405180830381865af41580156109f3573d5f803e3d5ffd5b505050506040513d601f19601f82011682018060405250810190610a179190612bf8565b90505f73__$fd0c147b4031eef6079b0498cbafa865f0$__6387418b8e886040518263ffffffff1660e01b8152600401610a51919061302c565b5f60405180830381865af4158015610a6b573d5f803e3d5ffd5b505050506040513d5f823e601f3d908101601f19168201604052610a929190810190612bb5565b90505f600282604051610aa59190612d4c565b602060405180830381855afa158015610ac0573d5f803e3d5ffd5b5050506040513d601f19601f82011682018060405250810190610ae39190612bf8565b9050828114610b0f5760405163baaea89d60e01b8152600481018290526024810184905260440161047b565b5050506007909201805460ff1916600117905550505050565b610b31816112b7565b505050565b610b3e61166f565b610b475f6116ca565b565b610b5161166f565b610b5a8161173a565b5050565b5f610b6761166f565b610b718383611a1f565b90505b92915050565b5f805160206136318339815191525f8073__$fd0c147b4031eef6079b0498cbafa865f0$__63021de88f610bad866111a1565b604001516040518263ffffffff1660e01b8152600401610bcd9190612be6565b6040805180830381865af4158015610be7573d5f803e3d5ffd5b505050506040513d601f19601f82011682018060405250810190610c0b91906130cf565b9150915080610c3157604051632d07135360e01b8152811515600482015260240161047b565b5f82815260048401602052604090208054610c4b90612a6c565b90505f03610c6f5760405163089938b360e11b81526004810183905260240161047b565b60015f838152600580860160205260409091205460ff1690811115610c9657610c966128de565b14610cc9575f8281526005840160205260409081902054905163170cc93360e21b815261047b9160ff1690600401612aa4565b5f8281526004840160205260408120610ce191612711565b5f828152600584016020908152604091829020805460ff1916600290811782550180546001600160401b0342818116600160c01b026001600160c01b0390931692909217928390558451600160801b9093041682529181019190915283917f8629ec2bfd8d3b792ba269096bb679e08f20ba2caec0785ef663cf94788e349b910160405180910390a250505050565b5f8181527fe92546d698950ddd38910d2e15ed1d923cd0a7b3dde9e2a6a3f380565559cb046020526040902080545f805160206136318339815191529190610db790612a6c565b90505f03610ddb5760405163089938b360e11b81526004810183905260240161047b565b60015f838152600580840160205260409091205460ff1690811115610e0257610e026128de565b14610e35575f8281526005820160205260409081902054905163170cc93360e21b815261047b9160ff1690600401612aa4565b5f8281526004808301602052604091829020915163ee5b48eb60e01b81526005600160991b019263ee5b48eb92610e6c92016130f0565b6020604051808303815f875af1158015610e88573d5f803e3d5ffd5b505050506040513d601f19601f82011682018060405250810190610b319190612bf8565b7ff0c57e16840df040f15088dc2f81fe391c3923bec73e23a9662efc9c229c6a008054600160401b810460ff1615906001600160401b03165f81158015610ef05750825b90505f826001600160401b03166001148015610f0b5750303b155b905081158015610f19575080155b15610f375760405163f92ee8a960e01b815260040160405180910390fd5b845467ffffffffffffffff191660011785558315610f6157845460ff60401b1916600160401b1785555b610f6b8787611f6d565b8315610fb157845460ff60401b19168555604051600181527fc7f505b2f371ae2175ee4913f4499e1f2633a7b5936321eed1cdaeb6115181d29060200160405180910390a15b50505050505050565b610fc2612748565b5f8281525f80516020613651833981519152602052604090819020815160e0810190925280545f80516020613631833981519152929190829060ff16600581111561100f5761100f6128de565b6005811115611020576110206128de565b815260200160018201805461103490612a6c565b80601f016020809104026020016040519081016040528092919081815260200182805461106090612a6c565b80156110ab5780601f10611082576101008083540402835291602001916110ab565b820191905f5260205f20905b81548152906001019060200180831161108e57829003601f168201915b505050918352505060028201546001600160401b038082166020840152600160401b820481166040840152600160801b820481166060840152600160c01b9091048116608083015260039092015490911660a0909101529392505050565b61111161166f565b6001600160a01b03811661113a57604051631e4fbdf760e01b81525f600482015260240161047b565b611143816116ca565b50565b6040515f905f80516020613631833981519152907fe92546d698950ddd38910d2e15ed1d923cd0a7b3dde9e2a6a3f380565559cb0690611189908690869061317a565b90815260200160405180910390205491505092915050565b60408051606080820183525f8083526020830152918101919091526040516306f8253560e41b815263ffffffff831660048201525f9081906005600160991b0190636f825350906024015f60405180830381865afa158015611205573d5f803e3d5ffd5b505050506040513d5f823e601f3d908101601f1916820160405261122c9190810190613189565b915091508061124e57604051636b2f19e960e01b815260040160405180910390fd5b815115611274578151604051636ba589a560e01b8152600481019190915260240161047b565b60208201516001600160a01b0316156112b0576020820151604051624de75d60e31b81526001600160a01b03909116600482015260240161047b565b5092915050565b5f6112c0612748565b5f805160206136318339815191525f8073__$fd0c147b4031eef6079b0498cbafa865f0$__63021de88f6112f3886111a1565b604001516040518263ffffffff1660e01b81526004016113139190612be6565b6040805180830381865af415801561132d573d5f803e3d5ffd5b505050506040513d601f19601f8201168201806040525081019061135191906130cf565b91509150801561137857604051632d07135360e01b8152811515600482015260240161047b565b5f82815260058085016020526040808320815160e08101909252805491929091839160ff909116908111156113af576113af6128de565b60058111156113c0576113c06128de565b81526020016001820180546113d490612a6c565b80601f016020809104026020016040519081016040528092919081815260200182805461140090612a6c565b801561144b5780601f106114225761010080835404028352916020019161144b565b820191905f5260205f20905b81548152906001019060200180831161142e57829003601f168201915b505050918352505060028201546001600160401b038082166020840152600160401b820481166040840152600160801b820481166060840152600160c01b909104811660808301526003928301541660a090910152909150815160058111156114b6576114b66128de565b141580156114d757506001815160058111156114d4576114d46128de565b14155b156114f857805160405163170cc93360e21b815261047b9190600401612aa4565b60038151600581111561150d5761150d6128de565b0361151b5760048152611520565b600581525b8360060181602001516040516115369190612d4c565b90815260408051602092819003830190205f90819055858152600587810190935220825181548493839160ff1916906001908490811115611579576115796128de565b0217905550602082015160018201906115929082612da8565b5060408201516002820180546060850151608086015160a08701516001600160401b039586166001600160801b031990941693909317600160401b92861692909202919091176001600160801b0316600160801b918516919091026001600160c01b031617600160c01b9184169190910217905560c0909201516003909101805467ffffffffffffffff19169190921617905580516005811115611638576116386128de565b60405184907f1c08e59656f1a18dc2da76826cdc52805c43e897a17c50faefb8ab3c1526cc16905f90a39196919550909350505050565b336116a17f9016d09d72d40fdae2fd8ceac6b6234c7706214fd39c1cd1e609a0528c199300546001600160a01b031690565b6001600160a01b031614610b475760405163118cdaa760e01b815233600482015260240161047b565b7f9016d09d72d40fdae2fd8ceac6b6234c7706214fd39c1cd1e609a0528c19930080546001600160a01b031981166001600160a01b03848116918217845560405192169182907f8be0079c531659141344cd1fd0a4f28419497f9722a3daafe3b4186f6b6457e0905f90a3505050565b611742612748565b5f8281525f805160206136518339815191526020526040808220815160e0810190925280545f8051602061363183398151915293929190829060ff16600581111561178f5761178f6128de565b60058111156117a0576117a06128de565b81526020016001820180546117b490612a6c565b80601f01602080910402602001604051908101604052809291908181526020018280546117e090612a6c565b801561182b5780601f106118025761010080835404028352916020019161182b565b820191905f5260205f20905b81548152906001019060200180831161180e57829003601f168201915b50505091835250506002828101546001600160401b038082166020850152600160401b820481166040850152600160801b820481166060850152600160c01b9091048116608084015260039093015490921660a09091015290915081516005811115611899576118996128de565b146118cc575f8481526005830160205260409081902054905163170cc93360e21b815261047b9160ff1690600401612aa4565b60038152426001600160401b031660c08201525f84815260058381016020526040909120825181548493839160ff1916906001908490811115611911576119116128de565b02179055506020820151600182019061192a9082612da8565b5060408201516002820180546060850151608086015160a08701516001600160401b039586166001600160801b031990941693909317600160401b92861692909202919091176001600160801b0316600160801b918516919091026001600160c01b031617600160c01b9184169190910217905560c0909201516003909101805467ffffffffffffffff1916919092161790555f6119c88582611f87565b6080840151604080516001600160401b03909216825242602083015291935083925087917ffbfc4c00cddda774e9bce93712e29d12887b46526858a1afb0937cce8c30fa42910160405180910390a3509392505050565b7fe92546d698950ddd38910d2e15ed1d923cd0a7b3dde9e2a6a3f380565559cb07545f9060ff16611a6357604051637fab81e560e01b815260040160405180910390fd5b5f8051602061363183398151915242611a826060860160408701613216565b6001600160401b0316111580611abc5750611aa06202a3004261322f565b611ab06060860160408701613216565b6001600160401b031610155b15611af657611ad16060850160408601613216565b604051635879da1360e11b81526001600160401b03909116600482015260240161047b565b60038101546001600160401b0390611b1990600160401b9004821685831661322f565b1115611b4357604051633e1a785160e01b81526001600160401b038416600482015260240161047b565b611b58611b536060860186613242565b61215e565b611b68611b536080860186613242565b6030611b776020860186613256565b905014611ba957611b8b6020850185613256565b6040516326475b2f60e11b815261047b925060040190815260200190565b611bb38480613256565b90505f03611be057611bc58480613256565b604051633e08a12560e11b815260040161047b929190613298565b5f60068201611bef8680613256565b604051611bfd92919061317a565b90815260200160405180910390205414611c3657611c1b8480613256565b60405163a41f772f60e01b815260040161047b929190613298565b611c40835f6122c7565b6040805160e08101909152815481525f90819073__$fd0c147b4031eef6079b0498cbafa865f0$__9063eb97ce519060208101611c7d8a80613256565b8080601f0160208091040260200160405190810160405280939291908181526020018383808284375f92019190915250505090825250602090810190611cc5908b018b613256565b8080601f0160208091040260200160405190810160405280939291908181526020018383808284375f92019190915250505090825250602001611d0e60608b0160408c01613216565b6001600160401b03168152602001611d2960608b018b613242565b611d32906132ab565b8152602001611d4460808b018b613242565b611d4d906132ab565b8152602001886001600160401b03168152506040518263ffffffff1660e01b8152600401611d7b91906133d8565b5f60405180830381865af4158015611d95573d5f803e3d5ffd5b505050506040513d5f823e601f3d908101601f19168201604052611dbc919081019061348f565b5f82815260048601602052604090209193509150611dda8282612da8565b508160068401611dea8880613256565b604051611df892919061317a565b9081526040519081900360200181209190915563ee5b48eb60e01b81525f906005600160991b019063ee5b48eb90611e34908590600401612be6565b6020604051808303815f875af1158015611e50573d5f803e3d5ffd5b505050506040513d601f19601f82011682018060405250810190611e749190612bf8565b5f8481526005860160205260409020805460ff191660011790559050611e9a8780613256565b5f858152600587016020526040902060010191611eb89190836134d2565b505f83815260058501602052604090206002810180546001600160c01b0319166001600160401b038916908117600160801b91909102176001600160c01b03169055600301805467ffffffffffffffff1916905580837fe093cab27f3fc60439e008f3a2073310d3ac9ac9b7d59e53a06b2588f7498bd688611f3a8b80613256565b611f4a60608e0160408f01613216565b604051611f5a949392919061358b565b60405180910390a3509095945050505050565b611f75612531565b611f7e8261257a565b610b5a81612593565b5f8281525f80516020613651833981519152602052604081206002015481905f8051602061363183398151915290600160801b90046001600160401b0316611fcf85826122c7565b5f611fd9876125a4565b5f888152600585016020526040808220600201805467ffffffffffffffff60801b1916600160801b6001600160401b038c811691820292909217909255915163854a893f60e01b8152600481018c905291841660248301526044820152919250906005600160991b019063ee5b48eb9073__$fd0c147b4031eef6079b0498cbafa865f0$__9063854a893f906064015f60405180830381865af4158015612082573d5f803e3d5ffd5b505050506040513d5f823e601f3d908101601f191682016040526120a99190810190612bb5565b6040518263ffffffff1660e01b81526004016120c59190612be6565b6020604051808303815f875af11580156120e1573d5f803e3d5ffd5b505050506040513d601f19601f820116820180604052508101906121059190612bf8565b604080516001600160401b038a811682526020820184905282519394508516928b927f07de5ff35a674a8005e661f3333c907ca6333462808762d19dc7b3abb1a8c1df928290030190a3909450925050505b9250929050565b61216b602082018261281a565b63ffffffff1615801561218b57506121866020820182612c0f565b151590505b156121d25761219d602082018261281a565b6121aa6020830183612c0f565b60405163c08a0f1d60e01b815263ffffffff909316600484015260248301525060440161047b565b6121df6020820182612c0f565b90506121ee602083018361281a565b63ffffffff1611156122075761219d602082018261281a565b60015b6122176020830183612c0f565b9050811015610b5a5761222d6020830183612c0f565b6122386001846135c2565b81811061224757612247612c54565b905060200201602081019061225c91906129df565b6001600160a01b03166122726020840184612c0f565b8381811061228257612282612c54565b905060200201602081019061229791906129df565b6001600160a01b031610156122bf57604051630dbc8d5f60e31b815260040160405180910390fd5b60010161220a565b5f805160206136318339815191525f6001600160401b0380841690851611156122fb576122f483856135d5565b9050612308565b61230584846135d5565b90505b60408051608081018252600284015480825260038501546001600160401b038082166020850152600160401b8204811694840194909452600160801b9004909216606082015242911580612375575060018401548151612371916001600160401b03169061322f565b8210155b1561239d576001600160401b03808416606083015282825260408201511660208201526123bc565b82816060018181516123af9190612e7b565b6001600160401b03169052505b60608101516123cc906064612ede565b602082015160018601546001600160401b0392909216916123f79190600160401b900460ff16612ede565b6001600160401b0316101561243057606081015160405163dfae880160e01b81526001600160401b03909116600482015260240161047b565b85816040018181516124429190612e7b565b6001600160401b03169052506040810180518691906124629083906135d5565b6001600160401b03169052506001840154604082015160649161249091600160401b90910460ff1690612ede565b6001600160401b031610156124c9576040808201519051633e1a785160e01b81526001600160401b03909116600482015260240161047b565b8051600285015560208101516003909401805460408301516060909301516001600160401b03908116600160801b0267ffffffffffffffff60801b19948216600160401b026001600160801b0319909316919097161717919091169390931790925550505050565b7ff0c57e16840df040f15088dc2f81fe391c3923bec73e23a9662efc9c229c6a0054600160401b900460ff16610b4757604051631afcd79f60e31b815260040160405180910390fd5b612582612531565b61258a612619565b61114381612621565b61259b612531565b61114381612709565b5f8181525f805160206136518339815191526020526040812060020180545f8051602061363183398151915291906008906125ee90600160401b90046001600160401b03166135f5565b91906101000a8154816001600160401b0302191690836001600160401b031602179055915050919050565b610b47612531565b612629612531565b80355f80516020613631833981519152908155601461264e6060840160408501613610565b60ff16118061266d57506126686060830160408401613610565b60ff16155b156126a1576126826060830160408401613610565b604051634a59bbff60e11b815260ff909116600482015260240161047b565b6126b16060830160408401613610565b60018201805460ff92909216600160401b0260ff60401b199092169190911790556126e26040830160208401613216565b600191909101805467ffffffffffffffff19166001600160401b0390921691909117905550565b611111612531565b50805461271d90612a6c565b5f825580601f1061272c575050565b601f0160209004905f5260205f20908101906111439190612785565b6040805160e08101909152805f81526060602082018190525f604083018190529082018190526080820181905260a0820181905260c09091015290565b5b80821115612799575f8155600101612786565b5090565b5f602082840312156127ad575f80fd5b5035919050565b803563ffffffff811681146127c7575f80fd5b919050565b5f80604083850312156127dd575f80fd5b82356001600160401b038111156127f2575f80fd5b830160808186031215612803575f80fd5b9150612811602084016127b4565b90509250929050565b5f6020828403121561282a575f80fd5b610b71826127b4565b80356001600160401b03811681146127c7575f80fd5b5f806040838503121561285a575f80fd5b82356001600160401b0381111561286f575f80fd5b830160a08186031215612880575f80fd5b915061281160208401612833565b6001600160a01b0381168114611143575f80fd5b5f8082840360808112156128b4575f80fd5b60608112156128c1575f80fd5b5082915060608301356128d38161288e565b809150509250929050565b634e487b7160e01b5f52602160045260245ffd5b6006811061290e57634e487b7160e01b5f52602160045260245ffd5b9052565b5f5b8381101561292c578181015183820152602001612914565b50505f910152565b5f815180845261294b816020860160208601612912565b601f01601f19169290920160200192915050565b602081526129716020820183516128f2565b5f602083015160e0604084015261298c610100840182612934565b905060408401516001600160401b0380821660608601528060608701511660808601528060808701511660a08601528060a08701511660c08601528060c08701511660e086015250508091505092915050565b5f602082840312156129ef575f80fd5b81356129fa8161288e565b9392505050565b5f8060208385031215612a12575f80fd5b82356001600160401b0380821115612a28575f80fd5b818501915085601f830112612a3b575f80fd5b813581811115612a49575f80fd5b866020828501011115612a5a575f80fd5b60209290920196919550909350505050565b600181811c90821680612a8057607f821691505b602082108103612a9e57634e487b7160e01b5f52602260045260245ffd5b50919050565b60208101610b7482846128f2565b634e487b7160e01b5f52604160045260245ffd5b604051606081016001600160401b0381118282101715612ae857612ae8612ab2565b60405290565b604080519081016001600160401b0381118282101715612ae857612ae8612ab2565b604051601f8201601f191681016001600160401b0381118282101715612b3857612b38612ab2565b604052919050565b5f6001600160401b03821115612b5857612b58612ab2565b50601f01601f191660200190565b5f82601f830112612b75575f80fd5b8151612b88612b8382612b40565b612b10565b818152846020838601011115612b9c575f80fd5b612bad826020830160208701612912565b949350505050565b5f60208284031215612bc5575f80fd5b81516001600160401b03811115612bda575f80fd5b612bad84828501612b66565b602081525f610b716020830184612934565b5f60208284031215612c08575f80fd5b5051919050565b5f808335601e19843603018112612c24575f80fd5b8301803591506001600160401b03821115612c3d575f80fd5b6020019150600581901b3603821315612157575f80fd5b634e487b7160e01b5f52603260045260245ffd5b5f8235605e19833603018112612c7c575f80fd5b9190910192915050565b5f82601f830112612c95575f80fd5b8135612ca3612b8382612b40565b818152846020838601011115612cb7575f80fd5b816020850160208301375f918101602001919091529392505050565b5f60608236031215612ce3575f80fd5b612ceb612ac6565b82356001600160401b0380821115612d01575f80fd5b612d0d36838701612c86565b83526020850135915080821115612d22575f80fd5b50612d2f36828601612c86565b602083015250612d4160408401612833565b604082015292915050565b5f8251612c7c818460208701612912565b601f821115610b3157805f5260205f20601f840160051c81016020851015612d825750805b601f840160051c820191505b81811015612da1575f8155600101612d8e565b5050505050565b81516001600160401b03811115612dc157612dc1612ab2565b612dd581612dcf8454612a6c565b84612d5d565b602080601f831160018114612e08575f8415612df15750858301515b5f19600386901b1c1916600185901b178555612e5f565b5f85815260208120601f198616915b82811015612e3657888601518255948401946001909101908401612e17565b5085821015612e5357878501515f19600388901b60f8161c191681555b505060018460011b0185555b505050505050565b634e487b7160e01b5f52601160045260245ffd5b6001600160401b038181168382160190808211156112b0576112b0612e67565b6001600160401b0383168152604060208201525f612bad6040830184612934565b5f63ffffffff808316818103612ed457612ed4612e67565b6001019392505050565b6001600160401b03818116838216028082169190828114612f0157612f01612e67565b505092915050565b5f808335601e19843603018112612f1e575f80fd5b83016020810192503590506001600160401b03811115612f3c575f80fd5b803603821315612157575f80fd5b81835281816020850137505f828201602090810191909152601f909101601f19169091010190565b5f8383855260208086019550808560051b830101845f5b8781101561301f57848303601f19018952813536889003605e19018112612fae575f80fd5b87016060612fbc8280612f09565b828752612fcc8388018284612f4a565b92505050612fdc86830183612f09565b86830388880152612fee838284612f4a565b9250505060406001600160401b03613007828501612833565b16950194909452509783019790830190600101612f89565b5090979650505050505050565b6020815281356020820152602082013560408201525f60408301356130508161288e565b6001600160a01b031660608381019190915283013536849003601e19018112613077575f80fd5b83016020810190356001600160401b03811115613092575f80fd5b8060051b36038213156130a3575f80fd5b6080808501526130b760a085018284612f72565b95945050505050565b805180151581146127c7575f80fd5b5f80604083850312156130e0575f80fd5b82519150612811602084016130c0565b5f60208083525f845461310281612a6c565b806020870152604060018084165f8114613123576001811461313f5761316c565b60ff19851660408a0152604084151560051b8a0101955061316c565b895f5260205f205f5b858110156131635781548b8201860152908301908801613148565b8a016040019650505b509398975050505050505050565b818382375f9101908152919050565b5f806040838503121561319a575f80fd5b82516001600160401b03808211156131b0575f80fd5b90840190606082870312156131c3575f80fd5b6131cb612ac6565b8251815260208301516131dd8161288e565b60208201526040830151828111156131f3575f80fd5b6131ff88828601612b66565b6040830152509350612811915050602084016130c0565b5f60208284031215613226575f80fd5b610b7182612833565b80820180821115610b7457610b74612e67565b5f8235603e19833603018112612c7c575f80fd5b5f808335601e1984360301811261326b575f80fd5b8301803591506001600160401b03821115613284575f80fd5b602001915036819003821315612157575f80fd5b602081525f612bad602083018486612f4a565b5f604082360312156132bb575f80fd5b6132c3612aee565b6132cc836127b4565b81526020808401356001600160401b03808211156132e8575f80fd5b9085019036601f8301126132fa575f80fd5b81358181111561330c5761330c612ab2565b8060051b915061331d848301612b10565b8181529183018401918481019036841115613336575f80fd5b938501935b8385101561336057843592506133508361288e565b828252938501939085019061333b565b94860194909452509295945050505050565b5f6040830163ffffffff8351168452602080840151604060208701528281518085526060880191506020830194505f92505b808310156133cd5784516001600160a01b031682529383019360019290920191908301906133a4565b509695505050505050565b60208152815160208201525f602083015160e060408401526133fe610100840182612934565b90506040840151601f198085840301606086015261341c8383612934565b92506001600160401b03606087015116608086015260808601519150808584030160a086015261344c8383613372565b925060a08601519150808584030160c08601525061346a8282613372565b91505060c084015161348760e08501826001600160401b03169052565b509392505050565b5f80604083850312156134a0575f80fd5b8251915060208301516001600160401b038111156134bc575f80fd5b6134c885828601612b66565b9150509250929050565b6001600160401b038311156134e9576134e9612ab2565b6134fd836134f78354612a6c565b83612d5d565b5f601f84116001811461352e575f85156135175750838201355b5f19600387901b1c1916600186901b178355612da1565b5f83815260208120601f198716915b8281101561355d578685013582556020948501946001909201910161353d565b5086821015613579575f1960f88860031b161c19848701351681555b505060018560011b0183555050505050565b5f6001600160401b038087168352606060208401526135ae606084018688612f4a565b915080841660408401525095945050505050565b81810381811115610b7457610b74612e67565b6001600160401b038281168282160390808211156112b0576112b0612e67565b5f6001600160401b03808316818103612ed457612ed4612e67565b5f60208284031215613620575f80fd5b813560ff811681146129fa575f80fdfee92546d698950ddd38910d2e15ed1d923cd0a7b3dde9e2a6a3f380565559cb00e92546d698950ddd38910d2e15ed1d923cd0a7b3dde9e2a6a3f380565559cb05a164736f6c6343000819000a",
    "linkReferences": {
      "contracts/validator-manager/ValidatorMessages.sol": {
        "ValidatorMessages": [
          {
            "start": 1553,
            "length": 20
          },
          {
            "start": 2788,
            "length": 20
          },
          {
            "start": 2921,
            "length": 20
          },
          {
            "start": 3289,
            "length": 20
          },
          {
            "start": 5151,
            "length": 20
          },
          {
            "start": 7586,
            "length": 20
          },
          {
            "start": 8600,
            "length": 20
          }
        ]
      }
    }
  },
  "methodIdentifiers": {
    "ADDRESS_LENGTH()": "60305d62",
    "BLS_PUBLIC_KEY_LENGTH()": "8280a25a",
    "MAXIMUM_CHURN_PERCENTAGE_LIMIT()": "c974d1b6",
    "MAXIMUM_REGISTRATION_EXPIRY_LENGTH()": "df93d8de",
    "P_CHAIN_BLOCKCHAIN_ID()": "732214f8",
    "VALIDATOR_MANAGER_STORAGE_LOCATION()": "bc5fbfec",
    "WARP_MESSENGER()": "b771b3bc",
    "completeEndValidation(uint32)": "467ef06f",
    "completeValidatorRegistration(uint32)": "a3a65e48",
    "getValidator(bytes32)": "d5f20ff6",
    "initialize((bytes32,uint64,uint8),address)": "d588c18f",
    "initializeEndValidation(bytes32)": "97fb70d4",
    "initializeValidatorRegistration((bytes,bytes,uint64,(uint32,address[]),(uint32,address[])),uint64)": "9ba96b86",
    "initializeValidatorSet((bytes32,bytes32,address,(bytes,bytes,uint64)[]),uint32)": "20d91b7a",
    "owner()": "8da5cb5b",
    "registeredValidators(bytes)": "fd7ac5e7",
    "renounceOwnership()": "715018a6",
    "resendEndValidatorMessage(bytes32)": "0322ed98",
    "resendRegisterValidatorMessage(bytes32)": "bee0a03f",
    "transferOwnership(address)": "f2fde38b"
  },
  "id": 94
}