{
  "contractName": "Collectible",
  "abi": [
    {
      "inputs": [],
      "stateMutability": "nonpayable",
      "type": "constructor"
    },
    {
      "anonymous": false,
      "inputs": [
        {
          "indexed": true,
          "internalType": "address",
          "name": "owner",
          "type": "address"
        },
        {
          "indexed": true,
          "internalType": "address",
          "name": "approved",
          "type": "address"
        },
        {
          "indexed": true,
          "internalType": "uint256",
          "name": "tokenId",
          "type": "uint256"
        }
      ],
      "name": "Approval",
      "type": "event"
    },
    {
      "anonymous": false,
      "inputs": [
        {
          "indexed": true,
          "internalType": "address",
          "name": "owner",
          "type": "address"
        },
        {
          "indexed": true,
          "internalType": "address",
          "name": "operator",
          "type": "address"
        },
        {
          "indexed": false,
          "internalType": "bool",
          "name": "approved",
          "type": "bool"
        }
      ],
      "name": "ApprovalForAll",
      "type": "event"
    },
    {
      "anonymous": false,
      "inputs": [
        {
          "indexed": false,
          "internalType": "uint256",
          "name": "tokenId",
          "type": "uint256"
        },
        {
          "indexed": false,
          "internalType": "address",
          "name": "creator",
          "type": "address"
        },
        {
          "indexed": false,
          "internalType": "string",
          "name": "metadata",
          "type": "string"
        },
        {
          "indexed": false,
          "internalType": "uint256",
          "name": "royalty",
          "type": "uint256"
        }
      ],
      "name": "ItemMinted",
      "type": "event"
    },
    {
      "anonymous": false,
      "inputs": [
        {
          "indexed": true,
          "internalType": "address",
          "name": "from",
          "type": "address"
        },
        {
          "indexed": true,
          "internalType": "address",
          "name": "to",
          "type": "address"
        },
        {
          "indexed": true,
          "internalType": "uint256",
          "name": "tokenId",
          "type": "uint256"
        }
      ],
      "name": "Transfer",
      "type": "event"
    },
    {
      "inputs": [
        {
          "internalType": "address",
          "name": "to",
          "type": "address"
        },
        {
          "internalType": "uint256",
          "name": "tokenId",
          "type": "uint256"
        }
      ],
      "name": "approve",
      "outputs": [],
      "stateMutability": "nonpayable",
      "type": "function"
    },
    {
      "inputs": [
        {
          "internalType": "address",
          "name": "owner",
          "type": "address"
        }
      ],
      "name": "balanceOf",
      "outputs": [
        {
          "internalType": "uint256",
          "name": "",
          "type": "uint256"
        }
      ],
      "stateMutability": "view",
      "type": "function"
    },
    {
      "inputs": [
        {
          "internalType": "uint256",
          "name": "tokenId",
          "type": "uint256"
        }
      ],
      "name": "getApproved",
      "outputs": [
        {
          "internalType": "address",
          "name": "",
          "type": "address"
        }
      ],
      "stateMutability": "view",
      "type": "function"
    },
    {
      "inputs": [
        {
          "internalType": "string",
          "name": "",
          "type": "string"
        }
      ],
      "name": "hasBeenMinted",
      "outputs": [
        {
          "internalType": "bool",
          "name": "",
          "type": "bool"
        }
      ],
      "stateMutability": "view",
      "type": "function"
    },
    {
      "inputs": [
        {
          "internalType": "address",
          "name": "owner",
          "type": "address"
        },
        {
          "internalType": "address",
          "name": "operator",
          "type": "address"
        }
      ],
      "name": "isApprovedForAll",
      "outputs": [
        {
          "internalType": "bool",
          "name": "",
          "type": "bool"
        }
      ],
      "stateMutability": "view",
      "type": "function"
    },
    {
      "inputs": [],
      "name": "name",
      "outputs": [
        {
          "internalType": "string",
          "name": "",
          "type": "string"
        }
      ],
      "stateMutability": "view",
      "type": "function"
    },
    {
      "inputs": [
        {
          "internalType": "uint256",
          "name": "tokenId",
          "type": "uint256"
        }
      ],
      "name": "ownerOf",
      "outputs": [
        {
          "internalType": "address",
          "name": "",
          "type": "address"
        }
      ],
      "stateMutability": "view",
      "type": "function"
    },
    {
      "inputs": [
        {
          "internalType": "address",
          "name": "from",
          "type": "address"
        },
        {
          "internalType": "address",
          "name": "to",
          "type": "address"
        },
        {
          "internalType": "uint256",
          "name": "tokenId",
          "type": "uint256"
        }
      ],
      "name": "safeTransferFrom",
      "outputs": [],
      "stateMutability": "nonpayable",
      "type": "function"
    },
    {
      "inputs": [
        {
          "internalType": "address",
          "name": "from",
          "type": "address"
        },
        {
          "internalType": "address",
          "name": "to",
          "type": "address"
        },
        {
          "internalType": "uint256",
          "name": "tokenId",
          "type": "uint256"
        },
        {
          "internalType": "bytes",
          "name": "_data",
          "type": "bytes"
        }
      ],
      "name": "safeTransferFrom",
      "outputs": [],
      "stateMutability": "nonpayable",
      "type": "function"
    },
    {
      "inputs": [
        {
          "internalType": "address",
          "name": "operator",
          "type": "address"
        },
        {
          "internalType": "bool",
          "name": "approved",
          "type": "bool"
        }
      ],
      "name": "setApprovalForAll",
      "outputs": [],
      "stateMutability": "nonpayable",
      "type": "function"
    },
    {
      "inputs": [
        {
          "internalType": "bytes4",
          "name": "interfaceId",
          "type": "bytes4"
        }
      ],
      "name": "supportsInterface",
      "outputs": [
        {
          "internalType": "bool",
          "name": "",
          "type": "bool"
        }
      ],
      "stateMutability": "view",
      "type": "function"
    },
    {
      "inputs": [],
      "name": "symbol",
      "outputs": [
        {
          "internalType": "string",
          "name": "",
          "type": "string"
        }
      ],
      "stateMutability": "view",
      "type": "function"
    },
    {
      "inputs": [
        {
          "internalType": "uint256",
          "name": "",
          "type": "uint256"
        }
      ],
      "name": "tokenIdToItem",
      "outputs": [
        {
          "internalType": "address",
          "name": "owner",
          "type": "address"
        },
        {
          "internalType": "address",
          "name": "creator",
          "type": "address"
        },
        {
          "internalType": "uint256",
          "name": "royalty",
          "type": "uint256"
        }
      ],
      "stateMutability": "view",
      "type": "function"
    },
    {
      "inputs": [
        {
          "internalType": "uint256",
          "name": "tokenId",
          "type": "uint256"
        }
      ],
      "name": "tokenURI",
      "outputs": [
        {
          "internalType": "string",
          "name": "",
          "type": "string"
        }
      ],
      "stateMutability": "view",
      "type": "function"
    },
    {
      "inputs": [
        {
          "internalType": "address",
          "name": "from",
          "type": "address"
        },
        {
          "internalType": "address",
          "name": "to",
          "type": "address"
        },
        {
          "internalType": "uint256",
          "name": "tokenId",
          "type": "uint256"
        }
      ],
      "name": "transferFrom",
      "outputs": [],
      "stateMutability": "nonpayable",
      "type": "function"
    },
    {
      "inputs": [
        {
          "internalType": "string",
          "name": "metadata",
          "type": "string"
        },
        {
          "internalType": "uint256",
          "name": "royalty",
          "type": "uint256"
        }
      ],
      "name": "createCollectible",
      "outputs": [
        {
          "internalType": "uint256",
          "name": "",
          "type": "uint256"
        }
      ],
      "stateMutability": "nonpayable",
      "type": "function"
    },
    {
      "inputs": [],
      "name": "getItemsLength",
      "outputs": [
        {
          "internalType": "uint256",
          "name": "",
          "type": "uint256"
        }
      ],
      "stateMutability": "view",
      "type": "function"
    },
    {
      "inputs": [
        {
          "internalType": "uint256",
          "name": "tokenId",
          "type": "uint256"
        }
      ],
      "name": "getItem",
      "outputs": [
        {
          "internalType": "address",
          "name": "",
          "type": "address"
        },
        {
          "internalType": "address",
          "name": "",
          "type": "address"
        },
        {
          "internalType": "uint256",
          "name": "",
          "type": "uint256"
        }
      ],
      "stateMutability": "view",
      "type": "function"
    }
  ],
  "bytecode": "0x60806040523480156200001157600080fd5b506040518060400160405280600e81526020017f4e4654436f6c6c65637469626c650000000000000000000000000000000000008152506040518060400160405280600481526020017f4e46544300000000000000000000000000000000000000000000000000000000815250816000908051906020019062000096929190620000b8565b508060019080519060200190620000af929190620000b8565b505050620001cd565b828054620000c69062000168565b90600052602060002090601f016020900481019282620000ea576000855562000136565b82601f106200010557805160ff191683800117855562000136565b8280016001018555821562000136579182015b828111156200013557825182559160200191906001019062000118565b5b50905062000145919062000149565b5090565b5b80821115620001645760008160009055506001016200014a565b5090565b600060028204905060018216806200018157607f821691505b602082108114156200019857620001976200019e565b5b50919050565b7f4e487b7100000000000000000000000000000000000000000000000000000000600052602260045260246000fd5b61330580620001dd6000396000f3fe608060405234801561001057600080fd5b50600436106101165760003560e01c80635d36a364116100a2578063a22cb46511610071578063a22cb4651461031d578063b10d782414610339578063b88d4fde14610369578063c87b56dd14610385578063e985e9c5146103b557610116565b80635d36a3641461026d5780636352211e1461029f57806370a08231146102cf57806395d89b41146102ff57610116565b8063194f4795116100e9578063194f4795146101b55780631f061a29146101d357806323b872dd146102035780633129e7731461021f57806342842e0e1461025157610116565b806301ffc9a71461011b57806306fdde031461014b578063081812fc14610169578063095ea7b314610199575b600080fd5b61013560048036038101906101309190612100565b6103e5565b604051610142919061264b565b60405180910390f35b6101536104c7565b6040516101609190612666565b60405180910390f35b610183600480360381019061017e91906121ff565b610559565b60405161019091906125ad565b60405180910390f35b6101b360048036038101906101ae91906120c0565b6105de565b005b6101bd6106f6565b6040516101ca91906128c8565b60405180910390f35b6101ed60048036038101906101e891906121a3565b610703565b6040516101fa91906128c8565b60405180910390f35b61021d60048036038101906102189190611faa565b610a1f565b005b610239600480360381019061023491906121ff565b610a7f565b604051610248939291906125c8565b60405180910390f35b61026b60048036038101906102669190611faa565b610b16565b005b610287600480360381019061028291906121ff565b610b36565b604051610296939291906125c8565b60405180910390f35b6102b960048036038101906102b491906121ff565b610ba0565b6040516102c691906125ad565b60405180910390f35b6102e960048036038101906102e49190611f3d565b610c52565b6040516102f691906128c8565b60405180910390f35b610307610d0a565b6040516103149190612666565b60405180910390f35b61033760048036038101906103329190612080565b610d9c565b005b610353600480360381019061034e919061215a565b610f1d565b604051610360919061264b565b60405180910390f35b610383600480360381019061037e9190611ffd565b610f53565b005b61039f600480360381019061039a91906121ff565b610fb5565b6040516103ac9190612666565b60405180910390f35b6103cf60048036038101906103ca9190611f6a565b611107565b6040516103dc919061264b565b60405180910390f35b60007f80ac58cd000000000000000000000000000000000000000000000000000000007bffffffffffffffffffffffffffffffffffffffffffffffffffffffff1916827bffffffffffffffffffffffffffffffffffffffffffffffffffffffff191614806104b057507f5b5e139f000000000000000000000000000000000000000000000000000000007bffffffffffffffffffffffffffffffffffffffffffffffffffffffff1916827bffffffffffffffffffffffffffffffffffffffffffffffffffffffff1916145b806104c057506104bf8261119b565b5b9050919050565b6060600080546104d690612b6a565b80601f016020809104026020016040519081016040528092919081815260200182805461050290612b6a565b801561054f5780601f106105245761010080835404028352916020019161054f565b820191906000526020600020905b81548152906001019060200180831161053257829003601f168201915b5050505050905090565b600061056482611205565b6105a3576040517f08c379a000000000000000000000000000000000000000000000000000000000815260040161059a90612808565b60405180910390fd5b6004600083815260200190815260200160002060009054906101000a900473ffffffffffffffffffffffffffffffffffffffff169050919050565b60006105e982610ba0565b90508073ffffffffffffffffffffffffffffffffffffffff168373ffffffffffffffffffffffffffffffffffffffff16141561065a576040517f08c379a000000000000000000000000000000000000000000000000000000000815260040161065190612888565b60405180910390fd5b8073ffffffffffffffffffffffffffffffffffffffff16610679611271565b73ffffffffffffffffffffffffffffffffffffffff1614806106a857506106a7816106a2611271565b611107565b5b6106e7576040517f08c379a00000000000000000000000000000000000000000000000000000000081526004016106de90612728565b60405180910390fd5b6106f18383611279565b505050565b6000600980549050905090565b60006007836040516107159190612572565b908152602001604051809103902060009054906101000a900460ff1615610771576040517f08c379a000000000000000000000000000000000000000000000000000000000815260040161076890612828565b60405180910390fd5b60008210158015610783575060288211155b6107c2576040517f08c379a00000000000000000000000000000000000000000000000000000000081526004016107b990612788565b60405180910390fd5b600060405180606001604052803373ffffffffffffffffffffffffffffffffffffffff1681526020013373ffffffffffffffffffffffffffffffffffffffff168152602001848152509050600981908060018154018082558091505060019003906000526020600020906003020160009091909190915060008201518160000160006101000a81548173ffffffffffffffffffffffffffffffffffffffff021916908373ffffffffffffffffffffffffffffffffffffffff16021790555060208201518160010160006101000a81548173ffffffffffffffffffffffffffffffffffffffff021916908373ffffffffffffffffffffffffffffffffffffffff160217905550604082015181600201555050600060098054905090506108e73382611332565b6108f18186611350565b816008600083815260200190815260200160002060008201518160000160006101000a81548173ffffffffffffffffffffffffffffffffffffffff021916908373ffffffffffffffffffffffffffffffffffffffff16021790555060208201518160010160006101000a81548173ffffffffffffffffffffffffffffffffffffffff021916908373ffffffffffffffffffffffffffffffffffffffff1602179055506040820151816002015590505060016007866040516109b29190612572565b908152602001604051809103902060006101000a81548160ff0219169083151502179055507facd3f0bb7315448676927177916d82d603042a661927f33e76f60c49da0f587f81338787604051610a0c94939291906128e3565b60405180910390a1809250505092915050565b610a30610a2a611271565b826113c4565b610a6f576040517f08c379a0000000000000000000000000000000000000000000000000000000008152600401610a66906128a8565b60405180910390fd5b610a7a8383836114a2565b505050565b60008060006008600085815260200190815260200160002060000160009054906101000a900473ffffffffffffffffffffffffffffffffffffffff166008600086815260200190815260200160002060010160009054906101000a900473ffffffffffffffffffffffffffffffffffffffff1660086000878152602001908152602001600020600201549250925092509193909250565b610b3183838360405180602001604052806000815250610f53565b505050565b60086020528060005260406000206000915090508060000160009054906101000a900473ffffffffffffffffffffffffffffffffffffffff16908060010160009054906101000a900473ffffffffffffffffffffffffffffffffffffffff16908060020154905083565b6000806002600084815260200190815260200160002060009054906101000a900473ffffffffffffffffffffffffffffffffffffffff169050600073ffffffffffffffffffffffffffffffffffffffff168173ffffffffffffffffffffffffffffffffffffffff161415610c49576040517f08c379a0000000000000000000000000000000000000000000000000000000008152600401610c4090612768565b60405180910390fd5b80915050919050565b60008073ffffffffffffffffffffffffffffffffffffffff168273ffffffffffffffffffffffffffffffffffffffff161415610cc3576040517f08c379a0000000000000000000000000000000000000000000000000000000008152600401610cba90612748565b60405180910390fd5b600360008373ffffffffffffffffffffffffffffffffffffffff1673ffffffffffffffffffffffffffffffffffffffff168152602001908152602001600020549050919050565b606060018054610d1990612b6a565b80601f0160208091040260200160405190810160405280929190818152602001828054610d4590612b6a565b8015610d925780601f10610d6757610100808354040283529160200191610d92565b820191906000526020600020905b815481529060010190602001808311610d7557829003601f168201915b5050505050905090565b610da4611271565b73ffffffffffffffffffffffffffffffffffffffff168273ffffffffffffffffffffffffffffffffffffffff161415610e12576040517f08c379a0000000000000000000000000000000000000000000000000000000008152600401610e09906126e8565b60405180910390fd5b8060056000610e1f611271565b73ffffffffffffffffffffffffffffffffffffffff1673ffffffffffffffffffffffffffffffffffffffff16815260200190815260200160002060008473ffffffffffffffffffffffffffffffffffffffff1673ffffffffffffffffffffffffffffffffffffffff16815260200190815260200160002060006101000a81548160ff0219169083151502179055508173ffffffffffffffffffffffffffffffffffffffff16610ecc611271565b73ffffffffffffffffffffffffffffffffffffffff167f17307eab39ab6107e8899845ad3d59bd9653f200f220920489ca2b5937696c3183604051610f11919061264b565b60405180910390a35050565b6007818051602081018201805184825260208301602085012081835280955050505050506000915054906101000a900460ff1681565b610f64610f5e611271565b836113c4565b610fa3576040517f08c379a0000000000000000000000000000000000000000000000000000000008152600401610f9a906128a8565b60405180910390fd5b610faf848484846116fe565b50505050565b6060610fc082611205565b610fff576040517f08c379a0000000000000000000000000000000000000000000000000000000008152600401610ff6906127e8565b60405180910390fd5b600060066000848152602001908152602001600020805461101f90612b6a565b80601f016020809104026020016040519081016040528092919081815260200182805461104b90612b6a565b80156110985780601f1061106d57610100808354040283529160200191611098565b820191906000526020600020905b81548152906001019060200180831161107b57829003601f168201915b5050505050905060006110a961175a565b90506000815114156110bf578192505050611102565b6000825111156110f45780826040516020016110dc929190612589565b60405160208183030381529060405292505050611102565b6110fd84611771565b925050505b919050565b6000600560008473ffffffffffffffffffffffffffffffffffffffff1673ffffffffffffffffffffffffffffffffffffffff16815260200190815260200160002060008373ffffffffffffffffffffffffffffffffffffffff1673ffffffffffffffffffffffffffffffffffffffff16815260200190815260200160002060009054906101000a900460ff16905092915050565b60007f01ffc9a7000000000000000000000000000000000000000000000000000000007bffffffffffffffffffffffffffffffffffffffffffffffffffffffff1916827bffffffffffffffffffffffffffffffffffffffffffffffffffffffff1916149050919050565b60008073ffffffffffffffffffffffffffffffffffffffff166002600084815260200190815260200160002060009054906101000a900473ffffffffffffffffffffffffffffffffffffffff1673ffffffffffffffffffffffffffffffffffffffff1614159050919050565b600033905090565b816004600083815260200190815260200160002060006101000a81548173ffffffffffffffffffffffffffffffffffffffff021916908373ffffffffffffffffffffffffffffffffffffffff160217905550808273ffffffffffffffffffffffffffffffffffffffff166112ec83610ba0565b73ffffffffffffffffffffffffffffffffffffffff167f8c5be1e5ebec7d5bd14f71427d1e84f3dd0314c0f7b2291e5b200ac8c7c3b92560405160405180910390a45050565b61134c828260405180602001604052806000815250611818565b5050565b61135982611205565b611398576040517f08c379a000000000000000000000000000000000000000000000000000000000815260040161138f906127a8565b60405180910390fd5b806006600084815260200190815260200160002090805190602001906113bf929190611d51565b505050565b60006113cf82611205565b61140e576040517f08c379a000000000000000000000000000000000000000000000000000000000815260040161140590612708565b60405180910390fd5b600061141983610ba0565b90508073ffffffffffffffffffffffffffffffffffffffff168473ffffffffffffffffffffffffffffffffffffffff16148061148857508373ffffffffffffffffffffffffffffffffffffffff1661147084610559565b73ffffffffffffffffffffffffffffffffffffffff16145b8061149957506114988185611107565b5b91505092915050565b8273ffffffffffffffffffffffffffffffffffffffff166114c282610ba0565b73ffffffffffffffffffffffffffffffffffffffff1614611518576040517f08c379a000000000000000000000000000000000000000000000000000000000815260040161150f90612848565b60405180910390fd5b600073ffffffffffffffffffffffffffffffffffffffff168273ffffffffffffffffffffffffffffffffffffffff161415611588576040517f08c379a000000000000000000000000000000000000000000000000000000000815260040161157f906126c8565b60405180910390fd5b611593838383611873565b61159e600082611279565b6001600360008573ffffffffffffffffffffffffffffffffffffffff1673ffffffffffffffffffffffffffffffffffffffff16815260200190815260200160002060008282546115ee9190612a80565b925050819055506001600360008473ffffffffffffffffffffffffffffffffffffffff1673ffffffffffffffffffffffffffffffffffffffff168152602001908152602001600020600082825461164591906129f9565b92505081905550816002600083815260200190815260200160002060006101000a81548173ffffffffffffffffffffffffffffffffffffffff021916908373ffffffffffffffffffffffffffffffffffffffff160217905550808273ffffffffffffffffffffffffffffffffffffffff168473ffffffffffffffffffffffffffffffffffffffff167fddf252ad1be2c89b69c2b068fc378daa952ba7f163c4a11628f55a4df523b3ef60405160405180910390a4505050565b6117098484846114a2565b61171584848484611878565b611754576040517f08c379a000000000000000000000000000000000000000000000000000000000815260040161174b90612688565b60405180910390fd5b50505050565b606060405180602001604052806000815250905090565b606061177c82611205565b6117bb576040517f08c379a00000000000000000000000000000000000000000000000000000000081526004016117b290612868565b60405180910390fd5b60006117c561175a565b905060008151116117e55760405180602001604052806000815250611810565b806117ef84611a0f565b604051602001611800929190612589565b6040516020818303038152906040525b915050919050565b6118228383611b70565b61182f6000848484611878565b61186e576040517f08c379a000000000000000000000000000000000000000000000000000000000815260040161186590612688565b60405180910390fd5b505050565b505050565b60006118998473ffffffffffffffffffffffffffffffffffffffff16611d3e565b15611a02578373ffffffffffffffffffffffffffffffffffffffff1663150b7a026118c2611271565b8786866040518563ffffffff1660e01b81526004016118e494939291906125ff565b602060405180830381600087803b1580156118fe57600080fd5b505af192505050801561192f57506040513d601f19601f8201168201806040525081019061192c919061212d565b60015b6119b2573d806000811461195f576040519150601f19603f3d011682016040523d82523d6000602084013e611964565b606091505b506000815114156119aa576040517f08c379a00000000000000000000000000000000000000000000000000000000081526004016119a190612688565b60405180910390fd5b805181602001fd5b63150b7a0260e01b7bffffffffffffffffffffffffffffffffffffffffffffffffffffffff1916817bffffffffffffffffffffffffffffffffffffffffffffffffffffffff191614915050611a07565b600190505b949350505050565b60606000821415611a57576040518060400160405280600181526020017f30000000000000000000000000000000000000000000000000000000000000008152509050611b6b565b600082905060005b60008214611a89578080611a7290612bcd565b915050600a82611a829190612a4f565b9150611a5f565b60008167ffffffffffffffff811115611aa557611aa4612d03565b5b6040519080825280601f01601f191660200182016040528015611ad75781602001600182028036833780820191505090505b5090505b60008514611b6457600182611af09190612a80565b9150600a85611aff9190612c16565b6030611b0b91906129f9565b60f81b818381518110611b2157611b20612cd4565b5b60200101907effffffffffffffffffffffffffffffffffffffffffffffffffffffffffffff1916908160001a905350600a85611b5d9190612a4f565b9450611adb565b8093505050505b919050565b600073ffffffffffffffffffffffffffffffffffffffff168273ffffffffffffffffffffffffffffffffffffffff161415611be0576040517f08c379a0000000000000000000000000000000000000000000000000000000008152600401611bd7906127c8565b60405180910390fd5b611be981611205565b15611c29576040517f08c379a0000000000000000000000000000000000000000000000000000000008152600401611c20906126a8565b60405180910390fd5b611c3560008383611873565b6001600360008473ffffffffffffffffffffffffffffffffffffffff1673ffffffffffffffffffffffffffffffffffffffff1681526020019081526020016000206000828254611c8591906129f9565b92505081905550816002600083815260200190815260200160002060006101000a81548173ffffffffffffffffffffffffffffffffffffffff021916908373ffffffffffffffffffffffffffffffffffffffff160217905550808273ffffffffffffffffffffffffffffffffffffffff16600073ffffffffffffffffffffffffffffffffffffffff167fddf252ad1be2c89b69c2b068fc378daa952ba7f163c4a11628f55a4df523b3ef60405160405180910390a45050565b600080823b905060008111915050919050565b828054611d5d90612b6a565b90600052602060002090601f016020900481019282611d7f5760008555611dc6565b82601f10611d9857805160ff1916838001178555611dc6565b82800160010185558215611dc6579182015b82811115611dc5578251825591602001919060010190611daa565b5b509050611dd39190611dd7565b5090565b5b80821115611df0576000816000905550600101611dd8565b5090565b6000611e07611e0284612954565b61292f565b905082815260208101848484011115611e2357611e22612d37565b5b611e2e848285612b28565b509392505050565b6000611e49611e4484612985565b61292f565b905082815260208101848484011115611e6557611e64612d37565b5b611e70848285612b28565b509392505050565b600081359050611e8781613273565b92915050565b600081359050611e9c8161328a565b92915050565b600081359050611eb1816132a1565b92915050565b600081519050611ec6816132a1565b92915050565b600082601f830112611ee157611ee0612d32565b5b8135611ef1848260208601611df4565b91505092915050565b600082601f830112611f0f57611f0e612d32565b5b8135611f1f848260208601611e36565b91505092915050565b600081359050611f37816132b8565b92915050565b600060208284031215611f5357611f52612d41565b5b6000611f6184828501611e78565b91505092915050565b60008060408385031215611f8157611f80612d41565b5b6000611f8f85828601611e78565b9250506020611fa085828601611e78565b9150509250929050565b600080600060608486031215611fc357611fc2612d41565b5b6000611fd186828701611e78565b9350506020611fe286828701611e78565b9250506040611ff386828701611f28565b9150509250925092565b6000806000806080858703121561201757612016612d41565b5b600061202587828801611e78565b945050602061203687828801611e78565b935050604061204787828801611f28565b925050606085013567ffffffffffffffff81111561206857612067612d3c565b5b61207487828801611ecc565b91505092959194509250565b6000806040838503121561209757612096612d41565b5b60006120a585828601611e78565b92505060206120b685828601611e8d565b9150509250929050565b600080604083850312156120d7576120d6612d41565b5b60006120e585828601611e78565b92505060206120f685828601611f28565b9150509250929050565b60006020828403121561211657612115612d41565b5b600061212484828501611ea2565b91505092915050565b60006020828403121561214357612142612d41565b5b600061215184828501611eb7565b91505092915050565b6000602082840312156121705761216f612d41565b5b600082013567ffffffffffffffff81111561218e5761218d612d3c565b5b61219a84828501611efa565b91505092915050565b600080604083850312156121ba576121b9612d41565b5b600083013567ffffffffffffffff8111156121d8576121d7612d3c565b5b6121e485828601611efa565b92505060206121f585828601611f28565b9150509250929050565b60006020828403121561221557612214612d41565b5b600061222384828501611f28565b91505092915050565b61223581612ab4565b82525050565b61224481612ac6565b82525050565b6000612255826129b6565b61225f81856129cc565b935061226f818560208601612b37565b61227881612d46565b840191505092915050565b600061228e826129c1565b61229881856129dd565b93506122a8818560208601612b37565b6122b181612d46565b840191505092915050565b60006122c7826129c1565b6122d181856129ee565b93506122e1818560208601612b37565b80840191505092915050565b60006122fa6032836129dd565b915061230582612d57565b604082019050919050565b600061231d601c836129dd565b915061232882612da6565b602082019050919050565b60006123406024836129dd565b915061234b82612dcf565b604082019050919050565b60006123636019836129dd565b915061236e82612e1e565b602082019050919050565b6000612386602c836129dd565b915061239182612e47565b604082019050919050565b60006123a96038836129dd565b91506123b482612e96565b604082019050919050565b60006123cc602a836129dd565b91506123d782612ee5565b604082019050919050565b60006123ef6029836129dd565b91506123fa82612f34565b604082019050919050565b60006124126025836129dd565b915061241d82612f83565b604082019050919050565b6000612435602e836129dd565b915061244082612fd2565b604082019050919050565b60006124586020836129dd565b915061246382613021565b602082019050919050565b600061247b6031836129dd565b91506124868261304a565b604082019050919050565b600061249e602c836129dd565b91506124a982613099565b604082019050919050565b60006124c16033836129dd565b91506124cc826130e8565b604082019050919050565b60006124e46029836129dd565b91506124ef82613137565b604082019050919050565b6000612507602f836129dd565b915061251282613186565b604082019050919050565b600061252a6021836129dd565b9150612535826131d5565b604082019050919050565b600061254d6031836129dd565b915061255882613224565b604082019050919050565b61256c81612b1e565b82525050565b600061257e82846122bc565b915081905092915050565b600061259582856122bc565b91506125a182846122bc565b91508190509392505050565b60006020820190506125c2600083018461222c565b92915050565b60006060820190506125dd600083018661222c565b6125ea602083018561222c565b6125f76040830184612563565b949350505050565b6000608082019050612614600083018761222c565b612621602083018661222c565b61262e6040830185612563565b8181036060830152612640818461224a565b905095945050505050565b6000602082019050612660600083018461223b565b92915050565b600060208201905081810360008301526126808184612283565b905092915050565b600060208201905081810360008301526126a1816122ed565b9050919050565b600060208201905081810360008301526126c181612310565b9050919050565b600060208201905081810360008301526126e181612333565b9050919050565b6000602082019050818103600083015261270181612356565b9050919050565b6000602082019050818103600083015261272181612379565b9050919050565b600060208201905081810360008301526127418161239c565b9050919050565b60006020820190508181036000830152612761816123bf565b9050919050565b60006020820190508181036000830152612781816123e2565b9050919050565b600060208201905081810360008301526127a181612405565b9050919050565b600060208201905081810360008301526127c181612428565b9050919050565b600060208201905081810360008301526127e18161244b565b9050919050565b600060208201905081810360008301526128018161246e565b9050919050565b6000602082019050818103600083015261282181612491565b9050919050565b60006020820190508181036000830152612841816124b4565b9050919050565b60006020820190508181036000830152612861816124d7565b9050919050565b60006020820190508181036000830152612881816124fa565b9050919050565b600060208201905081810360008301526128a18161251d565b9050919050565b600060208201905081810360008301526128c181612540565b9050919050565b60006020820190506128dd6000830184612563565b92915050565b60006080820190506128f86000830187612563565b612905602083018661222c565b81810360408301526129178185612283565b90506129266060830184612563565b95945050505050565b600061293961294a565b90506129458282612b9c565b919050565b6000604051905090565b600067ffffffffffffffff82111561296f5761296e612d03565b5b61297882612d46565b9050602081019050919050565b600067ffffffffffffffff8211156129a05761299f612d03565b5b6129a982612d46565b9050602081019050919050565b600081519050919050565b600081519050919050565b600082825260208201905092915050565b600082825260208201905092915050565b600081905092915050565b6000612a0482612b1e565b9150612a0f83612b1e565b9250827fffffffffffffffffffffffffffffffffffffffffffffffffffffffffffffffff03821115612a4457612a43612c47565b5b828201905092915050565b6000612a5a82612b1e565b9150612a6583612b1e565b925082612a7557612a74612c76565b5b828204905092915050565b6000612a8b82612b1e565b9150612a9683612b1e565b925082821015612aa957612aa8612c47565b5b828203905092915050565b6000612abf82612afe565b9050919050565b60008115159050919050565b60007fffffffff0000000000000000000000000000000000000000000000000000000082169050919050565b600073ffffffffffffffffffffffffffffffffffffffff82169050919050565b6000819050919050565b82818337600083830152505050565b60005b83811015612b55578082015181840152602081019050612b3a565b83811115612b64576000848401525b50505050565b60006002820490506001821680612b8257607f821691505b60208210811415612b9657612b95612ca5565b5b50919050565b612ba582612d46565b810181811067ffffffffffffffff82111715612bc457612bc3612d03565b5b80604052505050565b6000612bd882612b1e565b91507fffffffffffffffffffffffffffffffffffffffffffffffffffffffffffffffff821415612c0b57612c0a612c47565b5b600182019050919050565b6000612c2182612b1e565b9150612c2c83612b1e565b925082612c3c57612c3b612c76565b5b828206905092915050565b7f4e487b7100000000000000000000000000000000000000000000000000000000600052601160045260246000fd5b7f4e487b7100000000000000000000000000000000000000000000000000000000600052601260045260246000fd5b7f4e487b7100000000000000000000000000000000000000000000000000000000600052602260045260246000fd5b7f4e487b7100000000000000000000000000000000000000000000000000000000600052603260045260246000fd5b7f4e487b7100000000000000000000000000000000000000000000000000000000600052604160045260246000fd5b600080fd5b600080fd5b600080fd5b600080fd5b6000601f19601f8301169050919050565b7f4552433732313a207472616e7366657220746f206e6f6e20455243373231526560008201527f63656976657220696d706c656d656e7465720000000000000000000000000000602082015250565b7f4552433732313a20746f6b656e20616c7265616479206d696e74656400000000600082015250565b7f4552433732313a207472616e7366657220746f20746865207a65726f2061646460008201527f7265737300000000000000000000000000000000000000000000000000000000602082015250565b7f4552433732313a20617070726f766520746f2063616c6c657200000000000000600082015250565b7f4552433732313a206f70657261746f7220717565727920666f72206e6f6e657860008201527f697374656e7420746f6b656e0000000000000000000000000000000000000000602082015250565b7f4552433732313a20617070726f76652063616c6c6572206973206e6f74206f7760008201527f6e6572206e6f7220617070726f76656420666f7220616c6c0000000000000000602082015250565b7f4552433732313a2062616c616e636520717565727920666f7220746865207a6560008201527f726f206164647265737300000000000000000000000000000000000000000000602082015250565b7f4552433732313a206f776e657220717565727920666f72206e6f6e657869737460008201527f656e7420746f6b656e0000000000000000000000000000000000000000000000602082015250565b7f526f79616c74696573206d757374206265206265747765656e20302520616e6460008201527f203430252e000000000000000000000000000000000000000000000000000000602082015250565b7f45524337323155524953746f726167653a2055524920736574206f66206e6f6e60008201527f6578697374656e7420746f6b656e000000000000000000000000000000000000602082015250565b7f4552433732313a206d696e7420746f20746865207a65726f2061646472657373600082015250565b7f45524337323155524953746f726167653a2055524920717565727920666f722060008201527f6e6f6e6578697374656e7420746f6b656e000000000000000000000000000000602082015250565b7f4552433732313a20617070726f76656420717565727920666f72206e6f6e657860008201527f697374656e7420746f6b656e0000000000000000000000000000000000000000602082015250565b7f54686973206d657461646174612068617320616c7265616479206265656e207560008201527f73656420746f206d696e7420616e204e46542e00000000000000000000000000602082015250565b7f4552433732313a207472616e73666572206f6620746f6b656e2074686174206960008201527f73206e6f74206f776e0000000000000000000000000000000000000000000000602082015250565b7f4552433732314d657461646174613a2055524920717565727920666f72206e6f60008201527f6e6578697374656e7420746f6b656e0000000000000000000000000000000000602082015250565b7f4552433732313a20617070726f76616c20746f2063757272656e74206f776e6560008201527f7200000000000000000000000000000000000000000000000000000000000000602082015250565b7f4552433732313a207472616e736665722063616c6c6572206973206e6f74206f60008201527f776e6572206e6f7220617070726f766564000000000000000000000000000000602082015250565b61327c81612ab4565b811461328757600080fd5b50565b61329381612ac6565b811461329e57600080fd5b50565b6132aa81612ad2565b81146132b557600080fd5b50565b6132c181612b1e565b81146132cc57600080fd5b5056fea2646970667358221220aa7868d55f847ef447de61b9c0ab78870d256e9b9ed12c6c7058f2febeca2d9e64736f6c63430008060033",
  "immutableReferences": {},
  "source": "// SPDX-License-Identifier: MIT\r\npragma solidity ^0.8.6;\r\n\r\nimport \"@openzeppelin/contracts/token/ERC721/extensions/ERC721URIStorage.sol\";\r\nimport \"@openzeppelin/contracts/utils/math/SafeMath.sol\";\r\n\r\ncontract Collectible is ERC721URIStorage {\r\n    // Mapping to check if the metadata has been minted\r\n    mapping(string => bool) public hasBeenMinted;\r\n\r\n    // Mapping to keep track of the Item\r\n    mapping(uint256 => Item) public tokenIdToItem;\r\n\r\n    // A struct for the collectible item containing info about `owner`, `creator` and the `royalty`\r\n    struct Item {\r\n        address owner;\r\n        address creator;\r\n        uint256 royalty;\r\n    }\r\n\r\n    Item[] private items;\r\n\r\n    /**\r\n     * @dev Emitted when a `tokenId` has been bought for a `price` by a `buyer`\r\n    */\r\n    event ItemMinted(uint256 tokenId, address creator, string metadata, uint256 royalty);\r\n\r\n    /**\r\n     * @dev Initializes the contract by setting a `name` and a `symbol` to the token collection inheriting from the ERC721 smart contract.\r\n     */\r\n    constructor() ERC721(\"NFTCollectible\", \"NFTC\") {}\r\n\r\n    /**\r\n     * @dev create a collectible with a `metadata` for the msg.sender\r\n     *\r\n     * Requirements:\r\n     * - `metadata` has not been minted before\r\n     * - `royalty` must be between 0% and 40%\r\n     *\r\n     * Emits a {Transfer} event - comes from the ERC-721 smart contract.\r\n     */\r\n    function createCollectible(string memory metadata, uint256 royalty)\r\n        public\r\n        returns (uint256)\r\n    {\r\n        require(\r\n            !hasBeenMinted[metadata],\r\n            \"This metadata has already been used to mint an NFT.\"\r\n        );\r\n        require(\r\n            royalty >= 0 && royalty <= 40,\r\n            \"Royalties must be between 0% and 40%.\"\r\n        );\r\n        Item memory newItem = Item(msg.sender, msg.sender, royalty);\r\n        items.push(newItem);\r\n        uint256 newItemId = items.length;\r\n        _safeMint(msg.sender, newItemId);\r\n        _setTokenURI(newItemId, metadata);\r\n        tokenIdToItem[newItemId] = newItem;\r\n        hasBeenMinted[metadata] = true;\r\n        emit ItemMinted(newItemId, msg.sender, metadata, royalty);\r\n        return newItemId;\r\n    }\r\n\r\n    /**\r\n     * @dev return the length of the items array\r\n     */\r\n    function getItemsLength() public view returns (uint256) {\r\n        return items.length;\r\n    }\r\n\r\n    /**\r\n     * @dev return an item associated to a provided `tokenId`\r\n     */\r\n    function getItem(uint256 tokenId) public view returns (address, address, uint256)\r\n    {\r\n        return (tokenIdToItem[tokenId].owner, tokenIdToItem[tokenId].creator, tokenIdToItem[tokenId].royalty);\r\n    }\r\n}\r\n",
  "sourcePath": "C:\\Users\\Metodi\\Desktop\\ProjectsDapp\\avax-tutorial-nft\\contracts\\Collectible.sol",
  "compiler": {
    "name": "solc",
    "version": "0.8.6+commit.11564f7e.Emscripten.clang"
  },
  "schemaVersion": "3.4.2",
  "updatedAt": "2021-08-07T17:12:12.228Z",
  "devdoc": {
    "events": {
      "ItemMinted(uint256,address,string,uint256)": {
        "details": "Emitted when a `tokenId` has been bought for a `price` by a `buyer`"
      }
    },
    "kind": "dev",
    "methods": {
      "approve(address,uint256)": {
        "details": "See {IERC721-approve}."
      },
      "balanceOf(address)": {
        "details": "See {IERC721-balanceOf}."
      },
      "constructor": {
        "details": "Initializes the contract by setting a `name` and a `symbol` to the token collection inheriting from the ERC721 smart contract."
      },
      "createCollectible(string,uint256)": {
        "details": "create a collectible with a `metadata` for the msg.sender Requirements: - `metadata` has not been minted before - `royalty` must be between 0% and 40% Emits a {Transfer} event - comes from the ERC-721 smart contract."
      },
      "getApproved(uint256)": {
        "details": "See {IERC721-getApproved}."
      },
      "getItem(uint256)": {
        "details": "return an item associated to a provided `tokenId`"
      },
      "getItemsLength()": {
        "details": "return the length of the items array"
      },
      "isApprovedForAll(address,address)": {
        "details": "See {IERC721-isApprovedForAll}."
      },
      "name()": {
        "details": "See {IERC721Metadata-name}."
      },
      "ownerOf(uint256)": {
        "details": "See {IERC721-ownerOf}."
      },
      "safeTransferFrom(address,address,uint256)": {
        "details": "See {IERC721-safeTransferFrom}."
      },
      "safeTransferFrom(address,address,uint256,bytes)": {
        "details": "See {IERC721-safeTransferFrom}."
      },
      "setApprovalForAll(address,bool)": {
        "details": "See {IERC721-setApprovalForAll}."
      },
      "supportsInterface(bytes4)": {
        "details": "See {IERC165-supportsInterface}."
      },
      "symbol()": {
        "details": "See {IERC721Metadata-symbol}."
      },
      "tokenURI(uint256)": {
        "details": "See {IERC721Metadata-tokenURI}."
      },
      "transferFrom(address,address,uint256)": {
        "details": "See {IERC721-transferFrom}."
      }
    },
    "version": 1
  },
  "userdoc": {
    "kind": "user",
    "methods": {},
    "version": 1
  }
}