{
  "contractName": "Marketplace",
  "abi": [
    {
      "anonymous": false,
      "inputs": [
        {
          "indexed": true,
          "internalType": "address",
          "name": "owner",
          "type": "address"
        },
        {
          "indexed": true,
          "internalType": "address",
          "name": "approved",
          "type": "address"
        },
        {
          "indexed": true,
          "internalType": "uint256",
          "name": "tokenId",
          "type": "uint256"
        }
      ],
      "name": "Approval",
      "type": "event"
    },
    {
      "anonymous": false,
      "inputs": [
        {
          "indexed": true,
          "internalType": "address",
          "name": "owner",
          "type": "address"
        },
        {
          "indexed": true,
          "internalType": "address",
          "name": "operator",
          "type": "address"
        },
        {
          "indexed": false,
          "internalType": "bool",
          "name": "approved",
          "type": "bool"
        }
      ],
      "name": "ApprovalForAll",
      "type": "event"
    },
    {
      "anonymous": false,
      "inputs": [
        {
          "indexed": false,
          "internalType": "uint256",
          "name": "tokenId",
          "type": "uint256"
        },
        {
          "indexed": false,
          "internalType": "uint256",
          "name": "price",
          "type": "uint256"
        },
        {
          "indexed": false,
          "internalType": "address",
          "name": "buyer",
          "type": "address"
        }
      ],
      "name": "ItemBought",
      "type": "event"
    },
    {
      "anonymous": false,
      "inputs": [
        {
          "indexed": false,
          "internalType": "uint256",
          "name": "tokenId",
          "type": "uint256"
        },
        {
          "indexed": false,
          "internalType": "uint256",
          "name": "price",
          "type": "uint256"
        },
        {
          "indexed": false,
          "internalType": "address",
          "name": "seller",
          "type": "address"
        }
      ],
      "name": "ItemListed",
      "type": "event"
    },
    {
      "anonymous": false,
      "inputs": [
        {
          "indexed": false,
          "internalType": "uint256",
          "name": "tokenId",
          "type": "uint256"
        },
        {
          "indexed": false,
          "internalType": "address",
          "name": "creator",
          "type": "address"
        },
        {
          "indexed": false,
          "internalType": "string",
          "name": "metadata",
          "type": "string"
        },
        {
          "indexed": false,
          "internalType": "uint256",
          "name": "royalty",
          "type": "uint256"
        }
      ],
      "name": "ItemMinted",
      "type": "event"
    },
    {
      "anonymous": false,
      "inputs": [
        {
          "indexed": false,
          "internalType": "uint256",
          "name": "tokenId",
          "type": "uint256"
        },
        {
          "indexed": false,
          "internalType": "uint256",
          "name": "price",
          "type": "uint256"
        },
        {
          "indexed": false,
          "internalType": "address",
          "name": "seller",
          "type": "address"
        }
      ],
      "name": "ListingCancelled",
      "type": "event"
    },
    {
      "anonymous": false,
      "inputs": [
        {
          "indexed": true,
          "internalType": "address",
          "name": "from",
          "type": "address"
        },
        {
          "indexed": true,
          "internalType": "address",
          "name": "to",
          "type": "address"
        },
        {
          "indexed": true,
          "internalType": "uint256",
          "name": "tokenId",
          "type": "uint256"
        }
      ],
      "name": "Transfer",
      "type": "event"
    },
    {
      "inputs": [
        {
          "internalType": "address",
          "name": "to",
          "type": "address"
        },
        {
          "internalType": "uint256",
          "name": "tokenId",
          "type": "uint256"
        }
      ],
      "name": "approve",
      "outputs": [],
      "stateMutability": "nonpayable",
      "type": "function"
    },
    {
      "inputs": [
        {
          "internalType": "address",
          "name": "owner",
          "type": "address"
        }
      ],
      "name": "balanceOf",
      "outputs": [
        {
          "internalType": "uint256",
          "name": "",
          "type": "uint256"
        }
      ],
      "stateMutability": "view",
      "type": "function"
    },
    {
      "inputs": [
        {
          "internalType": "uint256",
          "name": "",
          "type": "uint256"
        }
      ],
      "name": "claimableByAccount",
      "outputs": [
        {
          "internalType": "address",
          "name": "",
          "type": "address"
        }
      ],
      "stateMutability": "view",
      "type": "function"
    },
    {
      "inputs": [
        {
          "internalType": "string",
          "name": "metadata",
          "type": "string"
        },
        {
          "internalType": "uint256",
          "name": "royalty",
          "type": "uint256"
        }
      ],
      "name": "createCollectible",
      "outputs": [
        {
          "internalType": "uint256",
          "name": "",
          "type": "uint256"
        }
      ],
      "stateMutability": "nonpayable",
      "type": "function"
    },
    {
      "inputs": [
        {
          "internalType": "uint256",
          "name": "tokenId",
          "type": "uint256"
        }
      ],
      "name": "getApproved",
      "outputs": [
        {
          "internalType": "address",
          "name": "",
          "type": "address"
        }
      ],
      "stateMutability": "view",
      "type": "function"
    },
    {
      "inputs": [
        {
          "internalType": "uint256",
          "name": "tokenId",
          "type": "uint256"
        }
      ],
      "name": "getItem",
      "outputs": [
        {
          "internalType": "address",
          "name": "",
          "type": "address"
        },
        {
          "internalType": "address",
          "name": "",
          "type": "address"
        },
        {
          "internalType": "uint256",
          "name": "",
          "type": "uint256"
        }
      ],
      "stateMutability": "view",
      "type": "function"
    },
    {
      "inputs": [],
      "name": "getItemsLength",
      "outputs": [
        {
          "internalType": "uint256",
          "name": "",
          "type": "uint256"
        }
      ],
      "stateMutability": "view",
      "type": "function"
    },
    {
      "inputs": [
        {
          "internalType": "uint256",
          "name": "",
          "type": "uint256"
        }
      ],
      "name": "hasBeenListed",
      "outputs": [
        {
          "internalType": "bool",
          "name": "",
          "type": "bool"
        }
      ],
      "stateMutability": "view",
      "type": "function"
    },
    {
      "inputs": [
        {
          "internalType": "string",
          "name": "",
          "type": "string"
        }
      ],
      "name": "hasBeenMinted",
      "outputs": [
        {
          "internalType": "bool",
          "name": "",
          "type": "bool"
        }
      ],
      "stateMutability": "view",
      "type": "function"
    },
    {
      "inputs": [
        {
          "internalType": "address",
          "name": "owner",
          "type": "address"
        },
        {
          "internalType": "address",
          "name": "operator",
          "type": "address"
        }
      ],
      "name": "isApprovedForAll",
      "outputs": [
        {
          "internalType": "bool",
          "name": "",
          "type": "bool"
        }
      ],
      "stateMutability": "view",
      "type": "function"
    },
    {
      "inputs": [],
      "name": "name",
      "outputs": [
        {
          "internalType": "string",
          "name": "",
          "type": "string"
        }
      ],
      "stateMutability": "view",
      "type": "function"
    },
    {
      "inputs": [
        {
          "internalType": "uint256",
          "name": "tokenId",
          "type": "uint256"
        }
      ],
      "name": "ownerOf",
      "outputs": [
        {
          "internalType": "address",
          "name": "",
          "type": "address"
        }
      ],
      "stateMutability": "view",
      "type": "function"
    },
    {
      "inputs": [
        {
          "internalType": "address",
          "name": "from",
          "type": "address"
        },
        {
          "internalType": "address",
          "name": "to",
          "type": "address"
        },
        {
          "internalType": "uint256",
          "name": "tokenId",
          "type": "uint256"
        }
      ],
      "name": "safeTransferFrom",
      "outputs": [],
      "stateMutability": "nonpayable",
      "type": "function"
    },
    {
      "inputs": [
        {
          "internalType": "address",
          "name": "from",
          "type": "address"
        },
        {
          "internalType": "address",
          "name": "to",
          "type": "address"
        },
        {
          "internalType": "uint256",
          "name": "tokenId",
          "type": "uint256"
        },
        {
          "internalType": "bytes",
          "name": "_data",
          "type": "bytes"
        }
      ],
      "name": "safeTransferFrom",
      "outputs": [],
      "stateMutability": "nonpayable",
      "type": "function"
    },
    {
      "inputs": [
        {
          "internalType": "address",
          "name": "operator",
          "type": "address"
        },
        {
          "internalType": "bool",
          "name": "approved",
          "type": "bool"
        }
      ],
      "name": "setApprovalForAll",
      "outputs": [],
      "stateMutability": "nonpayable",
      "type": "function"
    },
    {
      "inputs": [
        {
          "internalType": "bytes4",
          "name": "interfaceId",
          "type": "bytes4"
        }
      ],
      "name": "supportsInterface",
      "outputs": [
        {
          "internalType": "bool",
          "name": "",
          "type": "bool"
        }
      ],
      "stateMutability": "view",
      "type": "function"
    },
    {
      "inputs": [],
      "name": "symbol",
      "outputs": [
        {
          "internalType": "string",
          "name": "",
          "type": "string"
        }
      ],
      "stateMutability": "view",
      "type": "function"
    },
    {
      "inputs": [
        {
          "internalType": "uint256",
          "name": "",
          "type": "uint256"
        }
      ],
      "name": "tokenIdToItem",
      "outputs": [
        {
          "internalType": "address",
          "name": "owner",
          "type": "address"
        },
        {
          "internalType": "address",
          "name": "creator",
          "type": "address"
        },
        {
          "internalType": "uint256",
          "name": "royalty",
          "type": "uint256"
        }
      ],
      "stateMutability": "view",
      "type": "function"
    },
    {
      "inputs": [
        {
          "internalType": "uint256",
          "name": "",
          "type": "uint256"
        }
      ],
      "name": "tokenIdToListing",
      "outputs": [
        {
          "internalType": "uint256",
          "name": "price",
          "type": "uint256"
        },
        {
          "internalType": "address",
          "name": "owner",
          "type": "address"
        }
      ],
      "stateMutability": "view",
      "type": "function"
    },
    {
      "inputs": [
        {
          "internalType": "uint256",
          "name": "tokenId",
          "type": "uint256"
        }
      ],
      "name": "tokenURI",
      "outputs": [
        {
          "internalType": "string",
          "name": "",
          "type": "string"
        }
      ],
      "stateMutability": "view",
      "type": "function"
    },
    {
      "inputs": [
        {
          "internalType": "address",
          "name": "from",
          "type": "address"
        },
        {
          "internalType": "address",
          "name": "to",
          "type": "address"
        },
        {
          "internalType": "uint256",
          "name": "tokenId",
          "type": "uint256"
        }
      ],
      "name": "transferFrom",
      "outputs": [],
      "stateMutability": "nonpayable",
      "type": "function"
    },
    {
      "inputs": [
        {
          "internalType": "uint256",
          "name": "tokenId",
          "type": "uint256"
        },
        {
          "internalType": "uint256",
          "name": "price",
          "type": "uint256"
        }
      ],
      "name": "listItem",
      "outputs": [],
      "stateMutability": "nonpayable",
      "type": "function"
    },
    {
      "inputs": [
        {
          "internalType": "uint256",
          "name": "tokenId",
          "type": "uint256"
        }
      ],
      "name": "cancelListing",
      "outputs": [],
      "stateMutability": "nonpayable",
      "type": "function"
    },
    {
      "inputs": [
        {
          "internalType": "uint256",
          "name": "tokenId",
          "type": "uint256"
        }
      ],
      "name": "buyItem",
      "outputs": [],
      "stateMutability": "payable",
      "type": "function"
    },
    {
      "inputs": [
        {
          "internalType": "uint256",
          "name": "tokenId",
          "type": "uint256"
        }
      ],
      "name": "getListing",
      "outputs": [
        {
          "internalType": "uint256",
          "name": "",
          "type": "uint256"
        },
        {
          "internalType": "address",
          "name": "",
          "type": "address"
        }
      ],
      "stateMutability": "view",
      "type": "function"
    }
  ],
  "bytecode": "0x60806040523480156200001157600080fd5b506040518060400160405280600e81526020017f4e4654436f6c6c65637469626c650000000000000000000000000000000000008152506040518060400160405280600481526020017f4e46544300000000000000000000000000000000000000000000000000000000815250816000908051906020019062000096929190620000b8565b508060019080519060200190620000af929190620000b8565b505050620001cd565b828054620000c69062000168565b90600052602060002090601f016020900481019282620000ea576000855562000136565b82601f106200010557805160ff191683800117855562000136565b8280016001018555821562000136579182015b828111156200013557825182559160200191906001019062000118565b5b50905062000145919062000149565b5090565b5b80821115620001645760008160009055506001016200014a565b5090565b600060028204905060018216806200018157607f821691505b602082108114156200019857620001976200019e565b5b50919050565b7f4e487b7100000000000000000000000000000000000000000000000000000000600052602260045260246000fd5b61437480620001dd6000396000f3fe6080604052600436106101665760003560e01c80635d36a364116100d1578063b10d78241161008a578063c87b56dd11610064578063c87b56dd146105af578063e7fb74c7146105ec578063e985e9c514610608578063ffde808d1461064557610166565b8063b10d78241461050c578063b88d4fde14610549578063ba6dc0d21461057257610166565b80635d36a364146103d65780636352211e1461041557806370a0823114610452578063883efa671461048f57806395d89b41146104b8578063a22cb465146104e357610166565b80631f061a29116101235780631f061a29146102a25780632337e853146102df57806323b872dd1461031c578063305a67a8146103455780633129e7731461036e57806342842e0e146103ad57610166565b806301ffc9a71461016b57806306fdde03146101a8578063081812fc146101d3578063095ea7b314610210578063107a274a14610239578063194f479514610277575b600080fd5b34801561017757600080fd5b50610192600480360381019061018d9190612cc3565b610683565b60405161019f9190613358565b60405180910390f35b3480156101b457600080fd5b506101bd610765565b6040516101ca9190613373565b60405180910390f35b3480156101df57600080fd5b506101fa60048036038101906101f59190612dc2565b6107f7565b60405161020791906132ba565b60405180910390f35b34801561021c57600080fd5b5061023760048036038101906102329190612c83565b61087c565b005b34801561024557600080fd5b50610260600480360381019061025b9190612dc2565b610994565b60405161026e9291906136b0565b60405180910390f35b34801561028357600080fd5b5061028c6109ee565b6040516102999190613695565b60405180910390f35b3480156102ae57600080fd5b506102c960048036038101906102c49190612d66565b6109fb565b6040516102d69190613695565b60405180910390f35b3480156102eb57600080fd5b5061030660048036038101906103019190612dc2565b610d17565b6040516103139190613358565b60405180910390f35b34801561032857600080fd5b50610343600480360381019061033e9190612b6d565b610d37565b005b34801561035157600080fd5b5061036c60048036038101906103679190612dc2565b610d97565b005b34801561037a57600080fd5b5061039560048036038101906103909190612dc2565b610f3d565b6040516103a4939291906132d5565b60405180910390f35b3480156103b957600080fd5b506103d460048036038101906103cf9190612b6d565b610fd4565b005b3480156103e257600080fd5b506103fd60048036038101906103f89190612dc2565b610ff4565b60405161040c939291906132d5565b60405180910390f35b34801561042157600080fd5b5061043c60048036038101906104379190612dc2565b61105e565b60405161044991906132ba565b60405180910390f35b34801561045e57600080fd5b5061047960048036038101906104749190612b00565b611110565b6040516104869190613695565b60405180910390f35b34801561049b57600080fd5b506104b660048036038101906104b19190612def565b6111c8565b005b3480156104c457600080fd5b506104cd6113fb565b6040516104da9190613373565b60405180910390f35b3480156104ef57600080fd5b5061050a60048036038101906105059190612c43565b61148d565b005b34801561051857600080fd5b50610533600480360381019061052e9190612d1d565b61160e565b6040516105409190613358565b60405180910390f35b34801561055557600080fd5b50610570600480360381019061056b9190612bc0565b611644565b005b34801561057e57600080fd5b5061059960048036038101906105949190612dc2565b6116a6565b6040516105a691906132ba565b60405180910390f35b3480156105bb57600080fd5b506105d660048036038101906105d19190612dc2565b6116d9565b6040516105e39190613373565b60405180910390f35b61060660048036038101906106019190612dc2565b61182b565b005b34801561061457600080fd5b5061062f600480360381019061062a9190612b2d565b611c44565b60405161063c9190613358565b60405180910390f35b34801561065157600080fd5b5061066c60048036038101906106679190612dc2565b611cd8565b60405161067a9291906136b0565b60405180910390f35b60007f80ac58cd000000000000000000000000000000000000000000000000000000007bffffffffffffffffffffffffffffffffffffffffffffffffffffffff1916827bffffffffffffffffffffffffffffffffffffffffffffffffffffffff1916148061074e57507f5b5e139f000000000000000000000000000000000000000000000000000000007bffffffffffffffffffffffffffffffffffffffffffffffffffffffff1916827bffffffffffffffffffffffffffffffffffffffffffffffffffffffff1916145b8061075e575061075d82611d1c565b5b9050919050565b606060008054610774906139fc565b80601f01602080910402602001604051908101604052809291908181526020018280546107a0906139fc565b80156107ed5780601f106107c2576101008083540402835291602001916107ed565b820191906000526020600020905b8154815290600101906020018083116107d057829003601f168201915b5050505050905090565b600061080282611d86565b610841576040517f08c379a0000000000000000000000000000000000000000000000000000000008152600401610838906135b5565b60405180910390fd5b6004600083815260200190815260200160002060009054906101000a900473ffffffffffffffffffffffffffffffffffffffff169050919050565b60006108878261105e565b90508073ffffffffffffffffffffffffffffffffffffffff168373ffffffffffffffffffffffffffffffffffffffff1614156108f8576040517f08c379a00000000000000000000000000000000000000000000000000000000081526004016108ef90613635565b60405180910390fd5b8073ffffffffffffffffffffffffffffffffffffffff16610917611df2565b73ffffffffffffffffffffffffffffffffffffffff161480610946575061094581610940611df2565b611c44565b5b610985576040517f08c379a000000000000000000000000000000000000000000000000000000000815260040161097c90613495565b60405180910390fd5b61098f8383611dfa565b505050565b600080600a600084815260200190815260200160002060000154600a600085815260200190815260200160002060010160009054906101000a900473ffffffffffffffffffffffffffffffffffffffff1691509150915091565b6000600980549050905090565b6000600783604051610a0d919061326a565b908152602001604051809103902060009054906101000a900460ff1615610a69576040517f08c379a0000000000000000000000000000000000000000000000000000000008152600401610a60906135d5565b60405180910390fd5b60008210158015610a7b575060288211155b610aba576040517f08c379a0000000000000000000000000000000000000000000000000000000008152600401610ab1906134f5565b60405180910390fd5b600060405180606001604052803373ffffffffffffffffffffffffffffffffffffffff1681526020013373ffffffffffffffffffffffffffffffffffffffff168152602001848152509050600981908060018154018082558091505060019003906000526020600020906003020160009091909190915060008201518160000160006101000a81548173ffffffffffffffffffffffffffffffffffffffff021916908373ffffffffffffffffffffffffffffffffffffffff16021790555060208201518160010160006101000a81548173ffffffffffffffffffffffffffffffffffffffff021916908373ffffffffffffffffffffffffffffffffffffffff16021790555060408201518160020155505060006009805490509050610bdf3382611eb3565b610be98186611ed1565b816008600083815260200190815260200160002060008201518160000160006101000a81548173ffffffffffffffffffffffffffffffffffffffff021916908373ffffffffffffffffffffffffffffffffffffffff16021790555060208201518160010160006101000a81548173ffffffffffffffffffffffffffffffffffffffff021916908373ffffffffffffffffffffffffffffffffffffffff160217905550604082015181600201559050506001600786604051610caa919061326a565b908152602001604051809103902060006101000a81548160ff0219169083151502179055507facd3f0bb7315448676927177916d82d603042a661927f33e76f60c49da0f587f81338787604051610d0494939291906136d9565b60405180910390a1809250505092915050565b600b6020528060005260406000206000915054906101000a900460ff1681565b610d48610d42611df2565b82611f45565b610d87576040517f08c379a0000000000000000000000000000000000000000000000000000000008152600401610d7e90613675565b60405180910390fd5b610d92838383612023565b505050565b80600c600082815260200190815260200160002060009054906101000a900473ffffffffffffffffffffffffffffffffffffffff1673ffffffffffffffffffffffffffffffffffffffff163373ffffffffffffffffffffffffffffffffffffffff1614610e39576040517f08c379a0000000000000000000000000000000000000000000000000000000008152600401610e3090613655565b60405180910390fd5b610e44303384612023565b6000600a6000848152602001908152602001600020600001549050600c600084815260200190815260200160002060006101000a81549073ffffffffffffffffffffffffffffffffffffffff0219169055600a60008481526020019081526020016000206000808201600090556001820160006101000a81549073ffffffffffffffffffffffffffffffffffffffff02191690555050600b600084815260200190815260200160002060006101000a81549060ff02191690557f5f0be1e06429123bb18a91b02cae2672c631c3d0eef488ee77e1e9870a6e2cb4838233604051610f3093929190613725565b60405180910390a1505050565b60008060006008600085815260200190815260200160002060000160009054906101000a900473ffffffffffffffffffffffffffffffffffffffff166008600086815260200190815260200160002060010160009054906101000a900473ffffffffffffffffffffffffffffffffffffffff1660086000878152602001908152602001600020600201549250925092509193909250565b610fef83838360405180602001604052806000815250611644565b505050565b60086020528060005260406000206000915090508060000160009054906101000a900473ffffffffffffffffffffffffffffffffffffffff16908060010160009054906101000a900473ffffffffffffffffffffffffffffffffffffffff16908060020154905083565b6000806002600084815260200190815260200160002060009054906101000a900473ffffffffffffffffffffffffffffffffffffffff169050600073ffffffffffffffffffffffffffffffffffffffff168173ffffffffffffffffffffffffffffffffffffffff161415611107576040517f08c379a00000000000000000000000000000000000000000000000000000000081526004016110fe906134d5565b60405180910390fd5b80915050919050565b60008073ffffffffffffffffffffffffffffffffffffffff168273ffffffffffffffffffffffffffffffffffffffff161415611181576040517f08c379a0000000000000000000000000000000000000000000000000000000008152600401611178906134b5565b60405180910390fd5b600360008373ffffffffffffffffffffffffffffffffffffffff1673ffffffffffffffffffffffffffffffffffffffff168152602001908152602001600020549050919050565b816111d28161105e565b73ffffffffffffffffffffffffffffffffffffffff163373ffffffffffffffffffffffffffffffffffffffff161461123f576040517f08c379a000000000000000000000000000000000000000000000000000000000815260040161123690613575565b60405180910390fd5b600b600084815260200190815260200160002060009054906101000a900460ff16156112a0576040517f08c379a0000000000000000000000000000000000000000000000000000000008152600401611297906133d5565b60405180910390fd5b6112ab333085612023565b33600c600085815260200190815260200160002060006101000a81548173ffffffffffffffffffffffffffffffffffffffff021916908373ffffffffffffffffffffffffffffffffffffffff16021790555060405180604001604052808381526020013373ffffffffffffffffffffffffffffffffffffffff16815250600a60008581526020019081526020016000206000820151816000015560208201518160010160006101000a81548173ffffffffffffffffffffffffffffffffffffffff021916908373ffffffffffffffffffffffffffffffffffffffff1602179055509050506001600b600085815260200190815260200160002060006101000a81548160ff0219169083151502179055507f092007ff2210a28905dcb35e8410b931493756ecaa2dc88307373c190349b0458383336040516113ee93929190613725565b60405180910390a1505050565b60606001805461140a906139fc565b80601f0160208091040260200160405190810160405280929190818152602001828054611436906139fc565b80156114835780601f1061145857610100808354040283529160200191611483565b820191906000526020600020905b81548152906001019060200180831161146657829003601f168201915b5050505050905090565b611495611df2565b73ffffffffffffffffffffffffffffffffffffffff168273ffffffffffffffffffffffffffffffffffffffff161415611503576040517f08c379a00000000000000000000000000000000000000000000000000000000081526004016114fa90613455565b60405180910390fd5b8060056000611510611df2565b73ffffffffffffffffffffffffffffffffffffffff1673ffffffffffffffffffffffffffffffffffffffff16815260200190815260200160002060008473ffffffffffffffffffffffffffffffffffffffff1673ffffffffffffffffffffffffffffffffffffffff16815260200190815260200160002060006101000a81548160ff0219169083151502179055508173ffffffffffffffffffffffffffffffffffffffff166115bd611df2565b73ffffffffffffffffffffffffffffffffffffffff167f17307eab39ab6107e8899845ad3d59bd9653f200f220920489ca2b5937696c31836040516116029190613358565b60405180910390a35050565b6007818051602081018201805184825260208301602085012081835280955050505050506000915054906101000a900460ff1681565b61165561164f611df2565b83611f45565b611694576040517f08c379a000000000000000000000000000000000000000000000000000000000815260040161168b90613675565b60405180910390fd5b6116a08484848461227f565b50505050565b600c6020528060005260406000206000915054906101000a900473ffffffffffffffffffffffffffffffffffffffff1681565b60606116e482611d86565b611723576040517f08c379a000000000000000000000000000000000000000000000000000000000815260040161171a90613595565b60405180910390fd5b6000600660008481526020019081526020016000208054611743906139fc565b80601f016020809104026020016040519081016040528092919081815260200182805461176f906139fc565b80156117bc5780601f10611791576101008083540402835291602001916117bc565b820191906000526020600020905b81548152906001019060200180831161179f57829003601f168201915b5050505050905060006117cd6122db565b90506000815114156117e3578192505050611826565b600082511115611818578082604051602001611800929190613281565b60405160208183030381529060405292505050611826565b611821846122f2565b925050505b919050565b600b600082815260200190815260200160002060009054906101000a900460ff1661188b576040517f08c379a000000000000000000000000000000000000000000000000000000000815260040161188290613415565b60405180910390fd5b34600a600083815260200190815260200160002060000154146118e3576040517f08c379a00000000000000000000000000000000000000000000000000000000081526004016118da906133f5565b60405180910390fd5b6000611921606461191334600860008781526020019081526020016000206002015461239990919063ffffffff16565b6123af90919063ffffffff16565b9050600061193882346123c590919063ffffffff16565b905060006008600085815260200190815260200160002060010160009054906101000a900473ffffffffffffffffffffffffffffffffffffffff1673ffffffffffffffffffffffffffffffffffffffff1683604051611996906132a5565b60006040518083038185875af1925050503d80600081146119d3576040519150601f19603f3d011682016040523d82523d6000602084013e6119d8565b606091505b5050905080611a1c576040517f08c379a0000000000000000000000000000000000000000000000000000000008152600401611a1390613535565b60405180910390fd5b60006008600086815260200190815260200160002060000160009054906101000a900473ffffffffffffffffffffffffffffffffffffffff1673ffffffffffffffffffffffffffffffffffffffff1683604051611a78906132a5565b60006040518083038185875af1925050503d8060008114611ab5576040519150601f19603f3d011682016040523d82523d6000602084013e611aba565b606091505b5050905080611afe576040517f08c379a0000000000000000000000000000000000000000000000000000000008152600401611af590613535565b60405180910390fd5b611b09303387612023565b6000600860008781526020019081526020016000209050338160000160006101000a81548173ffffffffffffffffffffffffffffffffffffffff021916908373ffffffffffffffffffffffffffffffffffffffff160217905550600a60008781526020019081526020016000206000808201600090556001820160006101000a81549073ffffffffffffffffffffffffffffffffffffffff02191690555050600c600087815260200190815260200160002060006101000a81549073ffffffffffffffffffffffffffffffffffffffff0219169055600b600087815260200190815260200160002060006101000a81549060ff02191690557f39cd056bcfc4b6e195eb99b09c74b00815a367bca4e86f70ecf2e0140401bd5e863433604051611c3493929190613725565b60405180910390a1505050505050565b6000600560008473ffffffffffffffffffffffffffffffffffffffff1673ffffffffffffffffffffffffffffffffffffffff16815260200190815260200160002060008373ffffffffffffffffffffffffffffffffffffffff1673ffffffffffffffffffffffffffffffffffffffff16815260200190815260200160002060009054906101000a900460ff16905092915050565b600a6020528060005260406000206000915090508060000154908060010160009054906101000a900473ffffffffffffffffffffffffffffffffffffffff16905082565b60007f01ffc9a7000000000000000000000000000000000000000000000000000000007bffffffffffffffffffffffffffffffffffffffffffffffffffffffff1916827bffffffffffffffffffffffffffffffffffffffffffffffffffffffff1916149050919050565b60008073ffffffffffffffffffffffffffffffffffffffff166002600084815260200190815260200160002060009054906101000a900473ffffffffffffffffffffffffffffffffffffffff1673ffffffffffffffffffffffffffffffffffffffff1614159050919050565b600033905090565b816004600083815260200190815260200160002060006101000a81548173ffffffffffffffffffffffffffffffffffffffff021916908373ffffffffffffffffffffffffffffffffffffffff160217905550808273ffffffffffffffffffffffffffffffffffffffff16611e6d8361105e565b73ffffffffffffffffffffffffffffffffffffffff167f8c5be1e5ebec7d5bd14f71427d1e84f3dd0314c0f7b2291e5b200ac8c7c3b92560405160405180910390a45050565b611ecd8282604051806020016040528060008152506123db565b5050565b611eda82611d86565b611f19576040517f08c379a0000000000000000000000000000000000000000000000000000000008152600401611f1090613515565b60405180910390fd5b80600660008481526020019081526020016000209080519060200190611f40929190612914565b505050565b6000611f5082611d86565b611f8f576040517f08c379a0000000000000000000000000000000000000000000000000000000008152600401611f8690613475565b60405180910390fd5b6000611f9a8361105e565b90508073ffffffffffffffffffffffffffffffffffffffff168473ffffffffffffffffffffffffffffffffffffffff16148061200957508373ffffffffffffffffffffffffffffffffffffffff16611ff1846107f7565b73ffffffffffffffffffffffffffffffffffffffff16145b8061201a57506120198185611c44565b5b91505092915050565b8273ffffffffffffffffffffffffffffffffffffffff166120438261105e565b73ffffffffffffffffffffffffffffffffffffffff1614612099576040517f08c379a0000000000000000000000000000000000000000000000000000000008152600401612090906135f5565b60405180910390fd5b600073ffffffffffffffffffffffffffffffffffffffff168273ffffffffffffffffffffffffffffffffffffffff161415612109576040517f08c379a000000000000000000000000000000000000000000000000000000000815260040161210090613435565b60405180910390fd5b612114838383612436565b61211f600082611dfa565b6001600360008573ffffffffffffffffffffffffffffffffffffffff1673ffffffffffffffffffffffffffffffffffffffff168152602001908152602001600020600082825461216f9190613912565b925050819055506001600360008473ffffffffffffffffffffffffffffffffffffffff1673ffffffffffffffffffffffffffffffffffffffff16815260200190815260200160002060008282546121c69190613831565b92505081905550816002600083815260200190815260200160002060006101000a81548173ffffffffffffffffffffffffffffffffffffffff021916908373ffffffffffffffffffffffffffffffffffffffff160217905550808273ffffffffffffffffffffffffffffffffffffffff168473ffffffffffffffffffffffffffffffffffffffff167fddf252ad1be2c89b69c2b068fc378daa952ba7f163c4a11628f55a4df523b3ef60405160405180910390a4505050565b61228a848484612023565b6122968484848461243b565b6122d5576040517f08c379a00000000000000000000000000000000000000000000000000000000081526004016122cc90613395565b60405180910390fd5b50505050565b606060405180602001604052806000815250905090565b60606122fd82611d86565b61233c576040517f08c379a000000000000000000000000000000000000000000000000000000000815260040161233390613615565b60405180910390fd5b60006123466122db565b905060008151116123665760405180602001604052806000815250612391565b80612370846125d2565b604051602001612381929190613281565b6040516020818303038152906040525b915050919050565b600081836123a791906138b8565b905092915050565b600081836123bd9190613887565b905092915050565b600081836123d39190613912565b905092915050565b6123e58383612733565b6123f2600084848461243b565b612431576040517f08c379a000000000000000000000000000000000000000000000000000000000815260040161242890613395565b60405180910390fd5b505050565b505050565b600061245c8473ffffffffffffffffffffffffffffffffffffffff16612901565b156125c5578373ffffffffffffffffffffffffffffffffffffffff1663150b7a02612485611df2565b8786866040518563ffffffff1660e01b81526004016124a7949392919061330c565b602060405180830381600087803b1580156124c157600080fd5b505af19250505080156124f257506040513d601f19601f820116820180604052508101906124ef9190612cf0565b60015b612575573d8060008114612522576040519150601f19603f3d011682016040523d82523d6000602084013e612527565b606091505b5060008151141561256d576040517f08c379a000000000000000000000000000000000000000000000000000000000815260040161256490613395565b60405180910390fd5b805181602001fd5b63150b7a0260e01b7bffffffffffffffffffffffffffffffffffffffffffffffffffffffff1916817bffffffffffffffffffffffffffffffffffffffffffffffffffffffff1916149150506125ca565b600190505b949350505050565b6060600082141561261a576040518060400160405280600181526020017f3000000000000000000000000000000000000000000000000000000000000000815250905061272e565b600082905060005b6000821461264c57808061263590613a5f565b915050600a826126459190613887565b9150612622565b60008167ffffffffffffffff81111561266857612667613b95565b5b6040519080825280601f01601f19166020018201604052801561269a5781602001600182028036833780820191505090505b5090505b60008514612727576001826126b39190613912565b9150600a856126c29190613aa8565b60306126ce9190613831565b60f81b8183815181106126e4576126e3613b66565b5b60200101907effffffffffffffffffffffffffffffffffffffffffffffffffffffffffffff1916908160001a905350600a856127209190613887565b945061269e565b8093505050505b919050565b600073ffffffffffffffffffffffffffffffffffffffff168273ffffffffffffffffffffffffffffffffffffffff1614156127a3576040517f08c379a000000000000000000000000000000000000000000000000000000000815260040161279a90613555565b60405180910390fd5b6127ac81611d86565b156127ec576040517f08c379a00000000000000000000000000000000000000000000000000000000081526004016127e3906133b5565b60405180910390fd5b6127f860008383612436565b6001600360008473ffffffffffffffffffffffffffffffffffffffff1673ffffffffffffffffffffffffffffffffffffffff16815260200190815260200160002060008282546128489190613831565b92505081905550816002600083815260200190815260200160002060006101000a81548173ffffffffffffffffffffffffffffffffffffffff021916908373ffffffffffffffffffffffffffffffffffffffff160217905550808273ffffffffffffffffffffffffffffffffffffffff16600073ffffffffffffffffffffffffffffffffffffffff167fddf252ad1be2c89b69c2b068fc378daa952ba7f163c4a11628f55a4df523b3ef60405160405180910390a45050565b600080823b905060008111915050919050565b828054612920906139fc565b90600052602060002090601f0160209004810192826129425760008555612989565b82601f1061295b57805160ff1916838001178555612989565b82800160010185558215612989579182015b8281111561298857825182559160200191906001019061296d565b5b509050612996919061299a565b5090565b5b808211156129b357600081600090555060010161299b565b5090565b60006129ca6129c584613781565b61375c565b9050828152602081018484840111156129e6576129e5613bc9565b5b6129f18482856139ba565b509392505050565b6000612a0c612a07846137b2565b61375c565b905082815260208101848484011115612a2857612a27613bc9565b5b612a338482856139ba565b509392505050565b600081359050612a4a816142e2565b92915050565b600081359050612a5f816142f9565b92915050565b600081359050612a7481614310565b92915050565b600081519050612a8981614310565b92915050565b600082601f830112612aa457612aa3613bc4565b5b8135612ab48482602086016129b7565b91505092915050565b600082601f830112612ad257612ad1613bc4565b5b8135612ae28482602086016129f9565b91505092915050565b600081359050612afa81614327565b92915050565b600060208284031215612b1657612b15613bd3565b5b6000612b2484828501612a3b565b91505092915050565b60008060408385031215612b4457612b43613bd3565b5b6000612b5285828601612a3b565b9250506020612b6385828601612a3b565b9150509250929050565b600080600060608486031215612b8657612b85613bd3565b5b6000612b9486828701612a3b565b9350506020612ba586828701612a3b565b9250506040612bb686828701612aeb565b9150509250925092565b60008060008060808587031215612bda57612bd9613bd3565b5b6000612be887828801612a3b565b9450506020612bf987828801612a3b565b9350506040612c0a87828801612aeb565b925050606085013567ffffffffffffffff811115612c2b57612c2a613bce565b5b612c3787828801612a8f565b91505092959194509250565b60008060408385031215612c5a57612c59613bd3565b5b6000612c6885828601612a3b565b9250506020612c7985828601612a50565b9150509250929050565b60008060408385031215612c9a57612c99613bd3565b5b6000612ca885828601612a3b565b9250506020612cb985828601612aeb565b9150509250929050565b600060208284031215612cd957612cd8613bd3565b5b6000612ce784828501612a65565b91505092915050565b600060208284031215612d0657612d05613bd3565b5b6000612d1484828501612a7a565b91505092915050565b600060208284031215612d3357612d32613bd3565b5b600082013567ffffffffffffffff811115612d5157612d50613bce565b5b612d5d84828501612abd565b91505092915050565b60008060408385031215612d7d57612d7c613bd3565b5b600083013567ffffffffffffffff811115612d9b57612d9a613bce565b5b612da785828601612abd565b9250506020612db885828601612aeb565b9150509250929050565b600060208284031215612dd857612dd7613bd3565b5b6000612de684828501612aeb565b91505092915050565b60008060408385031215612e0657612e05613bd3565b5b6000612e1485828601612aeb565b9250506020612e2585828601612aeb565b9150509250929050565b612e3881613946565b82525050565b612e4781613958565b82525050565b6000612e58826137e3565b612e6281856137f9565b9350612e728185602086016139c9565b612e7b81613bd8565b840191505092915050565b6000612e91826137ee565b612e9b8185613815565b9350612eab8185602086016139c9565b612eb481613bd8565b840191505092915050565b6000612eca826137ee565b612ed48185613826565b9350612ee48185602086016139c9565b80840191505092915050565b6000612efd603283613815565b9150612f0882613be9565b604082019050919050565b6000612f20601c83613815565b9150612f2b82613c38565b602082019050919050565b6000612f43602283613815565b9150612f4e82613c61565b604082019050919050565b6000612f66602283613815565b9150612f7182613cb0565b604082019050919050565b6000612f89603383613815565b9150612f9482613cff565b604082019050919050565b6000612fac602483613815565b9150612fb782613d4e565b604082019050919050565b6000612fcf601983613815565b9150612fda82613d9d565b602082019050919050565b6000612ff2602c83613815565b9150612ffd82613dc6565b604082019050919050565b6000613015603883613815565b915061302082613e15565b604082019050919050565b6000613038602a83613815565b915061304382613e64565b604082019050919050565b600061305b602983613815565b915061306682613eb3565b604082019050919050565b600061307e602583613815565b915061308982613f02565b604082019050919050565b60006130a1602e83613815565b91506130ac82613f51565b604082019050919050565b60006130c4601383613815565b91506130cf82613fa0565b602082019050919050565b60006130e7602083613815565b91506130f282613fc9565b602082019050919050565b600061310a603683613815565b915061311582613ff2565b604082019050919050565b600061312d603183613815565b915061313882614041565b604082019050919050565b6000613150602c83613815565b915061315b82614090565b604082019050919050565b6000613173603383613815565b915061317e826140df565b604082019050919050565b6000613196602983613815565b91506131a18261412e565b604082019050919050565b60006131b9602f83613815565b91506131c48261417d565b604082019050919050565b60006131dc602183613815565b91506131e7826141cc565b604082019050919050565b60006131ff604283613815565b915061320a8261421b565b606082019050919050565b600061322260008361380a565b915061322d82614290565b600082019050919050565b6000613245603183613815565b915061325082614293565b604082019050919050565b613264816139b0565b82525050565b60006132768284612ebf565b915081905092915050565b600061328d8285612ebf565b91506132998284612ebf565b91508190509392505050565b60006132b082613215565b9150819050919050565b60006020820190506132cf6000830184612e2f565b92915050565b60006060820190506132ea6000830186612e2f565b6132f76020830185612e2f565b613304604083018461325b565b949350505050565b60006080820190506133216000830187612e2f565b61332e6020830186612e2f565b61333b604083018561325b565b818103606083015261334d8184612e4d565b905095945050505050565b600060208201905061336d6000830184612e3e565b92915050565b6000602082019050818103600083015261338d8184612e86565b905092915050565b600060208201905081810360008301526133ae81612ef0565b9050919050565b600060208201905081810360008301526133ce81612f13565b9050919050565b600060208201905081810360008301526133ee81612f36565b9050919050565b6000602082019050818103600083015261340e81612f59565b9050919050565b6000602082019050818103600083015261342e81612f7c565b9050919050565b6000602082019050818103600083015261344e81612f9f565b9050919050565b6000602082019050818103600083015261346e81612fc2565b9050919050565b6000602082019050818103600083015261348e81612fe5565b9050919050565b600060208201905081810360008301526134ae81613008565b9050919050565b600060208201905081810360008301526134ce8161302b565b9050919050565b600060208201905081810360008301526134ee8161304e565b9050919050565b6000602082019050818103600083015261350e81613071565b9050919050565b6000602082019050818103600083015261352e81613094565b9050919050565b6000602082019050818103600083015261354e816130b7565b9050919050565b6000602082019050818103600083015261356e816130da565b9050919050565b6000602082019050818103600083015261358e816130fd565b9050919050565b600060208201905081810360008301526135ae81613120565b9050919050565b600060208201905081810360008301526135ce81613143565b9050919050565b600060208201905081810360008301526135ee81613166565b9050919050565b6000602082019050818103600083015261360e81613189565b9050919050565b6000602082019050818103600083015261362e816131ac565b9050919050565b6000602082019050818103600083015261364e816131cf565b9050919050565b6000602082019050818103600083015261366e816131f2565b9050919050565b6000602082019050818103600083015261368e81613238565b9050919050565b60006020820190506136aa600083018461325b565b92915050565b60006040820190506136c5600083018561325b565b6136d26020830184612e2f565b9392505050565b60006080820190506136ee600083018761325b565b6136fb6020830186612e2f565b818103604083015261370d8185612e86565b905061371c606083018461325b565b95945050505050565b600060608201905061373a600083018661325b565b613747602083018561325b565b6137546040830184612e2f565b949350505050565b6000613766613777565b90506137728282613a2e565b919050565b6000604051905090565b600067ffffffffffffffff82111561379c5761379b613b95565b5b6137a582613bd8565b9050602081019050919050565b600067ffffffffffffffff8211156137cd576137cc613b95565b5b6137d682613bd8565b9050602081019050919050565b600081519050919050565b600081519050919050565b600082825260208201905092915050565b600081905092915050565b600082825260208201905092915050565b600081905092915050565b600061383c826139b0565b9150613847836139b0565b9250827fffffffffffffffffffffffffffffffffffffffffffffffffffffffffffffffff0382111561387c5761387b613ad9565b5b828201905092915050565b6000613892826139b0565b915061389d836139b0565b9250826138ad576138ac613b08565b5b828204905092915050565b60006138c3826139b0565b91506138ce836139b0565b9250817fffffffffffffffffffffffffffffffffffffffffffffffffffffffffffffffff048311821515161561390757613906613ad9565b5b828202905092915050565b600061391d826139b0565b9150613928836139b0565b92508282101561393b5761393a613ad9565b5b828203905092915050565b600061395182613990565b9050919050565b60008115159050919050565b60007fffffffff0000000000000000000000000000000000000000000000000000000082169050919050565b600073ffffffffffffffffffffffffffffffffffffffff82169050919050565b6000819050919050565b82818337600083830152505050565b60005b838110156139e75780820151818401526020810190506139cc565b838111156139f6576000848401525b50505050565b60006002820490506001821680613a1457607f821691505b60208210811415613a2857613a27613b37565b5b50919050565b613a3782613bd8565b810181811067ffffffffffffffff82111715613a5657613a55613b95565b5b80604052505050565b6000613a6a826139b0565b91507fffffffffffffffffffffffffffffffffffffffffffffffffffffffffffffffff821415613a9d57613a9c613ad9565b5b600182019050919050565b6000613ab3826139b0565b9150613abe836139b0565b925082613ace57613acd613b08565b5b828206905092915050565b7f4e487b7100000000000000000000000000000000000000000000000000000000600052601160045260246000fd5b7f4e487b7100000000000000000000000000000000000000000000000000000000600052601260045260246000fd5b7f4e487b7100000000000000000000000000000000000000000000000000000000600052602260045260246000fd5b7f4e487b7100000000000000000000000000000000000000000000000000000000600052603260045260246000fd5b7f4e487b7100000000000000000000000000000000000000000000000000000000600052604160045260246000fd5b600080fd5b600080fd5b600080fd5b600080fd5b6000601f19601f8301169050919050565b7f4552433732313a207472616e7366657220746f206e6f6e20455243373231526560008201527f63656976657220696d706c656d656e7465720000000000000000000000000000602082015250565b7f4552433732313a20746f6b656e20616c7265616479206d696e74656400000000600082015250565b7f54686520746f6b656e2063616e206f6e6c79206265206c6973746564206f6e6360008201527f652e000000000000000000000000000000000000000000000000000000000000602082015250565b7f596f75206e65656420746f207061792074686520636f7272656374207072696360008201527f652e000000000000000000000000000000000000000000000000000000000000602082015250565b7f54686520746f6b656e206e6565647320746f206265206c697374656420696e2060008201527f6f7264657220746f20626520626f756768742e00000000000000000000000000602082015250565b7f4552433732313a207472616e7366657220746f20746865207a65726f2061646460008201527f7265737300000000000000000000000000000000000000000000000000000000602082015250565b7f4552433732313a20617070726f766520746f2063616c6c657200000000000000600082015250565b7f4552433732313a206f70657261746f7220717565727920666f72206e6f6e657860008201527f697374656e7420746f6b656e0000000000000000000000000000000000000000602082015250565b7f4552433732313a20617070726f76652063616c6c6572206973206e6f74206f7760008201527f6e6572206e6f7220617070726f76656420666f7220616c6c0000000000000000602082015250565b7f4552433732313a2062616c616e636520717565727920666f7220746865207a6560008201527f726f206164647265737300000000000000000000000000000000000000000000602082015250565b7f4552433732313a206f776e657220717565727920666f72206e6f6e657869737460008201527f656e7420746f6b656e0000000000000000000000000000000000000000000000602082015250565b7f526f79616c74696573206d757374206265206265747765656e20302520616e6460008201527f203430252e000000000000000000000000000000000000000000000000000000602082015250565b7f45524337323155524953746f726167653a2055524920736574206f66206e6f6e60008201527f6578697374656e7420746f6b656e000000000000000000000000000000000000602082015250565b7f4661696c656420746f2073656e64204156415800000000000000000000000000600082015250565b7f4552433732313a206d696e7420746f20746865207a65726f2061646472657373600082015250565b7f4f6e6c7920746865206f776e6572206f662074686520746f6b656e206964206360008201527f616e2063616c6c20746869732066756e6374696f6e2e00000000000000000000602082015250565b7f45524337323155524953746f726167653a2055524920717565727920666f722060008201527f6e6f6e6578697374656e7420746f6b656e000000000000000000000000000000602082015250565b7f4552433732313a20617070726f76656420717565727920666f72206e6f6e657860008201527f697374656e7420746f6b656e0000000000000000000000000000000000000000602082015250565b7f54686973206d657461646174612068617320616c7265616479206265656e207560008201527f73656420746f206d696e7420616e204e46542e00000000000000000000000000602082015250565b7f4552433732313a207472616e73666572206f6620746f6b656e2074686174206960008201527f73206e6f74206f776e0000000000000000000000000000000000000000000000602082015250565b7f4552433732314d657461646174613a2055524920717565727920666f72206e6f60008201527f6e6578697374656e7420746f6b656e0000000000000000000000000000000000602082015250565b7f4552433732313a20617070726f76616c20746f2063757272656e74206f776e6560008201527f7200000000000000000000000000000000000000000000000000000000000000602082015250565b7f4f6e6c79207468652061646472657373207468617420686173206c697374656460008201527f2074686520746f6b656e2063616e2063616e63656c20746865206c697374696e60208201527f672e000000000000000000000000000000000000000000000000000000000000604082015250565b50565b7f4552433732313a207472616e736665722063616c6c6572206973206e6f74206f60008201527f776e6572206e6f7220617070726f766564000000000000000000000000000000602082015250565b6142eb81613946565b81146142f657600080fd5b50565b61430281613958565b811461430d57600080fd5b50565b61431981613964565b811461432457600080fd5b50565b614330816139b0565b811461433b57600080fd5b5056fea26469706673582212209266e2f1b058d2b7dade65fdbc4eb0121238db44cbaaf27557c3373877cac79264736f6c63430008060033",
  "immutableReferences": {},
  "source": "// SPDX-License-Identifier: MIT\r\npragma solidity ^0.8.6;\r\n\r\nimport './Collectible.sol';\r\n\r\ncontract Marketplace is Collectible {\r\n    using SafeMath for uint256;\r\n\r\n    struct Listing {\r\n        uint256 price;\r\n        address owner;\r\n    }\r\n\r\n    // Mapping for a token id to Listing\r\n    mapping (uint256 => Listing) public tokenIdToListing;\r\n\r\n    // Mapping to prevent the same item being listed twice\r\n    mapping (uint256 => bool) public hasBeenListed;\r\n\r\n    // Mapping used for listing when the owner transfers the token to the contract and would then wish to cancel the listing\r\n    mapping (uint256 => address) public claimableByAccount;\r\n\r\n    /**\r\n     * @dev Emitted when a `tokenId` has been listed for a `price` by a `seller`\r\n    */\r\n    event ItemListed(uint256 tokenId, uint256 price, address seller);\r\n\r\n    /**\r\n     * @dev Emitted when a `tokenId` listing for a `price` has been cancelled by a `seller`\r\n    */\r\n    event ListingCancelled(uint256 tokenId, uint256 price, address seller);\r\n\r\n    /**\r\n     * @dev Emitted when a `tokenId` has been bought for a `price` by a `buyer`\r\n    */\r\n    event ItemBought(uint256 tokenId, uint256 price, address buyer);\r\n\r\n    modifier onlyTokenOwner(uint256 tokenId) {\r\n        require(\r\n            msg.sender == ownerOf(tokenId),\r\n            \"Only the owner of the token id can call this function.\"\r\n        );\r\n        _;\r\n    }\r\n\r\n    modifier onlyListingAccount(uint256 tokenId) {\r\n        require(\r\n            msg.sender == claimableByAccount[tokenId],\r\n            \"Only the address that has listed the token can cancel the listing.\"\r\n        );\r\n        _;\r\n    }\r\n\r\n    /**\r\n     * @dev list an item with a `tokenId` for a `price`\r\n     *\r\n     * Requirements:\r\n     * - Only the owner of the `tokenId` can list the item\r\n     * - The `tokenId` can only be listed once\r\n     *\r\n     * Emits a {Transfer} event - transfer the token to this smart contract.\r\n     * Emits a {ItemListed} event\r\n     */\r\n    function listItem(uint256 tokenId, uint256 price) public onlyTokenOwner(tokenId) {\r\n        require(!hasBeenListed[tokenId], \"The token can only be listed once.\");\r\n        //send the token to the smart contract\r\n        _transfer(msg.sender, address(this), tokenId);\r\n        claimableByAccount[tokenId] = msg.sender;\r\n        tokenIdToListing[tokenId] = Listing(\r\n            price,\r\n            msg.sender\r\n        );\r\n        hasBeenListed[tokenId] = true;\r\n        emit ItemListed(tokenId, price, msg.sender);\r\n    }\r\n\r\n    /**\r\n     * @dev Cancel a listing of an item with a `tokenId`\r\n     *\r\n     * Requirements:\r\n     * - Only the account that has listed the `tokenId` can delist it\r\n     *\r\n     * Emits a {Transfer} event - transfer the token from this smart contract to the owner.\r\n     * Emits a {ListingCancelled} event.\r\n     */\r\n    function cancelListing(uint256 tokenId) public onlyListingAccount(tokenId) {\r\n        //send the token from the smart contract back to the one who listed it\r\n        _transfer(address(this), msg.sender, tokenId);\r\n        uint256 price = tokenIdToListing[tokenId].price;\r\n        delete claimableByAccount[tokenId];\r\n        delete tokenIdToListing[tokenId];\r\n        delete hasBeenListed[tokenId];\r\n        emit ListingCancelled(tokenId, price, msg.sender);\r\n    }\r\n\r\n    /**\r\n     * @dev Buy an item with a `tokenId` and pay the owner and the creator\r\n     *\r\n     * Requirements:\r\n     * - `tokenId` has to be listed\r\n     * - `price` needs to be the same as the value sent by the caller\r\n     *\r\n     * Emits a {Transfer} event - transfer the item from this smart contract to the buyer.\r\n     * Emits an {ItemBought} event.\r\n     */\r\n    function buyItem(uint256 tokenId) public payable {\r\n        require(hasBeenListed[tokenId], \"The token needs to be listed in order to be bought.\");\r\n        require(tokenIdToListing[tokenId].price == msg.value, \"You need to pay the correct price.\");\r\n\r\n        //split up the price between owner and creator\r\n        uint256 royaltyForCreator = tokenIdToItem[tokenId].royalty.mul(msg.value).div(100);\r\n        uint256 remainder = msg.value.sub(royaltyForCreator);\r\n        //send to creator\r\n        (bool isRoyaltySent, ) = tokenIdToItem[tokenId].creator.call{value: royaltyForCreator}(\"\");\r\n        require(isRoyaltySent, \"Failed to send AVAX\");\r\n        //send to owner\r\n        (bool isRemainderSent, ) = tokenIdToItem[tokenId].owner.call{value: remainder}(\"\");\r\n        require(isRemainderSent, \"Failed to send AVAX\");\r\n\r\n        //transfer the token from the smart contract back to the buyer\r\n        _transfer(address(this), msg.sender, tokenId);\r\n\r\n        //Modify the owner property of the item to be the buyer\r\n        Item storage item = tokenIdToItem[tokenId];\r\n        item.owner = msg.sender;\r\n\r\n        //clean up\r\n        delete tokenIdToListing[tokenId];\r\n        delete claimableByAccount[tokenId];\r\n        delete hasBeenListed[tokenId];\r\n        emit ItemBought(tokenId, msg.value, msg.sender);\r\n    }\r\n\r\n    /**\r\n     * @dev return a listing of a `tokenId`\r\n     */\r\n    function getListing(uint256 tokenId) public view returns (uint256, address)\r\n    {\r\n        return (tokenIdToListing[tokenId].price, tokenIdToListing[tokenId].owner);\r\n    }\r\n\r\n}",
  "sourcePath": "C:\\Users\\Metodi\\Desktop\\ProjectsDapp\\avax-tutorial-nft\\contracts\\Marketplace.sol",
  "compiler": {
    "name": "solc",
    "version": "0.8.6+commit.11564f7e.Emscripten.clang"
  },
  "schemaVersion": "3.4.2",
  "updatedAt": "2021-08-07T17:12:12.295Z",
  "devdoc": {
    "events": {
      "ItemBought(uint256,uint256,address)": {
        "details": "Emitted when a `tokenId` has been bought for a `price` by a `buyer`"
      },
      "ItemListed(uint256,uint256,address)": {
        "details": "Emitted when a `tokenId` has been listed for a `price` by a `seller`"
      },
      "ListingCancelled(uint256,uint256,address)": {
        "details": "Emitted when a `tokenId` listing for a `price` has been cancelled by a `seller`"
      }
    },
    "kind": "dev",
    "methods": {
      "approve(address,uint256)": {
        "details": "See {IERC721-approve}."
      },
      "balanceOf(address)": {
        "details": "See {IERC721-balanceOf}."
      },
      "buyItem(uint256)": {
        "details": "Buy an item with a `tokenId` and pay the owner and the creator Requirements: - `tokenId` has to be listed - `price` needs to be the same as the value sent by the caller Emits a {Transfer} event - transfer the item from this smart contract to the buyer. Emits an {ItemBought} event."
      },
      "cancelListing(uint256)": {
        "details": "Cancel a listing of an item with a `tokenId` Requirements: - Only the account that has listed the `tokenId` can delist it Emits a {Transfer} event - transfer the token from this smart contract to the owner. Emits a {ListingCancelled} event."
      },
      "createCollectible(string,uint256)": {
        "details": "create a collectible with a `metadata` for the msg.sender Requirements: - `metadata` has not been minted before - `royalty` must be between 0% and 40% Emits a {Transfer} event - comes from the ERC-721 smart contract."
      },
      "getApproved(uint256)": {
        "details": "See {IERC721-getApproved}."
      },
      "getItem(uint256)": {
        "details": "return an item associated to a provided `tokenId`"
      },
      "getItemsLength()": {
        "details": "return the length of the items array"
      },
      "getListing(uint256)": {
        "details": "return a listing of a `tokenId`"
      },
      "isApprovedForAll(address,address)": {
        "details": "See {IERC721-isApprovedForAll}."
      },
      "listItem(uint256,uint256)": {
        "details": "list an item with a `tokenId` for a `price` Requirements: - Only the owner of the `tokenId` can list the item - The `tokenId` can only be listed once Emits a {Transfer} event - transfer the token to this smart contract. Emits a {ItemListed} event"
      },
      "name()": {
        "details": "See {IERC721Metadata-name}."
      },
      "ownerOf(uint256)": {
        "details": "See {IERC721-ownerOf}."
      },
      "safeTransferFrom(address,address,uint256)": {
        "details": "See {IERC721-safeTransferFrom}."
      },
      "safeTransferFrom(address,address,uint256,bytes)": {
        "details": "See {IERC721-safeTransferFrom}."
      },
      "setApprovalForAll(address,bool)": {
        "details": "See {IERC721-setApprovalForAll}."
      },
      "supportsInterface(bytes4)": {
        "details": "See {IERC165-supportsInterface}."
      },
      "symbol()": {
        "details": "See {IERC721Metadata-symbol}."
      },
      "tokenURI(uint256)": {
        "details": "See {IERC721Metadata-tokenURI}."
      },
      "transferFrom(address,address,uint256)": {
        "details": "See {IERC721-transferFrom}."
      }
    },
    "version": 1
  },
  "userdoc": {
    "kind": "user",
    "methods": {},
    "version": 1
  }
}