{
  "abi": [
    {
      "type": "function",
      "name": "packConversionData",
      "inputs": [
        {
          "name": "conversionData",
          "type": "tuple",
          "internalType": "struct ConversionData",
          "components": [
            {
              "name": "l1ID",
              "type": "bytes32",
              "internalType": "bytes32"
            },
            {
              "name": "validatorManagerBlockchainID",
              "type": "bytes32",
              "internalType": "bytes32"
            },
            {
              "name": "validatorManagerAddress",
              "type": "address",
              "internalType": "address"
            },
            {
              "name": "initialValidators",
              "type": "tuple[]",
              "internalType": "struct InitialValidator[]",
              "components": [
                {
                  "name": "nodeID",
                  "type": "bytes",
                  "internalType": "bytes"
                },
                {
                  "name": "blsPublicKey",
                  "type": "bytes",
                  "internalType": "bytes"
                },
                {
                  "name": "weight",
                  "type": "uint64",
                  "internalType": "uint64"
                }
              ]
            }
          ]
        }
      ],
      "outputs": [
        {
          "name": "",
          "type": "bytes",
          "internalType": "bytes"
        }
      ],
      "stateMutability": "pure"
    },
    {
      "type": "function",
      "name": "packL1ValidatorRegistrationMessage",
      "inputs": [
        {
          "name": "validationID",
          "type": "bytes32",
          "internalType": "bytes32"
        },
        {
          "name": "valid",
          "type": "bool",
          "internalType": "bool"
        }
      ],
      "outputs": [
        {
          "name": "",
          "type": "bytes",
          "internalType": "bytes"
        }
      ],
      "stateMutability": "pure"
    },
    {
      "type": "function",
      "name": "packL1ValidatorWeightMessage",
      "inputs": [
        {
          "name": "validationID",
          "type": "bytes32",
          "internalType": "bytes32"
        },
        {
          "name": "nonce",
          "type": "uint64",
          "internalType": "uint64"
        },
        {
          "name": "weight",
          "type": "uint64",
          "internalType": "uint64"
        }
      ],
      "outputs": [
        {
          "name": "",
          "type": "bytes",
          "internalType": "bytes"
        }
      ],
      "stateMutability": "pure"
    },
    {
      "type": "function",
      "name": "packRegisterL1ValidatorMessage",
      "inputs": [
        {
          "name": "validationPeriod",
          "type": "tuple",
          "internalType": "struct ValidatorMessages.ValidationPeriod",
          "components": [
            {
              "name": "l1ID",
              "type": "bytes32",
              "internalType": "bytes32"
            },
            {
              "name": "nodeID",
              "type": "bytes",
              "internalType": "bytes"
            },
            {
              "name": "blsPublicKey",
              "type": "bytes",
              "internalType": "bytes"
            },
            {
              "name": "registrationExpiry",
              "type": "uint64",
              "internalType": "uint64"
            },
            {
              "name": "remainingBalanceOwner",
              "type": "tuple",
              "internalType": "struct PChainOwner",
              "components": [
                {
                  "name": "threshold",
                  "type": "uint32",
                  "internalType": "uint32"
                },
                {
                  "name": "addresses",
                  "type": "address[]",
                  "internalType": "address[]"
                }
              ]
            },
            {
              "name": "disableOwner",
              "type": "tuple",
              "internalType": "struct PChainOwner",
              "components": [
                {
                  "name": "threshold",
                  "type": "uint32",
                  "internalType": "uint32"
                },
                {
                  "name": "addresses",
                  "type": "address[]",
                  "internalType": "address[]"
                }
              ]
            },
            {
              "name": "weight",
              "type": "uint64",
              "internalType": "uint64"
            }
          ]
        }
      ],
      "outputs": [
        {
          "name": "",
          "type": "bytes32",
          "internalType": "bytes32"
        },
        {
          "name": "",
          "type": "bytes",
          "internalType": "bytes"
        }
      ],
      "stateMutability": "pure"
    },
    {
      "type": "function",
      "name": "packSubnetToL1ConversionMessage",
      "inputs": [
        {
          "name": "conversionID",
          "type": "bytes32",
          "internalType": "bytes32"
        }
      ],
      "outputs": [
        {
          "name": "",
          "type": "bytes",
          "internalType": "bytes"
        }
      ],
      "stateMutability": "pure"
    },
    {
      "type": "function",
      "name": "packValidationUptimeMessage",
      "inputs": [
        {
          "name": "validationID",
          "type": "bytes32",
          "internalType": "bytes32"
        },
        {
          "name": "uptime",
          "type": "uint64",
          "internalType": "uint64"
        }
      ],
      "outputs": [
        {
          "name": "",
          "type": "bytes",
          "internalType": "bytes"
        }
      ],
      "stateMutability": "pure"
    },
    {
      "type": "function",
      "name": "unpackL1ValidatorRegistrationMessage",
      "inputs": [
        {
          "name": "input",
          "type": "bytes",
          "internalType": "bytes"
        }
      ],
      "outputs": [
        {
          "name": "",
          "type": "bytes32",
          "internalType": "bytes32"
        },
        {
          "name": "",
          "type": "bool",
          "internalType": "bool"
        }
      ],
      "stateMutability": "pure"
    },
    {
      "type": "function",
      "name": "unpackL1ValidatorWeightMessage",
      "inputs": [
        {
          "name": "input",
          "type": "bytes",
          "internalType": "bytes"
        }
      ],
      "outputs": [
        {
          "name": "",
          "type": "bytes32",
          "internalType": "bytes32"
        },
        {
          "name": "",
          "type": "uint64",
          "internalType": "uint64"
        },
        {
          "name": "",
          "type": "uint64",
          "internalType": "uint64"
        }
      ],
      "stateMutability": "pure"
    },
    {
      "type": "function",
      "name": "unpackRegisterL1ValidatorMessage",
      "inputs": [
        {
          "name": "input",
          "type": "bytes",
          "internalType": "bytes"
        }
      ],
      "outputs": [
        {
          "name": "",
          "type": "tuple",
          "internalType": "struct ValidatorMessages.ValidationPeriod",
          "components": [
            {
              "name": "l1ID",
              "type": "bytes32",
              "internalType": "bytes32"
            },
            {
              "name": "nodeID",
              "type": "bytes",
              "internalType": "bytes"
            },
            {
              "name": "blsPublicKey",
              "type": "bytes",
              "internalType": "bytes"
            },
            {
              "name": "registrationExpiry",
              "type": "uint64",
              "internalType": "uint64"
            },
            {
              "name": "remainingBalanceOwner",
              "type": "tuple",
              "internalType": "struct PChainOwner",
              "components": [
                {
                  "name": "threshold",
                  "type": "uint32",
                  "internalType": "uint32"
                },
                {
                  "name": "addresses",
                  "type": "address[]",
                  "internalType": "address[]"
                }
              ]
            },
            {
              "name": "disableOwner",
              "type": "tuple",
              "internalType": "struct PChainOwner",
              "components": [
                {
                  "name": "threshold",
                  "type": "uint32",
                  "internalType": "uint32"
                },
                {
                  "name": "addresses",
                  "type": "address[]",
                  "internalType": "address[]"
                }
              ]
            },
            {
              "name": "weight",
              "type": "uint64",
              "internalType": "uint64"
            }
          ]
        }
      ],
      "stateMutability": "pure"
    },
    {
      "type": "function",
      "name": "unpackSubnetToL1ConversionMessage",
      "inputs": [
        {
          "name": "input",
          "type": "bytes",
          "internalType": "bytes"
        }
      ],
      "outputs": [
        {
          "name": "",
          "type": "bytes32",
          "internalType": "bytes32"
        }
      ],
      "stateMutability": "pure"
    },
    {
      "type": "function",
      "name": "unpackValidationUptimeMessage",
      "inputs": [
        {
          "name": "input",
          "type": "bytes",
          "internalType": "bytes"
        }
      ],
      "outputs": [
        {
          "name": "",
          "type": "bytes32",
          "internalType": "bytes32"
        },
        {
          "name": "",
          "type": "uint64",
          "internalType": "uint64"
        }
      ],
      "stateMutability": "pure"
    },
    {
      "type": "error",
      "name": "InvalidBLSPublicKey",
      "inputs": []
    },
    {
      "type": "error",
      "name": "InvalidCodecID",
      "inputs": [
        {
          "name": "id",
          "type": "uint32",
          "internalType": "uint32"
        }
      ]
    },
    {
      "type": "error",
      "name": "InvalidMessageLength",
      "inputs": [
        {
          "name": "actual",
          "type": "uint32",
          "internalType": "uint32"
        },
        {
          "name": "expected",
          "type": "uint32",
          "internalType": "uint32"
        }
      ]
    },
    {
      "type": "error",
      "name": "InvalidMessageType",
      "inputs": []
    }
  ],
  "bytecode": {
    "object": "0x612152610034600b8282823980515f1a607314602857634e487b7160e01b5f525f60045260245ffd5b305f52607381538281f3fe73000000000000000000000000000000000000000030146080604052600436106100b1575f3560e01c8063854a893f11610079578063854a893f146101b257806387418b8e1461020f5780639b83546514610222578063a699c13514610242578063e1d68f3014610255578063eb97ce5114610268575f80fd5b8063021de88f146100b5578063088c2463146100e25780634d8478841461011257806350782b0f146101335780637f7c427a1461016b575b5f80fd5b6100c86100c33660046118a9565b610289565b604080519283529015156020830152015b60405180910390f35b6100f56100f03660046118a9565b61044a565b604080519283526001600160401b039091166020830152016100d9565b6101256101203660046118a9565b61063b565b6040519081526020016100d9565b6101466101413660046118a9565b6107c8565b604080519384526001600160401b0392831660208501529116908201526060016100d9565b6101a56101793660046118e2565b604080515f60208201819052602282015260268082019390935281518082039093018352604601905290565b6040516100d99190611946565b6101a56101c036600461197a565b604080515f6020820152600360e01b602282015260268101949094526001600160c01b031960c093841b811660468601529190921b16604e830152805180830360360181526056909201905290565b6101a561021d3660046119eb565b610a1e565b6102356102303660046118a9565b610b60565b6040516100d99190611bb4565b6101a5610250366004611c6b565b6114ab565b6101a5610263366004611c9d565b6114ef565b61027b610276366004611d80565b611525565b6040516100d9929190611e7c565b5f8082516027146102c457825160405163cc92daa160e01b815263ffffffff9091166004820152602760248201526044015b60405180910390fd5b5f805b6002811015610313576102db816001611ea8565b6102e6906008611ebb565b61ffff168582815181106102fc576102fc611ed2565b016020015160f81c901b91909117906001016102c7565b5061ffff81161561033d5760405163407b587360e01b815261ffff821660048201526024016102bb565b5f805b600481101561039857610354816003611ea8565b61035f906008611ebb565b63ffffffff1686610371836002611ee6565b8151811061038157610381611ed2565b016020015160f81c901b9190911790600101610340565b5063ffffffff81166002146103c057604051635b60892f60e01b815260040160405180910390fd5b5f805b6020811015610415576103d781601f611ea8565b6103e2906008611ebb565b876103ee836006611ee6565b815181106103fe576103fe611ed2565b016020015160f81c901b91909117906001016103c3565b505f8660268151811061042a5761042a611ed2565b016020015191976001600160f81b03199092161515965090945050505050565b5f808251602e1461048057825160405163cc92daa160e01b815263ffffffff9091166004820152602e60248201526044016102bb565b5f805b60028110156104cf57610497816001611ea8565b6104a2906008611ebb565b61ffff168582815181106104b8576104b8611ed2565b016020015160f81c901b9190911790600101610483565b5061ffff8116156104f95760405163407b587360e01b815261ffff821660048201526024016102bb565b5f805b600481101561055457610510816003611ea8565b61051b906008611ebb565b63ffffffff168661052d836002611ee6565b8151811061053d5761053d611ed2565b016020015160f81c901b91909117906001016104fc565b5063ffffffff81161561057a57604051635b60892f60e01b815260040160405180910390fd5b5f805b60208110156105cf5761059181601f611ea8565b61059c906008611ebb565b876105a8836006611ee6565b815181106105b8576105b8611ed2565b016020015160f81c901b919091179060010161057d565b505f805b600881101561062e576105e7816007611ea8565b6105f2906008611ebb565b6001600160401b031688610607836026611ee6565b8151811061061757610617611ed2565b016020015160f81c901b91909117906001016105d3565b5090969095509350505050565b5f815160261461067057815160405163cc92daa160e01b815263ffffffff9091166004820152602660248201526044016102bb565b5f805b60028110156106bf57610687816001611ea8565b610692906008611ebb565b61ffff168482815181106106a8576106a8611ed2565b016020015160f81c901b9190911790600101610673565b5061ffff8116156106e95760405163407b587360e01b815261ffff821660048201526024016102bb565b5f805b600481101561074457610700816003611ea8565b61070b906008611ebb565b63ffffffff168561071d836002611ee6565b8151811061072d5761072d611ed2565b016020015160f81c901b91909117906001016106ec565b5063ffffffff81161561076a57604051635b60892f60e01b815260040160405180910390fd5b5f805b60208110156107bf5761078181601f611ea8565b61078c906008611ebb565b86610798836006611ee6565b815181106107a8576107a8611ed2565b016020015160f81c901b919091179060010161076d565b50949350505050565b5f805f83516036146107ff57835160405163cc92daa160e01b815263ffffffff9091166004820152603660248201526044016102bb565b5f805b600281101561084e57610816816001611ea8565b610821906008611ebb565b61ffff1686828151811061083757610837611ed2565b016020015160f81c901b9190911790600101610802565b5061ffff8116156108785760405163407b587360e01b815261ffff821660048201526024016102bb565b5f805b60048110156108d35761088f816003611ea8565b61089a906008611ebb565b63ffffffff16876108ac836002611ee6565b815181106108bc576108bc611ed2565b016020015160f81c901b919091179060010161087b565b5063ffffffff81166003146108fb57604051635b60892f60e01b815260040160405180910390fd5b5f805b60208110156109505761091281601f611ea8565b61091d906008611ebb565b88610929836006611ee6565b8151811061093957610939611ed2565b016020015160f81c901b91909117906001016108fe565b505f805b60088110156109af57610968816007611ea8565b610973906008611ebb565b6001600160401b031689610988836026611ee6565b8151811061099857610998611ed2565b016020015160f81c901b9190911790600101610954565b505f805b6008811015610a0e576109c7816007611ea8565b6109d2906008611ebb565b6001600160401b03168a6109e783602e611ee6565b815181106109f7576109f7611ed2565b016020015160f81c901b91909117906001016109b3565b5091989097509095509350505050565b80516020808301516040808501516060868101515192515f95810186905260228101969096526042860193909352600560e21b60628601526bffffffffffffffffffffffff1990831b16606685015260e01b6001600160e01b031916607a84015291607e0160405160208183030381529060405290505f5b836060015151811015610b59578184606001518281518110610aba57610aba611ed2565b60200260200101515f01515185606001518381518110610adc57610adc611ed2565b60200260200101515f015186606001518481518110610afd57610afd611ed2565b60200260200101516020015187606001518581518110610b1f57610b1f611ed2565b602002602001015160400151604051602001610b3f959493929190611ef9565b60408051601f198184030181529190529150600101610a96565b5092915050565b610b68611712565b5f610b71611712565b5f805b6002811015610bcf57610b88816001611ea8565b610b93906008611ebb565b61ffff1686610ba863ffffffff871684611ee6565b81518110610bb857610bb8611ed2565b016020015160f81c901b9190911790600101610b74565b5061ffff811615610bf95760405163407b587360e01b815261ffff821660048201526024016102bb565b610c04600284611f72565b9250505f805b6004811015610c6957610c1e816003611ea8565b610c29906008611ebb565b63ffffffff16868563ffffffff1683610c429190611ee6565b81518110610c5257610c52611ed2565b016020015160f81c901b9190911790600101610c0a565b5063ffffffff8116600114610c9157604051635b60892f60e01b815260040160405180910390fd5b610c9c600484611f72565b9250505f805b6020811015610cf957610cb681601f611ea8565b610cc1906008611ebb565b86610cd263ffffffff871684611ee6565b81518110610ce257610ce2611ed2565b016020015160f81c901b9190911790600101610ca2565b50808252610d08602084611f72565b9250505f805b6004811015610d6d57610d22816003611ea8565b610d2d906008611ebb565b63ffffffff16868563ffffffff1683610d469190611ee6565b81518110610d5657610d56611ed2565b016020015160f81c901b9190911790600101610d0e565b50610d79600484611f72565b92505f8163ffffffff166001600160401b03811115610d9a57610d9a61176c565b6040519080825280601f01601f191660200182016040528015610dc4576020820181803683370190505b5090505f5b8263ffffffff16811015610e335786610de863ffffffff871683611ee6565b81518110610df857610df8611ed2565b602001015160f81c60f81b828281518110610e1557610e15611ed2565b60200101906001600160f81b03191690815f1a905350600101610dc9565b5060208301819052610e458285611f72565b604080516030808252606082019092529195505f92506020820181803683370190505090505f5b6030811015610ed15786610e8663ffffffff871683611ee6565b81518110610e9657610e96611ed2565b602001015160f81c60f81b828281518110610eb357610eb3611ed2565b60200101906001600160f81b03191690815f1a905350600101610e6c565b5060408301819052610ee4603085611f72565b9350505f805b6008811015610f4a57610efe816007611ea8565b610f09906008611ebb565b6001600160401b031687610f2363ffffffff881684611ee6565b81518110610f3357610f33611ed2565b016020015160f81c901b9190911790600101610eea565b506001600160401b0381166060840152610f65600885611f72565b9350505f805f5b6004811015610fcb57610f80816003611ea8565b610f8b906008611ebb565b63ffffffff16888763ffffffff1683610fa49190611ee6565b81518110610fb457610fb4611ed2565b016020015160f81c901b9190911790600101610f6c565b50610fd7600486611f72565b94505f5b600481101561103a57610fef816003611ea8565b610ffa906008611ebb565b63ffffffff16888763ffffffff16836110139190611ee6565b8151811061102357611023611ed2565b016020015160f81c901b9290921791600101610fdb565b50611046600486611f72565b94505f8263ffffffff166001600160401b038111156110675761106761176c565b604051908082528060200260200182016040528015611090578160200160208202803683370190505b5090505f5b8363ffffffff16811015611178576040805160148082528183019092525f916020820181803683370190505090505f5b601481101561112a578a6110df63ffffffff8b1683611ee6565b815181106110ef576110ef611ed2565b602001015160f81c60f81b82828151811061110c5761110c611ed2565b60200101906001600160f81b03191690815f1a9053506001016110c5565b505f601482015190508084848151811061114657611146611ed2565b6001600160a01b039092166020928302919091019091015261116960148a611f72565b98505050806001019050611095565b506040805180820190915263ffffffff9092168252602082015260808401525f80805b60048110156111fa576111af816003611ea8565b6111ba906008611ebb565b63ffffffff16898863ffffffff16836111d39190611ee6565b815181106111e3576111e3611ed2565b016020015160f81c901b919091179060010161119b565b50611206600487611f72565b95505f5b60048110156112695761121e816003611ea8565b611229906008611ebb565b63ffffffff16898863ffffffff16836112429190611ee6565b8151811061125257611252611ed2565b016020015160f81c901b929092179160010161120a565b50611275600487611f72565b95505f8263ffffffff166001600160401b038111156112965761129661176c565b6040519080825280602002602001820160405280156112bf578160200160208202803683370190505b5090505f5b8363ffffffff168110156113a7576040805160148082528183019092525f916020820181803683370190505090505f5b6014811015611359578b61130e63ffffffff8c1683611ee6565b8151811061131e5761131e611ed2565b602001015160f81c60f81b82828151811061133b5761133b611ed2565b60200101906001600160f81b03191690815f1a9053506001016112f4565b505f601482015190508084848151811061137557611375611ed2565b6001600160a01b039092166020928302919091019091015261139860148b611f72565b995050508060010190506112c4565b506040805180820190915263ffffffff9092168252602082015260a08501525f6113d18284611f72565b6113dc906014611f8f565b6113e785607a611f72565b6113f19190611f72565b90508063ffffffff1688511461142d57875160405163cc92daa160e01b815263ffffffff918216600482015290821660248201526044016102bb565b5f805b600881101561149057611444816007611ea8565b61144f906008611ebb565b6001600160401b03168a61146963ffffffff8b1684611ee6565b8151811061147957611479611ed2565b016020015160f81c901b9190911790600101611430565b506001600160401b031660c086015250929695505050505050565b6040515f6020820152600160e11b60228201526026810183905281151560f81b60468201526060906047015b60405160208183030381529060405290505b92915050565b6040515f602082018190526022820152602681018390526001600160c01b031960c083901b166046820152606090604e016114d7565b5f606082604001515160301461154e5760405163180ffa0d60e01b815260040160405180910390fd5b82516020808501518051604080880151606089015160808a01518051908701515193515f9861158f988a986001989297929690959094909390929101611fb7565b60405160208183030381529060405290505f5b84608001516020015151811015611601578185608001516020015182815181106115ce576115ce611ed2565b60200260200101516040516020016115e7929190612071565b60408051601f1981840301815291905291506001016115a2565b5060a08401518051602091820151516040516116219385939291016120a7565b60405160208183030381529060405290505f5b8460a00151602001515181101561169357818560a0015160200151828151811061166057611660611ed2565b6020026020010151604051602001611679929190612071565b60408051601f198184030181529190529150600101611634565b5060c08401516040516116aa9183916020016120e2565b60405160208183030381529060405290506002816040516116cb9190612113565b602060405180830381855afa1580156116e6573d5f803e3d5ffd5b5050506040513d601f19601f82011682018060405250810190611709919061212e565b94909350915050565b6040805160e0810182525f808252606060208084018290528385018290528184018390528451808601865283815280820183905260808501528451808601909552918452908301529060a082019081525f60209091015290565b634e487b7160e01b5f52604160045260245ffd5b604051608081016001600160401b03811182821017156117a2576117a261176c565b60405290565b604051606081016001600160401b03811182821017156117a2576117a261176c565b604080519081016001600160401b03811182821017156117a2576117a261176c565b60405160e081016001600160401b03811182821017156117a2576117a261176c565b604051601f8201601f191681016001600160401b03811182821017156118365761183661176c565b604052919050565b5f82601f83011261184d575f80fd5b81356001600160401b038111156118665761186661176c565b611879601f8201601f191660200161180e565b81815284602083860101111561188d575f80fd5b816020850160208301375f918101602001919091529392505050565b5f602082840312156118b9575f80fd5b81356001600160401b038111156118ce575f80fd5b6118da8482850161183e565b949350505050565b5f602082840312156118f2575f80fd5b5035919050565b5f5b838110156119135781810151838201526020016118fb565b50505f910152565b5f81518084526119328160208601602086016118f9565b601f01601f19169290920160200192915050565b602081525f611958602083018461191b565b9392505050565b80356001600160401b0381168114611975575f80fd5b919050565b5f805f6060848603121561198c575f80fd5b8335925061199c6020850161195f565b91506119aa6040850161195f565b90509250925092565b80356001600160a01b0381168114611975575f80fd5b5f6001600160401b038211156119e1576119e161176c565b5060051b60200190565b5f60208083850312156119fc575f80fd5b82356001600160401b0380821115611a12575f80fd5b9084019060808287031215611a25575f80fd5b611a2d611780565b823581528383013584820152611a45604084016119b3565b604082015260608084013583811115611a5c575f80fd5b80850194505087601f850112611a70575f80fd5b8335611a83611a7e826119c9565b61180e565b81815260059190911b8501860190868101908a831115611aa1575f80fd5b8787015b83811015611b3a57803587811115611abb575f80fd5b8801808d03601f1901861315611acf575f80fd5b611ad76117a8565b8a82013589811115611ae7575f80fd5b611af58f8d8386010161183e565b825250604082013589811115611b09575f80fd5b611b178f8d8386010161183e565b8c83015250611b2787830161195f565b6040820152845250918801918801611aa5565b506060850152509198975050505050505050565b5f6040830163ffffffff8351168452602080840151604060208701528281518085526060880191506020830194505f92505b80831015611ba95784516001600160a01b03168252938301936001929092019190830190611b80565b509695505050505050565b60208152815160208201525f602083015160e06040840152611bda61010084018261191b565b90506040840151601f1980858403016060860152611bf8838361191b565b92506001600160401b03606087015116608086015260808601519150808584030160a0860152611c288383611b4e565b925060a08601519150808584030160c086015250611c468282611b4e565b91505060c0840151611c6360e08501826001600160401b03169052565b509392505050565b5f8060408385031215611c7c575f80fd5b8235915060208301358015158114611c92575f80fd5b809150509250929050565b5f8060408385031215611cae575f80fd5b82359150611cbe6020840161195f565b90509250929050565b5f60408284031215611cd7575f80fd5b611cdf6117ca565b9050813563ffffffff81168114611cf4575f80fd5b81526020828101356001600160401b03811115611d0f575f80fd5b8301601f81018513611d1f575f80fd5b8035611d2d611a7e826119c9565b81815260059190911b82018301908381019087831115611d4b575f80fd5b928401925b82841015611d7057611d61846119b3565b82529284019290840190611d50565b8085870152505050505092915050565b5f60208284031215611d90575f80fd5b81356001600160401b0380821115611da6575f80fd5b9083019060e08286031215611db9575f80fd5b611dc16117ec565b82358152602083013582811115611dd6575f80fd5b611de28782860161183e565b602083015250604083013582811115611df9575f80fd5b611e058782860161183e565b604083015250611e176060840161195f565b6060820152608083013582811115611e2d575f80fd5b611e3987828601611cc7565b60808301525060a083013582811115611e50575f80fd5b611e5c87828601611cc7565b60a083015250611e6e60c0840161195f565b60c082015295945050505050565b828152604060208201525f6118da604083018461191b565b634e487b7160e01b5f52601160045260245ffd5b818103818111156114e9576114e9611e94565b80820281158282048414176114e9576114e9611e94565b634e487b7160e01b5f52603260045260245ffd5b808201808211156114e9576114e9611e94565b5f8651611f0a818460208b016118f9565b60e087901b6001600160e01b0319169083019081528551611f32816004840160208a016118f9565b8551910190611f488160048401602089016118f9565b60c09490941b6001600160c01b031916600491909401908101939093525050600c01949350505050565b63ffffffff818116838216019080821115610b5957610b59611e94565b63ffffffff818116838216028082169190828114611faf57611faf611e94565b505092915050565b61ffff60f01b8a60f01b1681525f63ffffffff60e01b808b60e01b166002840152896006840152808960e01b166026840152508651611ffd81602a850160208b016118f9565b86519083019061201481602a840160208b016118f9565b60c087901b6001600160c01b031916602a9290910191820152612046603282018660e01b6001600160e01b0319169052565b61205f603682018560e01b6001600160e01b0319169052565b603a019b9a5050505050505050505050565b5f83516120828184602088016118f9565b60609390931b6bffffffffffffffffffffffff19169190920190815260140192915050565b5f84516120b88184602089016118f9565b6001600160e01b031960e095861b8116919093019081529290931b16600482015260080192915050565b5f83516120f38184602088016118f9565b60c09390931b6001600160c01b0319169190920190815260080192915050565b5f82516121248184602087016118f9565b9190910192915050565b5f6020828403121561213e575f80fd5b505191905056fea164736f6c6343000819000a",
    "linkReferences": {}
  },
  "methodIdentifiers": {
    "packConversionData(ConversionData)": "87418b8e",
    "packL1ValidatorRegistrationMessage(bytes32,bool)": "a699c135",
    "packL1ValidatorWeightMessage(bytes32,uint64,uint64)": "854a893f",
    "packRegisterL1ValidatorMessage(ValidatorMessages.ValidationPeriod)": "eb97ce51",
    "packSubnetToL1ConversionMessage(bytes32)": "7f7c427a",
    "packValidationUptimeMessage(bytes32,uint64)": "e1d68f30",
    "unpackL1ValidatorRegistrationMessage(bytes)": "021de88f",
    "unpackL1ValidatorWeightMessage(bytes)": "50782b0f",
    "unpackRegisterL1ValidatorMessage(bytes)": "9b835465",
    "unpackSubnetToL1ConversionMessage(bytes)": "4d847884",
    "unpackValidationUptimeMessage(bytes)": "088c2463"
  },
  "id": 97
}